{
  "contractName": "Exchange",
  "abi": [
    {
      "inputs": [],
      "stateMutability": "nonpayable",
      "type": "constructor"
    },
    {
      "inputs": [
        {
          "internalType": "address",
          "name": "",
          "type": "address"
        }
      ],
      "name": "tokensData",
      "outputs": [
        {
          "internalType": "uint256",
          "name": "price",
          "type": "uint256"
        },
        {
          "internalType": "string",
          "name": "symbol",
          "type": "string"
        }
      ],
      "stateMutability": "view",
      "type": "function",
      "constant": true
    },
    {
      "inputs": [
        {
          "internalType": "address",
          "name": "token",
          "type": "address"
        },
        {
          "internalType": "uint256",
          "name": "_price",
          "type": "uint256"
        },
        {
          "internalType": "string",
          "name": "_symbol",
          "type": "string"
        }
      ],
      "name": "createPool",
      "outputs": [],
      "stateMutability": "nonpayable",
      "type": "function"
    },
    {
      "inputs": [
        {
          "internalType": "address",
          "name": "token",
          "type": "address"
        },
        {
          "internalType": "uint256",
          "name": "_price",
          "type": "uint256"
        }
      ],
      "name": "updatePrice",
      "outputs": [],
      "stateMutability": "nonpayable",
      "type": "function"
    },
    {
      "inputs": [
        {
          "internalType": "address[]",
          "name": "tokens",
          "type": "address[]"
        },
        {
          "internalType": "uint256[]",
          "name": "_prices",
          "type": "uint256[]"
        }
      ],
      "name": "updatePrices",
      "outputs": [],
      "stateMutability": "nonpayable",
      "type": "function"
    },
    {
      "inputs": [
        {
          "internalType": "address",
          "name": "token",
          "type": "address"
        }
      ],
      "name": "getPrice",
      "outputs": [
        {
          "internalType": "uint256",
          "name": "",
          "type": "uint256"
        }
      ],
      "stateMutability": "view",
      "type": "function",
      "constant": true
    },
    {
      "inputs": [
        {
          "internalType": "address",
          "name": "token",
          "type": "address"
        }
      ],
      "name": "getBalance",
      "outputs": [
        {
          "internalType": "uint256",
          "name": "",
          "type": "uint256"
        }
      ],
      "stateMutability": "view",
      "type": "function",
      "constant": true
    },
    {
      "inputs": [
        {
          "internalType": "address",
          "name": "token1",
          "type": "address"
        },
        {
          "internalType": "address",
          "name": "token2",
          "type": "address"
        },
        {
          "internalType": "uint256",
          "name": "amountReceive",
          "type": "uint256"
        },
        {
          "internalType": "address payable",
          "name": "user",
          "type": "address"
        }
      ],
      "name": "exchange",
      "outputs": [],
      "stateMutability": "nonpayable",
      "type": "function"
    }
  ],
  "bytecode": "0x608060405234801561001057600080fd5b50336000806101000a81548173ffffffffffffffffffffffffffffffffffffffff021916908373ffffffffffffffffffffffffffffffffffffffff16021790555061149f806100606000396000f3fe608060405234801561001057600080fd5b506004361061007d5760003560e01c806396f770601161005b57806396f77060146101b6578063ac66c6e014610302578063c89005ad146103c6578063f8b2cb4f146104ab5761007d565b806341976e0914610082578063457972de146100da5780634f9ebaf414610128575b600080fd5b6100c46004803603602081101561009857600080fd5b81019080803573ffffffffffffffffffffffffffffffffffffffff169060200190929190505050610503565b6040518082815260200191505060405180910390f35b610126600480360360408110156100f057600080fd5b81019080803573ffffffffffffffffffffffffffffffffffffffff16906020019092919080359060200190929190505050610684565b005b6101b46004803603608081101561013e57600080fd5b81019080803573ffffffffffffffffffffffffffffffffffffffff169060200190929190803573ffffffffffffffffffffffffffffffffffffffff16906020019092919080359060200190929190803573ffffffffffffffffffffffffffffffffffffffff1690602001909291905050506108a9565b005b610300600480360360408110156101cc57600080fd5b81019080803590602001906401000000008111156101e957600080fd5b8201836020820111156101fb57600080fd5b8035906020019184602083028401116401000000008311171561021d57600080fd5b919080806020026020016040519081016040528093929190818152602001838360200280828437600081840152601f19601f8201169050808301925050505050505091929192908035906020019064010000000081111561027d57600080fd5b82018360208201111561028f57600080fd5b803590602001918460208302840111640100000000831117156102b157600080fd5b919080806020026020016040519081016040528093929190818152602001838360200280828437600081840152601f19601f820116905080830192505050505050509192919290505050610c94565b005b6103446004803603602081101561031857600080fd5b81019080803573ffffffffffffffffffffffffffffffffffffffff169060200190929190505050610f5c565b6040518083815260200180602001828103825283818151815260200191508051906020019080838360005b8381101561038a57808201518184015260208101905061036f565b50505050905090810190601f1680156103b75780820380516001836020036101000a031916815260200191505b50935050505060405180910390f35b6104a9600480360360608110156103dc57600080fd5b81019080803573ffffffffffffffffffffffffffffffffffffffff169060200190929190803590602001909291908035906020019064010000000081111561042357600080fd5b82018360208201111561043557600080fd5b8035906020019184600183028401116401000000008311171561045757600080fd5b91908080601f016020809104026020016040519081016040528093929190818152602001838380828437600081840152601f19601f820116905080830192505050505050509192919290505050611018565b005b6104ed600480360360208110156104c157600080fd5b81019080803573ffffffffffffffffffffffffffffffffffffffff169060200190929190505050611119565b6040518082815260200191505060405180910390f35b60006040518060200160405280600081525080519060200120600160008473ffffffffffffffffffffffffffffffffffffffff1673ffffffffffffffffffffffffffffffffffffffff16815260200190815260200160002060010160405180828054600181600116156101000203166002900480156105b95780601f106105975761010080835404028352918201916105b9565b820191906000526020600020905b8154815290600101906020018083116105a5575b50509150506040518091039020141561063a576040517f08c379a00000000000000000000000000000000000000000000000000000000081526004018080602001828103825260138152602001807f506f6f6c20646f6573206e6f742065786973740000000000000000000000000081525060200191505060405180910390fd5b600160008373ffffffffffffffffffffffffffffffffffffffff1673ffffffffffffffffffffffffffffffffffffffff168152602001908152602001600020600001549050919050565b6000809054906101000a900473ffffffffffffffffffffffffffffffffffffffff1673ffffffffffffffffffffffffffffffffffffffff163373ffffffffffffffffffffffffffffffffffffffff1614610729576040517f08c379a000000000000000000000000000000000000000000000000000000000815260040180806020018281038252602a815260200180611440602a913960400191505060405180910390fd5b6040518060200160405280600081525080519060200120600160008473ffffffffffffffffffffffffffffffffffffffff1673ffffffffffffffffffffffffffffffffffffffff16815260200190815260200160002060010160405180828054600181600116156101000203166002900480156107dd5780601f106107bb5761010080835404028352918201916107dd565b820191906000526020600020905b8154815290600101906020018083116107c9575b50509150506040518091039020141561085e576040517f08c379a00000000000000000000000000000000000000000000000000000000081526004018080602001828103825260138152602001807f506f6f6c20646f6573206e6f742065786973740000000000000000000000000081525060200191505060405180910390fd5b80600160008473ffffffffffffffffffffffffffffffffffffffff1673ffffffffffffffffffffffffffffffffffffffff168152602001908152602001600020600001819055505050565b6000600160008573ffffffffffffffffffffffffffffffffffffffff1673ffffffffffffffffffffffffffffffffffffffff16815260200190815260200160002060000154600160008773ffffffffffffffffffffffffffffffffffffffff1673ffffffffffffffffffffffffffffffffffffffff168152602001908152602001600020600001548161093857fe5b04830290508061094785611119565b10156109bb576040517f08c379a00000000000000000000000000000000000000000000000000000000081526004018080602001828103825260168152602001807f4e6f7420656e6f75676820746f2065786367616e67650000000000000000000081525060200191505060405180910390fd5b6040518060200160405280600081525080519060200120600160008773ffffffffffffffffffffffffffffffffffffffff1673ffffffffffffffffffffffffffffffffffffffff1681526020019081526020016000206001016040518082805460018160011615610100020316600290048015610a6f5780601f10610a4d576101008083540402835291820191610a6f565b820191906000526020600020905b815481529060010190602001808311610a5b575b505091505060405180910390201415610ad3576040517f08c379a00000000000000000000000000000000000000000000000000000000081526004018080602001828103825260238152602001806113f56023913960400191505060405180910390fd5b8473ffffffffffffffffffffffffffffffffffffffff166323b872dd8330866040518463ffffffff1660e01b8152600401808473ffffffffffffffffffffffffffffffffffffffff1673ffffffffffffffffffffffffffffffffffffffff1681526020018373ffffffffffffffffffffffffffffffffffffffff1673ffffffffffffffffffffffffffffffffffffffff1681526020018281526020019350505050602060405180830381600087803b158015610b8e57600080fd5b505af1158015610ba2573d6000803e3d6000fd5b505050506040513d6020811015610bb857600080fd5b8101908080519060200190929190505050508373ffffffffffffffffffffffffffffffffffffffff1663a9059cbb83836040518363ffffffff1660e01b8152600401808373ffffffffffffffffffffffffffffffffffffffff1673ffffffffffffffffffffffffffffffffffffffff16815260200182815260200192505050602060405180830381600087803b158015610c5157600080fd5b505af1158015610c65573d6000803e3d6000fd5b505050506040513d6020811015610c7b57600080fd5b8101908080519060200190929190505050505050505050565b6000809054906101000a900473ffffffffffffffffffffffffffffffffffffffff1673ffffffffffffffffffffffffffffffffffffffff163373ffffffffffffffffffffffffffffffffffffffff1614610d39576040517f08c379a000000000000000000000000000000000000000000000000000000000815260040180806020018281038252602a815260200180611440602a913960400191505060405180910390fd5b8051825114610d93576040517f08c379a00000000000000000000000000000000000000000000000000000000081526004018080602001828103825260218152602001806113d46021913960400191505060405180910390fd5b60008090505b8251811015610f57576000838281518110610db057fe5b602002602001015190506040518060200160405280600081525080519060200120600160008373ffffffffffffffffffffffffffffffffffffffff1673ffffffffffffffffffffffffffffffffffffffff1681526020019081526020016000206001016040518082805460018160011615610100020316600290048015610e6e5780601f10610e4c576101008083540402835291820191610e6e565b820191906000526020600020905b815481529060010190602001808311610e5a575b505091505060405180910390201415610eef576040517f08c379a00000000000000000000000000000000000000000000000000000000081526004018080602001828103825260138152602001807f506f6f6c20646f6573206e6f742065786973740000000000000000000000000081525060200191505060405180910390fd5b828281518110610efb57fe5b6020026020010151600160008373ffffffffffffffffffffffffffffffffffffffff1673ffffffffffffffffffffffffffffffffffffffff16815260200190815260200160002060000181905550508080600101915050610d99565b505050565b6001602052806000526040600020600091509050806000015490806001018054600181600116156101000203166002900480601f01602080910402602001604051908101604052809291908181526020018280546001816001161561010002031660029004801561100e5780601f10610fe35761010080835404028352916020019161100e565b820191906000526020600020905b815481529060010190602001808311610ff157829003601f168201915b5050505050905082565b61102183611315565b611076576040517f08c379a00000000000000000000000000000000000000000000000000000000081526004018080602001828103825260288152602001806114186028913960400191505060405180910390fd5b81600160008573ffffffffffffffffffffffffffffffffffffffff1673ffffffffffffffffffffffffffffffffffffffff1681526020019081526020016000206000018190555080600160008573ffffffffffffffffffffffffffffffffffffffff1673ffffffffffffffffffffffffffffffffffffffff168152602001908152602001600020600101908051906020019061111392919061132e565b50505050565b60006040518060200160405280600081525080519060200120600160008473ffffffffffffffffffffffffffffffffffffffff1673ffffffffffffffffffffffffffffffffffffffff16815260200190815260200160002060010160405180828054600181600116156101000203166002900480156111cf5780601f106111ad5761010080835404028352918201916111cf565b820191906000526020600020905b8154815290600101906020018083116111bb575b505091505060405180910390201415611250576040517f08c379a00000000000000000000000000000000000000000000000000000000081526004018080602001828103825260138152602001807f506f6f6c20646f6573206e6f742065786973740000000000000000000000000081525060200191505060405180910390fd5b60008273ffffffffffffffffffffffffffffffffffffffff166370a08231306040518263ffffffff1660e01b8152600401808273ffffffffffffffffffffffffffffffffffffffff1673ffffffffffffffffffffffffffffffffffffffff16815260200191505060206040518083038186803b1580156112cf57600080fd5b505afa1580156112e3573d6000803e3d6000fd5b505050506040513d60208110156112f957600080fd5b8101908080519060200190929190505050905080915050919050565b600080823b905060008163ffffffff1611915050919050565b828054600181600116156101000203166002900490600052602060002090601f016020900481019282601f1061136f57805160ff191683800117855561139d565b8280016001018555821561139d579182015b8281111561139c578251825591602001919060010190611381565b5b5090506113aa91906113ae565b5090565b6113d091905b808211156113cc5760008160009055506001016113b4565b5090565b9056fe61727261797320646f706e742068617665207468652073616d65206c656e676874506f6f6c20666f7220746f6b656e20676976656e20646f6573206e6f74206578697374546f6b656e20636f6e74726163742061646472657373206973206e6f74206120636f6e74726163744f6e6c79206f776e65722063616e20646f2066756e6374696f6e2063616c6c202845786368616e676529a26469706673582212209621389c479deebb2e8f0dbeccf4fdde17e7c92f97b6a95ad1f807369e8c6ec564736f6c63430006020033",
  "source": "// SPDX-License-Identifier: MIT\npragma solidity >=0.4.22 <0.8.0;\nimport \"./ERC20.sol\";\n\ncontract Exchange{\n\n  constructor() public {\n    owner = msg.sender;\n  }\n\n  address private owner;\n\n  modifier onlyOwner() {\n      require(msg.sender == owner, \"Only owner can do function call (Exchange)\");\n      _;\n  }\n\n  mapping (address => Token) public tokensData;\n\n  struct Token{\n    uint price;\n    string symbol;\n  }\n\n  function createPool(address token, uint _price, string memory _symbol) public{\n    // check if given address is a token\n    require(isContract(token), 'Token contract address is not a contract');\n    tokensData[token].price = _price;\n    tokensData[token].symbol =  _symbol;\n  }\n\n  function updatePrice(address token, uint _price) public onlyOwner{\n    require(keccak256(bytes(tokensData[token].symbol)) != keccak256(bytes(\"\")), \"Pool does not exist\");\n    tokensData[token].price = _price;\n  }\n\n  function updatePrices(address[] memory tokens, uint[] memory _prices) public onlyOwner{\n    require( tokens.length == _prices.length, \"arrays dopnt have the same lenght\");\n    for(uint i=0; i < tokens.length; i++){\n      address token = tokens[i];\n      require(keccak256(bytes(tokensData[token].symbol)) != keccak256(bytes(\"\")), \"Pool does not exist\");\n      tokensData[token].price = _prices[i];\n    }\n  }\n\n\n  // get price of a token\n  function getPrice(address token) public view returns (uint){\n    require(keccak256(bytes(tokensData[token].symbol)) != keccak256(bytes(\"\")), \"Pool does not exist\");\n    return tokensData[token].price;\n  }\n\n  function getBalance(address token) public view returns(uint){\n    // check if the pool was created\n    require(keccak256(bytes(tokensData[token].symbol)) != keccak256(bytes(\"\")), \"Pool does not exist\");\n    uint balance = ERC20(token).balanceOf(address(this));\n    return balance;\n  }\n\n  function exchange(address token1, address token2, uint amountReceive, address payable user) public{\n    // check if the exchange has enough tokens to send\n    uint amountSend = amountReceive*(tokensData[token1].price/tokensData[token2].price);\n    require(getBalance(token2) >= amountSend, \"Not enough to excgange\");\n    // check if a pool for token1 exists\n    require(keccak256(bytes(tokensData[token1].symbol)) != keccak256(bytes(\"\")), \"Pool for token given does not exist\");\n    // receive token1\n    ERC20(token1).transferFrom(user, address(this), amountReceive);\n    // send token 2\n    ERC20(token2).transfer(user,amountSend);\n  }\n\n  function isContract(address _addr) internal view returns (bool){\n    uint32 size;\n    assembly {\n      size := extcodesize(_addr)\n    }\n    return size > 0;\n  }\n\n\n}\n",
  "sourcePath": "/Users/ioanaroceanu/Documents/Project/contracts/Exchange.sol",
  "compiler": {
    "name": "solc",
    "version": "0.6.2+commit.bacdbe57.Emscripten.clang"
  },
  "schemaVersion": "3.3.2",
  "updatedAt": "2021-02-06T09:32:12.861Z",
  "networkType": "ethereum",
  "devdoc": {
    "methods": {}
  },
  "userdoc": {
    "methods": {}
  }
}