{
  "contractName": "Exchange",
  "abi": [
    {
      "inputs": [],
      "stateMutability": "nonpayable",
      "type": "constructor"
    },
    {
      "inputs": [
        {
          "internalType": "address",
          "name": "",
          "type": "address"
        }
      ],
      "name": "tokensData",
      "outputs": [
        {
          "internalType": "uint256",
          "name": "price",
          "type": "uint256"
        },
        {
          "internalType": "string",
          "name": "symbol",
          "type": "string"
        },
        {
          "internalType": "bool",
          "name": "exchangeable",
          "type": "bool"
        }
      ],
      "stateMutability": "view",
      "type": "function",
      "constant": true
    },
    {
      "inputs": [
        {
          "internalType": "address",
          "name": "token",
          "type": "address"
        },
        {
          "internalType": "uint256",
          "name": "_price",
          "type": "uint256"
        },
        {
          "internalType": "string",
          "name": "_symbol",
          "type": "string"
        }
      ],
      "name": "createPool",
      "outputs": [],
      "stateMutability": "nonpayable",
      "type": "function"
    },
    {
      "inputs": [
        {
          "internalType": "address",
          "name": "token",
          "type": "address"
        }
      ],
      "name": "switchToUnexchangable",
      "outputs": [],
      "stateMutability": "nonpayable",
      "type": "function"
    },
    {
      "inputs": [
        {
          "internalType": "address",
          "name": "token",
          "type": "address"
        }
      ],
      "name": "isExchangeable",
      "outputs": [
        {
          "internalType": "bool",
          "name": "",
          "type": "bool"
        }
      ],
      "stateMutability": "view",
      "type": "function",
      "constant": true
    },
    {
      "inputs": [
        {
          "internalType": "address",
          "name": "token",
          "type": "address"
        },
        {
          "internalType": "uint256",
          "name": "_price",
          "type": "uint256"
        }
      ],
      "name": "updatePrice",
      "outputs": [],
      "stateMutability": "nonpayable",
      "type": "function"
    },
    {
      "inputs": [
        {
          "internalType": "address[]",
          "name": "tokens",
          "type": "address[]"
        },
        {
          "internalType": "uint256[]",
          "name": "_prices",
          "type": "uint256[]"
        }
      ],
      "name": "updatePrices",
      "outputs": [],
      "stateMutability": "nonpayable",
      "type": "function"
    },
    {
      "inputs": [
        {
          "internalType": "address",
          "name": "token",
          "type": "address"
        }
      ],
      "name": "getPrice",
      "outputs": [
        {
          "internalType": "uint256",
          "name": "",
          "type": "uint256"
        }
      ],
      "stateMutability": "view",
      "type": "function",
      "constant": true
    },
    {
      "inputs": [
        {
          "internalType": "address",
          "name": "token",
          "type": "address"
        }
      ],
      "name": "getBalance",
      "outputs": [
        {
          "internalType": "uint256",
          "name": "",
          "type": "uint256"
        }
      ],
      "stateMutability": "view",
      "type": "function",
      "constant": true
    }
  ],
  "bytecode": "0x608060405234801561001057600080fd5b50600080546001600160a01b03191633179055610db8806100326000396000f3fe608060405234801561001057600080fd5b50600436106100785760003560e01c806341976e091461007d578063457972de146100b55780638bb567b4146100e357806396f770601461011d5780639f115f4e14610240578063ac66c6e014610266578063c89005ad14610314578063f8b2cb4f146103cd575b600080fd5b6100a36004803603602081101561009357600080fd5b50356001600160a01b03166103f3565b60408051918252519081900360200190f35b6100e1600480360360408110156100cb57600080fd5b506001600160a01b0381351690602001356104f9565b005b610109600480360360208110156100f957600080fd5b50356001600160a01b0316610646565b604080519115158252519081900360200190f35b6100e16004803603604081101561013357600080fd5b810190602081018135600160201b81111561014d57600080fd5b82018360208201111561015f57600080fd5b803590602001918460208302840111600160201b8311171561018057600080fd5b9190808060200260200160405190810160405280939291908181526020018383602002808284376000920191909152509295949360208101935035915050600160201b8111156101cf57600080fd5b8201836020820111156101e157600080fd5b803590602001918460208302840111600160201b8311171561020257600080fd5b919080806020026020016040519081016040528093929190818152602001838360200280828437600092019190915250929550610667945050505050565b6100e16004803603602081101561025657600080fd5b50356001600160a01b031661083d565b61028c6004803603602081101561027c57600080fd5b50356001600160a01b0316610992565b60405180848152602001806020018315158152602001828103825284818151815260200191508051906020019080838360005b838110156102d75781810151838201526020016102bf565b50505050905090810190601f1680156103045780820380516001836020036101000a031916815260200191505b5094505050505060405180910390f35b6100e16004803603606081101561032a57600080fd5b6001600160a01b0382351691602081013591810190606081016040820135600160201b81111561035957600080fd5b82018360208201111561036b57600080fd5b803590602001918460018302840111600160201b8311171561038c57600080fd5b91908080601f016020809104026020016040519081016040528093929190818152602001838380828437600092019190915250929550610a41945050505050565b6100a3600480360360208110156103e357600080fd5b50356001600160a01b0316610ae4565b6000604051806020016040528060008152508051906020012060016000846001600160a01b03166001600160a01b03168152602001908152602001600020600101604051808280546001816001161561010002031660029004801561048f5780601f1061046d57610100808354040283529182019161048f565b820191906000526020600020905b81548152906001019060200180831161047b575b5050915050604051809103902014156104dd576040805162461bcd60e51b81526020600482015260136024820152600080516020610d39833981519152604482015290519081900360640190fd5b506001600160a01b031660009081526001602052604090205490565b6000546001600160a01b031633146105425760405162461bcd60e51b815260040180806020018281038252602a815260200180610d59602a913960400191505060405180910390fd5b604051806020016040528060008152508051906020012060016000846001600160a01b03166001600160a01b0316815260200190815260200160002060010160405180828054600181600116156101000203166002900480156105dc5780601f106105ba5761010080835404028352918201916105dc565b820191906000526020600020905b8154815290600101906020018083116105c8575b50509150506040518091039020141561062a576040805162461bcd60e51b81526020600482015260136024820152600080516020610d39833981519152604482015290519081900360640190fd5b6001600160a01b03909116600090815260016020526040902055565b6001600160a01b031660009081526001602052604090206002015460ff1690565b6000546001600160a01b031633146106b05760405162461bcd60e51b815260040180806020018281038252602a815260200180610d59602a913960400191505060405180910390fd5b80518251146106f05760405162461bcd60e51b8152600401808060200182810382526021815260200180610cf06021913960400191505060405180910390fd5b60005b825181101561083857600083828151811061070a57fe5b60200260200101519050604051806020016040528060008152508051906020012060016000836001600160a01b03166001600160a01b0316815260200190815260200160002060010160405180828054600181600116156101000203166002900480156107ae5780601f1061078c5761010080835404028352918201916107ae565b820191906000526020600020905b81548152906001019060200180831161079a575b5050915050604051809103902014156107fc576040805162461bcd60e51b81526020600482015260136024820152600080516020610d39833981519152604482015290519081900360640190fd5b82828151811061080857fe5b6020908102919091018101516001600160a01b0390921660009081526001918290526040902091909155016106f3565b505050565b6000546001600160a01b031633146108865760405162461bcd60e51b815260040180806020018281038252602a815260200180610d59602a913960400191505060405180910390fd5b604051806020016040528060008152508051906020012060016000836001600160a01b03166001600160a01b0316815260200190815260200160002060010160405180828054600181600116156101000203166002900480156109205780601f106108fe576101008083540402835291820191610920565b820191906000526020600020905b81548152906001019060200180831161090c575b50509150506040518091039020141561096e576040805162461bcd60e51b81526020600482015260136024820152600080516020610d39833981519152604482015290519081900360640190fd5b6001600160a01b03166000908152600160205260409020600201805460ff19169055565b600160208181526000928352604092839020805481840180548651600296821615610100026000190190911695909504601f81018590048502860185019096528585529094919392909190830182828015610a2e5780601f10610a0357610100808354040283529160200191610a2e565b820191906000526020600020905b815481529060010190602001808311610a1157829003601f168201915b5050506002909301549192505060ff1683565b610a4a83610c50565b610a855760405162461bcd60e51b8152600401808060200182810382526028815260200180610d116028913960400191505060405180910390fd5b6001600160a01b03831660009081526001602081815260409092208481558351610ab793919092019190840190610c5c565b5050506001600160a01b03166000908152600160208190526040909120600201805460ff19169091179055565b6000604051806020016040528060008152508051906020012060016000846001600160a01b03166001600160a01b031681526020019081526020016000206001016040518082805460018160011615610100020316600290048015610b805780601f10610b5e576101008083540402835291820191610b80565b820191906000526020600020905b815481529060010190602001808311610b6c575b505091505060405180910390201415610bce576040805162461bcd60e51b81526020600482015260136024820152600080516020610d39833981519152604482015290519081900360640190fd5b6000826001600160a01b03166370a08231306040518263ffffffff1660e01b815260040180826001600160a01b0316815260200191505060206040518083038186803b158015610c1d57600080fd5b505afa158015610c31573d6000803e3d6000fd5b505050506040513d6020811015610c4757600080fd5b50519392505050565b3b63ffffffff16151590565b828054600181600116156101000203166002900490600052602060002090601f016020900481019282601f10610c9d57805160ff1916838001178555610cca565b82800160010185558215610cca579182015b82811115610cca578251825591602001919060010190610caf565b50610cd6929150610cda565b5090565b5b80821115610cd65760008155600101610cdb56fe61727261797320646f706e742068617665207468652073616d65206c656e676874546f6b656e20636f6e74726163742061646472657373206973206e6f74206120636f6e7472616374506f6f6c20646f6573206e6f74206578697374000000000000000000000000004f6e6c79206f776e65722063616e20646f2066756e6374696f6e2063616c6c202845786368616e676529a2646970667358221220b212f19424a20c1454b23779ec378c7d9f43e3d59bebf65c871b2f46f8fa8f2864736f6c634300060c0033",
  "immutableReferences": {},
  "source": "// SPDX-License-Identifier: MIT\npragma solidity >=0.4.22 <0.8.0;\nimport \"./ERC20.sol\";\n\ncontract Exchange{\n\n  constructor() public {\n    owner = msg.sender;\n  }\n\n  address private owner;\n\n  modifier onlyOwner() {\n      require(msg.sender == owner, \"Only owner can do function call (Exchange)\");\n      _;\n  }\n\n  mapping (address => Token) public tokensData;\n\n  struct Token{\n    uint price;\n    string symbol;\n    bool exchangeable;\n  }\n\n  function createPool(address token, uint _price, string memory _symbol) public{\n    // check if given address is a token\n    require(isContract(token), 'Token contract address is not a contract');\n    tokensData[token].price = _price;\n    tokensData[token].symbol =  _symbol;\n    tokensData[token].exchangeable = true;\n  }\n\n  function switchToUnexchangable(address token) public onlyOwner{\n    require(keccak256(bytes(tokensData[token].symbol)) != keccak256(bytes(\"\")), \"Pool does not exist\");\n    tokensData[token].exchangeable = false;\n  }\n\n  function isExchangeable(address token) public view returns (bool){\n    return tokensData[token].exchangeable;\n  }\n\n  function updatePrice(address token, uint _price) public onlyOwner{\n    require(keccak256(bytes(tokensData[token].symbol)) != keccak256(bytes(\"\")), \"Pool does not exist\");\n    tokensData[token].price = _price;\n  }\n\n  function updatePrices(address[] memory tokens, uint[] memory _prices) public onlyOwner{\n    require( tokens.length == _prices.length, \"arrays dopnt have the same lenght\");\n    for(uint i=0; i < tokens.length; i++){\n      address token = tokens[i];\n      require(keccak256(bytes(tokensData[token].symbol)) != keccak256(bytes(\"\")), \"Pool does not exist\");\n      tokensData[token].price = _prices[i];\n    }\n  }\n\n\n  // get price of a token\n  function getPrice(address token) public view returns (uint){\n    require(keccak256(bytes(tokensData[token].symbol)) != keccak256(bytes(\"\")), \"Pool does not exist\");\n    return tokensData[token].price;\n  }\n\n  function getBalance(address token) public view returns(uint){\n    // check if the pool was created\n    require(keccak256(bytes(tokensData[token].symbol)) != keccak256(bytes(\"\")), \"Pool does not exist\");\n    uint balance = ERC20(token).balanceOf(address(this));\n    return balance;\n  }\n\n  function isContract(address _addr) internal view returns (bool){\n    uint32 size;\n    assembly {\n      size := extcodesize(_addr)\n    }\n    return size > 0;\n  }\n\n\n}\n",
  "sourcePath": "/Users/ioanaroceanu/Documents/Project/contracts/Exchange.sol",
  "compiler": {
    "name": "solc",
    "version": "0.6.12+commit.27d51765.Emscripten.clang"
  },
  "schemaVersion": "3.3.2",
  "updatedAt": "2021-03-08T18:04:20.057Z",
  "networkType": "ethereum",
  "devdoc": {
    "kind": "dev",
    "methods": {},
    "version": 1
  },
  "userdoc": {
    "kind": "user",
    "methods": {},
    "version": 1
  }
}