{
  "contractName": "Exchange",
  "abi": [
    {
      "inputs": [],
      "stateMutability": "nonpayable",
      "type": "constructor"
    },
    {
      "inputs": [
        {
          "internalType": "address",
          "name": "",
          "type": "address"
        }
      ],
      "name": "tokensData",
      "outputs": [
        {
          "internalType": "uint256",
          "name": "price",
          "type": "uint256"
        },
        {
          "internalType": "string",
          "name": "symbol",
          "type": "string"
        },
        {
          "internalType": "bool",
          "name": "exchangeable",
          "type": "bool"
        }
      ],
      "stateMutability": "view",
      "type": "function"
    },
    {
      "inputs": [
        {
          "internalType": "address",
          "name": "token",
          "type": "address"
        },
        {
          "internalType": "uint256",
          "name": "_price",
          "type": "uint256"
        },
        {
          "internalType": "string",
          "name": "_symbol",
          "type": "string"
        }
      ],
      "name": "createPool",
      "outputs": [],
      "stateMutability": "nonpayable",
      "type": "function"
    },
    {
      "inputs": [
        {
          "internalType": "address",
          "name": "token",
          "type": "address"
        }
      ],
      "name": "switchToUnexchangable",
      "outputs": [],
      "stateMutability": "nonpayable",
      "type": "function"
    },
    {
      "inputs": [
        {
          "internalType": "address",
          "name": "token",
          "type": "address"
        }
      ],
      "name": "isExchangeable",
      "outputs": [
        {
          "internalType": "bool",
          "name": "",
          "type": "bool"
        }
      ],
      "stateMutability": "view",
      "type": "function"
    },
    {
      "inputs": [
        {
          "internalType": "address",
          "name": "token",
          "type": "address"
        },
        {
          "internalType": "uint256",
          "name": "_price",
          "type": "uint256"
        }
      ],
      "name": "updatePrice",
      "outputs": [],
      "stateMutability": "nonpayable",
      "type": "function"
    },
    {
      "inputs": [
        {
          "internalType": "address[]",
          "name": "tokens",
          "type": "address[]"
        },
        {
          "internalType": "uint256[]",
          "name": "_prices",
          "type": "uint256[]"
        }
      ],
      "name": "updatePrices",
      "outputs": [],
      "stateMutability": "nonpayable",
      "type": "function"
    },
    {
      "inputs": [
        {
          "internalType": "address",
          "name": "token",
          "type": "address"
        }
      ],
      "name": "getPrice",
      "outputs": [
        {
          "internalType": "uint256",
          "name": "",
          "type": "uint256"
        }
      ],
      "stateMutability": "view",
      "type": "function"
    },
    {
      "inputs": [
        {
          "internalType": "address",
          "name": "token",
          "type": "address"
        }
      ],
      "name": "getBalance",
      "outputs": [
        {
          "internalType": "uint256",
          "name": "",
          "type": "uint256"
        }
      ],
      "stateMutability": "view",
      "type": "function"
    },
    {
      "inputs": [
        {
          "internalType": "address",
          "name": "token1",
          "type": "address"
        },
        {
          "internalType": "address",
          "name": "token2",
          "type": "address"
        },
        {
          "internalType": "uint256",
          "name": "amountReceive",
          "type": "uint256"
        },
        {
          "internalType": "address payable",
          "name": "user",
          "type": "address"
        }
      ],
      "name": "exchange",
      "outputs": [],
      "stateMutability": "nonpayable",
      "type": "function"
    }
  ],
  "bytecode": "0x608060405234801561001057600080fd5b50336000806101000a81548173ffffffffffffffffffffffffffffffffffffffff021916908373ffffffffffffffffffffffffffffffffffffffff160217905550611b44806100606000396000f3fe608060405234801561001057600080fd5b50600436106100935760003560e01c806396f770601161006657806396f77060146102285780639f115f4e14610374578063ac66c6e0146103b8578063c89005ad14610487578063f8b2cb4f1461056c57610093565b806341976e0914610098578063457972de146100f05780634f9ebaf41461013e5780638bb567b4146101cc575b600080fd5b6100da600480360360208110156100ae57600080fd5b81019080803573ffffffffffffffffffffffffffffffffffffffff1690602001909291905050506105c4565b6040518082815260200191505060405180910390f35b61013c6004803603604081101561010657600080fd5b81019080803573ffffffffffffffffffffffffffffffffffffffff16906020019092919080359060200190929190505050610745565b005b6101ca6004803603608081101561015457600080fd5b81019080803573ffffffffffffffffffffffffffffffffffffffff169060200190929190803573ffffffffffffffffffffffffffffffffffffffff16906020019092919080359060200190929190803573ffffffffffffffffffffffffffffffffffffffff16906020019092919050505061096a565b005b61020e600480360360208110156101e257600080fd5b81019080803573ffffffffffffffffffffffffffffffffffffffff169060200190929190505050610e84565b604051808215151515815260200191505060405180910390f35b6103726004803603604081101561023e57600080fd5b810190808035906020019064010000000081111561025b57600080fd5b82018360208201111561026d57600080fd5b8035906020019184602083028401116401000000008311171561028f57600080fd5b919080806020026020016040519081016040528093929190818152602001838360200280828437600081840152601f19601f820116905080830192505050505050509192919290803590602001906401000000008111156102ef57600080fd5b82018360208201111561030157600080fd5b8035906020019184602083028401116401000000008311171561032357600080fd5b919080806020026020016040519081016040528093929190818152602001838360200280828437600081840152601f19601f820116905080830192505050505050509192919290505050610edd565b005b6103b66004803603602081101561038a57600080fd5b81019080803573ffffffffffffffffffffffffffffffffffffffff1690602001909291905050506111a5565b005b6103fa600480360360208110156103ce57600080fd5b81019080803573ffffffffffffffffffffffffffffffffffffffff1690602001909291905050506113dd565b604051808481526020018060200183151515158152602001828103825284818151815260200191508051906020019080838360005b8381101561044a57808201518184015260208101905061042f565b50505050905090810190601f1680156104775780820380516001836020036101000a031916815260200191505b5094505050505060405180910390f35b61056a6004803603606081101561049d57600080fd5b81019080803573ffffffffffffffffffffffffffffffffffffffff16906020019092919080359060200190929190803590602001906401000000008111156104e457600080fd5b8201836020820111156104f657600080fd5b8035906020019184600183028401116401000000008311171561051857600080fd5b91908080601f016020809104026020016040519081016040528093929190818152602001838380828437600081840152601f19601f8201169050808301925050505050505091929192905050506114ac565b005b6105ae6004803603602081101561058257600080fd5b81019080803573ffffffffffffffffffffffffffffffffffffffff169060200190929190505050611607565b6040518082815260200191505060405180910390f35b60006040518060200160405280600081525080519060200120600160008473ffffffffffffffffffffffffffffffffffffffff1673ffffffffffffffffffffffffffffffffffffffff168152602001908152602001600020600101604051808280546001816001161561010002031660029004801561067a5780601f1061065857610100808354040283529182019161067a565b820191906000526020600020905b815481529060010190602001808311610666575b5050915050604051809103902014156106fb576040517f08c379a00000000000000000000000000000000000000000000000000000000081526004018080602001828103825260138152602001807f506f6f6c20646f6573206e6f742065786973740000000000000000000000000081525060200191505060405180910390fd5b600160008373ffffffffffffffffffffffffffffffffffffffff1673ffffffffffffffffffffffffffffffffffffffff168152602001908152602001600020600001549050919050565b6000809054906101000a900473ffffffffffffffffffffffffffffffffffffffff1673ffffffffffffffffffffffffffffffffffffffff163373ffffffffffffffffffffffffffffffffffffffff16146107ea576040517f08c379a000000000000000000000000000000000000000000000000000000000815260040180806020018281038252602a815260200180611ae5602a913960400191505060405180910390fd5b6040518060200160405280600081525080519060200120600160008473ffffffffffffffffffffffffffffffffffffffff1673ffffffffffffffffffffffffffffffffffffffff168152602001908152602001600020600101604051808280546001816001161561010002031660029004801561089e5780601f1061087c57610100808354040283529182019161089e565b820191906000526020600020905b81548152906001019060200180831161088a575b50509150506040518091039020141561091f576040517f08c379a00000000000000000000000000000000000000000000000000000000081526004018080602001828103825260138152602001807f506f6f6c20646f6573206e6f742065786973740000000000000000000000000081525060200191505060405180910390fd5b80600160008473ffffffffffffffffffffffffffffffffffffffff1673ffffffffffffffffffffffffffffffffffffffff168152602001908152602001600020600001819055505050565b60011515600160008673ffffffffffffffffffffffffffffffffffffffff1673ffffffffffffffffffffffffffffffffffffffff16815260200190815260200160002060020160009054906101000a900460ff161515148015610a20575060011515600160008573ffffffffffffffffffffffffffffffffffffffff1673ffffffffffffffffffffffffffffffffffffffff16815260200190815260200160002060020160009054906101000a900460ff161515145b610a92576040517f08c379a000000000000000000000000000000000000000000000000000000000815260040180806020018281038252601e8152602001807f546f6b656e206e6f742065786368616e676561626c6520616e796d6f7265000081525060200191505060405180910390fd5b6000610b2b610ae384600160008973ffffffffffffffffffffffffffffffffffffffff1673ffffffffffffffffffffffffffffffffffffffff16815260200190815260200160002060000154611803565b600160008773ffffffffffffffffffffffffffffffffffffffff1673ffffffffffffffffffffffffffffffffffffffff16815260200190815260200160002060000154611889565b905080610b3785611607565b1015610bab576040517f08c379a00000000000000000000000000000000000000000000000000000000081526004018080602001828103825260168152602001807f4e6f7420656e6f75676820746f2065786367616e67650000000000000000000081525060200191505060405180910390fd5b6040518060200160405280600081525080519060200120600160008773ffffffffffffffffffffffffffffffffffffffff1673ffffffffffffffffffffffffffffffffffffffff1681526020019081526020016000206001016040518082805460018160011615610100020316600290048015610c5f5780601f10610c3d576101008083540402835291820191610c5f565b820191906000526020600020905b815481529060010190602001808311610c4b575b505091505060405180910390201415610cc3576040517f08c379a0000000000000000000000000000000000000000000000000000000008152600401808060200182810382526023815260200180611a9a6023913960400191505060405180910390fd5b8473ffffffffffffffffffffffffffffffffffffffff166323b872dd8330866040518463ffffffff1660e01b8152600401808473ffffffffffffffffffffffffffffffffffffffff1673ffffffffffffffffffffffffffffffffffffffff1681526020018373ffffffffffffffffffffffffffffffffffffffff1673ffffffffffffffffffffffffffffffffffffffff1681526020018281526020019350505050602060405180830381600087803b158015610d7e57600080fd5b505af1158015610d92573d6000803e3d6000fd5b505050506040513d6020811015610da857600080fd5b8101908080519060200190929190505050508373ffffffffffffffffffffffffffffffffffffffff1663a9059cbb83836040518363ffffffff1660e01b8152600401808373ffffffffffffffffffffffffffffffffffffffff1673ffffffffffffffffffffffffffffffffffffffff16815260200182815260200192505050602060405180830381600087803b158015610e4157600080fd5b505af1158015610e55573d6000803e3d6000fd5b505050506040513d6020811015610e6b57600080fd5b8101908080519060200190929190505050505050505050565b6000600160008373ffffffffffffffffffffffffffffffffffffffff1673ffffffffffffffffffffffffffffffffffffffff16815260200190815260200160002060020160009054906101000a900460ff169050919050565b6000809054906101000a900473ffffffffffffffffffffffffffffffffffffffff1673ffffffffffffffffffffffffffffffffffffffff163373ffffffffffffffffffffffffffffffffffffffff1614610f82576040517f08c379a000000000000000000000000000000000000000000000000000000000815260040180806020018281038252602a815260200180611ae5602a913960400191505060405180910390fd5b8051825114610fdc576040517f08c379a0000000000000000000000000000000000000000000000000000000008152600401808060200182810382526021815260200180611a586021913960400191505060405180910390fd5b60008090505b82518110156111a0576000838281518110610ff957fe5b602002602001015190506040518060200160405280600081525080519060200120600160008373ffffffffffffffffffffffffffffffffffffffff1673ffffffffffffffffffffffffffffffffffffffff16815260200190815260200160002060010160405180828054600181600116156101000203166002900480156110b75780601f106110955761010080835404028352918201916110b7565b820191906000526020600020905b8154815290600101906020018083116110a3575b505091505060405180910390201415611138576040517f08c379a00000000000000000000000000000000000000000000000000000000081526004018080602001828103825260138152602001807f506f6f6c20646f6573206e6f742065786973740000000000000000000000000081525060200191505060405180910390fd5b82828151811061114457fe5b6020026020010151600160008373ffffffffffffffffffffffffffffffffffffffff1673ffffffffffffffffffffffffffffffffffffffff16815260200190815260200160002060000181905550508080600101915050610fe2565b505050565b6000809054906101000a900473ffffffffffffffffffffffffffffffffffffffff1673ffffffffffffffffffffffffffffffffffffffff163373ffffffffffffffffffffffffffffffffffffffff161461124a576040517f08c379a000000000000000000000000000000000000000000000000000000000815260040180806020018281038252602a815260200180611ae5602a913960400191505060405180910390fd5b6040518060200160405280600081525080519060200120600160008373ffffffffffffffffffffffffffffffffffffffff1673ffffffffffffffffffffffffffffffffffffffff16815260200190815260200160002060010160405180828054600181600116156101000203166002900480156112fe5780601f106112dc5761010080835404028352918201916112fe565b820191906000526020600020905b8154815290600101906020018083116112ea575b50509150506040518091039020141561137f576040517f08c379a00000000000000000000000000000000000000000000000000000000081526004018080602001828103825260138152602001807f506f6f6c20646f6573206e6f742065786973740000000000000000000000000081525060200191505060405180910390fd5b6000600160008373ffffffffffffffffffffffffffffffffffffffff1673ffffffffffffffffffffffffffffffffffffffff16815260200190815260200160002060020160006101000a81548160ff02191690831515021790555050565b6001602052806000526040600020600091509050806000015490806001018054600181600116156101000203166002900480601f01602080910402602001604051908101604052809291908181526020018280546001816001161561010002031660029004801561148f5780601f106114645761010080835404028352916020019161148f565b820191906000526020600020905b81548152906001019060200180831161147257829003601f168201915b5050505050908060020160009054906101000a900460ff16905083565b6114b5836118d3565b61150a576040517f08c379a0000000000000000000000000000000000000000000000000000000008152600401808060200182810382526028815260200180611abd6028913960400191505060405180910390fd5b81600160008573ffffffffffffffffffffffffffffffffffffffff1673ffffffffffffffffffffffffffffffffffffffff1681526020019081526020016000206000018190555080600160008573ffffffffffffffffffffffffffffffffffffffff1673ffffffffffffffffffffffffffffffffffffffff16815260200190815260200160002060010190805190602001906115a79291906119b2565b5060018060008573ffffffffffffffffffffffffffffffffffffffff1673ffffffffffffffffffffffffffffffffffffffff16815260200190815260200160002060020160006101000a81548160ff021916908315150217905550505050565b60006040518060200160405280600081525080519060200120600160008473ffffffffffffffffffffffffffffffffffffffff1673ffffffffffffffffffffffffffffffffffffffff16815260200190815260200160002060010160405180828054600181600116156101000203166002900480156116bd5780601f1061169b5761010080835404028352918201916116bd565b820191906000526020600020905b8154815290600101906020018083116116a9575b50509150506040518091039020141561173e576040517f08c379a00000000000000000000000000000000000000000000000000000000081526004018080602001828103825260138152602001807f506f6f6c20646f6573206e6f742065786973740000000000000000000000000081525060200191505060405180910390fd5b60008273ffffffffffffffffffffffffffffffffffffffff166370a08231306040518263ffffffff1660e01b8152600401808273ffffffffffffffffffffffffffffffffffffffff1673ffffffffffffffffffffffffffffffffffffffff16815260200191505060206040518083038186803b1580156117bd57600080fd5b505afa1580156117d1573d6000803e3d6000fd5b505050506040513d60208110156117e757600080fd5b8101908080519060200190929190505050905080915050919050565b6000808314156118165760009050611883565b600082840290508284828161182757fe5b041461187e576040517f08c379a0000000000000000000000000000000000000000000000000000000008152600401808060200182810382526021815260200180611a796021913960400191505060405180910390fd5b809150505b92915050565b60006118cb83836040518060400160405280601a81526020017f536166654d6174683a206469766973696f6e206279207a65726f0000000000008152506118ec565b905092915050565b600080823b905060008163ffffffff1611915050919050565b60008083118290611998576040517f08c379a00000000000000000000000000000000000000000000000000000000081526004018080602001828103825283818151815260200191508051906020019080838360005b8381101561195d578082015181840152602081019050611942565b50505050905090810190601f16801561198a5780820380516001836020036101000a031916815260200191505b509250505060405180910390fd5b5060008385816119a457fe5b049050809150509392505050565b828054600181600116156101000203166002900490600052602060002090601f016020900481019282601f106119f357805160ff1916838001178555611a21565b82800160010185558215611a21579182015b82811115611a20578251825591602001919060010190611a05565b5b509050611a2e9190611a32565b5090565b611a5491905b80821115611a50576000816000905550600101611a38565b5090565b9056fe61727261797320646f706e742068617665207468652073616d65206c656e676874536166654d6174683a206d756c7469706c69636174696f6e206f766572666c6f77506f6f6c20666f7220746f6b656e20676976656e20646f6573206e6f74206578697374546f6b656e20636f6e74726163742061646472657373206973206e6f74206120636f6e74726163744f6e6c79206f776e65722063616e20646f2066756e6374696f6e2063616c6c202845786368616e676529a26469706673582212204a4049d0c4766f65804f45ed1950c10125dbf3620b4b27ca3d12dbeec369fa9364736f6c63430006020033",
  "source": "// SPDX-License-Identifier: MIT\npragma solidity >=0.4.22 <0.8.0;\nimport \"./ERC20.sol\";\n\ncontract Exchange{\n\n  constructor() public {\n    owner = msg.sender;\n  }\n\n  address private owner;\n\n  modifier onlyOwner() {\n      require(msg.sender == owner, \"Only owner can do function call (Exchange)\");\n      _;\n  }\n\n  mapping (address => Token) public tokensData;\n\n  struct Token{\n    uint price;\n    string symbol;\n    bool exchangeable;\n  }\n\n  function createPool(address token, uint _price, string memory _symbol) public{\n    // check if given address is a token\n    require(isContract(token), 'Token contract address is not a contract');\n    tokensData[token].price = _price;\n    tokensData[token].symbol =  _symbol;\n    tokensData[token].exchangeable = true;\n  }\n\n  function switchToUnexchangable(address token) public onlyOwner{\n    require(keccak256(bytes(tokensData[token].symbol)) != keccak256(bytes(\"\")), \"Pool does not exist\");\n    tokensData[token].exchangeable = false;\n  }\n\n  function isExchangeable(address token) public view returns (bool){\n    return tokensData[token].exchangeable;\n  }\n\n  function updatePrice(address token, uint _price) public onlyOwner{\n    require(keccak256(bytes(tokensData[token].symbol)) != keccak256(bytes(\"\")), \"Pool does not exist\");\n    tokensData[token].price = _price;\n  }\n\n  function updatePrices(address[] memory tokens, uint[] memory _prices) public onlyOwner{\n    require( tokens.length == _prices.length, \"arrays dopnt have the same lenght\");\n    for(uint i=0; i < tokens.length; i++){\n      address token = tokens[i];\n      require(keccak256(bytes(tokensData[token].symbol)) != keccak256(bytes(\"\")), \"Pool does not exist\");\n      tokensData[token].price = _prices[i];\n    }\n  }\n\n\n  // get price of a token\n  function getPrice(address token) public view returns (uint){\n    require(keccak256(bytes(tokensData[token].symbol)) != keccak256(bytes(\"\")), \"Pool does not exist\");\n    return tokensData[token].price;\n  }\n\n  function getBalance(address token) public view returns(uint){\n    // check if the pool was created\n    require(keccak256(bytes(tokensData[token].symbol)) != keccak256(bytes(\"\")), \"Pool does not exist\");\n    uint balance = ERC20(token).balanceOf(address(this));\n    return balance;\n  }\n\n  function exchange(address token1, address token2, uint amountReceive, address payable user) public{\n    require(tokensData[token1].exchangeable == true && tokensData[token2].exchangeable == true, \"Token not exchangeable anymore\");\n    // check if the exchange has enough tokens to send\n    uint amountSend = SafeMath.div(SafeMath.mul(amountReceive,tokensData[token1].price),tokensData[token2].price);\n    require(getBalance(token2) >= amountSend, \"Not enough to excgange\");\n    // check if a pool for token1 exists\n    require(keccak256(bytes(tokensData[token1].symbol)) != keccak256(bytes(\"\")), \"Pool for token given does not exist\");\n    // receive token1\n    ERC20(token1).transferFrom(user, address(this), amountReceive);\n    // send token 2\n    ERC20(token2).transfer(user,amountSend);\n  }\n\n  function isContract(address _addr) internal view returns (bool){\n    uint32 size;\n    assembly {\n      size := extcodesize(_addr)\n    }\n    return size > 0;\n  }\n\n\n}\n",
  "sourcePath": "/Users/ioanaroceanu/Documents/Project/contracts/Exchange.sol",
  "compiler": {
    "name": "solc",
    "version": "0.6.2+commit.bacdbe57.Emscripten.clang"
  },
  "schemaVersion": "3.3.2",
  "updatedAt": "2021-02-23T12:10:16.984Z",
  "devdoc": {
    "methods": {}
  },
  "userdoc": {
    "methods": {}
  }
}