{
  "contractName": "InterestVariables",
  "abi": [
    {
      "inputs": [],
      "stateMutability": "nonpayable",
      "type": "constructor"
    },
    {
      "inputs": [],
      "name": "liquidityPoolAddress",
      "outputs": [
        {
          "internalType": "address",
          "name": "",
          "type": "address"
        }
      ],
      "stateMutability": "view",
      "type": "function",
      "constant": true
    },
    {
      "inputs": [
        {
          "internalType": "address",
          "name": "",
          "type": "address"
        }
      ],
      "name": "tokenIRcummulation",
      "outputs": [
        {
          "internalType": "uint256",
          "name": "cummulated_depositIR",
          "type": "uint256"
        },
        {
          "internalType": "uint256",
          "name": "cummulated_borrowIR",
          "type": "uint256"
        },
        {
          "internalType": "uint256",
          "name": "last_time",
          "type": "uint256"
        }
      ],
      "stateMutability": "view",
      "type": "function",
      "constant": true
    },
    {
      "inputs": [
        {
          "internalType": "address",
          "name": "",
          "type": "address"
        }
      ],
      "name": "tokens",
      "outputs": [
        {
          "internalType": "address",
          "name": "token_address",
          "type": "address"
        },
        {
          "internalType": "uint256",
          "name": "optimal_utilisation",
          "type": "uint256"
        },
        {
          "internalType": "uint256",
          "name": "collateral_factor",
          "type": "uint256"
        },
        {
          "internalType": "uint256",
          "name": "base_rate",
          "type": "uint256"
        },
        {
          "internalType": "uint256",
          "name": "slope1",
          "type": "uint256"
        },
        {
          "internalType": "uint256",
          "name": "slope2",
          "type": "uint256"
        },
        {
          "internalType": "uint256",
          "name": "spread",
          "type": "uint256"
        }
      ],
      "stateMutability": "view",
      "type": "function",
      "constant": true
    },
    {
      "inputs": [
        {
          "internalType": "address",
          "name": "add",
          "type": "address"
        }
      ],
      "name": "setLiquidityPoolAddress",
      "outputs": [],
      "stateMutability": "nonpayable",
      "type": "function"
    },
    {
      "inputs": [
        {
          "internalType": "address",
          "name": "_token_address",
          "type": "address"
        },
        {
          "internalType": "uint256",
          "name": "_optimal_utilisation",
          "type": "uint256"
        },
        {
          "internalType": "uint256",
          "name": "_collateral_factor",
          "type": "uint256"
        },
        {
          "internalType": "uint256",
          "name": "_base_rate",
          "type": "uint256"
        },
        {
          "internalType": "uint256",
          "name": "_slope1",
          "type": "uint256"
        },
        {
          "internalType": "uint256",
          "name": "_slope2",
          "type": "uint256"
        },
        {
          "internalType": "uint256",
          "name": "_spread",
          "type": "uint256"
        }
      ],
      "name": "createToken",
      "outputs": [],
      "stateMutability": "nonpayable",
      "type": "function"
    },
    {
      "inputs": [
        {
          "internalType": "address",
          "name": "token",
          "type": "address"
        }
      ],
      "name": "getIRDepositTotalCummulation",
      "outputs": [
        {
          "internalType": "uint256",
          "name": "",
          "type": "uint256"
        }
      ],
      "stateMutability": "view",
      "type": "function",
      "constant": true
    },
    {
      "inputs": [
        {
          "internalType": "address",
          "name": "token",
          "type": "address"
        }
      ],
      "name": "getIRBorrowTotalCummulation",
      "outputs": [
        {
          "internalType": "uint256",
          "name": "",
          "type": "uint256"
        }
      ],
      "stateMutability": "view",
      "type": "function",
      "constant": true
    },
    {
      "inputs": [
        {
          "internalType": "address",
          "name": "id",
          "type": "address"
        },
        {
          "internalType": "uint256",
          "name": "utilisationRate",
          "type": "uint256"
        }
      ],
      "name": "depositInterestRate",
      "outputs": [
        {
          "internalType": "uint256",
          "name": "",
          "type": "uint256"
        }
      ],
      "stateMutability": "view",
      "type": "function",
      "constant": true
    },
    {
      "inputs": [
        {
          "internalType": "address",
          "name": "id",
          "type": "address"
        },
        {
          "internalType": "uint256",
          "name": "utilisationRate",
          "type": "uint256"
        }
      ],
      "name": "borrowInterestRate",
      "outputs": [
        {
          "internalType": "uint256",
          "name": "",
          "type": "uint256"
        }
      ],
      "stateMutability": "view",
      "type": "function",
      "constant": true
    },
    {
      "inputs": [
        {
          "internalType": "address",
          "name": "id",
          "type": "address"
        },
        {
          "internalType": "uint256",
          "name": "utilisationRate",
          "type": "uint256"
        },
        {
          "internalType": "uint256",
          "name": "deposit",
          "type": "uint256"
        }
      ],
      "name": "borrowInterestRate",
      "outputs": [
        {
          "internalType": "uint256",
          "name": "",
          "type": "uint256"
        }
      ],
      "stateMutability": "view",
      "type": "function",
      "constant": true
    },
    {
      "inputs": [
        {
          "internalType": "address",
          "name": "token",
          "type": "address"
        },
        {
          "internalType": "uint256",
          "name": "utilisationRate",
          "type": "uint256"
        }
      ],
      "name": "compoundIR",
      "outputs": [
        {
          "internalType": "bool",
          "name": "",
          "type": "bool"
        }
      ],
      "stateMutability": "nonpayable",
      "type": "function"
    },
    {
      "inputs": [
        {
          "internalType": "address",
          "name": "tkn",
          "type": "address"
        },
        {
          "internalType": "uint256",
          "name": "cummulated_dep",
          "type": "uint256"
        },
        {
          "internalType": "uint256",
          "name": "init_ir_deposit",
          "type": "uint256"
        }
      ],
      "name": "getCumIrDeposit",
      "outputs": [
        {
          "internalType": "uint256",
          "name": "",
          "type": "uint256"
        }
      ],
      "stateMutability": "view",
      "type": "function",
      "constant": true
    },
    {
      "inputs": [
        {
          "internalType": "address",
          "name": "tkn",
          "type": "address"
        },
        {
          "internalType": "uint256",
          "name": "cummulated_borr",
          "type": "uint256"
        },
        {
          "internalType": "uint256",
          "name": "init_ir_borrow",
          "type": "uint256"
        }
      ],
      "name": "getCumIrLoan",
      "outputs": [
        {
          "internalType": "uint256",
          "name": "",
          "type": "uint256"
        }
      ],
      "stateMutability": "view",
      "type": "function",
      "constant": true
    }
  ],
  "bytecode": "0x608060405234801561001057600080fd5b50600080546001600160a01b03191633179055610d54806100326000396000f3fe608060405234801561001057600080fd5b50600436106100af5760003560e01c80630f1f7bc9146100b457806326a46dd5146100dd5780633a0c6c26146100f057806340e613f91461011057806347716f591461013257806363986aba14610145578063647cc4c31461015a5780638306e9531461016d5780638abe523f14610180578063d25b17b614610193578063dfaa254b146101a8578063e4860339146101bb578063f609507b146101e1575b600080fd5b6100c76100c2366004610a57565b6101f4565b6040516100d49190610cff565b60405180910390f35b6100c76100eb366004610a72565b610252565b6101036100fe366004610a72565b61037c565b6040516100d49190610b7d565b61012361011e366004610a57565b610508565b6040516100d493929190610d08565b6100c7610140366004610a9c565b610529565b610158610153366004610a57565b610558565b005b6100c7610168366004610a9c565b6105a4565b61015861017b366004610acf565b6105c3565b6100c761018e366004610a72565b610679565b61019b610722565b6040516100d49190610b2e565b6100c76101b6366004610a9c565b610731565b6101ce6101c9366004610a57565b6107bd565b6040516100d49796959493929190610b42565b6100c76101ef366004610a57565b610804565b6001600160a01b038181166000908152600260205260408120549091166102365760405162461bcd60e51b815260040161022d90610c51565b60405180910390fd5b506001600160a01b031660009081526003602052604090205490565b600061025c6109d9565b506001600160a01b03808416600090815260026020818152604092839020835160e08101855281549095168552600181015491850182905291820154928401929092526003810154606084015260048101546080840152600581015460a08401526006015460c0830152831015610311576103096102df8260600151606461085c565b6103046102fa6102f385608001518861085c565b606461085c565b8460200151610896565b6108d5565b915050610376565b60006103286102f3836060015184608001516108d5565b9050600061034c8360a0015161034760646103478988602001516108fa565b61085c565b9050600061035f606485602001516108fa565b905061036f836103048484610896565b9450505050505b92915050565b6001546000906001600160a01b031633146103a95760405162461bcd60e51b815260040161022d90610cb7565b4260006103b68585610679565b905060006103c48686610252565b905064e8d4a510006103d4610a1f565b506001600160a01b0387166000908152600360209081526040808320815160608101835281548152600182015493810193909352600201549082018190529091906104209087906108fa565b9050600060001990508061044161043b85600001518561085c565b8761085c565b10610456576000975050505050505050610376565b811580159061046457508515155b801561046f57508415155b156104d95761048f6104898460200151610347898661093c565b85610896565b6001600160a01b038b1660009081526003602052604090206001015582516104bf9061048990610347888661093c565b6001600160a01b038b166000908152600360205260409020555b5050506001600160a01b0387166000908152600360205260409020600201939093555060019250505092915050565b60036020526000908152604090208054600182015460029092015490919083565b60008161053857506000610551565b61054e6105488461034787610804565b83610896565b90505b9392505050565b6000546001600160a01b031633146105825760405162461bcd60e51b815260040161022d90610c80565b600180546001600160a01b0319166001600160a01b0392909216919091179055565b6000816105b357506000610551565b61054e61054884610347876101f4565b6040805160e0810182526001600160a01b039889168082526020808301998a52828401988952606083019788526080830196875260a0830195865260c0830194855260009182526002808252848320935184546001600160a01b0319169c169b909b17835598516001808401919091559751828b015595516003808301919091559451600482015592516005840155905160069092019190915593529190912064e8d4a510008082559181019190915542910155565b6000806106868484610252565b90506106906109d9565b506001600160a01b03808516600090815260026020818152604092839020835160e0810185528154909516855260018101549185019190915290810154918301919091526003810154606083015260048101546080830152600581015460a08301526006015460c082018190526107199083906103049061071290839061085c565b6064610896565b95945050505050565b6001546001600160a01b031681565b600061073b6109d9565b506001600160a01b03808516600090815260026020818152604092839020835160e0810185528154909516855260018101549185019190915290810154918301919091526003810154606083015260048101546080830152600581015460a08301526006015460c082018190526107199084906103049061071290839061085c565b600260208190526000918252604090912080546001820154928201546003830154600484015460058501546006909501546001600160a01b03909416959492939192909187565b6001600160a01b0381811660009081526002602052604081205490911661083d5760405162461bcd60e51b815260040161022d90610c51565b506001600160a01b031660009081526003602052604090206001015490565b60008261086b57506000610376565b8282028284828161087857fe5b04146105515760405162461bcd60e51b815260040161022d90610c10565b600061055183836040518060400160405280601a815260200179536166654d6174683a206469766973696f6e206279207a65726f60301b815250610976565b6000828201838110156105515760405162461bcd60e51b815260040161022d90610bdb565b600061055183836040518060400160405280601e81526020017f536166654d6174683a207375627472616374696f6e206f766572666c6f7700008152506109ad565b600064e8d4a51000816109556301e1855861271061085c565b905061071961097061054861096a878961085c565b8561085c565b836108d5565b600081836109975760405162461bcd60e51b815260040161022d9190610b88565b5060008385816109a357fe5b0495945050505050565b600081848411156109d15760405162461bcd60e51b815260040161022d9190610b88565b505050900390565b6040518060e0016040528060006001600160a01b031681526020016000815260200160008152602001600081526020016000815260200160008152602001600081525090565b60405180606001604052806000815260200160008152602001600081525090565b80356001600160a01b038116811461037657600080fd5b600060208284031215610a68578081fd5b6105518383610a40565b60008060408385031215610a84578081fd5b610a8e8484610a40565b946020939093013593505050565b600080600060608486031215610ab0578081fd5b610aba8585610a40565b95602085013595506040909401359392505050565b600080600080600080600060e0888a031215610ae9578283fd5b87356001600160a01b0381168114610aff578384fd5b9960208901359950604089013598606081013598506080810135975060a0810135965060c00135945092505050565b6001600160a01b0391909116815260200190565b6001600160a01b03979097168752602087019590955260408601939093526060850191909152608084015260a083015260c082015260e00190565b901515815260200190565b6000602080835283518082850152825b81811015610bb457858101830151858201604001528201610b98565b81811115610bc55783604083870101525b50601f01601f1916929092016040019392505050565b6020808252601b908201527a536166654d6174683a206164646974696f6e206f766572666c6f7760281b604082015260600190565b60208082526021908201527f536166654d6174683a206d756c7469706c69636174696f6e206f766572666c6f6040820152607760f81b606082015260800190565b602080825260159082015274151bdad95b881b9bdd0818dc99585d1959081e595d605a1b604082015260600190565b6020808252601f908201527f4f6e6c79206f776e65722063616e20646f2066756e6374696f6e2063616c6c00604082015260600190565b60208082526028908201527f4f6e6c79204c697175696469747920706f6f6c2063616e20646f2066756e63746040820152671a5bdb8818d85b1b60c21b606082015260800190565b90815260200190565b928352602083019190915260408201526060019056fea26469706673582212209f6c1e79568dc96ee0492b8a5dcf6d9962a915b8af3e55862aa22f57369210e164736f6c634300060c0033",
  "immutableReferences": {},
  "source": "// SPDX-License-Identifier: MIT\npragma solidity >=0.4.22 <0.8.0;\npragma experimental ABIEncoderV2;\nimport './SafeMath.sol';\n\ncontract InterestVariables {\n\n  address private owner;\n  address public liquidityPoolAddress;\n\n  modifier onlyOwner() {\n      require(msg.sender == owner, \"Only owner can do function call\");\n      _;\n  }\n\n  modifier onlyLiquidityPool() {\n      require(msg.sender == liquidityPoolAddress, \"Only Liquidity pool can do function call\");\n      _;\n  }\n\n  // tokens structure\n  struct TknVariables {\n    address token_address;\n    uint optimal_utilisation;\n    uint collateral_factor;\n    uint base_rate;\n    uint slope1;\n    uint slope2;\n    uint spread;\n  }\n\n  mapping (address => TknVariables) public tokens;\n  mapping (address => InterestCummulation) public tokenIRcummulation;\n\n  struct InterestCummulation{\n    uint256 cummulated_depositIR; // could only use this and get ride of borrow\n    uint256 cummulated_borrowIR;\n    uint last_time; // last time of IR cummulation\n  }\n\n\n  constructor() public{\n    owner = msg.sender;\n  }\n\n  function setLiquidityPoolAddress(address add) public onlyOwner{\n    liquidityPoolAddress = add;\n  }\n\n  function createToken(\n    address _token_address,\n    uint _optimal_utilisation,\n    uint _collateral_factor,\n    uint _base_rate,\n    uint _slope1,\n    uint _slope2,\n    uint _spread)\n    public{\n    tokens[_token_address] = TknVariables( _token_address,_optimal_utilisation, _collateral_factor, _base_rate, _slope1, _slope2, _spread);\n    // initialise tokne glogal variable of CUMMULATED IR\n    tokenIRcummulation[_token_address].cummulated_depositIR = 1e12;\n    tokenIRcummulation[_token_address].cummulated_borrowIR = 1e12;\n    tokenIRcummulation[_token_address].last_time = now;\n  }\n\n  function getIRDepositTotalCummulation(address token) public view returns(uint){\n    require(tokens[token].token_address != address(0), 'Token not created yet');\n    return tokenIRcummulation[token].cummulated_depositIR;\n  }\n\n  function getIRBorrowTotalCummulation(address token) public view returns(uint){\n    require(tokens[token].token_address != address(0), 'Token not created yet');\n    return tokenIRcummulation[token].cummulated_borrowIR;\n  }\n\n  //returns ir% * 100 => returns 702 for 7.02% interest rate\n  function depositInterestRate(address id, uint utilisationRate) public view returns(uint){\n    TknVariables memory token = tokens[id];\n    if(utilisationRate < token.optimal_utilisation){\n      return SafeMath.add(SafeMath.mul(token.base_rate, 100), SafeMath.div(SafeMath.mul(SafeMath.mul(token.slope1, utilisationRate), 100), token.optimal_utilisation));\n    }else{\n      uint firstPart = SafeMath.mul(SafeMath.add(token.base_rate,token.slope1), 100);\n      uint partAbove = SafeMath.mul(token.slope2, SafeMath.mul(100, SafeMath.sub(utilisationRate, token.optimal_utilisation)));\n      uint partBelow = SafeMath.sub(100, token.optimal_utilisation);\n      return SafeMath.add(firstPart, SafeMath.div(partAbove, partBelow));\n    }\n  }\n\n  //returns ir% * 100 => returns 702 for 7.02% interest rate\n  // //spread € {20,40}\n  function borrowInterestRate(address id, uint utilisationRate) public view returns(uint){\n    uint deposit = depositInterestRate(id, utilisationRate);\n    TknVariables memory token = tokens[id];\n    return SafeMath.add(deposit, SafeMath.div(SafeMath.mul(deposit, token.spread),100));\n  }\n\n  //returns ir% * 100 => returns 702 for 7.02% interest rate\n  //spread € {20,40}\n  function borrowInterestRate(address id, uint utilisationRate, uint deposit) public view returns(uint){\n    TknVariables memory token = tokens[id];\n    return SafeMath.add(deposit, SafeMath.div(SafeMath.mul(deposit, token.spread),100));\n  }\n\n  // update the global variable interest rate\n  // call this before utilisation rate changes\n  function compoundIR(address token, uint utilisationRate) public onlyLiquidityPool returns (bool){\n    // timestamp\n    uint timenow = now;\n\n    // ir current (before changing the UtRate)\n    uint before_borrowIR = borrowInterestRate(token, utilisationRate);\n    uint before_depositIR = depositInterestRate(token, utilisationRate);\n\n    uint PRECISION = 1e12;\n    InterestCummulation memory tokenCummulation = tokenIRcummulation[token];\n    // seconds since last update / seconds in a year -> to account for ir pre sec\n    uint timeperiod = SafeMath.sub(timenow,tokenCummulation.last_time);\n    uint256 UINT_MAX_VALUE = uint256(-1);\n\n    // check if value of cummulated deposit interest will exceed uint256/1e12 (this is always larger)\n    if(SafeMath.mul(SafeMath.mul(tokenCummulation.cummulated_depositIR,timeperiod), before_depositIR) >= UINT_MAX_VALUE ){\n      return false;\n    }\n\n    // compound cummulated interest rate\n    // these values are always *1e12\n    if(timeperiod != 0 && before_borrowIR != 0 &&  before_depositIR != 0){\n      tokenIRcummulation[token].cummulated_borrowIR = SafeMath.div(SafeMath.mul(tokenCummulation.cummulated_borrowIR,powerPrecision(before_borrowIR, timeperiod)), PRECISION);\n      tokenIRcummulation[token].cummulated_depositIR = SafeMath.div(SafeMath.mul(tokenCummulation.cummulated_depositIR,powerPrecision(before_depositIR, timeperiod)), PRECISION);\n    }\n\n    // update last time of update\n    tokenIRcummulation[token].last_time = timenow;\n    return true;\n  }\n\n  function powerPrecision(uint256 ir, uint256 power) internal view returns (uint256){\n    uint256 PRECISION = 1e12;\n    uint256 secYear = SafeMath.mul(31556952, 10000);\n    return SafeMath.add(SafeMath.div(SafeMath.mul(SafeMath.mul(power,ir),PRECISION),secYear),PRECISION);\n  }\n\n  // get value of deposit with cummulated interest so far\n  function getCumIrDeposit(address tkn, uint cummulated_dep, uint init_ir_deposit) public view returns (uint){\n    // get initial deposit\n    if(init_ir_deposit == 0){\n      return 0;\n    }\n    return SafeMath.div(SafeMath.mul(cummulated_dep,getIRDepositTotalCummulation(tkn)),init_ir_deposit);\n  }\n\n  function getCumIrLoan(address tkn, uint cummulated_borr, uint init_ir_borrow) public view returns (uint){\n    // get initial deposit\n    if(init_ir_borrow == 0){\n      return 0;\n    }\n    // compute interest since depositing\n    return SafeMath.div(SafeMath.mul(cummulated_borr,getIRBorrowTotalCummulation(tkn)), init_ir_borrow);\n  }\n\n\n}\n",
  "sourcePath": "/Users/ioanaroceanu/Documents/Project/contracts/InterestVariables.sol",
  "compiler": {
    "name": "solc",
    "version": "0.6.12+commit.27d51765.Emscripten.clang"
  },
  "schemaVersion": "3.3.2",
  "updatedAt": "2021-03-08T18:04:20.049Z",
  "networkType": "ethereum",
  "devdoc": {
    "kind": "dev",
    "methods": {},
    "version": 1
  },
  "userdoc": {
    "kind": "user",
    "methods": {},
    "version": 1
  }
}