{
  "contractName": "InterestVariables",
  "abi": [
    {
      "inputs": [],
      "stateMutability": "nonpayable",
      "type": "constructor"
    },
    {
      "inputs": [],
      "name": "liquidityPoolAddress",
      "outputs": [
        {
          "internalType": "address",
          "name": "",
          "type": "address"
        }
      ],
      "stateMutability": "view",
      "type": "function"
    },
    {
      "inputs": [
        {
          "internalType": "address",
          "name": "",
          "type": "address"
        }
      ],
      "name": "tokenIRcummulation",
      "outputs": [
        {
          "internalType": "uint256",
          "name": "cummulated_depositIR",
          "type": "uint256"
        },
        {
          "internalType": "uint256",
          "name": "cummulated_borrowIR",
          "type": "uint256"
        },
        {
          "internalType": "uint256",
          "name": "last_time",
          "type": "uint256"
        }
      ],
      "stateMutability": "view",
      "type": "function"
    },
    {
      "inputs": [
        {
          "internalType": "address",
          "name": "",
          "type": "address"
        }
      ],
      "name": "tokens",
      "outputs": [
        {
          "internalType": "address",
          "name": "token_address",
          "type": "address"
        },
        {
          "internalType": "uint256",
          "name": "optimal_utilisation",
          "type": "uint256"
        },
        {
          "internalType": "uint256",
          "name": "collateral_factor",
          "type": "uint256"
        },
        {
          "internalType": "uint256",
          "name": "base_rate",
          "type": "uint256"
        },
        {
          "internalType": "uint256",
          "name": "slope1",
          "type": "uint256"
        },
        {
          "internalType": "uint256",
          "name": "slope2",
          "type": "uint256"
        },
        {
          "internalType": "uint256",
          "name": "spread",
          "type": "uint256"
        }
      ],
      "stateMutability": "view",
      "type": "function"
    },
    {
      "inputs": [
        {
          "internalType": "address",
          "name": "add",
          "type": "address"
        }
      ],
      "name": "setLiquidityPoolAddress",
      "outputs": [],
      "stateMutability": "nonpayable",
      "type": "function"
    },
    {
      "inputs": [
        {
          "internalType": "address",
          "name": "_token_address",
          "type": "address"
        },
        {
          "internalType": "uint256",
          "name": "_optimal_utilisation",
          "type": "uint256"
        },
        {
          "internalType": "uint256",
          "name": "_collateral_factor",
          "type": "uint256"
        },
        {
          "internalType": "uint256",
          "name": "_base_rate",
          "type": "uint256"
        },
        {
          "internalType": "uint256",
          "name": "_slope1",
          "type": "uint256"
        },
        {
          "internalType": "uint256",
          "name": "_slope2",
          "type": "uint256"
        },
        {
          "internalType": "uint256",
          "name": "_spread",
          "type": "uint256"
        }
      ],
      "name": "createToken",
      "outputs": [],
      "stateMutability": "nonpayable",
      "type": "function"
    },
    {
      "inputs": [
        {
          "internalType": "address",
          "name": "token",
          "type": "address"
        }
      ],
      "name": "getIRDepositTotalCummulation",
      "outputs": [
        {
          "internalType": "uint256",
          "name": "",
          "type": "uint256"
        }
      ],
      "stateMutability": "view",
      "type": "function"
    },
    {
      "inputs": [
        {
          "internalType": "address",
          "name": "token",
          "type": "address"
        }
      ],
      "name": "getIRBorrowTotalCummulation",
      "outputs": [
        {
          "internalType": "uint256",
          "name": "",
          "type": "uint256"
        }
      ],
      "stateMutability": "view",
      "type": "function"
    },
    {
      "inputs": [
        {
          "internalType": "address",
          "name": "id",
          "type": "address"
        },
        {
          "internalType": "uint256",
          "name": "utilisationRate",
          "type": "uint256"
        }
      ],
      "name": "depositInterestRate",
      "outputs": [
        {
          "internalType": "uint256",
          "name": "",
          "type": "uint256"
        }
      ],
      "stateMutability": "view",
      "type": "function"
    },
    {
      "inputs": [
        {
          "internalType": "address",
          "name": "id",
          "type": "address"
        },
        {
          "internalType": "uint256",
          "name": "utilisationRate",
          "type": "uint256"
        }
      ],
      "name": "borrowInterestRate",
      "outputs": [
        {
          "internalType": "uint256",
          "name": "",
          "type": "uint256"
        }
      ],
      "stateMutability": "view",
      "type": "function"
    },
    {
      "inputs": [
        {
          "internalType": "address",
          "name": "id",
          "type": "address"
        },
        {
          "internalType": "uint256",
          "name": "utilisationRate",
          "type": "uint256"
        },
        {
          "internalType": "uint256",
          "name": "deposit",
          "type": "uint256"
        }
      ],
      "name": "borrowInterestRate",
      "outputs": [
        {
          "internalType": "uint256",
          "name": "",
          "type": "uint256"
        }
      ],
      "stateMutability": "view",
      "type": "function"
    },
    {
      "inputs": [
        {
          "internalType": "address",
          "name": "token",
          "type": "address"
        },
        {
          "internalType": "uint256",
          "name": "utilisationRate",
          "type": "uint256"
        }
      ],
      "name": "compoundIR",
      "outputs": [
        {
          "internalType": "bool",
          "name": "",
          "type": "bool"
        }
      ],
      "stateMutability": "nonpayable",
      "type": "function"
    }
  ],
  "bytecode": "0x608060405234801561001057600080fd5b50336000806101000a81548173ffffffffffffffffffffffffffffffffffffffff021916908373ffffffffffffffffffffffffffffffffffffffff160217905550611856806100606000396000f3fe608060405234801561001057600080fd5b50600436106100a95760003560e01c80638306e953116100715780638306e9531461018c5780638abe523f146101a8578063d25b17b6146101d8578063dfaa254b146101f6578063e486033914610226578063f609507b1461025c576100a9565b80630f1f7bc9146100ae57806326a46dd5146100de5780633a0c6c261461010e57806340e613f91461013e57806363986aba14610170575b600080fd5b6100c860048036036100c3919081019061124d565b61028c565b6040516100d591906116f8565b60405180910390f35b6100f860048036036100f39190810190611276565b6103a9565b60405161010591906116f8565b60405180910390f35b61012860048036036101239190810190611276565b61055d565b604051610135919061161b565b60405180910390f35b6101586004803603610153919081019061124d565b61083a565b60405161016793929190611713565b60405180910390f35b61018a6004803603610185919081019061124d565b610864565b005b6101a660048036036101a19190810190611301565b610937565b005b6101c260048036036101bd9190810190611276565b610b2d565b6040516101cf91906116f8565b60405180910390f35b6101e0610c4d565b6040516101ed9190611591565b60405180910390f35b610210600480360361020b91908101906112b2565b610c73565b60405161021d91906116f8565b60405180910390f35b610240600480360361023b919081019061124d565b610d86565b60405161025397969594939291906115ac565b60405180910390f35b6102766004803603610271919081019061124d565b610de8565b60405161028391906116f8565b60405180910390f35b60008073ffffffffffffffffffffffffffffffffffffffff16600260008473ffffffffffffffffffffffffffffffffffffffff1673ffffffffffffffffffffffffffffffffffffffff16815260200190815260200160002060000160009054906101000a900473ffffffffffffffffffffffffffffffffffffffff1673ffffffffffffffffffffffffffffffffffffffff16141561035f576040517f08c379a000000000000000000000000000000000000000000000000000000000815260040161035690611698565b60405180910390fd5b600360008373ffffffffffffffffffffffffffffffffffffffff1673ffffffffffffffffffffffffffffffffffffffff168152602001908152602001600020600001549050919050565b60006103b36111af565b600260008573ffffffffffffffffffffffffffffffffffffffff1673ffffffffffffffffffffffffffffffffffffffff1681526020019081526020016000206040518060e00160405290816000820160009054906101000a900473ffffffffffffffffffffffffffffffffffffffff1673ffffffffffffffffffffffffffffffffffffffff1673ffffffffffffffffffffffffffffffffffffffff1681526020016001820154815260200160028201548152602001600382015481526020016004820154815260200160058201548152602001600682015481525050905080602001518310156104e1576104d96104af82606001516064610f05565b6104d46104ca6104c3856080015188610f05565b6064610f05565b8460200151610f75565b610fbf565b915050610557565b60006104ff6104f883606001518460800151610fbf565b6064610f05565b905060006105288360a00151610523606461051e898860200151611014565b610f05565b610f05565b9050600061053b60648560200151611014565b90506105508361054b8484610f75565b610fbf565b9450505050505b92915050565b6000600160009054906101000a900473ffffffffffffffffffffffffffffffffffffffff1673ffffffffffffffffffffffffffffffffffffffff163373ffffffffffffffffffffffffffffffffffffffff16146105ef576040517f08c379a00000000000000000000000000000000000000000000000000000000081526004016105e6906116d8565b60405180910390fd5b600042905060006106008585610b2d565b9050600061060e86866103a9565b9050600064e8d4a510009050610622611202565b600360008973ffffffffffffffffffffffffffffffffffffffff1673ffffffffffffffffffffffffffffffffffffffff16815260200190815260200160002060405180606001604052908160008201548152602001600182015481526020016002820154815250509050600061069c868360400151611014565b905060007fffffffffffffffffffffffffffffffffffffffffffffffffffffffffffffffff9050806106db6106d5856000015185610f05565b87610f05565b106106f0576000975050505050505050610834565b60008214158015610702575060008614155b801561070f575060008514155b156107e15761073461072e8460200151610729898661105e565b610f05565b85610f75565b600360008c73ffffffffffffffffffffffffffffffffffffffff1673ffffffffffffffffffffffffffffffffffffffff1681526020019081526020016000206001018190555061079a610794846000015161078f888661105e565b610f05565b85610f75565b600360008c73ffffffffffffffffffffffffffffffffffffffff1673ffffffffffffffffffffffffffffffffffffffff168152602001908152602001600020600001819055505b86600360008c73ffffffffffffffffffffffffffffffffffffffff1673ffffffffffffffffffffffffffffffffffffffff1681526020019081526020016000206002018190555060019750505050505050505b92915050565b60036020528060005260406000206000915090508060000154908060010154908060020154905083565b6000809054906101000a900473ffffffffffffffffffffffffffffffffffffffff1673ffffffffffffffffffffffffffffffffffffffff163373ffffffffffffffffffffffffffffffffffffffff16146108f3576040517f08c379a00000000000000000000000000000000000000000000000000000000081526004016108ea906116b8565b60405180910390fd5b80600160006101000a81548173ffffffffffffffffffffffffffffffffffffffff021916908373ffffffffffffffffffffffffffffffffffffffff16021790555050565b6040518060e001604052808873ffffffffffffffffffffffffffffffffffffffff16815260200187815260200186815260200185815260200184815260200183815260200182815250600260008973ffffffffffffffffffffffffffffffffffffffff1673ffffffffffffffffffffffffffffffffffffffff16815260200190815260200160002060008201518160000160006101000a81548173ffffffffffffffffffffffffffffffffffffffff021916908373ffffffffffffffffffffffffffffffffffffffff1602179055506020820151816001015560408201518160020155606082015181600301556080820151816004015560a0820151816005015560c0820151816006015590505064e8d4a51000600360008973ffffffffffffffffffffffffffffffffffffffff1673ffffffffffffffffffffffffffffffffffffffff1681526020019081526020016000206000018190555064e8d4a51000600360008973ffffffffffffffffffffffffffffffffffffffff1673ffffffffffffffffffffffffffffffffffffffff1681526020019081526020016000206001018190555042600360008973ffffffffffffffffffffffffffffffffffffffff1673ffffffffffffffffffffffffffffffffffffffff1681526020019081526020016000206002018190555050505050505050565b600080610b3a84846103a9565b9050610b446111af565b600260008673ffffffffffffffffffffffffffffffffffffffff1673ffffffffffffffffffffffffffffffffffffffff1681526020019081526020016000206040518060e00160405290816000820160009054906101000a900473ffffffffffffffffffffffffffffffffffffffff1673ffffffffffffffffffffffffffffffffffffffff1673ffffffffffffffffffffffffffffffffffffffff16815260200160018201548152602001600282015481526020016003820154815260200160048201548152602001600582015481526020016006820154815250509050610c4382610c3e610c37858560c00151610f05565b6064610f75565b610fbf565b9250505092915050565b600160009054906101000a900473ffffffffffffffffffffffffffffffffffffffff1681565b6000610c7d6111af565b600260008673ffffffffffffffffffffffffffffffffffffffff1673ffffffffffffffffffffffffffffffffffffffff1681526020019081526020016000206040518060e00160405290816000820160009054906101000a900473ffffffffffffffffffffffffffffffffffffffff1673ffffffffffffffffffffffffffffffffffffffff1673ffffffffffffffffffffffffffffffffffffffff16815260200160018201548152602001600282015481526020016003820154815260200160048201548152602001600582015481526020016006820154815250509050610d7c83610d77610d70868560c00151610f05565b6064610f75565b610fbf565b9150509392505050565b60026020528060005260406000206000915090508060000160009054906101000a900473ffffffffffffffffffffffffffffffffffffffff16908060010154908060020154908060030154908060040154908060050154908060060154905087565b60008073ffffffffffffffffffffffffffffffffffffffff16600260008473ffffffffffffffffffffffffffffffffffffffff1673ffffffffffffffffffffffffffffffffffffffff16815260200190815260200160002060000160009054906101000a900473ffffffffffffffffffffffffffffffffffffffff1673ffffffffffffffffffffffffffffffffffffffff161415610ebb576040517f08c379a0000000000000000000000000000000000000000000000000000000008152600401610eb290611698565b60405180910390fd5b600360008373ffffffffffffffffffffffffffffffffffffffff1673ffffffffffffffffffffffffffffffffffffffff168152602001908152602001600020600101549050919050565b600080831415610f185760009050610f6f565b6000828402905082848281610f2957fe5b0414610f6a576040517f08c379a0000000000000000000000000000000000000000000000000000000008152600401610f6190611678565b60405180910390fd5b809150505b92915050565b6000610fb783836040518060400160405280601a81526020017f536166654d6174683a206469766973696f6e206279207a65726f0000000000008152506110f3565b905092915050565b60008082840190508381101561100a576040517f08c379a000000000000000000000000000000000000000000000000000000000815260040161100190611658565b60405180910390fd5b8091505092915050565b600061105683836040518060400160405280601e81526020017f536166654d6174683a207375627472616374696f6e206f766572666c6f770000815250611154565b905092915050565b60008064e8d4a51000905060006301e185589050600061108082612710610f05565b905060006110a061109a6110948985610fbf565b86610f05565b83610f75565b905060008090505b6110b3876001611014565b8110156110e5576110d66110d0836110cb8b87610fbf565b610f05565b84610f75565b915080806001019150506110a8565b508094505050505092915050565b6000808311829061113a576040517f08c379a00000000000000000000000000000000000000000000000000000000081526004016111319190611636565b60405180910390fd5b50600083858161114657fe5b049050809150509392505050565b600083831115829061119c576040517f08c379a00000000000000000000000000000000000000000000000000000000081526004016111939190611636565b60405180910390fd5b5060008385039050809150509392505050565b6040518060e00160405280600073ffffffffffffffffffffffffffffffffffffffff1681526020016000815260200160008152602001600081526020016000815260200160008152602001600081525090565b60405180606001604052806000815260200160008152602001600081525090565b600081359050611232816117f2565b92915050565b60008135905061124781611809565b92915050565b60006020828403121561125f57600080fd5b600061126d84828501611223565b91505092915050565b6000806040838503121561128957600080fd5b600061129785828601611223565b92505060206112a885828601611238565b9150509250929050565b6000806000606084860312156112c757600080fd5b60006112d586828701611223565b93505060206112e686828701611238565b92505060406112f786828701611238565b9150509250925092565b600080600080600080600060e0888a03121561131c57600080fd5b600061132a8a828b01611223565b975050602061133b8a828b01611238565b965050604061134c8a828b01611238565b955050606061135d8a828b01611238565b945050608061136e8a828b01611238565b93505060a061137f8a828b01611238565b92505060c06113908a828b01611238565b91505092959891949750929550565b6113a881611766565b82525050565b6113b781611778565b82525050565b60006113c88261174a565b6113d28185611755565b93506113e28185602086016117ae565b6113eb816117e1565b840191505092915050565b6000611403601b83611755565b91507f536166654d6174683a206164646974696f6e206f766572666c6f7700000000006000830152602082019050919050565b6000611443602183611755565b91507f536166654d6174683a206d756c7469706c69636174696f6e206f766572666c6f60008301527f77000000000000000000000000000000000000000000000000000000000000006020830152604082019050919050565b60006114a9601583611755565b91507f546f6b656e206e6f7420637265617465642079657400000000000000000000006000830152602082019050919050565b60006114e9601f83611755565b91507f4f6e6c79206f776e65722063616e20646f2066756e6374696f6e2063616c6c006000830152602082019050919050565b6000611529602883611755565b91507f4f6e6c79204c697175696469747920706f6f6c2063616e20646f2066756e637460008301527f696f6e2063616c6c0000000000000000000000000000000000000000000000006020830152604082019050919050565b61158b816117a4565b82525050565b60006020820190506115a6600083018461139f565b92915050565b600060e0820190506115c1600083018a61139f565b6115ce6020830189611582565b6115db6040830188611582565b6115e86060830187611582565b6115f56080830186611582565b61160260a0830185611582565b61160f60c0830184611582565b98975050505050505050565b600060208201905061163060008301846113ae565b92915050565b6000602082019050818103600083015261165081846113bd565b905092915050565b60006020820190508181036000830152611671816113f6565b9050919050565b6000602082019050818103600083015261169181611436565b9050919050565b600060208201905081810360008301526116b18161149c565b9050919050565b600060208201905081810360008301526116d1816114dc565b9050919050565b600060208201905081810360008301526116f18161151c565b9050919050565b600060208201905061170d6000830184611582565b92915050565b60006060820190506117286000830186611582565b6117356020830185611582565b6117426040830184611582565b949350505050565b600081519050919050565b600082825260208201905092915050565b600061177182611784565b9050919050565b60008115159050919050565b600073ffffffffffffffffffffffffffffffffffffffff82169050919050565b6000819050919050565b60005b838110156117cc5780820151818401526020810190506117b1565b838111156117db576000848401525b50505050565b6000601f19601f8301169050919050565b6117fb81611766565b811461180657600080fd5b50565b611812816117a4565b811461181d57600080fd5b5056fea264697066735822122059291283e4275bdedb4f38043b84e26ae5e8f326ddf16fbe546f8875d8a8a44e64736f6c63430006020033",
  "source": "// SPDX-License-Identifier: MIT\npragma solidity >=0.4.22 <0.8.0;\npragma experimental ABIEncoderV2;\nimport './SafeMath.sol';\n\ncontract InterestVariables {\n\n  address private owner;\n  address public liquidityPoolAddress;\n\n  modifier onlyOwner() {\n      require(msg.sender == owner, \"Only owner can do function call\");\n      _;\n  }\n\n  modifier onlyLiquidityPool() {\n      require(msg.sender == liquidityPoolAddress, \"Only Liquidity pool can do function call\");\n      _;\n  }\n\n  // tokens structure\n  struct TknVariables {\n    address token_address;\n    uint optimal_utilisation;\n    uint collateral_factor;\n    uint base_rate;\n    uint slope1;\n    uint slope2;\n    uint spread;\n  }\n\n  mapping (address => TknVariables) public tokens;\n  mapping (address => InterestCummulation) public tokenIRcummulation;\n\n  struct InterestCummulation{\n    uint256 cummulated_depositIR; // could only use this and get ride of borrow\n    uint256 cummulated_borrowIR;\n    uint last_time; // last time of IR cummulation\n  }\n\n\n  constructor() public{\n    owner = msg.sender;\n  }\n\n  function setLiquidityPoolAddress(address add) public onlyOwner{\n    liquidityPoolAddress = add;\n  }\n\n  function createToken(\n    address _token_address,\n    uint _optimal_utilisation,\n    uint _collateral_factor,\n    uint _base_rate,\n    uint _slope1,\n    uint _slope2,\n    uint _spread)\n    public{\n    tokens[_token_address] = TknVariables( _token_address,_optimal_utilisation, _collateral_factor, _base_rate, _slope1, _slope2, _spread);\n    // initialise tokne glogal variable of CUMMULATED IR\n    tokenIRcummulation[_token_address].cummulated_depositIR = 1e12;\n    tokenIRcummulation[_token_address].cummulated_borrowIR = 1e12;\n    tokenIRcummulation[_token_address].last_time = now;\n  }\n\n  function getIRDepositTotalCummulation(address token) public view returns(uint){\n    require(tokens[token].token_address != address(0), 'Token not created yet');\n    return tokenIRcummulation[token].cummulated_depositIR;\n  }\n\n  function getIRBorrowTotalCummulation(address token) public view returns(uint){\n    require(tokens[token].token_address != address(0), 'Token not created yet');\n    return tokenIRcummulation[token].cummulated_borrowIR;\n  }\n\n  //returns ir% * 100 => returns 702 for 7.02% interest rate\n  function depositInterestRate(address id, uint utilisationRate) public view returns(uint){\n    TknVariables memory token = tokens[id];\n    if(utilisationRate < token.optimal_utilisation){\n      return SafeMath.add(SafeMath.mul(token.base_rate, 100), SafeMath.div(SafeMath.mul(SafeMath.mul(token.slope1, utilisationRate), 100), token.optimal_utilisation));\n    }else{\n      uint firstPart = SafeMath.mul(SafeMath.add(token.base_rate,token.slope1), 100);\n      uint partAbove = SafeMath.mul(token.slope2, SafeMath.mul(100, SafeMath.sub(utilisationRate, token.optimal_utilisation)));\n      uint partBelow = SafeMath.sub(100, token.optimal_utilisation);\n      return SafeMath.add(firstPart, SafeMath.div(partAbove, partBelow));\n    }\n  }\n\n  //returns ir% * 100 => returns 702 for 7.02% interest rate\n  // //spread  {20,40}\n  function borrowInterestRate(address id, uint utilisationRate) public view returns(uint){\n    uint deposit = depositInterestRate(id, utilisationRate);\n    TknVariables memory token = tokens[id];\n    return SafeMath.add(deposit, SafeMath.div(SafeMath.mul(deposit, token.spread),100));\n  }\n\n  //returns ir% * 100 => returns 702 for 7.02% interest rate\n  //spread  {20,40}\n  function borrowInterestRate(address id, uint utilisationRate, uint deposit) public view returns(uint){\n    TknVariables memory token = tokens[id];\n    return SafeMath.add(deposit, SafeMath.div(SafeMath.mul(deposit, token.spread),100));\n  }\n\n  // update the global variable interest rate\n  // call this before utilisation rate changes\n  function compoundIR(address token, uint utilisationRate) public onlyLiquidityPool returns (bool){\n    // timestamp\n    uint timenow = now;\n\n    // ir current (before changing the UtRate)\n    uint before_borrowIR = borrowInterestRate(token, utilisationRate);\n    uint before_depositIR = depositInterestRate(token, utilisationRate);\n\n    uint PRECISION = 1e12;\n    InterestCummulation memory tokenCummulation = tokenIRcummulation[token];\n    // seconds since last update / seconds in a year -> to account for ir pre sec\n    uint timeperiod = SafeMath.sub(timenow,tokenCummulation.last_time);\n    uint256 UINT_MAX_VALUE = uint256(-1);\n\n    // check if value of cummulated deposit interest will exceed uint256/1e12 (this is always larger)\n    if(SafeMath.mul(SafeMath.mul(tokenCummulation.cummulated_depositIR,timeperiod), before_depositIR) >= UINT_MAX_VALUE ){\n      return false;\n    }\n\n    // compound cummulated interest rate\n    // these values are always *1e12\n    if(timeperiod != 0 && before_borrowIR != 0 &&  before_depositIR != 0){\n      tokenIRcummulation[token].cummulated_borrowIR = SafeMath.div(SafeMath.mul(tokenCummulation.cummulated_borrowIR,powerPrecision(before_borrowIR, timeperiod)), PRECISION);\n      tokenIRcummulation[token].cummulated_depositIR = SafeMath.div(SafeMath.mul(tokenCummulation.cummulated_depositIR,powerPrecision(before_depositIR, timeperiod)), PRECISION);\n    }\n\n    // update last time of update\n    tokenIRcummulation[token].last_time = timenow;\n    return true;\n  }\n\n  // ( (ir+secundeAn)*Precision/secundeAn)^perioada => interest to cummulate over that time period multiplied by PRECISION 10^12\n  function powerPrecision(uint256 ir, uint256 power) internal view returns (uint256){\n    uint256 PRECISION = 1e12;\n    uint256 secYear = 31556952;\n    uint secYear4 = SafeMath.mul(secYear, 10000); // - because IR is actualir*10^4\n    uint256 result = SafeMath.div(SafeMath.mul(SafeMath.add(ir,secYear4), PRECISION), secYear4);\n    for(uint i = 0; i< SafeMath.sub(power,1); i++){\n      result = SafeMath.div(SafeMath.mul(result,SafeMath.add(ir,secYear4)), secYear4);\n    }\n    return result;\n  }\n\n\n}\n",
  "sourcePath": "/Users/ioanaroceanu/Documents/Project/contracts/InterestVariables.sol",
  "compiler": {
    "name": "solc",
    "version": "0.6.2+commit.bacdbe57.Emscripten.clang"
  },
  "schemaVersion": "3.3.2",
  "updatedAt": "2021-02-23T12:10:16.989Z",
  "devdoc": {
    "methods": {}
  },
  "userdoc": {
    "methods": {}
  }
}