{
  "contractName": "InterestVariables",
  "abi": [
    {
      "inputs": [],
      "stateMutability": "nonpayable",
      "type": "constructor"
    },
    {
      "inputs": [
        {
          "internalType": "address",
          "name": "",
          "type": "address"
        }
      ],
      "name": "tokens",
      "outputs": [
        {
          "internalType": "string",
          "name": "symbol",
          "type": "string"
        },
        {
          "internalType": "address",
          "name": "token_address",
          "type": "address"
        },
        {
          "internalType": "uint256",
          "name": "optimal_utilisation",
          "type": "uint256"
        },
        {
          "internalType": "uint256",
          "name": "collateral_factor",
          "type": "uint256"
        },
        {
          "internalType": "uint256",
          "name": "base_rate",
          "type": "uint256"
        },
        {
          "internalType": "uint256",
          "name": "slope1",
          "type": "uint256"
        },
        {
          "internalType": "uint256",
          "name": "slope2",
          "type": "uint256"
        },
        {
          "internalType": "uint256",
          "name": "spread",
          "type": "uint256"
        }
      ],
      "stateMutability": "view",
      "type": "function",
      "constant": true
    },
    {
      "inputs": [
        {
          "internalType": "string",
          "name": "_symbol",
          "type": "string"
        },
        {
          "internalType": "address",
          "name": "_token_address",
          "type": "address"
        },
        {
          "internalType": "uint256",
          "name": "_optimal_utilisation",
          "type": "uint256"
        },
        {
          "internalType": "uint256",
          "name": "_collateral_factor",
          "type": "uint256"
        },
        {
          "internalType": "uint256",
          "name": "_base_rate",
          "type": "uint256"
        },
        {
          "internalType": "uint256",
          "name": "_slope1",
          "type": "uint256"
        },
        {
          "internalType": "uint256",
          "name": "_slope2",
          "type": "uint256"
        },
        {
          "internalType": "uint256",
          "name": "_spread",
          "type": "uint256"
        }
      ],
      "name": "createToken",
      "outputs": [],
      "stateMutability": "nonpayable",
      "type": "function"
    },
    {
      "inputs": [
        {
          "internalType": "address",
          "name": "id",
          "type": "address"
        }
      ],
      "name": "getSymbol",
      "outputs": [
        {
          "internalType": "string",
          "name": "",
          "type": "string"
        }
      ],
      "stateMutability": "nonpayable",
      "type": "function"
    },
    {
      "inputs": [
        {
          "internalType": "address",
          "name": "id",
          "type": "address"
        }
      ],
      "name": "getOptUtilisation",
      "outputs": [
        {
          "internalType": "uint256",
          "name": "",
          "type": "uint256"
        }
      ],
      "stateMutability": "nonpayable",
      "type": "function"
    },
    {
      "inputs": [
        {
          "internalType": "address",
          "name": "id",
          "type": "address"
        }
      ],
      "name": "getCollateralFactor",
      "outputs": [
        {
          "internalType": "uint256",
          "name": "",
          "type": "uint256"
        }
      ],
      "stateMutability": "nonpayable",
      "type": "function"
    },
    {
      "inputs": [
        {
          "internalType": "address",
          "name": "id",
          "type": "address"
        }
      ],
      "name": "getBaseRate",
      "outputs": [
        {
          "internalType": "uint256",
          "name": "",
          "type": "uint256"
        }
      ],
      "stateMutability": "nonpayable",
      "type": "function"
    },
    {
      "inputs": [
        {
          "internalType": "address",
          "name": "id",
          "type": "address"
        }
      ],
      "name": "getSlope1",
      "outputs": [
        {
          "internalType": "uint256",
          "name": "",
          "type": "uint256"
        }
      ],
      "stateMutability": "nonpayable",
      "type": "function"
    },
    {
      "inputs": [
        {
          "internalType": "address",
          "name": "id",
          "type": "address"
        }
      ],
      "name": "getSlope2",
      "outputs": [
        {
          "internalType": "uint256",
          "name": "",
          "type": "uint256"
        }
      ],
      "stateMutability": "nonpayable",
      "type": "function"
    },
    {
      "inputs": [
        {
          "internalType": "address",
          "name": "id",
          "type": "address"
        }
      ],
      "name": "getSpread",
      "outputs": [
        {
          "internalType": "uint256",
          "name": "",
          "type": "uint256"
        }
      ],
      "stateMutability": "nonpayable",
      "type": "function"
    },
    {
      "inputs": [
        {
          "internalType": "address",
          "name": "id",
          "type": "address"
        },
        {
          "internalType": "uint256",
          "name": "utilisationRate",
          "type": "uint256"
        }
      ],
      "name": "borrowInterestRate",
      "outputs": [
        {
          "internalType": "uint256",
          "name": "",
          "type": "uint256"
        }
      ],
      "stateMutability": "view",
      "type": "function",
      "constant": true
    },
    {
      "inputs": [
        {
          "internalType": "address",
          "name": "id",
          "type": "address"
        },
        {
          "internalType": "uint256",
          "name": "utilisationRate",
          "type": "uint256"
        }
      ],
      "name": "depositInterestRate",
      "outputs": [
        {
          "internalType": "uint256",
          "name": "",
          "type": "uint256"
        }
      ],
      "stateMutability": "view",
      "type": "function",
      "constant": true
    },
    {
      "inputs": [
        {
          "internalType": "address",
          "name": "id",
          "type": "address"
        },
        {
          "internalType": "uint256",
          "name": "utilisationRate",
          "type": "uint256"
        },
        {
          "internalType": "uint256",
          "name": "borrowIR",
          "type": "uint256"
        }
      ],
      "name": "depositInterestRate",
      "outputs": [
        {
          "internalType": "uint256",
          "name": "",
          "type": "uint256"
        }
      ],
      "stateMutability": "view",
      "type": "function",
      "constant": true
    }
  ],
  "bytecode": "0x608060405234801561001057600080fd5b50336000806101000a81548173ffffffffffffffffffffffffffffffffffffffff021916908373ffffffffffffffffffffffffffffffffffffffff16021790555061130b806100606000396000f3fe608060405234801561001057600080fd5b50600436106100b45760003560e01c80639889ee75116100715780639889ee75146101c55780639b4bd754146101f55780639ba7a8c014610225578063c9b2e52214610255578063e486033914610285578063ea606a61146102bc576100b4565b806323617585146100b957806326a46dd5146100e957806335d748b514610119578063402fda40146101495780637289370e146101655780638abe523f14610195575b600080fd5b6100d360048036036100ce9190810190610ec8565b6102ec565b6040516100e0919061117d565b60405180910390f35b61010360048036036100fe9190810190610ef1565b610338565b604051610110919061117d565b60405180910390f35b610133600480360361012e9190810190610ec8565b6104ee565b604051610140919061117d565b60405180910390f35b610163600480360361015e9190810190610f7c565b61053a565b005b61017f600480360361017a9190810190610f2d565b610688565b60405161018c919061117d565b60405180910390f35b6101af60048036036101aa9190810190610ef1565b610831565b6040516101bc919061117d565b60405180910390f35b6101df60048036036101da9190810190610ec8565b610a36565b6040516101ec919061117d565b60405180910390f35b61020f600480360361020a9190810190610ec8565b610a82565b60405161021c919061117d565b60405180910390f35b61023f600480360361023a9190810190610ec8565b610ace565b60405161024c919061117d565b60405180910390f35b61026f600480360361026a9190810190610ec8565b610b1a565b60405161027c91906110d6565b60405180910390f35b61029f600480360361029a9190810190610ec8565b610bfe565b6040516102b39897969594939291906110f8565b60405180910390f35b6102d660048036036102d19190810190610ec8565b610cfe565b6040516102e3919061117d565b60405180910390f35b6000600160008373ffffffffffffffffffffffffffffffffffffffff1673ffffffffffffffffffffffffffffffffffffffff168152602001908152602001600020600301549050919050565b6000806103458484610831565b905061034f610d4a565b600160008673ffffffffffffffffffffffffffffffffffffffff1673ffffffffffffffffffffffffffffffffffffffff16815260200190815260200160002060405180610100016040529081600082018054600181600116156101000203166002900480601f0160208091040260200160405190810160405280929190818152602001828054600181600116156101000203166002900480156104335780601f1061040857610100808354040283529160200191610433565b820191906000526020600020905b81548152906001019060200180831161041657829003601f168201915b505050505081526020016001820160009054906101000a900473ffffffffffffffffffffffffffffffffffffffff1673ffffffffffffffffffffffffffffffffffffffff1673ffffffffffffffffffffffffffffffffffffffff168152602001600282015481526020016003820154815260200160048201548152602001600582015481526020016006820154815260200160078201548152505090506127108160e001518302816104e157fe5b0482019250505092915050565b6000600160008373ffffffffffffffffffffffffffffffffffffffff1673ffffffffffffffffffffffffffffffffffffffff168152602001908152602001600020600601549050919050565b6040518061010001604052808981526020018873ffffffffffffffffffffffffffffffffffffffff16815260200160648802815260200160648702815260200160648602815260200160648502815260200160648402815260200160648302815250600160008973ffffffffffffffffffffffffffffffffffffffff1673ffffffffffffffffffffffffffffffffffffffff16815260200190815260200160002060008201518160000190805190602001906105f7929190610da5565b5060208201518160010160006101000a81548173ffffffffffffffffffffffffffffffffffffffff021916908373ffffffffffffffffffffffffffffffffffffffff16021790555060408201518160020155606082015181600301556080820151816004015560a0820151816005015560c0820151816006015560e082015181600701559050505050505050505050565b6000610692610d4a565b600160008673ffffffffffffffffffffffffffffffffffffffff1673ffffffffffffffffffffffffffffffffffffffff16815260200190815260200160002060405180610100016040529081600082018054600181600116156101000203166002900480601f0160208091040260200160405190810160405280929190818152602001828054600181600116156101000203166002900480156107765780601f1061074b57610100808354040283529160200191610776565b820191906000526020600020905b81548152906001019060200180831161075957829003601f168201915b505050505081526020016001820160009054906101000a900473ffffffffffffffffffffffffffffffffffffffff1673ffffffffffffffffffffffffffffffffffffffff1673ffffffffffffffffffffffffffffffffffffffff168152602001600282015481526020016003820154815260200160048201548152602001600582015481526020016006820154815260200160078201548152505090506127108160e0015184028161082457fe5b0483019150509392505050565b600061083b610d4a565b600160008573ffffffffffffffffffffffffffffffffffffffff1673ffffffffffffffffffffffffffffffffffffffff16815260200190815260200160002060405180610100016040529081600082018054600181600116156101000203166002900480601f01602080910402602001604051908101604052809291908181526020018280546001816001161561010002031660029004801561091f5780601f106108f45761010080835404028352916020019161091f565b820191906000526020600020905b81548152906001019060200180831161090257829003601f168201915b505050505081526020016001820160009054906101000a900473ffffffffffffffffffffffffffffffffffffffff1673ffffffffffffffffffffffffffffffffffffffff1673ffffffffffffffffffffffffffffffffffffffff1681526020016002820154815260200160038201548152602001600482015481526020016005820154815260200160068201548152602001600782015481525050905080604001516064840210156109f15780604001516127108402816109dc57fe5b048160a0015102816080015101915050610a30565b806040015161271003606482604001510261271085020381610a0f57fe5b0460648260c0015181610a1e57fe5b04028160a00151826080015101019150505b92915050565b6000600160008373ffffffffffffffffffffffffffffffffffffffff1673ffffffffffffffffffffffffffffffffffffffff168152602001908152602001600020600201549050919050565b6000600160008373ffffffffffffffffffffffffffffffffffffffff1673ffffffffffffffffffffffffffffffffffffffff168152602001908152602001600020600701549050919050565b6000600160008373ffffffffffffffffffffffffffffffffffffffff1673ffffffffffffffffffffffffffffffffffffffff168152602001908152602001600020600401549050919050565b6060600160008373ffffffffffffffffffffffffffffffffffffffff1673ffffffffffffffffffffffffffffffffffffffff1681526020019081526020016000206000018054600181600116156101000203166002900480601f016020809104026020016040519081016040528092919081815260200182805460018160011615610100020316600290048015610bf25780601f10610bc757610100808354040283529160200191610bf2565b820191906000526020600020905b815481529060010190602001808311610bd557829003601f168201915b50505050509050919050565b6001602052806000526040600020600091509050806000018054600181600116156101000203166002900480601f016020809104026020016040519081016040528092919081815260200182805460018160011615610100020316600290048015610caa5780601f10610c7f57610100808354040283529160200191610caa565b820191906000526020600020905b815481529060010190602001808311610c8d57829003601f168201915b5050505050908060010160009054906101000a900473ffffffffffffffffffffffffffffffffffffffff16908060020154908060030154908060040154908060050154908060060154908060070154905088565b6000600160008373ffffffffffffffffffffffffffffffffffffffff1673ffffffffffffffffffffffffffffffffffffffff168152602001908152602001600020600501549050919050565b60405180610100016040528060608152602001600073ffffffffffffffffffffffffffffffffffffffff1681526020016000815260200160008152602001600081526020016000815260200160008152602001600081525090565b828054600181600116156101000203166002900490600052602060002090601f016020900481019282601f10610de657805160ff1916838001178555610e14565b82800160010185558215610e14579182015b82811115610e13578251825591602001919060010190610df8565b5b509050610e219190610e25565b5090565b610e4791905b80821115610e43576000816000905550600101610e2b565b5090565b90565b600081359050610e59816112a7565b92915050565b600082601f830112610e7057600080fd5b8135610e83610e7e826111c5565b611198565b91508082526020830160208301858383011115610e9f57600080fd5b610eaa838284611254565b50505092915050565b600081359050610ec2816112be565b92915050565b600060208284031215610eda57600080fd5b6000610ee884828501610e4a565b91505092915050565b60008060408385031215610f0457600080fd5b6000610f1285828601610e4a565b9250506020610f2385828601610eb3565b9150509250929050565b600080600060608486031215610f4257600080fd5b6000610f5086828701610e4a565b9350506020610f6186828701610eb3565b9250506040610f7286828701610eb3565b9150509250925092565b600080600080600080600080610100898b031215610f9957600080fd5b600089013567ffffffffffffffff811115610fb357600080fd5b610fbf8b828c01610e5f565b9850506020610fd08b828c01610e4a565b9750506040610fe18b828c01610eb3565b9650506060610ff28b828c01610eb3565b95505060806110038b828c01610eb3565b94505060a06110148b828c01610eb3565b93505060c06110258b828c01610eb3565b92505060e06110368b828c01610eb3565b9150509295985092959890939650565b61104f81611218565b82525050565b6000611060826111fc565b61106a8185611207565b935061107a818560208601611263565b61108381611296565b840191505092915050565b6000611099826111f1565b6110a38185611207565b93506110b3818560208601611263565b6110bc81611296565b840191505092915050565b6110d08161124a565b82525050565b600060208201905081810360008301526110f08184611055565b905092915050565b6000610100820190508181036000830152611113818b61108e565b9050611122602083018a611046565b61112f60408301896110c7565b61113c60608301886110c7565b61114960808301876110c7565b61115660a08301866110c7565b61116360c08301856110c7565b61117060e08301846110c7565b9998505050505050505050565b600060208201905061119260008301846110c7565b92915050565b6000604051905081810181811067ffffffffffffffff821117156111bb57600080fd5b8060405250919050565b600067ffffffffffffffff8211156111dc57600080fd5b601f19601f8301169050602081019050919050565b600081519050919050565b600081519050919050565b600082825260208201905092915050565b60006112238261122a565b9050919050565b600073ffffffffffffffffffffffffffffffffffffffff82169050919050565b6000819050919050565b82818337600083830152505050565b60005b83811015611281578082015181840152602081019050611266565b83811115611290576000848401525b50505050565b6000601f19601f8301169050919050565b6112b081611218565b81146112bb57600080fd5b50565b6112c78161124a565b81146112d257600080fd5b5056fea2646970667358221220f74d62eab2772ac926bdb23e31a8f7bc6f62714492cfedff26b38e984be113d364736f6c63430006020033",
  "source": "// SPDX-License-Identifier: MIT\npragma solidity >=0.4.22 <0.8.0;\npragma experimental ABIEncoderV2;\n//import './SafeMath.sol';\n\ncontract InterestVariables {\n\n  address private owner;\n\n  modifier onlyOwner() {\n      require(msg.sender == owner);\n      _;\n  }\n\n  // tokens structure\n  struct TknVariables {\n    string symbol;\n    address token_address;\n    uint optimal_utilisation;\n    uint collateral_factor;\n    uint base_rate;\n    uint slope1;\n    uint slope2;\n    uint spread;\n  }\n\n  mapping (address => TknVariables) public tokens;\n\n\n  constructor() public{\n    owner = msg.sender;\n  }\n\n  function createToken(string memory _symbol,\n    address _token_address,\n    uint _optimal_utilisation,\n    uint _collateral_factor,\n    uint _base_rate,\n    uint _slope1,\n    uint _slope2,\n    uint _spread)\n    public{\n    tokens[_token_address] = TknVariables(_symbol, _token_address,_optimal_utilisation*100, _collateral_factor*100, _base_rate*100, _slope1*100, _slope2*100, _spread*100);\n  }\n\n  function getSymbol(address id) public returns(string memory){\n    return tokens[id].symbol;\n  }\n\n  function getOptUtilisation(address id) public returns(uint){\n    return tokens[id].optimal_utilisation;\n  }\n\n  function getCollateralFactor(address id) public returns(uint){\n    return tokens[id].collateral_factor;\n  }\n\n  function getBaseRate(address id) public returns(uint){\n    return tokens[id].base_rate;\n  }\n\n  function getSlope1(address id) public returns(uint){\n    return tokens[id].slope1;\n  }\n\n  function getSlope2(address id) public returns(uint){\n    return tokens[id].slope2;\n  }\n\n  function getSpread(address id) public returns(uint){\n    return tokens[id].spread;\n  }\n\n  //returns ir% * 100 => returns 702 for 7.02% interest rate\n  function borrowInterestRate(address id, uint utilisationRate) public view returns(uint){\n    TknVariables memory token = tokens[id];\n    if(utilisationRate*100 < token.optimal_utilisation){\n      return token.base_rate + token.slope1*(utilisationRate*10000/token.optimal_utilisation);\n    }else{\n      return token.base_rate + token.slope1 + (token.slope2/100)*( (utilisationRate*10000 - token.optimal_utilisation*100) / (10000 - token.optimal_utilisation));\n    }\n  }\n\n  //returns ir% * 100 => returns 702 for 7.02% interest rate\n  function depositInterestRate(address id, uint utilisationRate) public view returns(uint){\n    uint borrow = borrowInterestRate(id, utilisationRate);\n    TknVariables memory token = tokens[id];\n    return borrow + borrow*token.spread/10000;\n  }\n\n  //returns ir% * 100 => returns 702 for 7.02% interest rate\n  function depositInterestRate(address id, uint utilisationRate, uint borrowIR) public view returns(uint){\n    //uint borrow = borrowInterestRate(id, utilisationRate);\n    TknVariables memory token = tokens[id];\n    return borrowIR + borrowIR*token.spread/10000;\n  }\n\n}\n",
  "sourcePath": "/Users/ioanaroceanu/Documents/Project/contracts/InterestVariables.sol",
  "compiler": {
    "name": "solc",
    "version": "0.6.2+commit.bacdbe57.Emscripten.clang"
  },
  "schemaVersion": "3.3.2",
  "updatedAt": "2020-11-19T08:40:24.951Z",
  "networkType": "ethereum",
  "devdoc": {
    "methods": {}
  },
  "userdoc": {
    "methods": {}
  }
}