{
  "contractName": "InterestVariables",
  "abi": [
    {
      "inputs": [],
      "stateMutability": "nonpayable",
      "type": "constructor"
    },
    {
      "inputs": [
        {
          "internalType": "address",
          "name": "",
          "type": "address"
        }
      ],
      "name": "tokenIRcummulation",
      "outputs": [
        {
          "internalType": "uint256",
          "name": "cummulated_depositIR",
          "type": "uint256"
        },
        {
          "internalType": "uint256",
          "name": "cummulated_borrowIR",
          "type": "uint256"
        },
        {
          "internalType": "uint256",
          "name": "last_time",
          "type": "uint256"
        }
      ],
      "stateMutability": "view",
      "type": "function",
      "constant": true
    },
    {
      "inputs": [
        {
          "internalType": "address",
          "name": "",
          "type": "address"
        }
      ],
      "name": "tokens",
      "outputs": [
        {
          "internalType": "string",
          "name": "symbol",
          "type": "string"
        },
        {
          "internalType": "address",
          "name": "token_address",
          "type": "address"
        },
        {
          "internalType": "uint256",
          "name": "optimal_utilisation",
          "type": "uint256"
        },
        {
          "internalType": "uint256",
          "name": "collateral_factor",
          "type": "uint256"
        },
        {
          "internalType": "uint256",
          "name": "base_rate",
          "type": "uint256"
        },
        {
          "internalType": "uint256",
          "name": "slope1",
          "type": "uint256"
        },
        {
          "internalType": "uint256",
          "name": "slope2",
          "type": "uint256"
        },
        {
          "internalType": "uint256",
          "name": "spread",
          "type": "uint256"
        }
      ],
      "stateMutability": "view",
      "type": "function",
      "constant": true
    },
    {
      "inputs": [
        {
          "internalType": "string",
          "name": "_symbol",
          "type": "string"
        },
        {
          "internalType": "address",
          "name": "_token_address",
          "type": "address"
        },
        {
          "internalType": "uint256",
          "name": "_optimal_utilisation",
          "type": "uint256"
        },
        {
          "internalType": "uint256",
          "name": "_collateral_factor",
          "type": "uint256"
        },
        {
          "internalType": "uint256",
          "name": "_base_rate",
          "type": "uint256"
        },
        {
          "internalType": "uint256",
          "name": "_slope1",
          "type": "uint256"
        },
        {
          "internalType": "uint256",
          "name": "_slope2",
          "type": "uint256"
        },
        {
          "internalType": "uint256",
          "name": "_spread",
          "type": "uint256"
        }
      ],
      "name": "createToken",
      "outputs": [],
      "stateMutability": "nonpayable",
      "type": "function"
    },
    {
      "inputs": [
        {
          "internalType": "address",
          "name": "id",
          "type": "address"
        }
      ],
      "name": "getSymbol",
      "outputs": [
        {
          "internalType": "string",
          "name": "",
          "type": "string"
        }
      ],
      "stateMutability": "view",
      "type": "function",
      "constant": true
    },
    {
      "inputs": [
        {
          "internalType": "address",
          "name": "id",
          "type": "address"
        }
      ],
      "name": "getOptUtilisation",
      "outputs": [
        {
          "internalType": "uint256",
          "name": "",
          "type": "uint256"
        }
      ],
      "stateMutability": "view",
      "type": "function",
      "constant": true
    },
    {
      "inputs": [
        {
          "internalType": "address",
          "name": "id",
          "type": "address"
        }
      ],
      "name": "getCollateralFactor",
      "outputs": [
        {
          "internalType": "uint256",
          "name": "",
          "type": "uint256"
        }
      ],
      "stateMutability": "view",
      "type": "function",
      "constant": true
    },
    {
      "inputs": [
        {
          "internalType": "address",
          "name": "id",
          "type": "address"
        }
      ],
      "name": "getBaseRate",
      "outputs": [
        {
          "internalType": "uint256",
          "name": "",
          "type": "uint256"
        }
      ],
      "stateMutability": "view",
      "type": "function",
      "constant": true
    },
    {
      "inputs": [
        {
          "internalType": "address",
          "name": "id",
          "type": "address"
        }
      ],
      "name": "getSlope1",
      "outputs": [
        {
          "internalType": "uint256",
          "name": "",
          "type": "uint256"
        }
      ],
      "stateMutability": "view",
      "type": "function",
      "constant": true
    },
    {
      "inputs": [
        {
          "internalType": "address",
          "name": "id",
          "type": "address"
        }
      ],
      "name": "getSlope2",
      "outputs": [
        {
          "internalType": "uint256",
          "name": "",
          "type": "uint256"
        }
      ],
      "stateMutability": "view",
      "type": "function",
      "constant": true
    },
    {
      "inputs": [
        {
          "internalType": "address",
          "name": "id",
          "type": "address"
        }
      ],
      "name": "getSpread",
      "outputs": [
        {
          "internalType": "uint256",
          "name": "",
          "type": "uint256"
        }
      ],
      "stateMutability": "view",
      "type": "function",
      "constant": true
    },
    {
      "inputs": [
        {
          "internalType": "address",
          "name": "token",
          "type": "address"
        }
      ],
      "name": "getIRDepositTotalCummulation",
      "outputs": [
        {
          "internalType": "uint256",
          "name": "",
          "type": "uint256"
        }
      ],
      "stateMutability": "view",
      "type": "function",
      "constant": true
    },
    {
      "inputs": [
        {
          "internalType": "address",
          "name": "token",
          "type": "address"
        }
      ],
      "name": "getIRBorrowTotalCummulation",
      "outputs": [
        {
          "internalType": "uint256",
          "name": "",
          "type": "uint256"
        }
      ],
      "stateMutability": "view",
      "type": "function",
      "constant": true
    },
    {
      "inputs": [
        {
          "internalType": "address",
          "name": "id",
          "type": "address"
        },
        {
          "internalType": "uint256",
          "name": "utilisationRate",
          "type": "uint256"
        }
      ],
      "name": "borrowInterestRate",
      "outputs": [
        {
          "internalType": "uint256",
          "name": "",
          "type": "uint256"
        }
      ],
      "stateMutability": "view",
      "type": "function",
      "constant": true
    },
    {
      "inputs": [
        {
          "internalType": "address",
          "name": "id",
          "type": "address"
        },
        {
          "internalType": "uint256",
          "name": "utilisationRate",
          "type": "uint256"
        }
      ],
      "name": "depositInterestRate",
      "outputs": [
        {
          "internalType": "uint256",
          "name": "",
          "type": "uint256"
        }
      ],
      "stateMutability": "view",
      "type": "function",
      "constant": true
    },
    {
      "inputs": [
        {
          "internalType": "address",
          "name": "id",
          "type": "address"
        },
        {
          "internalType": "uint256",
          "name": "utilisationRate",
          "type": "uint256"
        },
        {
          "internalType": "uint256",
          "name": "borrowIR",
          "type": "uint256"
        }
      ],
      "name": "depositInterestRate",
      "outputs": [
        {
          "internalType": "uint256",
          "name": "",
          "type": "uint256"
        }
      ],
      "stateMutability": "view",
      "type": "function",
      "constant": true
    },
    {
      "inputs": [
        {
          "internalType": "address",
          "name": "token",
          "type": "address"
        },
        {
          "internalType": "uint256",
          "name": "utilisationRate",
          "type": "uint256"
        }
      ],
      "name": "compoundIR",
      "outputs": [
        {
          "internalType": "bool",
          "name": "",
          "type": "bool"
        }
      ],
      "stateMutability": "nonpayable",
      "type": "function"
    }
  ],
  "bytecode": "0x608060405234801561001057600080fd5b50336000806101000a81548173ffffffffffffffffffffffffffffffffffffffff021916908373ffffffffffffffffffffffffffffffffffffffff160217905550611e02806100606000396000f3fe608060405234801561001057600080fd5b50600436106101005760003560e01c80638abe523f11610097578063c9b2e52211610066578063c9b2e52214610333578063e486033914610363578063ea606a611461039a578063f609507b146103ca57610100565b80638abe523f146102735780639889ee75146102a35780639b4bd754146102d35780639ba7a8c01461030357610100565b80633a0c6c26116100d35780633a0c6c26146101c5578063402fda40146101f557806340e613f9146102115780637289370e1461024357610100565b80630f1f7bc914610105578063236175851461013557806326a46dd51461016557806335d748b514610195575b600080fd5b61011f600480360361011a919081019061180c565b6103fa565b60405161012c9190611c31565b60405180910390f35b61014f600480360361014a919081019061180c565b610517565b60405161015c9190611c31565b60405180910390f35b61017f600480360361017a9190810190611835565b610563565b60405161018c9190611c31565b60405180910390f35b6101af60048036036101aa919081019061180c565b610719565b6040516101bc9190611c31565b60405180910390f35b6101df60048036036101da9190810190611835565b610765565b6040516101ec9190611b0f565b60405180910390f35b61020f600480360361020a91908101906118c0565b6109a2565b005b61022b6004803603610226919081019061180c565b610bcd565b60405161023a93929190611c4c565b60405180910390f35b61025d60048036036102589190810190611871565b610bf7565b60405161026a9190611c31565b60405180910390f35b61028d60048036036102889190810190611835565b610da0565b60405161029a9190611c31565b60405180910390f35b6102bd60048036036102b8919081019061180c565b610fa5565b6040516102ca9190611c31565b60405180910390f35b6102ed60048036036102e8919081019061180c565b610ff1565b6040516102fa9190611c31565b60405180910390f35b61031d6004803603610318919081019061180c565b61103d565b60405161032a9190611c31565b60405180910390f35b61034d6004803603610348919081019061180c565b611089565b60405161035a9190611b2a565b60405180910390f35b61037d6004803603610378919081019061180c565b61116d565b604051610391989796959493929190611b4c565b60405180910390f35b6103b460048036036103af919081019061180c565b61126d565b6040516103c19190611c31565b60405180910390f35b6103e460048036036103df919081019061180c565b6112b9565b6040516103f19190611c31565b60405180910390f35b60008073ffffffffffffffffffffffffffffffffffffffff16600160008473ffffffffffffffffffffffffffffffffffffffff1673ffffffffffffffffffffffffffffffffffffffff16815260200190815260200160002060010160009054906101000a900473ffffffffffffffffffffffffffffffffffffffff1673ffffffffffffffffffffffffffffffffffffffff1614156104cd576040517f08c379a00000000000000000000000000000000000000000000000000000000081526004016104c490611c11565b60405180910390fd5b600260008373ffffffffffffffffffffffffffffffffffffffff1673ffffffffffffffffffffffffffffffffffffffff168152602001908152602001600020600001549050919050565b6000600160008373ffffffffffffffffffffffffffffffffffffffff1673ffffffffffffffffffffffffffffffffffffffff168152602001908152602001600020600301549050919050565b6000806105708484610da0565b905061057a61166d565b600160008673ffffffffffffffffffffffffffffffffffffffff1673ffffffffffffffffffffffffffffffffffffffff16815260200190815260200160002060405180610100016040529081600082018054600181600116156101000203166002900480601f01602080910402602001604051908101604052809291908181526020018280546001816001161561010002031660029004801561065e5780601f106106335761010080835404028352916020019161065e565b820191906000526020600020905b81548152906001019060200180831161064157829003601f168201915b505050505081526020016001820160009054906101000a900473ffffffffffffffffffffffffffffffffffffffff1673ffffffffffffffffffffffffffffffffffffffff1673ffffffffffffffffffffffffffffffffffffffff168152602001600282015481526020016003820154815260200160048201548152602001600582015481526020016006820154815260200160078201548152505090506127108160e0015183028161070c57fe5b0482019250505092915050565b6000600160008373ffffffffffffffffffffffffffffffffffffffff1673ffffffffffffffffffffffffffffffffffffffff168152602001908152602001600020600601549050919050565b60008042905060006107778585610da0565b905060006107858686610563565b90506000633b9aca0090506107986116c8565b600260008973ffffffffffffffffffffffffffffffffffffffff1673ffffffffffffffffffffffffffffffffffffffff1681526020019081526020016000206040518060600160405290816000820154815260200160018201548152602001600282015481525050905060006108128683604001516113d6565b905060007fffffffffffffffffffffffffffffffffffffffffffffffffffffffffffffffff9050808583856000015102021061085857600097505050505050505061099c565b6000821415801561086a575060008614155b8015610877575060008514155b156109495761089c61089684602001516108918986611420565b6114a2565b85611512565b600260008c73ffffffffffffffffffffffffffffffffffffffff1673ffffffffffffffffffffffffffffffffffffffff168152602001908152602001600020600101819055506109026108fc84600001516108f78886611420565b6114a2565b85611512565b600260008c73ffffffffffffffffffffffffffffffffffffffff1673ffffffffffffffffffffffffffffffffffffffff168152602001908152602001600020600001819055505b86600260008c73ffffffffffffffffffffffffffffffffffffffff1673ffffffffffffffffffffffffffffffffffffffff1681526020019081526020016000206002018190555060019750505050505050505b92915050565b6040518061010001604052808981526020018873ffffffffffffffffffffffffffffffffffffffff16815260200160648802815260200160648702815260200160648602815260200160648502815260200160648402815260200160648302815250600160008973ffffffffffffffffffffffffffffffffffffffff1673ffffffffffffffffffffffffffffffffffffffff1681526020019081526020016000206000820151816000019080519060200190610a5f9291906116e9565b5060208201518160010160006101000a81548173ffffffffffffffffffffffffffffffffffffffff021916908373ffffffffffffffffffffffffffffffffffffffff16021790555060408201518160020155606082015181600301556080820151816004015560a0820151816005015560c0820151816006015560e08201518160070155905050633b9aca00600260008973ffffffffffffffffffffffffffffffffffffffff1673ffffffffffffffffffffffffffffffffffffffff16815260200190815260200160002060000181905550633b9aca00600260008973ffffffffffffffffffffffffffffffffffffffff1673ffffffffffffffffffffffffffffffffffffffff1681526020019081526020016000206001018190555042600260008973ffffffffffffffffffffffffffffffffffffffff1673ffffffffffffffffffffffffffffffffffffffff168152602001908152602001600020600201819055505050505050505050565b60026020528060005260406000206000915090508060000154908060010154908060020154905083565b6000610c0161166d565b600160008673ffffffffffffffffffffffffffffffffffffffff1673ffffffffffffffffffffffffffffffffffffffff16815260200190815260200160002060405180610100016040529081600082018054600181600116156101000203166002900480601f016020809104026020016040519081016040528092919081815260200182805460018160011615610100020316600290048015610ce55780601f10610cba57610100808354040283529160200191610ce5565b820191906000526020600020905b815481529060010190602001808311610cc857829003601f168201915b505050505081526020016001820160009054906101000a900473ffffffffffffffffffffffffffffffffffffffff1673ffffffffffffffffffffffffffffffffffffffff1673ffffffffffffffffffffffffffffffffffffffff168152602001600282015481526020016003820154815260200160048201548152602001600582015481526020016006820154815260200160078201548152505090506127108160e00151840281610d9357fe5b0483019150509392505050565b6000610daa61166d565b600160008573ffffffffffffffffffffffffffffffffffffffff1673ffffffffffffffffffffffffffffffffffffffff16815260200190815260200160002060405180610100016040529081600082018054600181600116156101000203166002900480601f016020809104026020016040519081016040528092919081815260200182805460018160011615610100020316600290048015610e8e5780601f10610e6357610100808354040283529160200191610e8e565b820191906000526020600020905b815481529060010190602001808311610e7157829003601f168201915b505050505081526020016001820160009054906101000a900473ffffffffffffffffffffffffffffffffffffffff1673ffffffffffffffffffffffffffffffffffffffff1673ffffffffffffffffffffffffffffffffffffffff168152602001600282015481526020016003820154815260200160048201548152602001600582015481526020016006820154815260200160078201548152505090508060400151606484021015610f60578060400151612710840281610f4b57fe5b048160a0015102816080015101915050610f9f565b806040015161271003606482604001510261271085020381610f7e57fe5b0460648260c0015181610f8d57fe5b04028160a00151826080015101019150505b92915050565b6000600160008373ffffffffffffffffffffffffffffffffffffffff1673ffffffffffffffffffffffffffffffffffffffff168152602001908152602001600020600201549050919050565b6000600160008373ffffffffffffffffffffffffffffffffffffffff1673ffffffffffffffffffffffffffffffffffffffff168152602001908152602001600020600701549050919050565b6000600160008373ffffffffffffffffffffffffffffffffffffffff1673ffffffffffffffffffffffffffffffffffffffff168152602001908152602001600020600401549050919050565b6060600160008373ffffffffffffffffffffffffffffffffffffffff1673ffffffffffffffffffffffffffffffffffffffff1681526020019081526020016000206000018054600181600116156101000203166002900480601f0160208091040260200160405190810160405280929190818152602001828054600181600116156101000203166002900480156111615780601f1061113657610100808354040283529160200191611161565b820191906000526020600020905b81548152906001019060200180831161114457829003601f168201915b50505050509050919050565b6001602052806000526040600020600091509050806000018054600181600116156101000203166002900480601f0160208091040260200160405190810160405280929190818152602001828054600181600116156101000203166002900480156112195780601f106111ee57610100808354040283529160200191611219565b820191906000526020600020905b8154815290600101906020018083116111fc57829003601f168201915b5050505050908060010160009054906101000a900473ffffffffffffffffffffffffffffffffffffffff16908060020154908060030154908060040154908060050154908060060154908060070154905088565b6000600160008373ffffffffffffffffffffffffffffffffffffffff1673ffffffffffffffffffffffffffffffffffffffff168152602001908152602001600020600501549050919050565b60008073ffffffffffffffffffffffffffffffffffffffff16600160008473ffffffffffffffffffffffffffffffffffffffff1673ffffffffffffffffffffffffffffffffffffffff16815260200190815260200160002060010160009054906101000a900473ffffffffffffffffffffffffffffffffffffffff1673ffffffffffffffffffffffffffffffffffffffff16141561138c576040517f08c379a000000000000000000000000000000000000000000000000000000000815260040161138390611c11565b60405180910390fd5b600260008373ffffffffffffffffffffffffffffffffffffffff1673ffffffffffffffffffffffffffffffffffffffff168152602001908152602001600020600101549050919050565b600061141883836040518060400160405280601e81526020017f536166654d6174683a207375627472616374696f6e206f766572666c6f77000081525061155c565b905092915050565b600080633b9aca0090506000611450611446611440876301e185586115b7565b846114a2565b6301e18558611512565b905060008090505b600185038110156114965761148761147d83611478896301e185586115b7565b6114a2565b6301e18558611512565b91508080600101915050611458565b50809250505092915050565b6000808314156114b5576000905061150c565b60008284029050828482816114c657fe5b0414611507576040517f08c379a00000000000000000000000000000000000000000000000000000000081526004016114fe90611bf1565b60405180910390fd5b809150505b92915050565b600061155483836040518060400160405280601a81526020017f536166654d6174683a206469766973696f6e206279207a65726f00000000000081525061160c565b905092915050565b60008383111582906115a4576040517f08c379a000000000000000000000000000000000000000000000000000000000815260040161159b9190611b2a565b60405180910390fd5b5060008385039050809150509392505050565b600080828401905083811015611602576040517f08c379a00000000000000000000000000000000000000000000000000000000081526004016115f990611bd1565b60405180910390fd5b8091505092915050565b60008083118290611653576040517f08c379a000000000000000000000000000000000000000000000000000000000815260040161164a9190611b2a565b60405180910390fd5b50600083858161165f57fe5b049050809150509392505050565b60405180610100016040528060608152602001600073ffffffffffffffffffffffffffffffffffffffff1681526020016000815260200160008152602001600081526020016000815260200160008152602001600081525090565b60405180606001604052806000815260200160008152602001600081525090565b828054600181600116156101000203166002900490600052602060002090601f016020900481019282601f1061172a57805160ff1916838001178555611758565b82800160010185558215611758579182015b8281111561175757825182559160200191906001019061173c565b5b5090506117659190611769565b5090565b61178b91905b8082111561178757600081600090555060010161176f565b5090565b90565b60008135905061179d81611d9e565b92915050565b600082601f8301126117b457600080fd5b81356117c76117c282611cb0565b611c83565b915080825260208301602083018583830111156117e357600080fd5b6117ee838284611d4b565b50505092915050565b60008135905061180681611db5565b92915050565b60006020828403121561181e57600080fd5b600061182c8482850161178e565b91505092915050565b6000806040838503121561184857600080fd5b60006118568582860161178e565b9250506020611867858286016117f7565b9150509250929050565b60008060006060848603121561188657600080fd5b60006118948682870161178e565b93505060206118a5868287016117f7565b92505060406118b6868287016117f7565b9150509250925092565b600080600080600080600080610100898b0312156118dd57600080fd5b600089013567ffffffffffffffff8111156118f757600080fd5b6119038b828c016117a3565b98505060206119148b828c0161178e565b97505060406119258b828c016117f7565b96505060606119368b828c016117f7565b95505060806119478b828c016117f7565b94505060a06119588b828c016117f7565b93505060c06119698b828c016117f7565b92505060e061197a8b828c016117f7565b9150509295985092959890939650565b61199381611d03565b82525050565b6119a281611d15565b82525050565b60006119b382611ce7565b6119bd8185611cf2565b93506119cd818560208601611d5a565b6119d681611d8d565b840191505092915050565b60006119ec82611cdc565b6119f68185611cf2565b9350611a06818560208601611d5a565b611a0f81611d8d565b840191505092915050565b6000611a27601b83611cf2565b91507f536166654d6174683a206164646974696f6e206f766572666c6f7700000000006000830152602082019050919050565b6000611a67602183611cf2565b91507f536166654d6174683a206d756c7469706c69636174696f6e206f766572666c6f60008301527f77000000000000000000000000000000000000000000000000000000000000006020830152604082019050919050565b6000611acd601583611cf2565b91507f546f6b656e206e6f7420637265617465642079657400000000000000000000006000830152602082019050919050565b611b0981611d41565b82525050565b6000602082019050611b246000830184611999565b92915050565b60006020820190508181036000830152611b4481846119a8565b905092915050565b6000610100820190508181036000830152611b67818b6119e1565b9050611b76602083018a61198a565b611b836040830189611b00565b611b906060830188611b00565b611b9d6080830187611b00565b611baa60a0830186611b00565b611bb760c0830185611b00565b611bc460e0830184611b00565b9998505050505050505050565b60006020820190508181036000830152611bea81611a1a565b9050919050565b60006020820190508181036000830152611c0a81611a5a565b9050919050565b60006020820190508181036000830152611c2a81611ac0565b9050919050565b6000602082019050611c466000830184611b00565b92915050565b6000606082019050611c616000830186611b00565b611c6e6020830185611b00565b611c7b6040830184611b00565b949350505050565b6000604051905081810181811067ffffffffffffffff82111715611ca657600080fd5b8060405250919050565b600067ffffffffffffffff821115611cc757600080fd5b601f19601f8301169050602081019050919050565b600081519050919050565b600081519050919050565b600082825260208201905092915050565b6000611d0e82611d21565b9050919050565b60008115159050919050565b600073ffffffffffffffffffffffffffffffffffffffff82169050919050565b6000819050919050565b82818337600083830152505050565b60005b83811015611d78578082015181840152602081019050611d5d565b83811115611d87576000848401525b50505050565b6000601f19601f8301169050919050565b611da781611d03565b8114611db257600080fd5b50565b611dbe81611d41565b8114611dc957600080fd5b5056fea2646970667358221220a6fbcd8251ebebded2ffec91c99528af183b907de716e34218441493b55dd25864736f6c63430006020033",
  "source": "// SPDX-License-Identifier: MIT\npragma solidity >=0.4.22 <0.8.0;\npragma experimental ABIEncoderV2;\nimport './SafeMath.sol';\n\ncontract InterestVariables {\n\n  address private owner;\n\n  modifier onlyOwner() {\n      require(msg.sender == owner);\n      _;\n  }\n\n  // tokens structure\n  struct TknVariables {\n    string symbol;\n    address token_address;\n    uint optimal_utilisation;\n    uint collateral_factor;\n    uint base_rate;\n    uint slope1;\n    uint slope2;\n    uint spread;\n  }\n\n  mapping (address => TknVariables) public tokens;\n  mapping (address => InterestCummulation) public tokenIRcummulation;\n\n  struct InterestCummulation{\n    uint256 cummulated_depositIR; // could only use this and get ride of borrow\n    uint256 cummulated_borrowIR;\n    uint last_time; // last time of IR cummulation\n  }\n\n\n  constructor() public{\n    owner = msg.sender;\n  }\n\n  function createToken(string memory _symbol,\n    address _token_address,\n    uint _optimal_utilisation,\n    uint _collateral_factor,\n    uint _base_rate,\n    uint _slope1,\n    uint _slope2,\n    uint _spread)\n    public{\n    tokens[_token_address] = TknVariables(_symbol, _token_address,_optimal_utilisation*100, _collateral_factor*100, _base_rate*100, _slope1*100, _slope2*100, _spread*100);\n    // initialise tokne glogal variable of CUMMULATED IR\n    tokenIRcummulation[_token_address].cummulated_depositIR = 1e9;\n    tokenIRcummulation[_token_address].cummulated_borrowIR = 1e9;\n    tokenIRcummulation[_token_address].last_time = now;\n  }\n\n  function getSymbol(address id) public view returns(string memory){\n    return tokens[id].symbol;\n  }\n\n  function getOptUtilisation(address id) public view returns(uint){\n    return tokens[id].optimal_utilisation;\n  }\n\n  function getCollateralFactor(address id) public view returns(uint){\n    return tokens[id].collateral_factor;\n  }\n\n  function getBaseRate(address id) public view returns(uint){\n    return tokens[id].base_rate;\n  }\n\n  function getSlope1(address id) public view returns(uint){\n    return tokens[id].slope1;\n  }\n\n  function getSlope2(address id) public view returns(uint){\n    return tokens[id].slope2;\n  }\n\n  function getSpread(address id) public view returns(uint){\n    return tokens[id].spread;\n  }\n\n  function getIRDepositTotalCummulation(address token) public view returns(uint){\n    require(tokens[token].token_address != address(0), 'Token not created yet');\n    return tokenIRcummulation[token].cummulated_depositIR;\n  }\n\n  function getIRBorrowTotalCummulation(address token) public view returns(uint){\n    require(tokens[token].token_address != address(0), 'Token not created yet');\n    return tokenIRcummulation[token].cummulated_borrowIR;\n  }\n\n  //returns ir% * 100 => returns 702 for 7.02% interest rate\n  function borrowInterestRate(address id, uint utilisationRate) public view returns(uint){\n    TknVariables memory token = tokens[id];\n    if(utilisationRate*100 < token.optimal_utilisation){\n      return token.base_rate + token.slope1*(utilisationRate*10000/token.optimal_utilisation);\n    }else{\n      return token.base_rate + token.slope1 + (token.slope2/100)*( (utilisationRate*10000 - token.optimal_utilisation*100) / (10000 - token.optimal_utilisation));\n    }\n  }\n\n  //returns ir% * 100 => returns 702 for 7.02% interest rate\n  function depositInterestRate(address id, uint utilisationRate) public view returns(uint){\n    uint borrow = borrowInterestRate(id, utilisationRate);\n    TknVariables memory token = tokens[id];\n    return borrow + borrow*token.spread/10000;\n  }\n\n  //returns ir% * 100 => returns 702 for 7.02% interest rate\n  function depositInterestRate(address id, uint utilisationRate, uint borrowIR) public view returns(uint){\n    //uint borrow = borrowInterestRate(id, utilisationRate);\n    TknVariables memory token = tokens[id];\n    return borrowIR + borrowIR*token.spread/10000;\n  }\n\n  // update the global variable interest rate\n  // call this before utilisation rate changes\n  //!! change visibility\n  function compoundIR(address token, uint utilisationRate) public returns (bool){\n    // timestamp\n    uint timenow = now;\n\n    // ir current (before changing the UtRate)\n    uint before_borrowIR = borrowInterestRate(token, utilisationRate);\n    uint before_depositIR = depositInterestRate(token, utilisationRate);\n\n    uint PRECISION = 1e9;\n    InterestCummulation memory tokenCummulation = tokenIRcummulation[token];\n    // seconds since last update / seconds in a year -> to account for ir pre sec\n    uint timeperiod = SafeMath.sub(timenow,tokenCummulation.last_time);\n    uint256 UINT_MAX_VALUE = uint256(-1);\n\n    // check if value of cummulated deposit interest will exceed uint256/1e9 (this is always larger)\n    if(tokenCummulation.cummulated_depositIR*timeperiod*before_depositIR >= UINT_MAX_VALUE ){\n      return false;\n    }\n\n    // compound cummulated interest rate\n    // these values are always *1e9\n    if(timeperiod != 0 && before_borrowIR != 0 &&  before_depositIR != 0){\n      tokenIRcummulation[token].cummulated_borrowIR = SafeMath.div(SafeMath.mul(tokenCummulation.cummulated_borrowIR,powerPrecision(before_borrowIR, timeperiod)), PRECISION);\n      tokenIRcummulation[token].cummulated_depositIR = SafeMath.div(SafeMath.mul(tokenCummulation.cummulated_depositIR,powerPrecision(before_depositIR, timeperiod)), PRECISION);\n    }\n\n    // update last time of update\n    tokenIRcummulation[token].last_time = timenow;\n    return true;\n  }\n\n  // ( (ir+secundeAn)*Precision/secundeAn)^perioada => interest to cummulate over that time period multiplied by PRECISION\n  function powerPrecision(uint256 ir, uint256 power) internal view returns (uint256){\n    uint256 PRECISION = 1e9;\n    uint256 result = SafeMath.div(SafeMath.mul(SafeMath.add(ir,31556952), PRECISION), 31556952);\n    for(uint i = 0; i< power - 1;i++){\n      result = SafeMath.div(SafeMath.mul(result,SafeMath.add(ir,31556952)), 31556952);\n    }\n    return result;\n  }\n\n\n}\n",
  "sourcePath": "/Users/ioanaroceanu/Documents/Project/contracts/InterestVariables.sol",
  "compiler": {
    "name": "solc",
    "version": "0.6.2+commit.bacdbe57.Emscripten.clang"
  },
  "schemaVersion": "3.3.2",
  "updatedAt": "2021-01-04T10:10:30.347Z",
  "networkType": "ethereum",
  "devdoc": {
    "methods": {}
  },
  "userdoc": {
    "methods": {}
  }
}