{
  "contractName": "InterestVariables",
  "abi": [
    {
      "inputs": [],
      "stateMutability": "nonpayable",
      "type": "constructor"
    },
    {
      "inputs": [],
      "name": "liquidityPoolAddress",
      "outputs": [
        {
          "internalType": "address",
          "name": "",
          "type": "address"
        }
      ],
      "stateMutability": "view",
      "type": "function",
      "constant": true
    },
    {
      "inputs": [
        {
          "internalType": "address",
          "name": "",
          "type": "address"
        }
      ],
      "name": "tokenIRcummulation",
      "outputs": [
        {
          "internalType": "uint256",
          "name": "cummulated_depositIR",
          "type": "uint256"
        },
        {
          "internalType": "uint256",
          "name": "cummulated_borrowIR",
          "type": "uint256"
        },
        {
          "internalType": "uint256",
          "name": "last_time",
          "type": "uint256"
        }
      ],
      "stateMutability": "view",
      "type": "function",
      "constant": true
    },
    {
      "inputs": [
        {
          "internalType": "address",
          "name": "",
          "type": "address"
        }
      ],
      "name": "tokens",
      "outputs": [
        {
          "internalType": "string",
          "name": "symbol",
          "type": "string"
        },
        {
          "internalType": "address",
          "name": "token_address",
          "type": "address"
        },
        {
          "internalType": "uint256",
          "name": "optimal_utilisation",
          "type": "uint256"
        },
        {
          "internalType": "uint256",
          "name": "collateral_factor",
          "type": "uint256"
        },
        {
          "internalType": "uint256",
          "name": "base_rate",
          "type": "uint256"
        },
        {
          "internalType": "uint256",
          "name": "slope1",
          "type": "uint256"
        },
        {
          "internalType": "uint256",
          "name": "slope2",
          "type": "uint256"
        },
        {
          "internalType": "uint256",
          "name": "spread",
          "type": "uint256"
        }
      ],
      "stateMutability": "view",
      "type": "function",
      "constant": true
    },
    {
      "inputs": [
        {
          "internalType": "address",
          "name": "add",
          "type": "address"
        }
      ],
      "name": "setLiquidityPoolAddress",
      "outputs": [],
      "stateMutability": "nonpayable",
      "type": "function"
    },
    {
      "inputs": [
        {
          "internalType": "string",
          "name": "_symbol",
          "type": "string"
        },
        {
          "internalType": "address",
          "name": "_token_address",
          "type": "address"
        },
        {
          "internalType": "uint256",
          "name": "_optimal_utilisation",
          "type": "uint256"
        },
        {
          "internalType": "uint256",
          "name": "_collateral_factor",
          "type": "uint256"
        },
        {
          "internalType": "uint256",
          "name": "_base_rate",
          "type": "uint256"
        },
        {
          "internalType": "uint256",
          "name": "_slope1",
          "type": "uint256"
        },
        {
          "internalType": "uint256",
          "name": "_slope2",
          "type": "uint256"
        },
        {
          "internalType": "uint256",
          "name": "_spread",
          "type": "uint256"
        }
      ],
      "name": "createToken",
      "outputs": [],
      "stateMutability": "nonpayable",
      "type": "function"
    },
    {
      "inputs": [
        {
          "internalType": "address",
          "name": "token",
          "type": "address"
        }
      ],
      "name": "getIRDepositTotalCummulation",
      "outputs": [
        {
          "internalType": "uint256",
          "name": "",
          "type": "uint256"
        }
      ],
      "stateMutability": "view",
      "type": "function",
      "constant": true
    },
    {
      "inputs": [
        {
          "internalType": "address",
          "name": "token",
          "type": "address"
        }
      ],
      "name": "getIRBorrowTotalCummulation",
      "outputs": [
        {
          "internalType": "uint256",
          "name": "",
          "type": "uint256"
        }
      ],
      "stateMutability": "view",
      "type": "function",
      "constant": true
    },
    {
      "inputs": [
        {
          "internalType": "address",
          "name": "id",
          "type": "address"
        },
        {
          "internalType": "uint256",
          "name": "utilisationRate",
          "type": "uint256"
        }
      ],
      "name": "depositInterestRate",
      "outputs": [
        {
          "internalType": "uint256",
          "name": "",
          "type": "uint256"
        }
      ],
      "stateMutability": "view",
      "type": "function",
      "constant": true
    },
    {
      "inputs": [
        {
          "internalType": "address",
          "name": "id",
          "type": "address"
        },
        {
          "internalType": "uint256",
          "name": "utilisationRate",
          "type": "uint256"
        }
      ],
      "name": "borrowInterestRate",
      "outputs": [
        {
          "internalType": "uint256",
          "name": "",
          "type": "uint256"
        }
      ],
      "stateMutability": "view",
      "type": "function",
      "constant": true
    },
    {
      "inputs": [
        {
          "internalType": "address",
          "name": "id",
          "type": "address"
        },
        {
          "internalType": "uint256",
          "name": "utilisationRate",
          "type": "uint256"
        },
        {
          "internalType": "uint256",
          "name": "deposit",
          "type": "uint256"
        }
      ],
      "name": "borrowInterestRate",
      "outputs": [
        {
          "internalType": "uint256",
          "name": "",
          "type": "uint256"
        }
      ],
      "stateMutability": "view",
      "type": "function",
      "constant": true
    },
    {
      "inputs": [
        {
          "internalType": "address",
          "name": "token",
          "type": "address"
        },
        {
          "internalType": "uint256",
          "name": "utilisationRate",
          "type": "uint256"
        }
      ],
      "name": "compoundIR",
      "outputs": [
        {
          "internalType": "bool",
          "name": "",
          "type": "bool"
        }
      ],
      "stateMutability": "nonpayable",
      "type": "function"
    }
  ],
  "bytecode": "0x608060405234801561001057600080fd5b50336000806101000a81548173ffffffffffffffffffffffffffffffffffffffff021916908373ffffffffffffffffffffffffffffffffffffffff160217905550611cf2806100606000396000f3fe608060405234801561001057600080fd5b50600436106100a95760003560e01c806363986aba1161007157806363986aba1461018c5780638abe523f146101a8578063d25b17b6146101d8578063dfaa254b146101f6578063e486033914610226578063f609507b1461025d576100a9565b80630f1f7bc9146100ae57806326a46dd5146100de5780633a0c6c261461010e578063402fda401461013e57806340e613f91461015a575b600080fd5b6100c860048036036100c391908101906115fb565b61028d565b6040516100d59190611b21565b60405180910390f35b6100f860048036036100f39190810190611624565b6103aa565b6040516101059190611b21565b60405180910390f35b61012860048036036101239190810190611624565b610601565b60405161013591906119bf565b60405180910390f35b610158600480360361015391908101906116af565b6108de565b005b610174600480360361016f91908101906115fb565b610af9565b60405161018393929190611b3c565b60405180910390f35b6101a660048036036101a191908101906115fb565b610b23565b005b6101c260048036036101bd9190810190611624565b610bf6565b6040516101cf9190611b21565b60405180910390f35b6101e0610db9565b6040516101ed91906119a4565b60405180910390f35b610210600480360361020b9190810190611660565b610ddf565b60405161021d9190611b21565b60405180910390f35b610240600480360361023b91908101906115fb565b610f95565b6040516102549897969594939291906119fc565b60405180910390f35b610277600480360361027291908101906115fb565b611095565b6040516102849190611b21565b60405180910390f35b60008073ffffffffffffffffffffffffffffffffffffffff16600260008473ffffffffffffffffffffffffffffffffffffffff1673ffffffffffffffffffffffffffffffffffffffff16815260200190815260200160002060010160009054906101000a900473ffffffffffffffffffffffffffffffffffffffff1673ffffffffffffffffffffffffffffffffffffffff161415610360576040517f08c379a000000000000000000000000000000000000000000000000000000000815260040161035790611ac1565b60405180910390fd5b600360008373ffffffffffffffffffffffffffffffffffffffff1673ffffffffffffffffffffffffffffffffffffffff168152602001908152602001600020600001549050919050565b60006103b461145c565b600260008573ffffffffffffffffffffffffffffffffffffffff1673ffffffffffffffffffffffffffffffffffffffff16815260200190815260200160002060405180610100016040529081600082018054600181600116156101000203166002900480601f0160208091040260200160405190810160405280929190818152602001828054600181600116156101000203166002900480156104985780601f1061046d57610100808354040283529160200191610498565b820191906000526020600020905b81548152906001019060200180831161047b57829003601f168201915b505050505081526020016001820160009054906101000a900473ffffffffffffffffffffffffffffffffffffffff1673ffffffffffffffffffffffffffffffffffffffff1673ffffffffffffffffffffffffffffffffffffffff1681526020016002820154815260200160038201548152602001600482015481526020016005820154815260200160068201548152602001600782015481525050905080604001518310156105855761057d610553826080015160646111b2565b61057861056e6105678560a00151886111b2565b60646111b2565b8460400151611222565b61126c565b9150506105fb565b60006105a361059c83608001518460a0015161126c565b60646111b2565b905060006105cc8360c001516105c760646105c28988604001516112c1565b6111b2565b6111b2565b905060006105df606485604001516112c1565b90506105f4836105ef8484611222565b61126c565b9450505050505b92915050565b6000600160009054906101000a900473ffffffffffffffffffffffffffffffffffffffff1673ffffffffffffffffffffffffffffffffffffffff163373ffffffffffffffffffffffffffffffffffffffff1614610693576040517f08c379a000000000000000000000000000000000000000000000000000000000815260040161068a90611b01565b60405180910390fd5b600042905060006106a48585610bf6565b905060006106b286866103aa565b9050600064e8d4a5100090506106c66114b7565b600360008973ffffffffffffffffffffffffffffffffffffffff1673ffffffffffffffffffffffffffffffffffffffff1681526020019081526020016000206040518060600160405290816000820154815260200160018201548152602001600282015481525050905060006107408683604001516112c1565b905060007fffffffffffffffffffffffffffffffffffffffffffffffffffffffffffffffff90508061077f6107798560000151856111b2565b876111b2565b106107945760009750505050505050506108d8565b600082141580156107a6575060008614155b80156107b3575060008514155b15610885576107d86107d284602001516107cd898661130b565b6111b2565b85611222565b600360008c73ffffffffffffffffffffffffffffffffffffffff1673ffffffffffffffffffffffffffffffffffffffff1681526020019081526020016000206001018190555061083e6108388460000151610833888661130b565b6111b2565b85611222565b600360008c73ffffffffffffffffffffffffffffffffffffffff1673ffffffffffffffffffffffffffffffffffffffff168152602001908152602001600020600001819055505b86600360008c73ffffffffffffffffffffffffffffffffffffffff1673ffffffffffffffffffffffffffffffffffffffff1681526020019081526020016000206002018190555060019750505050505050505b92915050565b6040518061010001604052808981526020018873ffffffffffffffffffffffffffffffffffffffff16815260200187815260200186815260200185815260200184815260200183815260200182815250600260008973ffffffffffffffffffffffffffffffffffffffff1673ffffffffffffffffffffffffffffffffffffffff16815260200190815260200160002060008201518160000190805190602001906109899291906114d8565b5060208201518160010160006101000a81548173ffffffffffffffffffffffffffffffffffffffff021916908373ffffffffffffffffffffffffffffffffffffffff16021790555060408201518160020155606082015181600301556080820151816004015560a0820151816005015560c0820151816006015560e0820151816007015590505064e8d4a51000600360008973ffffffffffffffffffffffffffffffffffffffff1673ffffffffffffffffffffffffffffffffffffffff1681526020019081526020016000206000018190555064e8d4a51000600360008973ffffffffffffffffffffffffffffffffffffffff1673ffffffffffffffffffffffffffffffffffffffff1681526020019081526020016000206001018190555042600360008973ffffffffffffffffffffffffffffffffffffffff1673ffffffffffffffffffffffffffffffffffffffff168152602001908152602001600020600201819055505050505050505050565b60036020528060005260406000206000915090508060000154908060010154908060020154905083565b6000809054906101000a900473ffffffffffffffffffffffffffffffffffffffff1673ffffffffffffffffffffffffffffffffffffffff163373ffffffffffffffffffffffffffffffffffffffff1614610bb2576040517f08c379a0000000000000000000000000000000000000000000000000000000008152600401610ba990611ae1565b60405180910390fd5b80600160006101000a81548173ffffffffffffffffffffffffffffffffffffffff021916908373ffffffffffffffffffffffffffffffffffffffff16021790555050565b600080610c0384846103aa565b9050610c0d61145c565b600260008673ffffffffffffffffffffffffffffffffffffffff1673ffffffffffffffffffffffffffffffffffffffff16815260200190815260200160002060405180610100016040529081600082018054600181600116156101000203166002900480601f016020809104026020016040519081016040528092919081815260200182805460018160011615610100020316600290048015610cf15780601f10610cc657610100808354040283529160200191610cf1565b820191906000526020600020905b815481529060010190602001808311610cd457829003601f168201915b505050505081526020016001820160009054906101000a900473ffffffffffffffffffffffffffffffffffffffff1673ffffffffffffffffffffffffffffffffffffffff1673ffffffffffffffffffffffffffffffffffffffff16815260200160028201548152602001600382015481526020016004820154815260200160058201548152602001600682015481526020016007820154815250509050610daf82610daa610da3858560e001516111b2565b6064611222565b61126c565b9250505092915050565b600160009054906101000a900473ffffffffffffffffffffffffffffffffffffffff1681565b6000610de961145c565b600260008673ffffffffffffffffffffffffffffffffffffffff1673ffffffffffffffffffffffffffffffffffffffff16815260200190815260200160002060405180610100016040529081600082018054600181600116156101000203166002900480601f016020809104026020016040519081016040528092919081815260200182805460018160011615610100020316600290048015610ecd5780601f10610ea257610100808354040283529160200191610ecd565b820191906000526020600020905b815481529060010190602001808311610eb057829003601f168201915b505050505081526020016001820160009054906101000a900473ffffffffffffffffffffffffffffffffffffffff1673ffffffffffffffffffffffffffffffffffffffff1673ffffffffffffffffffffffffffffffffffffffff16815260200160028201548152602001600382015481526020016004820154815260200160058201548152602001600682015481526020016007820154815250509050610f8b83610f86610f7f868560e001516111b2565b6064611222565b61126c565b9150509392505050565b6002602052806000526040600020600091509050806000018054600181600116156101000203166002900480601f0160208091040260200160405190810160405280929190818152602001828054600181600116156101000203166002900480156110415780601f1061101657610100808354040283529160200191611041565b820191906000526020600020905b81548152906001019060200180831161102457829003601f168201915b5050505050908060010160009054906101000a900473ffffffffffffffffffffffffffffffffffffffff16908060020154908060030154908060040154908060050154908060060154908060070154905088565b60008073ffffffffffffffffffffffffffffffffffffffff16600260008473ffffffffffffffffffffffffffffffffffffffff1673ffffffffffffffffffffffffffffffffffffffff16815260200190815260200160002060010160009054906101000a900473ffffffffffffffffffffffffffffffffffffffff1673ffffffffffffffffffffffffffffffffffffffff161415611168576040517f08c379a000000000000000000000000000000000000000000000000000000000815260040161115f90611ac1565b60405180910390fd5b600360008373ffffffffffffffffffffffffffffffffffffffff1673ffffffffffffffffffffffffffffffffffffffff168152602001908152602001600020600101549050919050565b6000808314156111c5576000905061121c565b60008284029050828482816111d657fe5b0414611217576040517f08c379a000000000000000000000000000000000000000000000000000000000815260040161120e90611aa1565b60405180910390fd5b809150505b92915050565b600061126483836040518060400160405280601a81526020017f536166654d6174683a206469766973696f6e206279207a65726f0000000000008152506113a0565b905092915050565b6000808284019050838110156112b7576040517f08c379a00000000000000000000000000000000000000000000000000000000081526004016112ae90611a81565b60405180910390fd5b8091505092915050565b600061130383836040518060400160405280601e81526020017f536166654d6174683a207375627472616374696f6e206f766572666c6f770000815250611401565b905092915050565b60008064e8d4a51000905060006301e185589050600061132d826127106111b2565b9050600061134d611347611341898561126c565b866111b2565b83611222565b905060008090505b6113608760016112c1565b8110156113925761138361137d836113788b8761126c565b6111b2565b84611222565b91508080600101915050611355565b508094505050505092915050565b600080831182906113e7576040517f08c379a00000000000000000000000000000000000000000000000000000000081526004016113de91906119da565b60405180910390fd5b5060008385816113f357fe5b049050809150509392505050565b6000838311158290611449576040517f08c379a000000000000000000000000000000000000000000000000000000000815260040161144091906119da565b60405180910390fd5b5060008385039050809150509392505050565b60405180610100016040528060608152602001600073ffffffffffffffffffffffffffffffffffffffff1681526020016000815260200160008152602001600081526020016000815260200160008152602001600081525090565b60405180606001604052806000815260200160008152602001600081525090565b828054600181600116156101000203166002900490600052602060002090601f016020900481019282601f1061151957805160ff1916838001178555611547565b82800160010185558215611547579182015b8281111561154657825182559160200191906001019061152b565b5b5090506115549190611558565b5090565b61157a91905b8082111561157657600081600090555060010161155e565b5090565b90565b60008135905061158c81611c8e565b92915050565b600082601f8301126115a357600080fd5b81356115b66115b182611ba0565b611b73565b915080825260208301602083018583830111156115d257600080fd5b6115dd838284611c3b565b50505092915050565b6000813590506115f581611ca5565b92915050565b60006020828403121561160d57600080fd5b600061161b8482850161157d565b91505092915050565b6000806040838503121561163757600080fd5b60006116458582860161157d565b9250506020611656858286016115e6565b9150509250929050565b60008060006060848603121561167557600080fd5b60006116838682870161157d565b9350506020611694868287016115e6565b92505060406116a5868287016115e6565b9150509250925092565b600080600080600080600080610100898b0312156116cc57600080fd5b600089013567ffffffffffffffff8111156116e657600080fd5b6116f28b828c01611592565b98505060206117038b828c0161157d565b97505060406117148b828c016115e6565b96505060606117258b828c016115e6565b95505060806117368b828c016115e6565b94505060a06117478b828c016115e6565b93505060c06117588b828c016115e6565b92505060e06117698b828c016115e6565b9150509295985092959890939650565b61178281611bf3565b82525050565b61179181611c05565b82525050565b60006117a282611bd7565b6117ac8185611be2565b93506117bc818560208601611c4a565b6117c581611c7d565b840191505092915050565b60006117db82611bcc565b6117e58185611be2565b93506117f5818560208601611c4a565b6117fe81611c7d565b840191505092915050565b6000611816601b83611be2565b91507f536166654d6174683a206164646974696f6e206f766572666c6f7700000000006000830152602082019050919050565b6000611856602183611be2565b91507f536166654d6174683a206d756c7469706c69636174696f6e206f766572666c6f60008301527f77000000000000000000000000000000000000000000000000000000000000006020830152604082019050919050565b60006118bc601583611be2565b91507f546f6b656e206e6f7420637265617465642079657400000000000000000000006000830152602082019050919050565b60006118fc601f83611be2565b91507f4f6e6c79206f776e65722063616e20646f2066756e6374696f6e2063616c6c006000830152602082019050919050565b600061193c602883611be2565b91507f4f6e6c79204c697175696469747920706f6f6c2063616e20646f2066756e637460008301527f696f6e2063616c6c0000000000000000000000000000000000000000000000006020830152604082019050919050565b61199e81611c31565b82525050565b60006020820190506119b96000830184611779565b92915050565b60006020820190506119d46000830184611788565b92915050565b600060208201905081810360008301526119f48184611797565b905092915050565b6000610100820190508181036000830152611a17818b6117d0565b9050611a26602083018a611779565b611a336040830189611995565b611a406060830188611995565b611a4d6080830187611995565b611a5a60a0830186611995565b611a6760c0830185611995565b611a7460e0830184611995565b9998505050505050505050565b60006020820190508181036000830152611a9a81611809565b9050919050565b60006020820190508181036000830152611aba81611849565b9050919050565b60006020820190508181036000830152611ada816118af565b9050919050565b60006020820190508181036000830152611afa816118ef565b9050919050565b60006020820190508181036000830152611b1a8161192f565b9050919050565b6000602082019050611b366000830184611995565b92915050565b6000606082019050611b516000830186611995565b611b5e6020830185611995565b611b6b6040830184611995565b949350505050565b6000604051905081810181811067ffffffffffffffff82111715611b9657600080fd5b8060405250919050565b600067ffffffffffffffff821115611bb757600080fd5b601f19601f8301169050602081019050919050565b600081519050919050565b600081519050919050565b600082825260208201905092915050565b6000611bfe82611c11565b9050919050565b60008115159050919050565b600073ffffffffffffffffffffffffffffffffffffffff82169050919050565b6000819050919050565b82818337600083830152505050565b60005b83811015611c68578082015181840152602081019050611c4d565b83811115611c77576000848401525b50505050565b6000601f19601f8301169050919050565b611c9781611bf3565b8114611ca257600080fd5b50565b611cae81611c31565b8114611cb957600080fd5b5056fea2646970667358221220fb2b23d3a73e9335844eae8e16bdc8fd1e1499e820addcc3df6a3f415bf32dcf64736f6c63430006020033",
  "source": "// SPDX-License-Identifier: MIT\npragma solidity >=0.4.22 <0.8.0;\npragma experimental ABIEncoderV2;\nimport './SafeMath.sol';\n\ncontract InterestVariables {\n\n  address private owner;\n  address public liquidityPoolAddress;\n\n  modifier onlyOwner() {\n      require(msg.sender == owner, \"Only owner can do function call\");\n      _;\n  }\n\n  modifier onlyLiquidityPool() {\n      require(msg.sender == liquidityPoolAddress, \"Only Liquidity pool can do function call\");\n      _;\n  }\n\n  // tokens structure\n  struct TknVariables {\n    string symbol;\n    address token_address;\n    uint optimal_utilisation;\n    uint collateral_factor;\n    uint base_rate;\n    uint slope1;\n    uint slope2;\n    uint spread;\n  }\n\n  mapping (address => TknVariables) public tokens;\n  mapping (address => InterestCummulation) public tokenIRcummulation;\n\n  struct InterestCummulation{\n    uint256 cummulated_depositIR; // could only use this and get ride of borrow\n    uint256 cummulated_borrowIR;\n    uint last_time; // last time of IR cummulation\n  }\n\n\n  constructor() public{\n    owner = msg.sender;\n  }\n\n  function setLiquidityPoolAddress(address add) public onlyOwner{\n    liquidityPoolAddress = add;\n  }\n\n  function createToken(string memory _symbol,\n    address _token_address,\n    uint _optimal_utilisation,\n    uint _collateral_factor,\n    uint _base_rate,\n    uint _slope1,\n    uint _slope2,\n    uint _spread)\n    public{\n    tokens[_token_address] = TknVariables(_symbol, _token_address,_optimal_utilisation, _collateral_factor, _base_rate, _slope1, _slope2, _spread);\n    // initialise tokne glogal variable of CUMMULATED IR\n    tokenIRcummulation[_token_address].cummulated_depositIR = 1e12;\n    tokenIRcummulation[_token_address].cummulated_borrowIR = 1e12;\n    tokenIRcummulation[_token_address].last_time = now;\n  }\n\n  function getIRDepositTotalCummulation(address token) public view returns(uint){\n    require(tokens[token].token_address != address(0), 'Token not created yet');\n    return tokenIRcummulation[token].cummulated_depositIR;\n  }\n\n  function getIRBorrowTotalCummulation(address token) public view returns(uint){\n    require(tokens[token].token_address != address(0), 'Token not created yet');\n    return tokenIRcummulation[token].cummulated_borrowIR;\n  }\n\n  //returns ir% * 100 => returns 702 for 7.02% interest rate\n  function depositInterestRate(address id, uint utilisationRate) public view returns(uint){\n    TknVariables memory token = tokens[id];\n    if(utilisationRate < token.optimal_utilisation){\n      return SafeMath.add(SafeMath.mul(token.base_rate, 100), SafeMath.div(SafeMath.mul(SafeMath.mul(token.slope1, utilisationRate), 100), token.optimal_utilisation));\n    }else{\n      uint firstPart = SafeMath.mul(SafeMath.add(token.base_rate,token.slope1), 100);\n      uint partAbove = SafeMath.mul(token.slope2, SafeMath.mul(100, SafeMath.sub(utilisationRate, token.optimal_utilisation)));\n      uint partBelow = SafeMath.sub(100, token.optimal_utilisation);\n      return SafeMath.add(firstPart, SafeMath.div(partAbove, partBelow));\n    }\n  }\n\n  //returns ir% * 100 => returns 702 for 7.02% interest rate\n  // //spread  {20,40}\n  function borrowInterestRate(address id, uint utilisationRate) public view returns(uint){\n    uint deposit = depositInterestRate(id, utilisationRate);\n    TknVariables memory token = tokens[id];\n    return SafeMath.add(deposit, SafeMath.div(SafeMath.mul(deposit, token.spread),100));\n  }\n\n  //returns ir% * 100 => returns 702 for 7.02% interest rate\n  //spread  {20,40}\n  function borrowInterestRate(address id, uint utilisationRate, uint deposit) public view returns(uint){\n    TknVariables memory token = tokens[id];\n    return SafeMath.add(deposit, SafeMath.div(SafeMath.mul(deposit, token.spread),100));\n  }\n\n  // update the global variable interest rate\n  // call this before utilisation rate changes\n  function compoundIR(address token, uint utilisationRate) public onlyLiquidityPool returns (bool){\n    // timestamp\n    uint timenow = now;\n\n    // ir current (before changing the UtRate)\n    uint before_borrowIR = borrowInterestRate(token, utilisationRate);\n    uint before_depositIR = depositInterestRate(token, utilisationRate);\n\n    uint PRECISION = 1e12;\n    InterestCummulation memory tokenCummulation = tokenIRcummulation[token];\n    // seconds since last update / seconds in a year -> to account for ir pre sec\n    uint timeperiod = SafeMath.sub(timenow,tokenCummulation.last_time);\n    uint256 UINT_MAX_VALUE = uint256(-1);\n\n    // check if value of cummulated deposit interest will exceed uint256/1e12 (this is always larger)\n    if(SafeMath.mul(SafeMath.mul(tokenCummulation.cummulated_depositIR,timeperiod), before_depositIR) >= UINT_MAX_VALUE ){\n      return false;\n    }\n\n    // compound cummulated interest rate\n    // these values are always *1e12\n    if(timeperiod != 0 && before_borrowIR != 0 &&  before_depositIR != 0){\n      tokenIRcummulation[token].cummulated_borrowIR = SafeMath.div(SafeMath.mul(tokenCummulation.cummulated_borrowIR,powerPrecision(before_borrowIR, timeperiod)), PRECISION);\n      tokenIRcummulation[token].cummulated_depositIR = SafeMath.div(SafeMath.mul(tokenCummulation.cummulated_depositIR,powerPrecision(before_depositIR, timeperiod)), PRECISION);\n    }\n\n    // update last time of update\n    tokenIRcummulation[token].last_time = timenow;\n    return true;\n  }\n\n  // ( (ir+secundeAn)*Precision/secundeAn)^perioada => interest to cummulate over that time period multiplied by PRECISION 10^12\n  function powerPrecision(uint256 ir, uint256 power) internal view returns (uint256){\n    uint256 PRECISION = 1e12;\n    uint256 secYear = 31556952;\n    uint secYear4 = SafeMath.mul(secYear, 10000); // - because IR is actualir*10^4\n    uint256 result = SafeMath.div(SafeMath.mul(SafeMath.add(ir,secYear4), PRECISION), secYear4);\n    for(uint i = 0; i< SafeMath.sub(power,1); i++){\n      result = SafeMath.div(SafeMath.mul(result,SafeMath.add(ir,secYear4)), secYear4);\n    }\n    return result;\n  }\n\n\n}\n",
  "sourcePath": "/Users/ioanaroceanu/Documents/Project/contracts/InterestVariables.sol",
  "compiler": {
    "name": "solc",
    "version": "0.6.2+commit.bacdbe57.Emscripten.clang"
  },
  "schemaVersion": "3.3.2",
  "updatedAt": "2021-02-13T15:36:38.062Z",
  "networkType": "ethereum",
  "devdoc": {
    "methods": {}
  },
  "userdoc": {
    "methods": {}
  }
}