{
  "contractName": "InterestVariables",
  "abi": [
    {
      "inputs": [],
      "payable": false,
      "stateMutability": "nonpayable",
      "type": "constructor"
    },
    {
      "constant": false,
      "inputs": [],
      "name": "stringLen",
      "outputs": [
        {
          "internalType": "uint256",
          "name": "",
          "type": "uint256"
        }
      ],
      "payable": false,
      "stateMutability": "nonpayable",
      "type": "function"
    }
  ],
  "bytecode": "0x6080604052604051806164e001604052806164ab81526020016101966164ab913960009080519060200190610035929190610048565b5034801561004257600080fd5b506100ed565b828054600181600116156101000203166002900490600052602060002090601f016020900481019282601f1061008957805160ff19168380011785556100b7565b828001600101855582156100b7579182015b828111156100b657825182559160200191906001019061009b565b5b5090506100c491906100c8565b5090565b6100ea91905b808211156100e65760008160009055506001016100ce565b5090565b90565b609b806100fb6000396000f3fe6080604052348015600f57600080fd5b506004361060285760003560e01c806378c4e97a14602d575b600080fd5b60336049565b6040518082815260200191505060405180910390f35b60008080546001816001161561010002031660029004905090509056fea265627a7a723158202c0d868dad6c28304f8cd971df103e268a72f4992a9fdcf5e5bff0e0520160ce64736f6c634300051000327b303a7b69643a3078633032616161333962323233666538643061306535633466323765616439303833633735366363322c73796d626f6c3a574554482c7574696c69736174696f6e526174653a36352c636f6c6c61746572616c3a36332e37323130343534383432383830382c62617365526174653a312c736c6f7065313a372c736c6f7065323a3230302c7370726561643a327d2c313a7b69643a3078646163313766393538643265653532336132323036323036393934353937633133643833316563372c73796d626f6c3a555344542c7574696c69736174696f6e526174653a38302c636f6c6c61746572616c3a36342e34343639363334313938393639372c62617365526174653a312c736c6f7065313a372c736c6f7065323a3230302c7370726561643a327d2c323a7b69643a3078613062383639393163363231386233366331643139643461326539656230636533363036656234382c73796d626f6c3a555344432c7574696c69736174696f6e526174653a38302c636f6c6c61746572616c3a36342e34323039323536353932303836322c62617365526174653a312c736c6f7065313a372c736c6f7065323a3230302c7370726561643a327d2c333a7b69643a3078366231373534373465383930393463343464613938623935346565646561633439353237316430662c73796d626f6c3a4441492c7574696c69736174696f6e526174653a38302c636f6c6c61746572616c3a36342e34323339393338393534333838372c62617365526174653a312c736c6f7065313a372c736c6f7065323a3230302c7370726561643a327d2c343a7b69643a3078306263353239633030633634303161656636643232306265386336656131363637663661643933652c73796d626f6c3a5946492c7574696c69736174696f6e526174653a34392e37303332343736393233373538392c636f6c6c61746572616c3a34372e383435373930303432373534372c62617365526174653a302c736c6f7065313a372c736c6f7065323a3230302c7370726561643a307d2c353a7b69643a3078643436626136643934323035306434383964626439333861326339303961356435303339613136312c73796d626f6c3a414d504c2c7574696c69736174696f6e526174653a34392e323237363035333439373837342c636f6c6c61746572616c3a35352e32363736343836343233333434322c62617365526174653a302c736c6f7065313a372c736c6f7065323a3230302c7370726561643a307d2c363a7b69643a3078316639383430613835643561663562663164313736326639323562646164646334323031663938342c73796d626f6c3a554e492c7574696c69736174696f6e526174653a34392e32323139363335383935363230342c636f6c6c61746572616c3a35312e34373837303533363736333136382c62617365526174653a302c736c6f7065313a372c736c6f7065323a3230302c7370726561643a307d2c373a7b69643a3078366233353935303638373738646435393265333961313232663466356135636630396339306665322c73796d626f6c3a53555348492c7574696c69736174696f6e526174653a34372e38393339363130323135333632322c636f6c6c61746572616c3a34382e393539333837323938363636362c62617365526174653a302c736c6f7065313a372c736c6f7065323a3230302c7370726561643a307d2c383a7b69643a3078323236306661633565353534326137373361613434666263666564663763313933626332633539392c73796d626f6c3a574254432c7574696c69736174696f6e526174653a36332e33383932393936323233343031322c636f6c6c61746572616c3a36392e32363937373930343839393930312c62617365526174653a302c736c6f7065313a372c736c6f7065323a3230302c7370726561643a307d2c393a7b69643a3078363233353965643735303565666336316666316435366665663832313538636361666661323364372c73796d626f6c3a434f52452c7574696c69736174696f6e526174653a37302e38313935373836343731383833342c636f6c6c61746572616c3a35362e38313739373230383532333838312c62617365526174653a302c736c6f7065313a372c736c6f7065323a3230302c7370726561643a307d2c31303a7b69643a3078353134393130373731616639636136353661663834306466663833653832363465636639383663612c73796d626f6c3a4c494e4b2c7574696c69736174696f6e526174653a34332e39313133303937343733393534392c636f6c6c61746572616c3a36372e30373930393135393030393136392c62617365526174653a302c736c6f7065313a372c736c6f7065323a3230302c7370726561643a307d2c31313a7b69643a3078353761623165633238643132393730373035326466346466343138643538613264343664356635312c73796d626f6c3a735553442c7574696c69736174696f6e526174653a38302c636f6c6c61746572616c3a36332e33333636343930373133313135362c62617365526174653a312c736c6f7065313a372c736c6f7065323a3230302c7370726561643a327d2c31323a7b69643a3078343239383831363732623961653432623865626130653236636439633733373131623839316361352c73796d626f6c3a5049434b4c452c7574696c69736174696f6e526174653a34322e34303238373737373639353732332c636f6c6c61746572616c3a34332e31343432393230383032343939312c62617365526174653a302c736c6f7065313a372c736c6f7065323a3230302c7370726561643a307d2c31333a7b69643a3078383066623738346237656436363733306538623164626439383230616664323939333161616230332c73796d626f6c3a4c454e442c7574696c69736174696f6e526174653a34322e32343233343533393739373833392c636f6c6c61746572616c3a36352e34353939313938373335333936362c62617365526174653a302c736c6f7065313a372c736c6f7065323a3230302c7370726561643a307d2c31343a7b69643a3078633031316137336565383537366662343666356531633537353163613362396665306166326136662c73796d626f6c3a534e582c7574696c69736174696f6e526174653a34312e38373031323034343635363439382c636f6c6c61746572616c3a35332e37343636363933363236333530362c62617365526174653a302c736c6f7065313a372c736c6f7065323a3230302c7370726561643a307d2c31353a7b69643a3078633030653934636236363263333532303238326536663537313732313430303461376632363838382c73796d626f6c3a434f4d502c7574696c69736174696f6e526174653a34312e37373738363432333335353238332c636f6c6c61746572616c3a36302e34383334333836393339303131332c62617365526174653a302c736c6f7065313a372c736c6f7065323a3230302c7370726561643a307d2c31363a7b69643a3078316365623563623537633464346532623234333336343162393564643333306133333138356134342c73796d626f6c3a4b5033522c7574696c69736174696f6e526174653a34322e3834303839323838323432393436352c636f6c6c61746572616c3a34312e3430373139303630323437353831352c62617365526174653a302c736c6f7065313a372c736c6f7065323a3230302c7370726561643a307d2c31373a7b69643a3078613032343663393033326263336136303038323034313561653630306336333838363139613134642c73796d626f6c3a4641524d2c7574696c69736174696f6e526174653a34312e37383035383230353937353135342c636f6c6c61746572616c3a34382e35343339333937313233333735332c62617365526174653a302c736c6f7065313a372c736c6f7065323a3230302c7370726561643a307d2c31383a7b69643a3078343566323462616565663236386262366436336165653531323930313564363937303262636466612c73796d626f6c3a5946562c7574696c69736174696f6e526174653a34312e36323034373139363535353137342c636f6c6c61746572616c3a35332e34343633323432343031383538362c62617365526174653a302c736c6f7065313a372c736c6f7065323a3230302c7370726561643a307d2c31393a7b69643a3078326261353932663738646236343336353237373239393239616166366339303834393763623230302c73796d626f6c3a435245414d2c7574696c69736174696f6e526174653a34312e35343331313835343939373334362c636f6c6c61746572616c3a34382e3135323137373030383736373132362c62617365526174653a302c736c6f7065313a372c736c6f7065323a3230302c7370726561643a307d2c32303a7b69643a3078646635653065383164666636666166336137653532626136393738323063356533326438303661382c73796d626f6c3a794441492b79555344432b79555344542b79545553442c7574696c69736174696f6e526174653a36302e33393433383136373237343431392c636f6c6c61746572616c3a35392e38373831383335313339303231372c62617365526174653a302c736c6f7065313a372c736c6f7065323a3230302c7370726561643a307d2c32313a7b69643a3078353664383131303838323335663131633839323036393861323034613530313061373838663462332c73796d626f6c3a425a52582c7574696c69736174696f6e526174653a35382e3039383430353639323636353139362c636f6c6c61746572616c3a36322e3830313937363931303030363931342c62617365526174653a302c736c6f7065313a372c736c6f7065323a3230302c7370726561643a307d2c32323a7b69643a3078636334333034613331643039323538623030323965613766653633643033326635326534346566652c73796d626f6c3a535741502c7574696c69736174696f6e526174653a34312e33303738313734303338333537372c636f6c6c61746572616c3a36302e32373235353839353538383131342c62617365526174653a302c736c6f7065313a372c736c6f7065323a3230302c7370726561643a307d2c32333a7b69643a3078303466613064323335633461626634626366343738376166346366343437646535373265663832382c73796d626f6c3a554d412c7574696c69736174696f6e526174653a34312e32363331303533343236323031372c636f6c6c61746572616c3a36362e38393839363134373135343630342c62617365526174653a302c736c6f7065313a372c736c6f7065323a3230302c7370726561643a307d2c32343a7b69643a3078316531383832316536396239666161386536653735646666653534653765323537353462656461302c73796d626f6c3a4b494d4348492c7574696c69736174696f6e526174653a34312e32323832393334343134393735322c636f6c6c61746572616c3a34362e393035333134363033393838372c62617365526174653a302c736c6f7065313a372c736c6f7065323a3230302c7370726561643a307d2c32353a7b69643a3078643533336139343937343062623333303664313139636337373766613930306261303334636435322c73796d626f6c3a4352562c7574696c69736174696f6e526174653a34312e32323732323938343932393732392c636f6c6c61746572616c3a35332e35303532383536323631373131342c62617365526174653a302c736c6f7065313a372c736c6f7065323a3230302c7370726561643a307d2c32363a7b69643a3078616261386361633638363662383361653465656339376464303765643235343238326636616438612c73796d626f6c3a59414d76322c7574696c69736174696f6e526174653a34312e31353135353333373532393032332c636f6c6c61746572616c3a35302e36363337393834343332343134362c62617365526174653a302c736c6f7065313a372c736c6f7065323a3230302c7370726561643a307d2c32373a7b69643a3078363861313138656634353036333035316561633439633765363437636535616365343861363861352c73796d626f6c3a2442415345442c7574696c69736174696f6e526174653a34312e3134303935343031313335303938352c636f6c6c61746572616c3a33342e37393337363638323134323631322c62617365526174653a302c736c6f7065313a372c736c6f7065323a3230302c7370726561643a307d2c32383a7b69643a3078383463613862633739393732373263376366623464306364336435356364393432623363393431392c73796d626f6c3a4449412c7574696c69736174696f6e526174653a34312e31313836353036313332343836342c636f6c6c61746572616c3a35342e33333437353933343438393334322c62617365526174653a302c736c6f7065313a372c736c6f7065323a3230302c7370726561643a307d2c32393a7b69643a3078306165303535303937633664313539383739353231633338346631643231323364316631393565362c73796d626f6c3a5354414b452c7574696c69736174696f6e526174653a34312e31313139383630373936303435382c636f6c6c61746572616c3a36362e37393732323533303938303439362c62617365526174653a302c736c6f7065313a372c736c6f7065323a3230302c7370726561643a307d2c33303a7b69643a3078343038653431383736636363646330663932323130363030656635303337323635363035326133382c73796d626f6c3a52454e2c7574696c69736174696f6e526174653a34312e303938323439373438373530332c636f6c6c61746572616c3a36342e363339323030343233393738322c62617365526174653a302c736c6f7065313a372c736c6f7065323a3230302c7370726561643a307d2c33313a7b69643a3078366638376437353664616630353033643038656238393933363836633766633031646334346662312c73796d626f6c3a54524144452c7574696c69736174696f6e526174653a34312e30373133343430333936393230362c636f6c6c61746572616c3a35302e3233353137353439343537363631362c62617365526174653a302c736c6f7065313a372c736c6f7065323a3230302c7370726561643a307d2c33323a7b69643a3078306434333866336235313735626562633236326266323337353363316535336430333433326264652c73796d626f6c3a774e584d2c7574696c69736174696f6e526174653a34312e30343330353438303633343130332c636f6c6c61746572616c3a35352e37343631373734333335303931392c62617365526174653a302c736c6f7065313a372c736c6f7065323a3230302c7370726561643a307d2c33333a7b69643a3078613164306532313561323364373033303834326663363763653538326136616661336363616238332c73796d626f6c3a594649492c7574696c69736174696f6e526174653a34312e30323434393238383637363139362c636f6c6c61746572616c3a33372e30333439383836343830313133342c62617365526174653a302c736c6f7065313a372c736c6f7065323a3230302c7370726561643a307d2c33343a7b69643a3078656439313837393931396237316262363930356632336166306136386432333165636638376231342c73796d626f6c3a444d472c7574696c69736174696f6e526174653a34302e39393836373837343935383630392c636f6c6c61746572616c3a36352e33303632393637333432393737392c62617365526174653a302c736c6f7065313a372c736c6f7065323a3230302c7370726561643a307d2c33353a7b69643a3078613362656434653163373564303066613666346535653639323264623732363162356539616364322c73796d626f6c3a4d54412c7574696c69736174696f6e526174653a35372e30393539313838353839303833372c636f6c6c61746572616c3a36322e30393138353631393332343135312c62617365526174653a302c736c6f7065313a372c736c6f7065323a3230302c7370726561643a307d2c33363a7b69643a3078356265666262323732323930646435623835323164346139333866366334373537373432633433302c73796d626f6c3a5846492c7574696c69736174696f6e526174653a34302e39333035303833333931333430312c636f6c6c61746572616c3a34312e3433323539393131383631383031352c62617365526174653a302c736c6f7065313a372c736c6f7065323a3230302c7370726561643a307d2c33373a7b69643a3078323863623765383431656539373934376138366230366661343039306338343531663634633062652c73796d626f6c3a59464c2c7574696c69736174696f6e526174653a35352e38363130373733333332383634322c636f6c6c61746572616c3a35392e3530373130323734353039353032352c62617365526174653a302c736c6f7065313a372c736c6f7065323a3230302c7370726561643a307d2c33383a7b69643a3078326261656364663433373334663232666435633135326462303865336332373233336630633764322c73796d626f6c3a4f4d2c7574696c69736174696f6e526174653a34302e39303336333432323437363834382c636f6c6c61746572616c3a34302e39303136393039333439393230322c62617365526174653a302c736c6f7065313a372c736c6f7065323a3230302c7370726561643a307d2c33393a7b69643a3078626131316430306335663734323535663536613565333636663466373766356131383664376635352c73796d626f6c3a42414e442c7574696c69736174696f6e526174653a34302e38393435383031333136383030332c636f6c6c61746572616c3a36372e39363736323131303632383835392c62617365526174653a302c736c6f7065313a372c736c6f7065323a3230302c7370726561643a307d2c34303a7b69643a3078306532323938653362333339306533623934356135343536666266353965636333663535646131362c73796d626f6c3a59414d2c7574696c69736174696f6e526174653a34302e38383438313538333133323137312c636f6c6c61746572616c3a33332e3933313337303638373930343934352c62617365526174653a302c736c6f7065313a372c736c6f7065323a3230302c7370726561643a307d2c34313a7b69643a3078623862616130653432383738393061356637393836336162363262376631373563656362643433332c73796d626f6c3a535752562c7574696c69736174696f6e526174653a34302e3734313636333139333738313133362c636f6c6c61746572616c3a33352e33323532313237333134323534342c62617365526174653a302c736c6f7065313a372c736c6f7065323a3230302c7370726561643a307d2c34323a7b69643a3078616536366265613438306637613663393166303763353866326165653138353838333535386662382c73796d626f6c3a4544432c7574696c69736174696f6e526174653a34302e37303331333035393931303730342c636f6c6c61746572616c3a34372e33313533393236333633373735332c62617365526174653a302c736c6f7065313a372c736c6f7065323a3230302c7370726561643a307d2c34333a7b69643a3078323565313437343137306334633061613634666139383132336264633864623439643738303266612c73796d626f6c3a4249442c7574696c69736174696f6e526174653a34302e36363731333035303231393633312c636f6c6c61746572616c3a34332e31333235353836353832393831332c62617365526174653a302c736c6f7065313a372c736c6f7065323a3230302c7370726561643a307d2c34343a7b69643a3078633238653237383730353538636632326164643833353430643231323664613265346234363463322c73796d626f6c3a53415348494d492c7574696c69736174696f6e526174653a35382e3639363833393933313430393730362c636f6c6c61746572616c3a35362e33333437393730303430333638372c62617365526174653a302c736c6f7065313a372c736c6f7065323a3230302c7370726561643a307d2c34353a7b69643a3078643535323564333937383938653535303230373565613565383330643839313466366630616666652c73796d626f6c3a4d454d452c7574696c69736174696f6e526174653a34302e36323130323431393036393833382c636f6c6c61746572616c3a34372e3733313431373233333133393539352c62617365526174653a302c736c6f7065313a372c736c6f7065323a3230302c7370726561643a307d2c34363a7b69643a3078663931316137656334366132633666613439313933323132666534613261396239353835316332372c73796d626f6c3a58414d502c7574696c69736174696f6e526174653a36342e36323439383631333037343936382c636f6c6c61746572616c3a36322e33343739303730303132373330332c62617365526174653a302c736c6f7065313a372c736c6f7065323a3230302c7370726561643a307d2c34373a7b69643a3078396638663732616139333034633862353933643535356631326566363538396363336135373961322c73796d626f6c3a4d4b522c7574696c69736174696f6e526174653a36332e353335373036373633353935332c636f6c6c61746572616c3a37302e36303335393537303337343235372c62617365526174653a302c736c6f7065313a372c736c6f7065323a3230302c7370726561643a307d2c34383a7b69643a3078383736326462313036623263326130626363623361383064316564343132373335353236313665382c73796d626f6c3a5253522c7574696c69736174696f6e526174653a34302e3631393635363934333230333731352c636f6c6c61746572616c3a36352e31333636323033383038343534342c62617365526174653a302c736c6f7065313a372c736c6f7065323a3230302c7370726561643a307d2c34393a7b69643a3078333865346164623434656630386632326635623562373661386630633264306463626537646361312c73796d626f6c3a4356502c7574696c69736174696f6e526174653a34302e3538343736383635333536383632342c636f6c6c61746572616c3a33352e3537343234333739343736353139352c62617365526174653a302c736c6f7065313a372c736c6f7065323a3230302c7370726561643a307d2c35303a7b69643a3078343736633565323661373562643230326139363833666664333433353963306363313562653066662c73796d626f6c3a53524d2c7574696c69736174696f6e526174653a34302e35373730313137373635343231372c636f6c6c61746572616c3a35302e3731343936313137353037383034352c62617365526174653a302c736c6f7065313a372c736c6f7065323a3230302c7370726561643a307d2c35313a7b69643a3078653137663031373437356137303964653538653937363038316562393136303831666634633964352c73796d626f6c3a524d504c2c7574696c69736174696f6e526174653a34302e3537333231363936363737343434362c636f6c6c61746572616c3a34312e3931393539353839363034383331342c62617365526174653a302c736c6f7065313a372c736c6f7065323a3230302c7370726561643a307d2c35323a7b69643a3078333338336335613839363964633431336266646463393635366562383061313430386534626132302c73796d626f6c3a77414e415448412c7574696c69736174696f6e526174653a36342e33353336383730393634313835372c636f6c6c61746572616c3a35342e3938333535323534343739383733342c62617365526174653a302c736c6f7065313a372c736c6f7065323a3230302c7370726561643a307d2c35333a7b69643a3078363861333633376261366537356330663636623631613432363339633465396663643364343832342c73796d626f6c3a4d4f4f4e2c7574696c69736174696f6e526174653a34302e35333035303234313038393634322c636f6c6c61746572616c3a35302e39303733353534343432343731372c62617365526174653a302c736c6f7065313a372c736c6f7065323a3230302c7370726561643a307d2c35343a7b69643a3078303564333630366435633831656239623762313835333039393565633962323964613035666162612c73796d626f6c3a544f4d4f452c7574696c69736174696f6e526174653a34302e35323638393635383534353732332c636f6c6c61746572616c3a34382e30303430393134343833333932362c62617365526174653a302c736c6f7065313a372c736c6f7065323a3230302c7370726561643a307d2c35353a7b69643a3078383365366631653431636464323865616365623230636236343931353530343966616333643561612c73796d626f6c3a504f4c532c7574696c69736174696f6e526174653a34302e35313232393431353139323934342c636f6c6c61746572616c3a34362e3035313033313032303333343231342c62617365526174653a302c736c6f7065313a372c736c6f7065323a3230302c7370726561643a307d2c35363a7b69643a3078303636373938643965663038333363636337313930373664616237373139396563626431373862302c73796d626f6c3a53414b452c7574696c69736174696f6e526174653a34302e3439333933323839383430333833342c636f6c6c61746572616c3a34382e34333232373531353834393937372c62617365526174653a302c736c6f7065313a372c736c6f7065323a3230302c7370726561643a307d2c35373a7b69643a3078383965653538616634383731623437346333303030313938326333643734333963393333633833382c73796d626f6c3a5946424554412c7574696c69736174696f6e526174653a34302e34393338323634313836383039352c636f6c6c61746572616c3a32362e3737313835373939393533333336372c62617365526174653a302c736c6f7065313a372c736c6f7065323a3230302c7370726561643a307d2c35383a7b69643a3078343066643732323537353937616131346337323331613762316161613239666365383638663637372c73796d626f6c3a584f522c7574696c69736174696f6e526174653a34302e35303534313432343733353533332c636f6c6c61746572616c3a35372e38393434393235393439393532392c62617365526174653a302c736c6f7065313a372c736c6f7065323a3230302c7370726561643a307d2c35393a7b69643a3078653065343833396530633762323737336335383736346639656333623936323264303161303432382c73796d626f6c3a454e434f52452c7574696c69736174696f6e526174653a34302e34383832363031323734313037372c636f6c6c61746572616c3a35312e31343632343436393730313632362c62617365526174653a302c736c6f7065313a372c736c6f7065323a3230302c7370726561643a307d2c36303a7b69643a3078666666666666666666313561626633393764613736663164636331613136303466343531323664622c73796d626f6c3a4653572c7574696c69736174696f6e526174653a34302e34383434393331373835373830342c636f6c6c61746572616c3a35332e3232303934333630343434323235352c62617365526174653a302c736c6f7065313a372c736c6f7065323a3230302c7370726561643a307d2c36313a7b69643a3078393630623233366130376366313232363633633433303333353036303961363661376232383863302c73796d626f6c3a414e542c7574696c69736174696f6e526174653a35342e3134333237343838363230373638352c636f6c6c61746572616c3a36382e36363333373032323532373532392c62617365526174653a302c736c6f7065313a372c736c6f7065323a3230302c7370726561643a307d2c36323a7b69643a3078326235393165393961666539663332656161363231346637623736323937363863343065656233392c73796d626f6c3a4845582c7574696c69736174696f6e526174653a34302e37323334303437333233343239392c636f6c6c61746572616c3a35352e33353138303439373434333733332c62617365526174653a302c736c6f7065313a372c736c6f7065323a3230302c7370726561643a307d2c36333a7b69643a3078616161656265366665343865353466343331623063333930636661663062303137643039643432642c73796d626f6c3a43454c2c7574696c69736174696f6e526174653a34302e3439363339353230373535333335362c636f6c6c61746572616c3a36362e38323837333432363935303830362c62617365526174653a302c736c6f7065313a372c736c6f7065323a3230302c7370726561643a307d2c36343a7b69643a3078626262626361366139303163393236663234306238396561636236343164386165633761656166642c73796d626f6c3a4c52432c7574696c69736174696f6e526174653a34302e3434393439313934343530303339342c636f6c6c61746572616c3a36342e3037303733363830383931362c62617365526174653a302c736c6f7065313a372c736c6f7065323a3230302c7370726561643a307d2c36353a7b69643a3078626632313739383539666336643562656539626639313538363332646335313637386134313030652c73796d626f6c3a454c462c7574696c69736174696f6e526174653a34302e34333339303534343139343237382c636f6c6c61746572616c3a35302e3431313034353133383837383730362c62617365526174653a302c736c6f7065313a372c736c6f7065323a3230302c7370726561643a307d2c36363a7b69643a3078313435336462623861323935353161646531316438393832356361383132653035333137656165622c73796d626f6c3a54454e442c7574696c69736174696f6e526174653a34302e343036333034353737333736382c636f6c6c61746572616c3a35392e34333431353230333731323838312c62617365526174653a302c736c6f7065313a372c736c6f7065323a3230302c7370726561643a307d2c36373a7b69643a3078306666366666636664613932633533663631356134613735643938326633393963393839333636622c73796d626f6c3a4c415945522c7574696c69736174696f6e526174653a34302e3432313437343338393030303139362c636f6c6c61746572616c3a33332e37333630333134313039343838382c62617365526174653a302c736c6f7065313a372c736c6f7065323a3230302c7370726561643a307d2c36383a7b69643a3078313439346361316631316434383763326262653435343365393030383061656261346261336332622c73796d626f6c3a4450492c7574696c69736174696f6e526174653a34302e34333832363838393138373439382c636f6c6c61746572616c3a35322e3432353230323131303835303630362c62617365526174653a302c736c6f7065313a372c736c6f7065323a3230302c7370726561643a307d2c36393a7b69643a3078376465393162323034633163373337626365653666303030616161363536396366373036316362372c73796d626f6c3a5852542c7574696c69736174696f6e526174653a34302e3338353433373336313139343530352c636f6c6c61746572616c3a35312e33323632323133323137323639392c62617365526174653a302c736c6f7065313a372c736c6f7065323a3230302c7370726561643a307d2c37303a7b69643a3078386162373430343036336563346462636664343539383231353939326463336638656338353364372c73796d626f6c3a414b524f2c7574696c69736174696f6e526174653a34302e3339313134333534353133323838342c636f6c6c61746572616c3a35362e38353134303038343536373437382c62617365526174653a302c736c6f7065313a372c736c6f7065323a3230302c7370726561643a307d2c37313a7b69643a3078623738623333323034393361346566616131303238313330633562613236663062363038356566382c73796d626f6c3a4452432c7574696c69736174696f6e526174653a34302e33373430303835303835383631352c636f6c6c61746572616c3a32382e39313834323030333937383637312c62617365526174653a302c736c6f7065313a372c736c6f7065323a3230302c7370726561643a307d2c37323a7b69643a3078356462636633336438633265393736633662353630323439383738653666313439316263613235632c73796d626f6c3a79794441492b79555344432b79555344542b79545553442c7574696c69736174696f6e526174653a36332e393435353839313035343931332c636f6c6c61746572616c3a36302e30343831323539383439313933392c62617365526174653a302c736c6f7065313a372c736c6f7065323a3230302c7370726561643a307d2c37333a7b69643a3078333039303133643535666230653863313733363362636337396632356439326637313161353830322c73796d626f6c3a534254432c7574696c69736174696f6e526174653a36332e3533383937393835383935393433362c636f6c6c61746572616c3a36312e35393437333836313435383636372c62617365526174653a302c736c6f7065313a372c736c6f7065323a3230302c7370726561643a307d2c37343a7b69643a3078333666336664363865373332356133356562373638663161656461616539656130363839643732332c73796d626f6c3a4553442c7574696c69736174696f6e526174653a34302e33373431323932383738393437352c636f6c6c61746572616c3a34392e34313632313935343336363136342c62617365526174653a302c736c6f7065313a372c736c6f7065323a3230302c7370726561643a307d2c37353a7b69643a3078646439373464356332653239323864656135663731623938323562386236343636383662643230302c73796d626f6c3a4b4e432c7574696c69736174696f6e526174653a34302e33333731323437313632333834362c636f6c6c61746572616c3a36372e33383035343032323138373231352c62617365526174653a302c736c6f7065313a372c736c6f7065323a3230302c7370726561643a307d2c37363a7b69643a3078326137663730396565303031303639373731636562366434326538353033356637643138653733362c73796d626f6c3a4f574c2c7574696c69736174696f6e526174653a35322e35343331323038393934353131392c636f6c6c61746572616c3a35322e30383236343235343332343039392c62617365526174653a302c736c6f7065313a372c736c6f7065323a3230302c7370726561643a307d2c37373a7b69643a3078616639663534393737346563656462643039363663353266323530616363353438643366333665352c73796d626f6c3a524675656c2c7574696c69736174696f6e526174653a34302e33323131303934313337393733312c636f6c6c61746572616c3a34352e32383438343436333935303031392c62617365526174653a302c736c6f7065313a372c736c6f7065323a3230302c7370726561643a307d2c37383a7b69643a3078656430343339656163663463343936356165343631336437376135633265666531306535663138332c73796d626f6c3a5348524f4f4d2c7574696c69736174696f6e526174653a34302e33333133383230383538373730372c636f6c6c61746572616c3a34342e3032353137363331323237313031342c62617365526174653a302c736c6f7065313a372c736c6f7065323a3230302c7370726561643a307d2c37393a7b69643a3078383430306439346135636230666130643034316133373838653339353238356436316339656535652c73796d626f6c3a5542542c7574696c69736174696f6e526174653a34302e33303631373535343832363636312c636f6c6c61746572616c3a36362e353634303936303432333839342c62617365526174653a302c736c6f7065313a372c736c6f7065323a3230302c7370726561643a307d2c38303a7b69643a3078623166363639393761353736303432386433613837643638623930626665306165363431323163632c73796d626f6c3a4c55412c7574696c69736174696f6e526174653a34302e3238343838333039323636323432362c636f6c6c61746572616c3a32372e35383835353936383635363432362c62617365526174653a302c736c6f7065313a372c736c6f7065323a3230302c7370726561643a307d2c38313a7b69643a3078306438373735663634383433303637396137303965393864326230636236323530643238383765662c73796d626f6c3a4241542c7574696c69736174696f6e526174653a35352e3035313238303833383339383535342c636f6c6c61746572616c3a36392e34373336313439333336323031382c62617365526174653a302c736c6f7065313a372c736c6f7065323a3230302c7370726561643a307d2c38323a7b69643a3078333066323731633965383664326237643030613633373663643936613163666264356630623962332c73796d626f6c3a4445432c7574696c69736174696f6e526174653a36302e35383434333135333838363831352c636f6c6c61746572616c3a36332e35343531333537383236393334322c62617365526174653a302c736c6f7065313a372c736c6f7065323a3230302c7370726561643a307d2c38333a7b69643a3078396365623834663932613035363166613363633431333261623963306237366135393738373534342c73796d626f6c3a444f4b492c7574696c69736174696f6e526174653a34302e32373934383336373132303734312c636f6c6c61746572616c3a34332e333134373034303332393632372c62617365526174653a302c736c6f7065313a372c736c6f7065323a3230302c7370726561643a307d2c38343a7b69643a3078303431373931326233613761663736383035313736353034306135356262303932356434646463662c73796d626f6c3a4c49442c7574696c69736174696f6e526174653a35392e39333132353833333730343132312c636f6c6c61746572616c3a36312e3738323038343035303737343735362c62617365526174653a302c736c6f7065313a372c736c6f7065323a3230302c7370726561643a307d2c38353a7b69643a3078366137656634393938656239643066373036323338373536393439663331316135396530353734352c73796d626f6c3a4b454e2c7574696c69736174696f6e526174653a34302e32363230363837353930333932322c636f6c6c61746572616c3a35372e37303731313939383239363838332c62617365526174653a302c736c6f7065313a372c736c6f7065323a3230302c7370726561643a307d2c38363a7b69643a3078336633383264626439363065336139626263656165323236353165383831353864323739313535302c73796d626f6c3a474853542c7574696c69736174696f6e526174653a36312e35353539353435313335303133372c636f6c6c61746572616c3a35362e3432393632303636373133363734362c62617365526174653a302c736c6f7065313a372c736c6f7065323a3230302c7370726561643a307d2c38373a7b69643a3078313062616535313236323439306234663461663431653132656435326130653734346331313337612c73796d626f6c3a534c494e4b2c7574696c69736174696f6e526174653a34302e32343138323438393232323232352c636f6c6c61746572616c3a34322e37353730383036343634373533312c62617365526174653a302c736c6f7065313a372c736c6f7065323a3230302c7370726561643a307d2c38383a7b69643a3078393436396430313338303562666662376433646562653565373833393233376535333565633438332c73796d626f6c3a52494e472c7574696c69736174696f6e526174653a34302e32343231383732383035383638372c636f6c6c61746572616c3a36352e313539313034373331353034392c62617365526174653a302c736c6f7065313a372c736c6f7065323a3230302c7370726561643a307d2c38393a7b69643a3078313737626130636163353162666337656132346261643339643831646365666435396437346661612c73796d626f6c3a4b49462c7574696c69736174696f6e526174653a34302e32333639393332313139333032362c636f6c6c61746572616c3a33372e343935353039303938333838342c62617365526174653a302c736c6f7065313a372c736c6f7065323a3230302c7370726561643a307d2c39303a7b69643a3078633463323631346536393463663533346434303765653439663865343464313235653436383163342c73796d626f6c3a434841494e2c7574696c69736174696f6e526174653a34302e3233313030343237303334323936342c636f6c6c61746572616c3a35342e33303830383532333031333832392c62617365526174653a302c736c6f7065313a372c736c6f7065323a3230302c7370726561643a307d2c39313a7b69643a3078393930663334313934366133666462353037616537653532643137383531623837313638303137632c73796d626f6c3a5354524f4e472c7574696c69736174696f6e526174653a34302e3232303933393936303537353234342c636f6c6c61746572616c3a35312e31333036353333343133383938332c62617365526174653a302c736c6f7065313a372c736c6f7065323a3230302c7370726561643a307d2c39323a7b69643a3078323663653235313438383332633034663364376632366633323437386139666535353139373136362c73796d626f6c3a444558542c7574696c69736174696f6e526174653a34302e32333030383135363733353537352c636f6c6c61746572616c3a36312e31383936303836373738363431342c62617365526174653a302c736c6f7065313a372c736c6f7065323a3230302c7370726561643a307d2c39333a7b69643a3078666532373836643764316363616238623031356636656637333932663637643737386638643864372c73796d626f6c3a5052512c7574696c69736174696f6e526174653a34302e32303632303836343839353533342c636f6c6c61746572616c3a33372e37393530313637363639303234322c62617365526174653a302c736c6f7065313a372c736c6f7065323a3230302c7370726561643a307d2c39343a7b69643a3078333134393766323138633030356665336435656538376535613333653133336139303961376134622c73796d626f6c3a4454412c7574696c69736174696f6e526174653a34302e32303734333437303438333835362c636f6c6c61746572616c3a33392e3239393737363039363435373238362c62617365526174653a302c736c6f7065313a372c736c6f7065323a3230302c7370726561643a307d2c39353a7b69643a3078306261343561386235643535373539333562383135386138386336333165396639633935613265352c73796d626f6c3a5452422c7574696c69736174696f6e526174653a34302e32303832383939363138333938372c636f6c6c61746572616c3a36332e30373639303337343332383032342c62617365526174653a302c736c6f7065313a372c736c6f7065323a3230302c7370726561643a307d2c39363a7b69643a3078656565656565656565326166386430653139343036373938363033393833303865306566323464362c73796d626f6c3a455448562c7574696c69736174696f6e526174653a34302e32303230333035313539343434362c636f6c6c61746572616c3a33352e30303930373333383333353233362c62617365526174653a302c736c6f7065313a372c736c6f7065323a3230302c7370726561643a307d2c39373a7b69643a3078356265616261656262333134363638356464373431373666363861303732316639313239376433372c73796d626f6c3a424f542c7574696c69736174696f6e526174653a35392e33323632383935383938383133362c636f6c6c61746572616c3a36302e36323235343538363735313432382c62617365526174653a302c736c6f7065313a372c736c6f7065323a3230302c7370726561643a307d2c39383a7b69643a3078656566396633333935313432393863366138353765666366633161373632616638343433386465652c73796d626f6c3a48455a2c7574696c69736174696f6e526174653a35362e3431363637303335323834363838362c636f6c6c61746572616c3a35312e3735373839393730313630353636362c62617365526174653a302c736c6f7065313a372c736c6f7065323a3230302c7370726561643a307d2c39393a7b69643a3078613764653038373332396266636461353633393234376639363134306639646162653364656564312c73796d626f6c3a5354412c7574696c69736174696f6e526174653a34302e3139363931313736393235383131352c636f6c6c61746572616c3a35342e383938393835303032393736382c62617365526174653a302c736c6f7065313a372c736c6f7065323a3230302c7370726561643a307d2c3130303a7b69643a3078643034373835633464383139356534613534643964656333613930343338373238373561653965322c73796d626f6c3a524f542c7574696c69736174696f6e526174653a34302e3230303735313732313632393636352c636f6c6c61746572616c3a33332e32353533353136313136313539392c62617365526174653a302c736c6f7065313a372c736c6f7065323a3230302c7370726561643a307d2c3130313a7b69643a3078396230366434386530353239656366303539303566663532646434323665626563306561333031312c73796d626f6c3a5853502c7574696c69736174696f6e526174653a34302e31393238333530373234343536312c636f6c6c61746572616c3a32372e39393039333235313131303438322c62617365526174653a302c736c6f7065313a372c736c6f7065323a3230302c7370726561643a307d2c3130323a7b69643a3078376663363635303063383461373661643765396339333433376266633561633333653264646165392c73796d626f6c3a414156452c7574696c69736174696f6e526174653a34302e3232383931323931363333363635342c636f6c6c61746572616c3a34362e363635313232303039393638332c62617365526174653a302c736c6f7065313a372c736c6f7065323a3230302c7370726561643a307d2c3130333a7b69643a3078306532396535616262623566643838653238623264333535373734653733626434376465336263642c73796d626f6c3a48414b4b412c7574696c69736174696f6e526174653a35362e38353038333731383738333038322c636f6c6c61746572616c3a35382e3731343231373235373035323739352c62617365526174653a302c736c6f7065313a372c736c6f7065323a3230302c7370726561643a307d2c3130343a7b69643a3078336537383039323036303164363163656462383630666539633461393063396561366133356537382c73796d626f6c3a424f4f53542c7574696c69736174696f6e526174653a34302e31373133393336313433383534312c636f6c6c61746572616c3a33312e3532363430323038363132323832352c62617365526174653a302c736c6f7065313a372c736c6f7065323a3230302c7370726561643a307d2c3130353a7b69643a3078383865663237653639313038623236333366386531633138346363333739343061303735636330322c73796d626f6c3a4445474f2c7574696c69736174696f6e526174653a34302e31373434323933333036333138312c636f6c6c61746572616c3a35322e34303036353333333232323434392c62617365526174653a302c736c6f7065313a372c736c6f7065323a3230302c7370726561643a307d2c3130363a7b69643a3078363638646266313030363335663539336133383437633062646166323166306130393338303138382c73796d626f6c3a424e53442c7574696c69736174696f6e526174653a34302e313639303435343236363232332c636f6c6c61746572616c3a34362e3730383332343633313639343035352c62617365526174653a302c736c6f7065313a372c736c6f7065323a3230302c7370726561643a307d2c3130373a7b69643a3078343331616432666636613963333635383035656261643437656530323131343864366637646265302c73796d626f6c3a44462c7574696c69736174696f6e526174653a34302e31373232333732333336303537312c636f6c6c61746572616c3a33362e3632333334383638353431373732342c62617365526174653a302c736c6f7065313a372c736c6f7065323a3230302c7370726561643a307d2c3130383a7b69643a3078346234373031663366383237653133333166623232666638653262656163323462313765623035352c73796d626f6c3a44495354582c7574696c69736174696f6e526174653a34302e31373137373736303036353436332c636f6c6c61746572616c3a35312e32373630303534333533303630362c62617365526174653a302c736c6f7065313a372c736c6f7065323a3230302c7370726561643a307d2c3130393a7b69643a3078633665363437323939333166363064326338626337306132376436366439653063323864316266392c73796d626f6c3a464c4f572c7574696c69736174696f6e526174653a34302e31363239353031313737303337332c636f6c6c61746572616c3a35312e3531393336333837353533313135352c62617365526174653a302c736c6f7065313a372c736c6f7065323a3230302c7370726561643a307d2c3131303a7b69643a3078383565656533306335326230623337396230343666623066383566346633646333303039616665632c73796d626f6c3a4b4545502c7574696c69736174696f6e526174653a34302e31363734383536353134383035312c636f6c6c61746572616c3a36302e33393938373136323430323630352c62617365526174653a302c736c6f7065313a372c736c6f7065323a3230302c7370726561643a307d2c3131313a7b69643a3078353463396561326539633965386564383635646234613463653637313163326130643530363362612c73796d626f6c3a424152542c7574696c69736174696f6e526174653a35342e33383032303035303630333532332c636f6c6c61746572616c3a35382e36363330323431363833343139332c62617365526174653a302c736c6f7065313a372c736c6f7065323a3230302c7370726561643a307d2c3131323a7b69643a3078346439353363663037376330633935626130393032323665353961313866636639376462343465632c73796d626f6c3a4d494e492c7574696c69736174696f6e526174653a34302e31353239323236363032323832372c636f6c6c61746572616c3a34352e31323931363833303439353739372c62617365526174653a302c736c6f7065313a372c736c6f7065323a3230302c7370726561643a307d2c3131333a7b69643a3078656234633237383165346562613830346365396139383033633637643038393334333662623237642c73796d626f6c3a72656e4254432c7574696c69736174696f6e526174653a35362e39323330343532323432343237332c636f6c6c61746572616c3a36382e30333130343336383633323434342c62617365526174653a302c736c6f7065313a372c736c6f7065323a3230302c7370726561643a307d2c3131343a7b69643a3078396632383465313333376138313566653737643266663461653436353434363435623230633566662c73796d626f6c3a4b544f4e2c7574696c69736174696f6e526174653a34302e31343737343530333331333732352c636f6c6c61746572616c3a35352e323634373034333232383930352c62617365526174653a302c736c6f7065313a372c736c6f7065323a3230302c7370726561643a307d2c3131353a7b69643a3078633735663135616461353831323139633935343835633537386531323464663339383565346365302c73796d626f6c3a5a5a5a2c7574696c69736174696f6e526174653a34302e31343637303737313238373235382c636f6c6c61746572616c3a34372e3539353839363032373736363932362c62617365526174653a302c736c6f7065313a372c736c6f7065323a3230302c7370726561643a307d2c3131363a7b69643a3078306139313362656164383066333231653761633335323835656531306439643932323635396362372c73796d626f6c3a444f532c7574696c69736174696f6e526174653a34302e31343636383439313435303138332c636f6c6c61746572616c3a35392e36343530333837393135353033392c62617365526174653a302c736c6f7065313a372c736c6f7065323a3230302c7370726561643a307d2c3131373a7b69643a3078306637663936313634386165366462343363373536363361633765353431346562373962353730342c73796d626f6c3a58494f2c7574696c69736174696f6e526174653a34302e3134323131303333343235373434352c636f6c6c61746572616c3a35352e3830303430373832393333383936352c62617365526174653a302c736c6f7065313a372c736c6f7065323a3230302c7370726561643a307d2c3131383a7b69643a3078386365393133376433393332366164306364363439316662356363306362613065303839623661392c73796d626f6c3a5358502c7574696c69736174696f6e526174653a34302e31343230343835343733333732312c636f6c6c61746572616c3a36312e34393031363839353434383439362c62617365526174653a302c736c6f7065313a372c736c6f7065323a3230302c7370726561643a307d2c3131393a7b69643a3078326532663332343662366336356363633432333963396565353536656331343361376535646532632c73796d626f6c3a5946494d2c7574696c69736174696f6e526174653a34302e3234333630373438343839333831352c636f6c6c61746572616c3a32302e38323638353637383032383432342c62617365526174653a302c736c6f7065313a372c736c6f7065323a3230302c7370726561643a307d2c3132303a7b69643a3078396362326632366132336238643839393733663038633935376334643763646637356364333431632c73796d626f6c3a445a41522c7574696c69736174696f6e526174653a36332e3732363732313131343836383435342c636f6c6c61746572616c3a37302e37343630393033323130363231332c62617365526174653a302c736c6f7065313a372c736c6f7065323a3230302c7370726561643a307d2c3132313a7b69643a3078313861616137313135373035653862653934626666656264653537616639626663323635623939382c73796d626f6c3a415544494f2c7574696c69736174696f6e526174653a34302e31333635383036303630353737312c636f6c6c61746572616c3a32332e33353137353931333730313333392c62617365526174653a302c736c6f7065313a372c736c6f7065323a3230302c7370726561643a307d2c3132323a7b69643a3078623934346234366262643463636361393063393632656632323565323830346534363639316363662c73796d626f6c3a44434f52452c7574696c69736174696f6e526174653a34302e31323834343638383030313033322c636f6c6c61746572616c3a35302e39313032383030303539353933322c62617365526174653a302c736c6f7065313a372c736c6f7065323a3230302c7370726561643a307d2c3132333a7b69643a3078346234663532383665306639336539363532393262393232623963643136373735313266313232322c73796d626f6c3a59554e4f2c7574696c69736174696f6e526174653a34302e3132383432333035393135323537342c636f6c6c61746572616c3a35342e3634313336353630373538333734342c62617365526174653a302c736c6f7065313a372c736c6f7065323a3230302c7370726561643a307d2c3132343a7b69643a3078623164633931323463333935633165393737373361623835356436366538373966303533613238392c73796d626f6c3a5941582c7574696c69736174696f6e526174653a34302e31353138383333333036373230392c636f6c6c61746572616c3a33322e3437333437393334383632333438352c62617365526174653a302c736c6f7065313a372c736c6f7065323a3230302c7370726561643a307d2c3132353a7b69643a3078363735653764393237616637653664303038326530313533646333343835623638376136663061642c73796d626f6c3a43524545442c7574696c69736174696f6e526174653a34302e31323632343430343831353039362c636f6c6c61746572616c3a32392e35323335333436373339333531352c62617365526174653a302c736c6f7065313a372c736c6f7065323a3230302c7370726561643a307d2c3132363a7b69643a3078363936393264333334353031306132303762373539613764316166366663376633386233356335652c73796d626f6c3a43484144532c7574696c69736174696f6e526174653a34302e31323837333138383136353439362c636f6c6c61746572616c3a32372e3431373631343730363030363438362c62617365526174653a302c736c6f7065313a372c736c6f7065323a3230302c7370726561643a307d2c3132373a7b69643a3078666566336265663731613565623937653039373033393033383737366664393637616535623130362c73796d626f6c3a59464d532c7574696c69736174696f6e526174653a35392e39343535313439393633343230322c636f6c6c61746572616c3a35362e30303435343636363834303034392c62617365526174653a302c736c6f7065313a372c736c6f7065323a3230302c7370726561643a307d2c3132383a7b69643a3078366533363535366233656535616132386465663261386563336461653330656332623230383733392c73796d626f6c3a4255494c442c7574696c69736174696f6e526174653a34302e313134313135393334343037362c636f6c6c61746572616c3a32382e33333338313631363436343939362c62617365526174653a302c736c6f7065313a372c736c6f7065323a3230302c7370726561643a307d2c3132393a7b69643a3078393637646134303438636430376162333738353563303930616166333636653463653162396634382c73796d626f6c3a4f4345414e2c7574696c69736174696f6e526174653a34302e31373136313234303430393134322c636f6c6c61746572616c3a34382e39343531393339343636323333352c62617365526174653a302c736c6f7065313a372c736c6f7065323a3230302c7370726561643a307d2c3133303a7b69643a3078353931336430663334363135393233353532656539313364626538303966396633343865373036652c73796d626f6c3a424d4a2c7574696c69736174696f6e526174653a34302e31333139393937353735323232352c636f6c6c61746572616c3a33302e37373437333235343033353233312c62617365526174653a302c736c6f7065313a372c736c6f7065323a3230302c7370726561643a307d2c3133313a7b69643a3078343230616235343862313839313137313765643763346363626634363337316561373538343538632c73796d626f6c3a4e4f4f444c452c7574696c69736174696f6e526174653a34302e3130373933373933323332363231362c636f6c6c61746572616c3a33332e3337393235363037333036353136342c62617365526174653a302c736c6f7065313a372c736c6f7065323a3230302c7370726561643a307d2c3133323a7b69643a3078363337383933306461396265376339306438323464376631313339373437343136343464363264612c73796d626f6c3a4354432c7574696c69736174696f6e526174653a34302e3132313833313133353130363138342c636f6c6c61746572616c3a34392e3636333032303733303235333630362c62617365526174653a302c736c6f7065313a372c736c6f7065323a3230302c7370726561643a307d2c3133333a7b69643a3078323132396666363030306239356139373332333630323062636432623230303662306438653031392c73796d626f6c3a4d59582c7574696c69736174696f6e526174653a34302e31303536373538383932363138392c636f6c6c61746572616c3a35382e31323839363033393833313139332c62617365526174653a302c736c6f7065313a372c736c6f7065323a3230302c7370726561643a307d2c3133343a7b69643a3078346237646661653235363731383165353437373633333763383430653134326163623432616131662c73796d626f6c3a674b494d4348492c7574696c69736174696f6e526174653a34302e31303033323035363233303738362c636f6c6c61746572616c3a34352e37303836353131363033393037392c62617365526174653a302c736c6f7065313a372c736c6f7065323a3230302c7370726561643a307d2c3133353a7b69643a3078656133313965383763663036323033646165313037646438653536373231373565336565393736632c73796d626f6c3a535552462c7574696c69736174696f6e526174653a34302e32353030303232363739333231312c636f6c6c61746572616c3a34302e34393935383537373135343339382c62617365526174653a302c736c6f7065313a372c736c6f7065323a3230302c7370726561643a307d2c3133363a7b69643a3078333363326461376664356231323565363239623339353066336333386437663732316437623330642c73796d626f6c3a5365616c2c7574696c69736174696f6e526174653a34302e3039303032393736343035323639342c636f6c6c61746572616c3a33302e3234313239373339353639343734382c62617365526174653a302c736c6f7065313a372c736c6f7065323a3230302c7370726561643a307d2c3133373a7b69643a3078353538306162393766323236633332346336373137343661313738373532346165663432653431352c73796d626f6c3a4a554c2c7574696c69736174696f6e526174653a34302e30383837323038373331303335332c636f6c6c61746572616c3a34372e3034353135373031343934393339362c62617365526174653a302c736c6f7065313a372c736c6f7065323a3230302c7370726561643a307d2c3133383a7b69643a3078393064373032663037316432616633333033323934333133376164306162343238303730353831372c73796d626f6c3a594646532c7574696c69736174696f6e526174653a34302e30383832393431353834333936312c636f6c6c61746572616c3a34372e34353838333436313536363333382c62617365526174653a302c736c6f7065313a372c736c6f7065323a3230302c7370726561643a307d2c3133393a7b69643a3078396434373839346638626563623638623963663334323864323536333131616666653862303638622c73796d626f6c3a24524f50452c7574696c69736174696f6e526174653a35322e303938373337373237313431362c636f6c6c61746572616c3a35332e35343934313934313037393835322c62617365526174653a302c736c6f7065313a372c736c6f7065323a3230302c7370726561643a307d2c3134303a7b69643a3078626132316566346339663433336564653030626164656663633237353462386537346264353338612c73796d626f6c3a5357464c2c7574696c69736174696f6e526174653a34302e30383633373933343033333831342c636f6c6c61746572616c3a35352e323939363537303839363431352c62617365526174653a302c736c6f7065313a372c736c6f7065323a3230302c7370726561643a307d2c3134313a7b69643a3078353162346232376137626432393666643334636137633436396634396435626364376665353133372c73796d626f6c3a434942532c7574696c69736174696f6e526174653a34302e30393638313235353939393837352c636f6c6c61746572616c3a34332e393637303730393237383734392c62617365526174653a302c736c6f7065313a372c736c6f7065323a3230302c7370726561643a307d2c3134323a7b69643a3078316635373364366662336631336436383966663834346234636533373739346437396137666631632c73796d626f6c3a424e542c7574696c69736174696f6e526174653a34302e30383339333636323639343236392c636f6c6c61746572616c3a36372e37363533343531393933333835332c62617365526174653a302c736c6f7065313a372c736c6f7065323a3230302c7370726561643a307d2c3134333a7b69643a3078623465666438356331393939396438343235313330346264613939653930623932333030626439332c73796d626f6c3a52504c2c7574696c69736174696f6e526174653a36312e303331393132323134393434332c636f6c6c61746572616c3a37302e31383830383536323432393838322c62617365526174653a302c736c6f7065313a372c736c6f7065323a3230302c7370726561643a307d2c3134343a7b69643a3078666361353963643831366162316561643636353334643832626332316537353135636534343163662c73796d626f6c3a524152492c7574696c69736174696f6e526174653a34302e30383032343235373838303639382c636f6c6c61746572616c3a35302e3737323539363839363038333530362c62617365526174653a302c736c6f7065313a372c736c6f7065323a3230302c7370726561643a307d2c3134353a7b69643a3078613039666630303663363532343936653732643634386365663266346565363737376566646636662c73796d626f6c3a43524146542c7574696c69736174696f6e526174653a36332e39383830383632383939323138332c636f6c6c61746572616c3a35342e36353333393635333932363837352c62617365526174653a302c736c6f7065313a372c736c6f7065323a3230302c7370726561643a307d2c3134363a7b69643a3078316239383065303539343364653364623361343539633732333235333338643332376236663561392c73796d626f6c3a474541522c7574696c69736174696f6e526174653a34302e30373839303530383730373031372c636f6c6c61746572616c3a32362e36313236353733343632353039322c62617365526174653a302c736c6f7065313a372c736c6f7065323a3230302c7370726561643a307d2c3134373a7b69643a3078626131303030303036323561333735343432333937386136306339333137633538613432346533642c73796d626f6c3a42414c2c7574696c69736174696f6e526174653a34302e30383036313534313536383936342c636f6c6c61746572616c3a35362e35353936343532393535383233332c62617365526174653a302c736c6f7065313a372c736c6f7065323a3230302c7370726561643a307d2c3134383a7b69643a3078623234346163306633656532653963616535646664646535646162386434396661343637653161392c73796d626f6c3a58434f52452c7574696c69736174696f6e526174653a34302e303737333037373835383934312c636f6c6c61746572616c3a34352e34373330363333333539393230392c62617365526174653a302c736c6f7065313a372c736c6f7065323a3230302c7370726561643a307d2c3134393a7b69643a3078343633396364386364353265633163663265343936613630366365323864386166623163373932662c73796d626f6c3a425245452c7574696c69736174696f6e526174653a34302e30373533353638313231313539382c636f6c6c61746572616c3a33312e33383837343038343530333031352c62617365526174653a302c736c6f7065313a372c736c6f7065323a3230302c7370726561643a307d2c3135303a7b69643a3078393464383633313733656537373433396534323932323834666631336661643534623362613138322c73796d626f6c3a4144454c2c7574696c69736174696f6e526174653a34302e3037343035323139393030313338362c636f6c6c61746572616c3a35302e33343633393335303832323736322c62617365526174653a302c736c6f7065313a372c736c6f7065323a3230302c7370726561643a307d2c3135313a7b69643a3078393835646433643432646531653235366430396531633130663131326263636238303135616434312c73796d626f6c3a4f4345414e2c7574696c69736174696f6e526174653a36332e3938323639393630313533363731362c636f6c6c61746572616c3a37302e36393630343534383432383830382c62617365526174653a302c736c6f7065313a372c736c6f7065323a3230302c7370726561643a307d2c3135323a7b69643a3078363931616365356535363530376330303864383336633863353865643933353436626463383166662c73796d626f6c3a52434f52452c7574696c69736174696f6e526174653a34302e30373237353137353636353536362c636f6c6c61746572616c3a34372e39343033303036323837333335332c62617365526174653a302c736c6f7065313a372c736c6f7065323a3230302c7370726561643a307d2c3135333a7b69643a3078663463643364336664613864376664366335613530303230336533383634306137306266393537372c73796d626f6c3a59662d4441492c7574696c69736174696f6e526174653a34302e31323638303539343632343138312c636f6c6c61746572616c3a33332e30343130333938373138393735382c62617365526174653a302c736c6f7065313a372c736c6f7065323a3230302c7370726561643a307d2c3135343a7b69643a3078613137646530616230613937626335653536666138623339656266633831636333663166333439652c73796d626f6c3a44464b2c7574696c69736174696f6e526174653a36312e3235303535333234363235393631342c636f6c6c61746572616c3a35392e38393238393336333637343632362c62617365526174653a302c736c6f7065313a372c736c6f7065323a3230302c7370726561643a307d",
  "source": "// SPDX-License-Identifier: MIT\npragma solidity >=0.4.22 <0.8.0;\n\ncontract InterestVariables {\n  string json = \"{0:{id:0xc02aaa39b223fe8d0a0e5c4f27ead9083c756cc2,symbol:WETH,utilisationRate:65,collateral:63.72104548428808,baseRate:1,slope1:7,slope2:200,spread:2},1:{id:0xdac17f958d2ee523a2206206994597c13d831ec7,symbol:USDT,utilisationRate:80,collateral:64.44696341989697,baseRate:1,slope1:7,slope2:200,spread:2},2:{id:0xa0b86991c6218b36c1d19d4a2e9eb0ce3606eb48,symbol:USDC,utilisationRate:80,collateral:64.42092565920862,baseRate:1,slope1:7,slope2:200,spread:2},3:{id:0x6b175474e89094c44da98b954eedeac495271d0f,symbol:DAI,utilisationRate:80,collateral:64.42399389543887,baseRate:1,slope1:7,slope2:200,spread:2},4:{id:0x0bc529c00c6401aef6d220be8c6ea1667f6ad93e,symbol:YFI,utilisationRate:49.70324769237589,collateral:47.8457900427547,baseRate:0,slope1:7,slope2:200,spread:0},5:{id:0xd46ba6d942050d489dbd938a2c909a5d5039a161,symbol:AMPL,utilisationRate:49.2276053497874,collateral:55.26764864233442,baseRate:0,slope1:7,slope2:200,spread:0},6:{id:0x1f9840a85d5af5bf1d1762f925bdaddc4201f984,symbol:UNI,utilisationRate:49.22196358956204,collateral:51.47870536763168,baseRate:0,slope1:7,slope2:200,spread:0},7:{id:0x6b3595068778dd592e39a122f4f5a5cf09c90fe2,symbol:SUSHI,utilisationRate:47.89396102153622,collateral:48.9593872986666,baseRate:0,slope1:7,slope2:200,spread:0},8:{id:0x2260fac5e5542a773aa44fbcfedf7c193bc2c599,symbol:WBTC,utilisationRate:63.38929962234012,collateral:69.26977904899901,baseRate:0,slope1:7,slope2:200,spread:0},9:{id:0x62359ed7505efc61ff1d56fef82158ccaffa23d7,symbol:CORE,utilisationRate:70.81957864718834,collateral:56.81797208523881,baseRate:0,slope1:7,slope2:200,spread:0},10:{id:0x514910771af9ca656af840dff83e8264ecf986ca,symbol:LINK,utilisationRate:43.91130974739549,collateral:67.07909159009169,baseRate:0,slope1:7,slope2:200,spread:0},11:{id:0x57ab1ec28d129707052df4df418d58a2d46d5f51,symbol:sUSD,utilisationRate:80,collateral:63.33664907131156,baseRate:1,slope1:7,slope2:200,spread:2},12:{id:0x429881672b9ae42b8eba0e26cd9c73711b891ca5,symbol:PICKLE,utilisationRate:42.40287777695723,collateral:43.14429208024991,baseRate:0,slope1:7,slope2:200,spread:0},13:{id:0x80fb784b7ed66730e8b1dbd9820afd29931aab03,symbol:LEND,utilisationRate:42.24234539797839,collateral:65.45991987353966,baseRate:0,slope1:7,slope2:200,spread:0},14:{id:0xc011a73ee8576fb46f5e1c5751ca3b9fe0af2a6f,symbol:SNX,utilisationRate:41.87012044656498,collateral:53.74666936263506,baseRate:0,slope1:7,slope2:200,spread:0},15:{id:0xc00e94cb662c3520282e6f5717214004a7f26888,symbol:COMP,utilisationRate:41.77786423355283,collateral:60.48343869390113,baseRate:0,slope1:7,slope2:200,spread:0},16:{id:0x1ceb5cb57c4d4e2b2433641b95dd330a33185a44,symbol:KP3R,utilisationRate:42.840892882429465,collateral:41.407190602475815,baseRate:0,slope1:7,slope2:200,spread:0},17:{id:0xa0246c9032bc3a600820415ae600c6388619a14d,symbol:FARM,utilisationRate:41.78058205975154,collateral:48.54393971233753,baseRate:0,slope1:7,slope2:200,spread:0},18:{id:0x45f24baeef268bb6d63aee5129015d69702bcdfa,symbol:YFV,utilisationRate:41.62047196555174,collateral:53.44632424018586,baseRate:0,slope1:7,slope2:200,spread:0},19:{id:0x2ba592f78db6436527729929aaf6c908497cb200,symbol:CREAM,utilisationRate:41.54311854997346,collateral:48.152177008767126,baseRate:0,slope1:7,slope2:200,spread:0},20:{id:0xdf5e0e81dff6faf3a7e52ba697820c5e32d806a8,symbol:yDAI+yUSDC+yUSDT+yTUSD,utilisationRate:60.39438167274419,collateral:59.87818351390217,baseRate:0,slope1:7,slope2:200,spread:0},21:{id:0x56d811088235f11c8920698a204a5010a788f4b3,symbol:BZRX,utilisationRate:58.098405692665196,collateral:62.801976910006914,baseRate:0,slope1:7,slope2:200,spread:0},22:{id:0xcc4304a31d09258b0029ea7fe63d032f52e44efe,symbol:SWAP,utilisationRate:41.30781740383577,collateral:60.27255895588114,baseRate:0,slope1:7,slope2:200,spread:0},23:{id:0x04fa0d235c4abf4bcf4787af4cf447de572ef828,symbol:UMA,utilisationRate:41.26310534262017,collateral:66.89896147154604,baseRate:0,slope1:7,slope2:200,spread:0},24:{id:0x1e18821e69b9faa8e6e75dffe54e7e25754beda0,symbol:KIMCHI,utilisationRate:41.22829344149752,collateral:46.9053146039887,baseRate:0,slope1:7,slope2:200,spread:0},25:{id:0xd533a949740bb3306d119cc777fa900ba034cd52,symbol:CRV,utilisationRate:41.22722984929729,collateral:53.50528562617114,baseRate:0,slope1:7,slope2:200,spread:0},26:{id:0xaba8cac6866b83ae4eec97dd07ed254282f6ad8a,symbol:YAMv2,utilisationRate:41.15155337529023,collateral:50.66379844324146,baseRate:0,slope1:7,slope2:200,spread:0},27:{id:0x68a118ef45063051eac49c7e647ce5ace48a68a5,symbol:$BASED,utilisationRate:41.140954011350985,collateral:34.79376682142612,baseRate:0,slope1:7,slope2:200,spread:0},28:{id:0x84ca8bc7997272c7cfb4d0cd3d55cd942b3c9419,symbol:DIA,utilisationRate:41.11865061324864,collateral:54.33475934489342,baseRate:0,slope1:7,slope2:200,spread:0},29:{id:0x0ae055097c6d159879521c384f1d2123d1f195e6,symbol:STAKE,utilisationRate:41.11198607960458,collateral:66.79722530980496,baseRate:0,slope1:7,slope2:200,spread:0},30:{id:0x408e41876cccdc0f92210600ef50372656052a38,symbol:REN,utilisationRate:41.0982497487503,collateral:64.6392004239782,baseRate:0,slope1:7,slope2:200,spread:0},31:{id:0x6f87d756daf0503d08eb8993686c7fc01dc44fb1,symbol:TRADE,utilisationRate:41.07134403969206,collateral:50.235175494576616,baseRate:0,slope1:7,slope2:200,spread:0},32:{id:0x0d438f3b5175bebc262bf23753c1e53d03432bde,symbol:wNXM,utilisationRate:41.04305480634103,collateral:55.74617743350919,baseRate:0,slope1:7,slope2:200,spread:0},33:{id:0xa1d0e215a23d7030842fc67ce582a6afa3ccab83,symbol:YFII,utilisationRate:41.02449288676196,collateral:37.03498864801134,baseRate:0,slope1:7,slope2:200,spread:0},34:{id:0xed91879919b71bb6905f23af0a68d231ecf87b14,symbol:DMG,utilisationRate:40.99867874958609,collateral:65.30629673429779,baseRate:0,slope1:7,slope2:200,spread:0},35:{id:0xa3bed4e1c75d00fa6f4e5e6922db7261b5e9acd2,symbol:MTA,utilisationRate:57.09591885890837,collateral:62.09185619324151,baseRate:0,slope1:7,slope2:200,spread:0},36:{id:0x5befbb272290dd5b8521d4a938f6c4757742c430,symbol:XFI,utilisationRate:40.93050833913401,collateral:41.432599118618015,baseRate:0,slope1:7,slope2:200,spread:0},37:{id:0x28cb7e841ee97947a86b06fa4090c8451f64c0be,symbol:YFL,utilisationRate:55.86107733328642,collateral:59.507102745095025,baseRate:0,slope1:7,slope2:200,spread:0},38:{id:0x2baecdf43734f22fd5c152db08e3c27233f0c7d2,symbol:OM,utilisationRate:40.90363422476848,collateral:40.90169093499202,baseRate:0,slope1:7,slope2:200,spread:0},39:{id:0xba11d00c5f74255f56a5e366f4f77f5a186d7f55,symbol:BAND,utilisationRate:40.89458013168003,collateral:67.96762110628859,baseRate:0,slope1:7,slope2:200,spread:0},40:{id:0x0e2298e3b3390e3b945a5456fbf59ecc3f55da16,symbol:YAM,utilisationRate:40.88481583132171,collateral:33.931370687904945,baseRate:0,slope1:7,slope2:200,spread:0},41:{id:0xb8baa0e4287890a5f79863ab62b7f175cecbd433,symbol:SWRV,utilisationRate:40.741663193781136,collateral:35.32521273142544,baseRate:0,slope1:7,slope2:200,spread:0},42:{id:0xae66bea480f7a6c91f07c58f2aee185883558fb8,symbol:EDC,utilisationRate:40.70313059910704,collateral:47.31539263637753,baseRate:0,slope1:7,slope2:200,spread:0},43:{id:0x25e1474170c4c0aa64fa98123bdc8db49d7802fa,symbol:BID,utilisationRate:40.66713050219631,collateral:43.13255865829813,baseRate:0,slope1:7,slope2:200,spread:0},44:{id:0xc28e27870558cf22add83540d2126da2e4b464c2,symbol:SASHIMI,utilisationRate:58.696839931409706,collateral:56.33479700403687,baseRate:0,slope1:7,slope2:200,spread:0},45:{id:0xd5525d397898e5502075ea5e830d8914f6f0affe,symbol:MEME,utilisationRate:40.62102419069838,collateral:47.731417233139595,baseRate:0,slope1:7,slope2:200,spread:0},46:{id:0xf911a7ec46a2c6fa49193212fe4a2a9b95851c27,symbol:XAMP,utilisationRate:64.62498613074968,collateral:62.34790700127303,baseRate:0,slope1:7,slope2:200,spread:0},47:{id:0x9f8f72aa9304c8b593d555f12ef6589cc3a579a2,symbol:MKR,utilisationRate:63.5357067635953,collateral:70.60359570374257,baseRate:0,slope1:7,slope2:200,spread:0},48:{id:0x8762db106b2c2a0bccb3a80d1ed41273552616e8,symbol:RSR,utilisationRate:40.619656943203715,collateral:65.13662038084544,baseRate:0,slope1:7,slope2:200,spread:0},49:{id:0x38e4adb44ef08f22f5b5b76a8f0c2d0dcbe7dca1,symbol:CVP,utilisationRate:40.584768653568624,collateral:35.574243794765195,baseRate:0,slope1:7,slope2:200,spread:0},50:{id:0x476c5e26a75bd202a9683ffd34359c0cc15be0ff,symbol:SRM,utilisationRate:40.57701177654217,collateral:50.714961175078045,baseRate:0,slope1:7,slope2:200,spread:0},51:{id:0xe17f017475a709de58e976081eb916081ff4c9d5,symbol:RMPL,utilisationRate:40.573216966774446,collateral:41.919595896048314,baseRate:0,slope1:7,slope2:200,spread:0},52:{id:0x3383c5a8969dc413bfddc9656eb80a1408e4ba20,symbol:wANATHA,utilisationRate:64.35368709641857,collateral:54.983552544798734,baseRate:0,slope1:7,slope2:200,spread:0},53:{id:0x68a3637ba6e75c0f66b61a42639c4e9fcd3d4824,symbol:MOON,utilisationRate:40.53050241089642,collateral:50.90735544424717,baseRate:0,slope1:7,slope2:200,spread:0},54:{id:0x05d3606d5c81eb9b7b18530995ec9b29da05faba,symbol:TOMOE,utilisationRate:40.52689658545723,collateral:48.00409144833926,baseRate:0,slope1:7,slope2:200,spread:0},55:{id:0x83e6f1e41cdd28eaceb20cb649155049fac3d5aa,symbol:POLS,utilisationRate:40.51229415192944,collateral:46.051031020334214,baseRate:0,slope1:7,slope2:200,spread:0},56:{id:0x066798d9ef0833ccc719076dab77199ecbd178b0,symbol:SAKE,utilisationRate:40.493932898403834,collateral:48.43227515849977,baseRate:0,slope1:7,slope2:200,spread:0},57:{id:0x89ee58af4871b474c30001982c3d7439c933c838,symbol:YFBETA,utilisationRate:40.49382641868095,collateral:26.771857999533367,baseRate:0,slope1:7,slope2:200,spread:0},58:{id:0x40fd72257597aa14c7231a7b1aaa29fce868f677,symbol:XOR,utilisationRate:40.50541424735533,collateral:57.89449259499529,baseRate:0,slope1:7,slope2:200,spread:0},59:{id:0xe0e4839e0c7b2773c58764f9ec3b9622d01a0428,symbol:ENCORE,utilisationRate:40.48826012741077,collateral:51.14624469701626,baseRate:0,slope1:7,slope2:200,spread:0},60:{id:0xfffffffff15abf397da76f1dcc1a1604f45126db,symbol:FSW,utilisationRate:40.48449317857804,collateral:53.220943604442255,baseRate:0,slope1:7,slope2:200,spread:0},61:{id:0x960b236a07cf122663c4303350609a66a7b288c0,symbol:ANT,utilisationRate:54.143274886207685,collateral:68.66337022527529,baseRate:0,slope1:7,slope2:200,spread:0},62:{id:0x2b591e99afe9f32eaa6214f7b7629768c40eeb39,symbol:HEX,utilisationRate:40.72340473234299,collateral:55.35180497443733,baseRate:0,slope1:7,slope2:200,spread:0},63:{id:0xaaaebe6fe48e54f431b0c390cfaf0b017d09d42d,symbol:CEL,utilisationRate:40.496395207553356,collateral:66.82873426950806,baseRate:0,slope1:7,slope2:200,spread:0},64:{id:0xbbbbca6a901c926f240b89eacb641d8aec7aeafd,symbol:LRC,utilisationRate:40.449491944500394,collateral:64.070736808916,baseRate:0,slope1:7,slope2:200,spread:0},65:{id:0xbf2179859fc6d5bee9bf9158632dc51678a4100e,symbol:ELF,utilisationRate:40.43390544194278,collateral:50.411045138878706,baseRate:0,slope1:7,slope2:200,spread:0},66:{id:0x1453dbb8a29551ade11d89825ca812e05317eaeb,symbol:TEND,utilisationRate:40.4063045773768,collateral:59.43415203712881,baseRate:0,slope1:7,slope2:200,spread:0},67:{id:0x0ff6ffcfda92c53f615a4a75d982f399c989366b,symbol:LAYER,utilisationRate:40.421474389000196,collateral:33.73603141094888,baseRate:0,slope1:7,slope2:200,spread:0},68:{id:0x1494ca1f11d487c2bbe4543e90080aeba4ba3c2b,symbol:DPI,utilisationRate:40.43826889187498,collateral:52.425202110850606,baseRate:0,slope1:7,slope2:200,spread:0},69:{id:0x7de91b204c1c737bcee6f000aaa6569cf7061cb7,symbol:XRT,utilisationRate:40.385437361194505,collateral:51.32622132172699,baseRate:0,slope1:7,slope2:200,spread:0},70:{id:0x8ab7404063ec4dbcfd4598215992dc3f8ec853d7,symbol:AKRO,utilisationRate:40.391143545132884,collateral:56.85140084567478,baseRate:0,slope1:7,slope2:200,spread:0},71:{id:0xb78b3320493a4efaa1028130c5ba26f0b6085ef8,symbol:DRC,utilisationRate:40.37400850858615,collateral:28.91842003978671,baseRate:0,slope1:7,slope2:200,spread:0},72:{id:0x5dbcf33d8c2e976c6b560249878e6f1491bca25c,symbol:yyDAI+yUSDC+yUSDT+yTUSD,utilisationRate:63.9455891054913,collateral:60.04812598491939,baseRate:0,slope1:7,slope2:200,spread:0},73:{id:0x309013d55fb0e8c17363bcc79f25d92f711a5802,symbol:SBTC,utilisationRate:63.538979858959436,collateral:61.59473861458667,baseRate:0,slope1:7,slope2:200,spread:0},74:{id:0x36f3fd68e7325a35eb768f1aedaae9ea0689d723,symbol:ESD,utilisationRate:40.37412928789475,collateral:49.41621954366164,baseRate:0,slope1:7,slope2:200,spread:0},75:{id:0xdd974d5c2e2928dea5f71b9825b8b646686bd200,symbol:KNC,utilisationRate:40.33712471623846,collateral:67.38054022187215,baseRate:0,slope1:7,slope2:200,spread:0},76:{id:0x2a7f709ee001069771ceb6d42e85035f7d18e736,symbol:OWL,utilisationRate:52.54312089945119,collateral:52.08264254324099,baseRate:0,slope1:7,slope2:200,spread:0},77:{id:0xaf9f549774ecedbd0966c52f250acc548d3f36e5,symbol:RFuel,utilisationRate:40.32110941379731,collateral:45.28484463950019,baseRate:0,slope1:7,slope2:200,spread:0},78:{id:0xed0439eacf4c4965ae4613d77a5c2efe10e5f183,symbol:SHROOM,utilisationRate:40.33138208587707,collateral:44.025176312271014,baseRate:0,slope1:7,slope2:200,spread:0},79:{id:0x8400d94a5cb0fa0d041a3788e395285d61c9ee5e,symbol:UBT,utilisationRate:40.30617554826661,collateral:66.5640960423894,baseRate:0,slope1:7,slope2:200,spread:0},80:{id:0xb1f66997a5760428d3a87d68b90bfe0ae64121cc,symbol:LUA,utilisationRate:40.284883092662426,collateral:27.58855968656426,baseRate:0,slope1:7,slope2:200,spread:0},81:{id:0x0d8775f648430679a709e98d2b0cb6250d2887ef,symbol:BAT,utilisationRate:55.051280838398554,collateral:69.47361493362018,baseRate:0,slope1:7,slope2:200,spread:0},82:{id:0x30f271c9e86d2b7d00a6376cd96a1cfbd5f0b9b3,symbol:DEC,utilisationRate:60.58443153886815,collateral:63.54513578269342,baseRate:0,slope1:7,slope2:200,spread:0},83:{id:0x9ceb84f92a0561fa3cc4132ab9c0b76a59787544,symbol:DOKI,utilisationRate:40.27948367120741,collateral:43.3147040329627,baseRate:0,slope1:7,slope2:200,spread:0},84:{id:0x0417912b3a7af768051765040a55bb0925d4ddcf,symbol:LID,utilisationRate:59.93125833704121,collateral:61.782084050774756,baseRate:0,slope1:7,slope2:200,spread:0},85:{id:0x6a7ef4998eb9d0f706238756949f311a59e05745,symbol:KEN,utilisationRate:40.26206875903922,collateral:57.70711998296883,baseRate:0,slope1:7,slope2:200,spread:0},86:{id:0x3f382dbd960e3a9bbceae22651e88158d2791550,symbol:GHST,utilisationRate:61.55595451350137,collateral:56.429620667136746,baseRate:0,slope1:7,slope2:200,spread:0},87:{id:0x10bae51262490b4f4af41e12ed52a0e744c1137a,symbol:SLINK,utilisationRate:40.24182489222225,collateral:42.75708064647531,baseRate:0,slope1:7,slope2:200,spread:0},88:{id:0x9469d013805bffb7d3debe5e7839237e535ec483,symbol:RING,utilisationRate:40.24218728058687,collateral:65.1591047315049,baseRate:0,slope1:7,slope2:200,spread:0},89:{id:0x177ba0cac51bfc7ea24bad39d81dcefd59d74faa,symbol:KIF,utilisationRate:40.23699321193026,collateral:37.4955090983884,baseRate:0,slope1:7,slope2:200,spread:0},90:{id:0xc4c2614e694cf534d407ee49f8e44d125e4681c4,symbol:CHAIN,utilisationRate:40.231004270342964,collateral:54.30808523013829,baseRate:0,slope1:7,slope2:200,spread:0},91:{id:0x990f341946a3fdb507ae7e52d17851b87168017c,symbol:STRONG,utilisationRate:40.220939960575244,collateral:51.13065334138983,baseRate:0,slope1:7,slope2:200,spread:0},92:{id:0x26ce25148832c04f3d7f26f32478a9fe55197166,symbol:DEXT,utilisationRate:40.23008156735575,collateral:61.18960867786414,baseRate:0,slope1:7,slope2:200,spread:0},93:{id:0xfe2786d7d1ccab8b015f6ef7392f67d778f8d8d7,symbol:PRQ,utilisationRate:40.20620864895534,collateral:37.79501676690242,baseRate:0,slope1:7,slope2:200,spread:0},94:{id:0x31497f218c005fe3d5ee87e5a33e133a909a7a4b,symbol:DTA,utilisationRate:40.20743470483856,collateral:39.299776096457286,baseRate:0,slope1:7,slope2:200,spread:0},95:{id:0x0ba45a8b5d5575935b8158a88c631e9f9c95a2e5,symbol:TRB,utilisationRate:40.20828996183987,collateral:63.07690374328024,baseRate:0,slope1:7,slope2:200,spread:0},96:{id:0xeeeeeeeee2af8d0e1940679860398308e0ef24d6,symbol:ETHV,utilisationRate:40.20203051594446,collateral:35.00907338335236,baseRate:0,slope1:7,slope2:200,spread:0},97:{id:0x5beabaebb3146685dd74176f68a0721f91297d37,symbol:BOT,utilisationRate:59.32628958988136,collateral:60.62254586751428,baseRate:0,slope1:7,slope2:200,spread:0},98:{id:0xeef9f339514298c6a857efcfc1a762af84438dee,symbol:HEZ,utilisationRate:56.416670352846886,collateral:51.757899701605666,baseRate:0,slope1:7,slope2:200,spread:0},99:{id:0xa7de087329bfcda5639247f96140f9dabe3deed1,symbol:STA,utilisationRate:40.196911769258115,collateral:54.8989850029768,baseRate:0,slope1:7,slope2:200,spread:0},100:{id:0xd04785c4d8195e4a54d9dec3a9043872875ae9e2,symbol:ROT,utilisationRate:40.200751721629665,collateral:33.25535161161599,baseRate:0,slope1:7,slope2:200,spread:0},101:{id:0x9b06d48e0529ecf05905ff52dd426ebec0ea3011,symbol:XSP,utilisationRate:40.19283507244561,collateral:27.99093251110482,baseRate:0,slope1:7,slope2:200,spread:0},102:{id:0x7fc66500c84a76ad7e9c93437bfc5ac33e2ddae9,symbol:AAVE,utilisationRate:40.228912916336654,collateral:46.6651220099683,baseRate:0,slope1:7,slope2:200,spread:0},103:{id:0x0e29e5abbb5fd88e28b2d355774e73bd47de3bcd,symbol:HAKKA,utilisationRate:56.85083718783082,collateral:58.714217257052795,baseRate:0,slope1:7,slope2:200,spread:0},104:{id:0x3e780920601d61cedb860fe9c4a90c9ea6a35e78,symbol:BOOST,utilisationRate:40.17139361438541,collateral:31.526402086122825,baseRate:0,slope1:7,slope2:200,spread:0},105:{id:0x88ef27e69108b2633f8e1c184cc37940a075cc02,symbol:DEGO,utilisationRate:40.17442933063181,collateral:52.40065333222449,baseRate:0,slope1:7,slope2:200,spread:0},106:{id:0x668dbf100635f593a3847c0bdaf21f0a09380188,symbol:BNSD,utilisationRate:40.1690454266223,collateral:46.708324631694055,baseRate:0,slope1:7,slope2:200,spread:0},107:{id:0x431ad2ff6a9c365805ebad47ee021148d6f7dbe0,symbol:DF,utilisationRate:40.17223723360571,collateral:36.623348685417724,baseRate:0,slope1:7,slope2:200,spread:0},108:{id:0x4b4701f3f827e1331fb22ff8e2beac24b17eb055,symbol:DISTX,utilisationRate:40.17177760065463,collateral:51.27600543530606,baseRate:0,slope1:7,slope2:200,spread:0},109:{id:0xc6e64729931f60d2c8bc70a27d66d9e0c28d1bf9,symbol:FLOW,utilisationRate:40.16295011770373,collateral:51.519363875531155,baseRate:0,slope1:7,slope2:200,spread:0},110:{id:0x85eee30c52b0b379b046fb0f85f4f3dc3009afec,symbol:KEEP,utilisationRate:40.16748565148051,collateral:60.39987162402605,baseRate:0,slope1:7,slope2:200,spread:0},111:{id:0x54c9ea2e9c9e8ed865db4a4ce6711c2a0d5063ba,symbol:BART,utilisationRate:54.38020050603523,collateral:58.66302416834193,baseRate:0,slope1:7,slope2:200,spread:0},112:{id:0x4d953cf077c0c95ba090226e59a18fcf97db44ec,symbol:MINI,utilisationRate:40.15292266022827,collateral:45.12916830495797,baseRate:0,slope1:7,slope2:200,spread:0},113:{id:0xeb4c2781e4eba804ce9a9803c67d0893436bb27d,symbol:renBTC,utilisationRate:56.92304522424273,collateral:68.03104368632444,baseRate:0,slope1:7,slope2:200,spread:0},114:{id:0x9f284e1337a815fe77d2ff4ae46544645b20c5ff,symbol:KTON,utilisationRate:40.14774503313725,collateral:55.2647043228905,baseRate:0,slope1:7,slope2:200,spread:0},115:{id:0xc75f15ada581219c95485c578e124df3985e4ce0,symbol:ZZZ,utilisationRate:40.14670771287258,collateral:47.595896027766926,baseRate:0,slope1:7,slope2:200,spread:0},116:{id:0x0a913bead80f321e7ac35285ee10d9d922659cb7,symbol:DOS,utilisationRate:40.14668491450183,collateral:59.64503879155039,baseRate:0,slope1:7,slope2:200,spread:0},117:{id:0x0f7f961648ae6db43c75663ac7e5414eb79b5704,symbol:XIO,utilisationRate:40.142110334257445,collateral:55.800407829338965,baseRate:0,slope1:7,slope2:200,spread:0},118:{id:0x8ce9137d39326ad0cd6491fb5cc0cba0e089b6a9,symbol:SXP,utilisationRate:40.14204854733721,collateral:61.49016895448496,baseRate:0,slope1:7,slope2:200,spread:0},119:{id:0x2e2f3246b6c65ccc4239c9ee556ec143a7e5de2c,symbol:YFIM,utilisationRate:40.243607484893815,collateral:20.82685678028424,baseRate:0,slope1:7,slope2:200,spread:0},120:{id:0x9cb2f26a23b8d89973f08c957c4d7cdf75cd341c,symbol:DZAR,utilisationRate:63.726721114868454,collateral:70.74609032106213,baseRate:0,slope1:7,slope2:200,spread:0},121:{id:0x18aaa7115705e8be94bffebde57af9bfc265b998,symbol:AUDIO,utilisationRate:40.13658060605771,collateral:23.35175913701339,baseRate:0,slope1:7,slope2:200,spread:0},122:{id:0xb944b46bbd4ccca90c962ef225e2804e46691ccf,symbol:DCORE,utilisationRate:40.12844688001032,collateral:50.91028000595932,baseRate:0,slope1:7,slope2:200,spread:0},123:{id:0x4b4f5286e0f93e965292b922b9cd1677512f1222,symbol:YUNO,utilisationRate:40.128423059152574,collateral:54.641365607583744,baseRate:0,slope1:7,slope2:200,spread:0},124:{id:0xb1dc9124c395c1e97773ab855d66e879f053a289,symbol:YAX,utilisationRate:40.15188333067209,collateral:32.473479348623485,baseRate:0,slope1:7,slope2:200,spread:0},125:{id:0x675e7d927af7e6d0082e0153dc3485b687a6f0ad,symbol:CREED,utilisationRate:40.12624404815096,collateral:29.52353467393515,baseRate:0,slope1:7,slope2:200,spread:0},126:{id:0x69692d3345010a207b759a7d1af6fc7f38b35c5e,symbol:CHADS,utilisationRate:40.12873188165496,collateral:27.417614706006486,baseRate:0,slope1:7,slope2:200,spread:0},127:{id:0xfef3bef71a5eb97e097039038776fd967ae5b106,symbol:YFMS,utilisationRate:59.94551499634202,collateral:56.00454666840049,baseRate:0,slope1:7,slope2:200,spread:0},128:{id:0x6e36556b3ee5aa28def2a8ec3dae30ec2b208739,symbol:BUILD,utilisationRate:40.1141159344076,collateral:28.33381616464996,baseRate:0,slope1:7,slope2:200,spread:0},129:{id:0x967da4048cd07ab37855c090aaf366e4ce1b9f48,symbol:OCEAN,utilisationRate:40.17161240409142,collateral:48.94519394662335,baseRate:0,slope1:7,slope2:200,spread:0},130:{id:0x5913d0f34615923552ee913dbe809f9f348e706e,symbol:BMJ,utilisationRate:40.13199975752225,collateral:30.77473254035231,baseRate:0,slope1:7,slope2:200,spread:0},131:{id:0x420ab548b18911717ed7c4ccbf46371ea758458c,symbol:NOODLE,utilisationRate:40.107937932326216,collateral:33.379256073065164,baseRate:0,slope1:7,slope2:200,spread:0},132:{id:0x6378930da9be7c90d824d7f113974741644d62da,symbol:CTC,utilisationRate:40.121831135106184,collateral:49.663020730253606,baseRate:0,slope1:7,slope2:200,spread:0},133:{id:0x2129ff6000b95a973236020bcd2b2006b0d8e019,symbol:MYX,utilisationRate:40.10567588926189,collateral:58.12896039831193,baseRate:0,slope1:7,slope2:200,spread:0},134:{id:0x4b7dfae2567181e54776337c840e142acb42aa1f,symbol:gKIMCHI,utilisationRate:40.10032056230786,collateral:45.70865116039079,baseRate:0,slope1:7,slope2:200,spread:0},135:{id:0xea319e87cf06203dae107dd8e5672175e3ee976c,symbol:SURF,utilisationRate:40.25000226793211,collateral:40.49958577154398,baseRate:0,slope1:7,slope2:200,spread:0},136:{id:0x33c2da7fd5b125e629b3950f3c38d7f721d7b30d,symbol:Seal,utilisationRate:40.090029764052694,collateral:30.241297395694748,baseRate:0,slope1:7,slope2:200,spread:0},137:{id:0x5580ab97f226c324c671746a1787524aef42e415,symbol:JUL,utilisationRate:40.08872087310353,collateral:47.045157014949396,baseRate:0,slope1:7,slope2:200,spread:0},138:{id:0x90d702f071d2af33032943137ad0ab4280705817,symbol:YFFS,utilisationRate:40.08829415843961,collateral:47.45883461566338,baseRate:0,slope1:7,slope2:200,spread:0},139:{id:0x9d47894f8becb68b9cf3428d256311affe8b068b,symbol:$ROPE,utilisationRate:52.0987377271416,collateral:53.54941941079852,baseRate:0,slope1:7,slope2:200,spread:0},140:{id:0xba21ef4c9f433ede00badefcc2754b8e74bd538a,symbol:SWFL,utilisationRate:40.08637934033814,collateral:55.2996570896415,baseRate:0,slope1:7,slope2:200,spread:0},141:{id:0x51b4b27a7bd296fd34ca7c469f49d5bcd7fe5137,symbol:CIBS,utilisationRate:40.09681255999875,collateral:43.9670709278749,baseRate:0,slope1:7,slope2:200,spread:0},142:{id:0x1f573d6fb3f13d689ff844b4ce37794d79a7ff1c,symbol:BNT,utilisationRate:40.08393662694269,collateral:67.76534519933853,baseRate:0,slope1:7,slope2:200,spread:0},143:{id:0xb4efd85c19999d84251304bda99e90b92300bd93,symbol:RPL,utilisationRate:61.0319122149443,collateral:70.18808562429882,baseRate:0,slope1:7,slope2:200,spread:0},144:{id:0xfca59cd816ab1ead66534d82bc21e7515ce441cf,symbol:RARI,utilisationRate:40.08024257880698,collateral:50.772596896083506,baseRate:0,slope1:7,slope2:200,spread:0},145:{id:0xa09ff006c652496e72d648cef2f4ee6777efdf6f,symbol:CRAFT,utilisationRate:63.98808628992183,collateral:54.65339653926875,baseRate:0,slope1:7,slope2:200,spread:0},146:{id:0x1b980e05943de3db3a459c72325338d327b6f5a9,symbol:GEAR,utilisationRate:40.07890508707017,collateral:26.61265734625092,baseRate:0,slope1:7,slope2:200,spread:0},147:{id:0xba100000625a3754423978a60c9317c58a424e3d,symbol:BAL,utilisationRate:40.08061541568964,collateral:56.55964529558233,baseRate:0,slope1:7,slope2:200,spread:0},148:{id:0xb244ac0f3ee2e9cae5dfdde5dab8d49fa467e1a9,symbol:XCORE,utilisationRate:40.0773077858941,collateral:45.47306333599209,baseRate:0,slope1:7,slope2:200,spread:0},149:{id:0x4639cd8cd52ec1cf2e496a606ce28d8afb1c792f,symbol:BREE,utilisationRate:40.07535681211598,collateral:31.38874084503015,baseRate:0,slope1:7,slope2:200,spread:0},150:{id:0x94d863173ee77439e4292284ff13fad54b3ba182,symbol:ADEL,utilisationRate:40.074052199001386,collateral:50.34639350822762,baseRate:0,slope1:7,slope2:200,spread:0},151:{id:0x985dd3d42de1e256d09e1c10f112bccb8015ad41,symbol:OCEAN,utilisationRate:63.982699601536716,collateral:70.69604548428808,baseRate:0,slope1:7,slope2:200,spread:0},152:{id:0x691ace5e56507c008d836c8c58ed93546bdc81ff,symbol:RCORE,utilisationRate:40.07275175665566,collateral:47.94030062873353,baseRate:0,slope1:7,slope2:200,spread:0},153:{id:0xf4cd3d3fda8d7fd6c5a500203e38640a70bf9577,symbol:Yf-DAI,utilisationRate:40.12680594624181,collateral:33.04103987189758,baseRate:0,slope1:7,slope2:200,spread:0},154:{id:0xa17de0ab0a97bc5e56fa8b39ebfc81cc3f1f349e,symbol:DFK,utilisationRate:61.250553246259614,collateral:59.89289363674626,baseRate:0,slope1:7,slope2:200,spread:0}\";\n\n  constructor() public {\n\n  }\n\n  function stringLen() public returns (uint256){\n    return bytes(json).length;\n  }\n\n}\n",
  "sourcePath": "/Users/ioanaroceanu/Documents/Project/contracts/InterestVariables.sol",
  "compiler": {
    "name": "solc",
    "version": "0.5.16+commit.9c3226ce.Emscripten.clang"
  },
  "schemaVersion": "3.3.2",
  "updatedAt": "2020-11-09T14:13:17.938Z",
  "devdoc": {
    "methods": {}
  },
  "userdoc": {
    "methods": {}
  }
}