{
  "contractName": "InterestVariables",
  "abi": [
    {
      "inputs": [],
      "stateMutability": "nonpayable",
      "type": "constructor"
    },
    {
      "inputs": [],
      "name": "liquidityPoolAddress",
      "outputs": [
        {
          "internalType": "address",
          "name": "",
          "type": "address"
        }
      ],
      "stateMutability": "view",
      "type": "function",
      "constant": true
    },
    {
      "inputs": [
        {
          "internalType": "address",
          "name": "",
          "type": "address"
        }
      ],
      "name": "tokenIRcummulation",
      "outputs": [
        {
          "internalType": "uint256",
          "name": "cummulated_depositIR",
          "type": "uint256"
        },
        {
          "internalType": "uint256",
          "name": "cummulated_borrowIR",
          "type": "uint256"
        },
        {
          "internalType": "uint256",
          "name": "last_time",
          "type": "uint256"
        }
      ],
      "stateMutability": "view",
      "type": "function",
      "constant": true
    },
    {
      "inputs": [
        {
          "internalType": "address",
          "name": "",
          "type": "address"
        }
      ],
      "name": "tokens",
      "outputs": [
        {
          "internalType": "string",
          "name": "symbol",
          "type": "string"
        },
        {
          "internalType": "address",
          "name": "token_address",
          "type": "address"
        },
        {
          "internalType": "uint256",
          "name": "optimal_utilisation",
          "type": "uint256"
        },
        {
          "internalType": "uint256",
          "name": "collateral_factor",
          "type": "uint256"
        },
        {
          "internalType": "uint256",
          "name": "base_rate",
          "type": "uint256"
        },
        {
          "internalType": "uint256",
          "name": "slope1",
          "type": "uint256"
        },
        {
          "internalType": "uint256",
          "name": "slope2",
          "type": "uint256"
        },
        {
          "internalType": "uint256",
          "name": "spread",
          "type": "uint256"
        }
      ],
      "stateMutability": "view",
      "type": "function",
      "constant": true
    },
    {
      "inputs": [
        {
          "internalType": "address",
          "name": "add",
          "type": "address"
        }
      ],
      "name": "setLiquidityPoolAddress",
      "outputs": [],
      "stateMutability": "nonpayable",
      "type": "function"
    },
    {
      "inputs": [
        {
          "internalType": "string",
          "name": "_symbol",
          "type": "string"
        },
        {
          "internalType": "address",
          "name": "_token_address",
          "type": "address"
        },
        {
          "internalType": "uint256",
          "name": "_optimal_utilisation",
          "type": "uint256"
        },
        {
          "internalType": "uint256",
          "name": "_collateral_factor",
          "type": "uint256"
        },
        {
          "internalType": "uint256",
          "name": "_base_rate",
          "type": "uint256"
        },
        {
          "internalType": "uint256",
          "name": "_slope1",
          "type": "uint256"
        },
        {
          "internalType": "uint256",
          "name": "_slope2",
          "type": "uint256"
        },
        {
          "internalType": "uint256",
          "name": "_spread",
          "type": "uint256"
        }
      ],
      "name": "createToken",
      "outputs": [],
      "stateMutability": "nonpayable",
      "type": "function"
    },
    {
      "inputs": [
        {
          "internalType": "address",
          "name": "token",
          "type": "address"
        }
      ],
      "name": "getIRDepositTotalCummulation",
      "outputs": [
        {
          "internalType": "uint256",
          "name": "",
          "type": "uint256"
        }
      ],
      "stateMutability": "view",
      "type": "function",
      "constant": true
    },
    {
      "inputs": [
        {
          "internalType": "address",
          "name": "token",
          "type": "address"
        }
      ],
      "name": "getIRBorrowTotalCummulation",
      "outputs": [
        {
          "internalType": "uint256",
          "name": "",
          "type": "uint256"
        }
      ],
      "stateMutability": "view",
      "type": "function",
      "constant": true
    },
    {
      "inputs": [
        {
          "internalType": "address",
          "name": "id",
          "type": "address"
        },
        {
          "internalType": "uint256",
          "name": "utilisationRate",
          "type": "uint256"
        }
      ],
      "name": "borrowInterestRate",
      "outputs": [
        {
          "internalType": "uint256",
          "name": "",
          "type": "uint256"
        }
      ],
      "stateMutability": "view",
      "type": "function",
      "constant": true
    },
    {
      "inputs": [
        {
          "internalType": "address",
          "name": "id",
          "type": "address"
        },
        {
          "internalType": "uint256",
          "name": "utilisationRate",
          "type": "uint256"
        }
      ],
      "name": "depositInterestRate",
      "outputs": [
        {
          "internalType": "uint256",
          "name": "",
          "type": "uint256"
        }
      ],
      "stateMutability": "view",
      "type": "function",
      "constant": true
    },
    {
      "inputs": [
        {
          "internalType": "address",
          "name": "id",
          "type": "address"
        },
        {
          "internalType": "uint256",
          "name": "utilisationRate",
          "type": "uint256"
        },
        {
          "internalType": "uint256",
          "name": "borrowIR",
          "type": "uint256"
        }
      ],
      "name": "depositInterestRate",
      "outputs": [
        {
          "internalType": "uint256",
          "name": "",
          "type": "uint256"
        }
      ],
      "stateMutability": "view",
      "type": "function",
      "constant": true
    },
    {
      "inputs": [
        {
          "internalType": "address",
          "name": "token",
          "type": "address"
        },
        {
          "internalType": "uint256",
          "name": "utilisationRate",
          "type": "uint256"
        }
      ],
      "name": "compoundIR",
      "outputs": [
        {
          "internalType": "bool",
          "name": "",
          "type": "bool"
        }
      ],
      "stateMutability": "nonpayable",
      "type": "function"
    }
  ],
  "bytecode": "0x608060405234801561001057600080fd5b50336000806101000a81548173ffffffffffffffffffffffffffffffffffffffff021916908373ffffffffffffffffffffffffffffffffffffffff160217905550611c74806100606000396000f3fe608060405234801561001057600080fd5b50600436106100a95760003560e01c806363986aba1161007157806363986aba1461018c5780637289370e146101a85780638abe523f146101d8578063d25b17b614610208578063e486033914610226578063f609507b1461025d576100a9565b80630f1f7bc9146100ae57806326a46dd5146100de5780633a0c6c261461010e578063402fda401461013e57806340e613f91461015a575b600080fd5b6100c860048036036100c3919081019061157d565b61028d565b6040516100d59190611aa3565b60405180910390f35b6100f860048036036100f391908101906115a6565b6103aa565b6040516101059190611aa3565b60405180910390f35b610128600480360361012391908101906115a6565b610560565b6040516101359190611941565b60405180910390f35b61015860048036036101539190810190611631565b61082e565b005b610174600480360361016f919081019061157d565b610a59565b60405161018393929190611abe565b60405180910390f35b6101a660048036036101a1919081019061157d565b610a83565b005b6101c260048036036101bd91908101906115e2565b610b56565b6040516101cf9190611aa3565b60405180910390f35b6101f260048036036101ed91908101906115a6565b610cff565b6040516101ff9190611aa3565b60405180910390f35b610210610f04565b60405161021d9190611926565b60405180910390f35b610240600480360361023b919081019061157d565b610f2a565b60405161025498979695949392919061197e565b60405180910390f35b6102776004803603610272919081019061157d565b61102a565b6040516102849190611aa3565b60405180910390f35b60008073ffffffffffffffffffffffffffffffffffffffff16600260008473ffffffffffffffffffffffffffffffffffffffff1673ffffffffffffffffffffffffffffffffffffffff16815260200190815260200160002060010160009054906101000a900473ffffffffffffffffffffffffffffffffffffffff1673ffffffffffffffffffffffffffffffffffffffff161415610360576040517f08c379a000000000000000000000000000000000000000000000000000000000815260040161035790611a43565b60405180910390fd5b600360008373ffffffffffffffffffffffffffffffffffffffff1673ffffffffffffffffffffffffffffffffffffffff168152602001908152602001600020600001549050919050565b6000806103b78484610cff565b90506103c16113de565b600260008673ffffffffffffffffffffffffffffffffffffffff1673ffffffffffffffffffffffffffffffffffffffff16815260200190815260200160002060405180610100016040529081600082018054600181600116156101000203166002900480601f0160208091040260200160405190810160405280929190818152602001828054600181600116156101000203166002900480156104a55780601f1061047a576101008083540402835291602001916104a5565b820191906000526020600020905b81548152906001019060200180831161048857829003601f168201915b505050505081526020016001820160009054906101000a900473ffffffffffffffffffffffffffffffffffffffff1673ffffffffffffffffffffffffffffffffffffffff1673ffffffffffffffffffffffffffffffffffffffff168152602001600282015481526020016003820154815260200160048201548152602001600582015481526020016006820154815260200160078201548152505090506127108160e0015183028161055357fe5b0482019250505092915050565b6000600160009054906101000a900473ffffffffffffffffffffffffffffffffffffffff1673ffffffffffffffffffffffffffffffffffffffff163373ffffffffffffffffffffffffffffffffffffffff16146105f2576040517f08c379a00000000000000000000000000000000000000000000000000000000081526004016105e990611a83565b60405180910390fd5b600042905060006106038585610cff565b9050600061061186866103aa565b90506000633b9aca009050610624611439565b600360008973ffffffffffffffffffffffffffffffffffffffff1673ffffffffffffffffffffffffffffffffffffffff16815260200190815260200160002060405180606001604052908160008201548152602001600182015481526020016002820154815250509050600061069e868360400151611147565b905060007fffffffffffffffffffffffffffffffffffffffffffffffffffffffffffffffff905080858385600001510202106106e4576000975050505050505050610828565b600082141580156106f6575060008614155b8015610703575060008514155b156107d557610728610722846020015161071d8986611191565b611213565b85611283565b600360008c73ffffffffffffffffffffffffffffffffffffffff1673ffffffffffffffffffffffffffffffffffffffff1681526020019081526020016000206001018190555061078e61078884600001516107838886611191565b611213565b85611283565b600360008c73ffffffffffffffffffffffffffffffffffffffff1673ffffffffffffffffffffffffffffffffffffffff168152602001908152602001600020600001819055505b86600360008c73ffffffffffffffffffffffffffffffffffffffff1673ffffffffffffffffffffffffffffffffffffffff1681526020019081526020016000206002018190555060019750505050505050505b92915050565b6040518061010001604052808981526020018873ffffffffffffffffffffffffffffffffffffffff16815260200160648802815260200160648702815260200160648602815260200160648502815260200160648402815260200160648302815250600260008973ffffffffffffffffffffffffffffffffffffffff1673ffffffffffffffffffffffffffffffffffffffff16815260200190815260200160002060008201518160000190805190602001906108eb92919061145a565b5060208201518160010160006101000a81548173ffffffffffffffffffffffffffffffffffffffff021916908373ffffffffffffffffffffffffffffffffffffffff16021790555060408201518160020155606082015181600301556080820151816004015560a0820151816005015560c0820151816006015560e08201518160070155905050633b9aca00600360008973ffffffffffffffffffffffffffffffffffffffff1673ffffffffffffffffffffffffffffffffffffffff16815260200190815260200160002060000181905550633b9aca00600360008973ffffffffffffffffffffffffffffffffffffffff1673ffffffffffffffffffffffffffffffffffffffff1681526020019081526020016000206001018190555042600360008973ffffffffffffffffffffffffffffffffffffffff1673ffffffffffffffffffffffffffffffffffffffff168152602001908152602001600020600201819055505050505050505050565b60036020528060005260406000206000915090508060000154908060010154908060020154905083565b6000809054906101000a900473ffffffffffffffffffffffffffffffffffffffff1673ffffffffffffffffffffffffffffffffffffffff163373ffffffffffffffffffffffffffffffffffffffff1614610b12576040517f08c379a0000000000000000000000000000000000000000000000000000000008152600401610b0990611a63565b60405180910390fd5b80600160006101000a81548173ffffffffffffffffffffffffffffffffffffffff021916908373ffffffffffffffffffffffffffffffffffffffff16021790555050565b6000610b606113de565b600260008673ffffffffffffffffffffffffffffffffffffffff1673ffffffffffffffffffffffffffffffffffffffff16815260200190815260200160002060405180610100016040529081600082018054600181600116156101000203166002900480601f016020809104026020016040519081016040528092919081815260200182805460018160011615610100020316600290048015610c445780601f10610c1957610100808354040283529160200191610c44565b820191906000526020600020905b815481529060010190602001808311610c2757829003601f168201915b505050505081526020016001820160009054906101000a900473ffffffffffffffffffffffffffffffffffffffff1673ffffffffffffffffffffffffffffffffffffffff1673ffffffffffffffffffffffffffffffffffffffff168152602001600282015481526020016003820154815260200160048201548152602001600582015481526020016006820154815260200160078201548152505090506127108160e00151840281610cf257fe5b0483019150509392505050565b6000610d096113de565b600260008573ffffffffffffffffffffffffffffffffffffffff1673ffffffffffffffffffffffffffffffffffffffff16815260200190815260200160002060405180610100016040529081600082018054600181600116156101000203166002900480601f016020809104026020016040519081016040528092919081815260200182805460018160011615610100020316600290048015610ded5780601f10610dc257610100808354040283529160200191610ded565b820191906000526020600020905b815481529060010190602001808311610dd057829003601f168201915b505050505081526020016001820160009054906101000a900473ffffffffffffffffffffffffffffffffffffffff1673ffffffffffffffffffffffffffffffffffffffff1673ffffffffffffffffffffffffffffffffffffffff168152602001600282015481526020016003820154815260200160048201548152602001600582015481526020016006820154815260200160078201548152505090508060400151606484021015610ebf578060400151612710840281610eaa57fe5b048160a0015102816080015101915050610efe565b806040015161271003606482604001510261271085020381610edd57fe5b0460648260c0015181610eec57fe5b04028160a00151826080015101019150505b92915050565b600160009054906101000a900473ffffffffffffffffffffffffffffffffffffffff1681565b6002602052806000526040600020600091509050806000018054600181600116156101000203166002900480601f016020809104026020016040519081016040528092919081815260200182805460018160011615610100020316600290048015610fd65780601f10610fab57610100808354040283529160200191610fd6565b820191906000526020600020905b815481529060010190602001808311610fb957829003601f168201915b5050505050908060010160009054906101000a900473ffffffffffffffffffffffffffffffffffffffff16908060020154908060030154908060040154908060050154908060060154908060070154905088565b60008073ffffffffffffffffffffffffffffffffffffffff16600260008473ffffffffffffffffffffffffffffffffffffffff1673ffffffffffffffffffffffffffffffffffffffff16815260200190815260200160002060010160009054906101000a900473ffffffffffffffffffffffffffffffffffffffff1673ffffffffffffffffffffffffffffffffffffffff1614156110fd576040517f08c379a00000000000000000000000000000000000000000000000000000000081526004016110f490611a43565b60405180910390fd5b600360008373ffffffffffffffffffffffffffffffffffffffff1673ffffffffffffffffffffffffffffffffffffffff168152602001908152602001600020600101549050919050565b600061118983836040518060400160405280601e81526020017f536166654d6174683a207375627472616374696f6e206f766572666c6f7700008152506112cd565b905092915050565b600080633b9aca00905060006111c16111b76111b1876301e18558611328565b84611213565b6301e18558611283565b905060008090505b60018503811015611207576111f86111ee836111e9896301e18558611328565b611213565b6301e18558611283565b915080806001019150506111c9565b50809250505092915050565b600080831415611226576000905061127d565b600082840290508284828161123757fe5b0414611278576040517f08c379a000000000000000000000000000000000000000000000000000000000815260040161126f90611a23565b60405180910390fd5b809150505b92915050565b60006112c583836040518060400160405280601a81526020017f536166654d6174683a206469766973696f6e206279207a65726f00000000000081525061137d565b905092915050565b6000838311158290611315576040517f08c379a000000000000000000000000000000000000000000000000000000000815260040161130c919061195c565b60405180910390fd5b5060008385039050809150509392505050565b600080828401905083811015611373576040517f08c379a000000000000000000000000000000000000000000000000000000000815260040161136a90611a03565b60405180910390fd5b8091505092915050565b600080831182906113c4576040517f08c379a00000000000000000000000000000000000000000000000000000000081526004016113bb919061195c565b60405180910390fd5b5060008385816113d057fe5b049050809150509392505050565b60405180610100016040528060608152602001600073ffffffffffffffffffffffffffffffffffffffff1681526020016000815260200160008152602001600081526020016000815260200160008152602001600081525090565b60405180606001604052806000815260200160008152602001600081525090565b828054600181600116156101000203166002900490600052602060002090601f016020900481019282601f1061149b57805160ff19168380011785556114c9565b828001600101855582156114c9579182015b828111156114c85782518255916020019190600101906114ad565b5b5090506114d691906114da565b5090565b6114fc91905b808211156114f85760008160009055506001016114e0565b5090565b90565b60008135905061150e81611c10565b92915050565b600082601f83011261152557600080fd5b813561153861153382611b22565b611af5565b9150808252602083016020830185838301111561155457600080fd5b61155f838284611bbd565b50505092915050565b60008135905061157781611c27565b92915050565b60006020828403121561158f57600080fd5b600061159d848285016114ff565b91505092915050565b600080604083850312156115b957600080fd5b60006115c7858286016114ff565b92505060206115d885828601611568565b9150509250929050565b6000806000606084860312156115f757600080fd5b6000611605868287016114ff565b935050602061161686828701611568565b925050604061162786828701611568565b9150509250925092565b600080600080600080600080610100898b03121561164e57600080fd5b600089013567ffffffffffffffff81111561166857600080fd5b6116748b828c01611514565b98505060206116858b828c016114ff565b97505060406116968b828c01611568565b96505060606116a78b828c01611568565b95505060806116b88b828c01611568565b94505060a06116c98b828c01611568565b93505060c06116da8b828c01611568565b92505060e06116eb8b828c01611568565b9150509295985092959890939650565b61170481611b75565b82525050565b61171381611b87565b82525050565b600061172482611b59565b61172e8185611b64565b935061173e818560208601611bcc565b61174781611bff565b840191505092915050565b600061175d82611b4e565b6117678185611b64565b9350611777818560208601611bcc565b61178081611bff565b840191505092915050565b6000611798601b83611b64565b91507f536166654d6174683a206164646974696f6e206f766572666c6f7700000000006000830152602082019050919050565b60006117d8602183611b64565b91507f536166654d6174683a206d756c7469706c69636174696f6e206f766572666c6f60008301527f77000000000000000000000000000000000000000000000000000000000000006020830152604082019050919050565b600061183e601583611b64565b91507f546f6b656e206e6f7420637265617465642079657400000000000000000000006000830152602082019050919050565b600061187e601f83611b64565b91507f4f6e6c79206f776e65722063616e20646f2066756e6374696f6e2063616c6c006000830152602082019050919050565b60006118be602883611b64565b91507f4f6e6c79204c697175696469747920706f6f6c2063616e20646f2066756e637460008301527f696f6e2063616c6c0000000000000000000000000000000000000000000000006020830152604082019050919050565b61192081611bb3565b82525050565b600060208201905061193b60008301846116fb565b92915050565b6000602082019050611956600083018461170a565b92915050565b600060208201905081810360008301526119768184611719565b905092915050565b6000610100820190508181036000830152611999818b611752565b90506119a8602083018a6116fb565b6119b56040830189611917565b6119c26060830188611917565b6119cf6080830187611917565b6119dc60a0830186611917565b6119e960c0830185611917565b6119f660e0830184611917565b9998505050505050505050565b60006020820190508181036000830152611a1c8161178b565b9050919050565b60006020820190508181036000830152611a3c816117cb565b9050919050565b60006020820190508181036000830152611a5c81611831565b9050919050565b60006020820190508181036000830152611a7c81611871565b9050919050565b60006020820190508181036000830152611a9c816118b1565b9050919050565b6000602082019050611ab86000830184611917565b92915050565b6000606082019050611ad36000830186611917565b611ae06020830185611917565b611aed6040830184611917565b949350505050565b6000604051905081810181811067ffffffffffffffff82111715611b1857600080fd5b8060405250919050565b600067ffffffffffffffff821115611b3957600080fd5b601f19601f8301169050602081019050919050565b600081519050919050565b600081519050919050565b600082825260208201905092915050565b6000611b8082611b93565b9050919050565b60008115159050919050565b600073ffffffffffffffffffffffffffffffffffffffff82169050919050565b6000819050919050565b82818337600083830152505050565b60005b83811015611bea578082015181840152602081019050611bcf565b83811115611bf9576000848401525b50505050565b6000601f19601f8301169050919050565b611c1981611b75565b8114611c2457600080fd5b50565b611c3081611bb3565b8114611c3b57600080fd5b5056fea2646970667358221220e2009779bae1dc5a0b95654b108d5f67e94cf024aa9a27048772272d0f00160264736f6c63430006020033",
  "source": "// SPDX-License-Identifier: MIT\npragma solidity >=0.4.22 <0.8.0;\npragma experimental ABIEncoderV2;\nimport './SafeMath.sol';\n\ncontract InterestVariables {\n\n  address private owner;\n  address public liquidityPoolAddress;\n\n  modifier onlyOwner() {\n      require(msg.sender == owner, \"Only owner can do function call\");\n      _;\n  }\n\n  modifier onlyLiquidityPool() {\n      require(msg.sender == liquidityPoolAddress, \"Only Liquidity pool can do function call\");\n      _;\n  }\n\n  // tokens structure\n  struct TknVariables {\n    string symbol;\n    address token_address;\n    uint optimal_utilisation;\n    uint collateral_factor;\n    uint base_rate;\n    uint slope1;\n    uint slope2;\n    uint spread;\n  }\n\n  mapping (address => TknVariables) public tokens;\n  mapping (address => InterestCummulation) public tokenIRcummulation;\n\n  struct InterestCummulation{\n    uint256 cummulated_depositIR; // could only use this and get ride of borrow\n    uint256 cummulated_borrowIR;\n    uint last_time; // last time of IR cummulation\n  }\n\n\n  constructor() public{\n    owner = msg.sender;\n  }\n\n  function setLiquidityPoolAddress(address add) public onlyOwner{\n    liquidityPoolAddress = add;\n  }\n\n  function createToken(string memory _symbol,\n    address _token_address,\n    uint _optimal_utilisation,\n    uint _collateral_factor,\n    uint _base_rate,\n    uint _slope1,\n    uint _slope2,\n    uint _spread)\n    public{\n    tokens[_token_address] = TknVariables(_symbol, _token_address,_optimal_utilisation*100, _collateral_factor*100, _base_rate*100, _slope1*100, _slope2*100, _spread*100);\n    // initialise tokne glogal variable of CUMMULATED IR\n    tokenIRcummulation[_token_address].cummulated_depositIR = 1e9;\n    tokenIRcummulation[_token_address].cummulated_borrowIR = 1e9;\n    tokenIRcummulation[_token_address].last_time = now;\n  }\n\n  function getIRDepositTotalCummulation(address token) public view returns(uint){\n    require(tokens[token].token_address != address(0), 'Token not created yet');\n    return tokenIRcummulation[token].cummulated_depositIR;\n  }\n\n  function getIRBorrowTotalCummulation(address token) public view returns(uint){\n    require(tokens[token].token_address != address(0), 'Token not created yet');\n    return tokenIRcummulation[token].cummulated_borrowIR;\n  }\n\n  //returns ir% * 100 => returns 702 for 7.02% interest rate\n  function borrowInterestRate(address id, uint utilisationRate) public view returns(uint){\n    TknVariables memory token = tokens[id];\n    if(utilisationRate*100 < token.optimal_utilisation){\n      return token.base_rate + token.slope1*(utilisationRate*10000/token.optimal_utilisation);\n    }else{\n      return token.base_rate + token.slope1 + (token.slope2/100)*( (utilisationRate*10000 - token.optimal_utilisation*100) / (10000 - token.optimal_utilisation));\n    }\n  }\n\n  //returns ir% * 100 => returns 702 for 7.02% interest rate\n  function depositInterestRate(address id, uint utilisationRate) public view returns(uint){\n    uint borrow = borrowInterestRate(id, utilisationRate);\n    TknVariables memory token = tokens[id];\n    return borrow + borrow*token.spread/10000;\n  }\n\n  //returns ir% * 100 => returns 702 for 7.02% interest rate\n  function depositInterestRate(address id, uint utilisationRate, uint borrowIR) public view returns(uint){\n    //uint borrow = borrowInterestRate(id, utilisationRate);\n    TknVariables memory token = tokens[id];\n    return borrowIR + borrowIR*token.spread/10000;\n  }\n\n  // update the global variable interest rate\n  // call this before utilisation rate changes\n  function compoundIR(address token, uint utilisationRate) public onlyLiquidityPool returns (bool){\n    // timestamp\n    uint timenow = now;\n\n    // ir current (before changing the UtRate)\n    uint before_borrowIR = borrowInterestRate(token, utilisationRate);\n    uint before_depositIR = depositInterestRate(token, utilisationRate);\n\n    uint PRECISION = 1e9;\n    InterestCummulation memory tokenCummulation = tokenIRcummulation[token];\n    // seconds since last update / seconds in a year -> to account for ir pre sec\n    uint timeperiod = SafeMath.sub(timenow,tokenCummulation.last_time);\n    uint256 UINT_MAX_VALUE = uint256(-1);\n\n    // check if value of cummulated deposit interest will exceed uint256/1e9 (this is always larger)\n    if(tokenCummulation.cummulated_depositIR*timeperiod*before_depositIR >= UINT_MAX_VALUE ){\n      return false;\n    }\n\n    // compound cummulated interest rate\n    // these values are always *1e9\n    if(timeperiod != 0 && before_borrowIR != 0 &&  before_depositIR != 0){\n      tokenIRcummulation[token].cummulated_borrowIR = SafeMath.div(SafeMath.mul(tokenCummulation.cummulated_borrowIR,powerPrecision(before_borrowIR, timeperiod)), PRECISION);\n      tokenIRcummulation[token].cummulated_depositIR = SafeMath.div(SafeMath.mul(tokenCummulation.cummulated_depositIR,powerPrecision(before_depositIR, timeperiod)), PRECISION);\n    }\n\n    // update last time of update\n    tokenIRcummulation[token].last_time = timenow;\n    return true;\n  }\n\n  // ( (ir+secundeAn)*Precision/secundeAn)^perioada => interest to cummulate over that time period multiplied by PRECISION\n  function powerPrecision(uint256 ir, uint256 power) internal view returns (uint256){\n    uint256 PRECISION = 1e9;\n    uint256 result = SafeMath.div(SafeMath.mul(SafeMath.add(ir,31556952), PRECISION), 31556952);\n    for(uint i = 0; i< power - 1;i++){\n      result = SafeMath.div(SafeMath.mul(result,SafeMath.add(ir,31556952)), 31556952);\n    }\n    return result;\n  }\n\n\n}\n",
  "sourcePath": "/Users/ioanaroceanu/Documents/Project/contracts/InterestVariables.sol",
  "compiler": {
    "name": "solc",
    "version": "0.6.2+commit.bacdbe57.Emscripten.clang"
  },
  "schemaVersion": "3.3.2",
  "updatedAt": "2021-02-06T09:32:12.851Z",
  "networkType": "ethereum",
  "devdoc": {
    "methods": {}
  },
  "userdoc": {
    "methods": {}
  }
}