{
  "contractName": "LiquidityPool",
  "abi": [
    {
      "inputs": [
        {
          "internalType": "address",
          "name": "ivar_add",
          "type": "address"
        },
        {
          "internalType": "address",
          "name": "exchange_add",
          "type": "address"
        }
      ],
      "stateMutability": "nonpayable",
      "type": "constructor"
    },
    {
      "anonymous": false,
      "inputs": [
        {
          "indexed": false,
          "internalType": "address",
          "name": "user",
          "type": "address"
        },
        {
          "indexed": false,
          "internalType": "uint256",
          "name": "timestamp",
          "type": "uint256"
        }
      ],
      "name": "Loan",
      "type": "event"
    },
    {
      "inputs": [
        {
          "internalType": "address",
          "name": "",
          "type": "address"
        }
      ],
      "name": "tokensData",
      "outputs": [
        {
          "internalType": "uint256",
          "name": "price",
          "type": "uint256"
        },
        {
          "internalType": "uint256",
          "name": "utilisation",
          "type": "uint256"
        },
        {
          "internalType": "uint256",
          "name": "collateral_factor",
          "type": "uint256"
        },
        {
          "internalType": "uint256",
          "name": "totalBorrowed",
          "type": "uint256"
        },
        {
          "internalType": "uint256",
          "name": "totalDeposited",
          "type": "uint256"
        },
        {
          "internalType": "uint256",
          "name": "totalCollateral",
          "type": "uint256"
        },
        {
          "internalType": "bool",
          "name": "exchangeable",
          "type": "bool"
        }
      ],
      "stateMutability": "view",
      "type": "function",
      "constant": true
    },
    {
      "inputs": [
        {
          "internalType": "address",
          "name": "",
          "type": "address"
        }
      ],
      "name": "trustedTkns",
      "outputs": [
        {
          "internalType": "bool",
          "name": "",
          "type": "bool"
        }
      ],
      "stateMutability": "view",
      "type": "function",
      "constant": true
    },
    {
      "inputs": [
        {
          "internalType": "address",
          "name": "",
          "type": "address"
        }
      ],
      "name": "usersBalance",
      "outputs": [
        {
          "internalType": "uint256",
          "name": "depositedAmount",
          "type": "uint256"
        },
        {
          "internalType": "uint256",
          "name": "init_interest_deposit",
          "type": "uint256"
        },
        {
          "internalType": "uint256",
          "name": "cummulated_ir_deposit",
          "type": "uint256"
        },
        {
          "internalType": "address",
          "name": "tokenDeposited",
          "type": "address"
        },
        {
          "internalType": "uint256",
          "name": "collateralAmount",
          "type": "uint256"
        },
        {
          "internalType": "address",
          "name": "tokenCollateralised",
          "type": "address"
        },
        {
          "internalType": "uint256",
          "name": "borrowedAmount",
          "type": "uint256"
        },
        {
          "internalType": "uint256",
          "name": "init_interest_borrow",
          "type": "uint256"
        },
        {
          "internalType": "uint256",
          "name": "cummulated_ir_borrow",
          "type": "uint256"
        },
        {
          "internalType": "address",
          "name": "tokenBorrowed",
          "type": "address"
        }
      ],
      "stateMutability": "view",
      "type": "function",
      "constant": true
    },
    {
      "inputs": [
        {
          "internalType": "address",
          "name": "_token_address",
          "type": "address"
        },
        {
          "internalType": "uint256",
          "name": "_optimal_utilisation",
          "type": "uint256"
        },
        {
          "internalType": "uint256",
          "name": "_collateral_factor",
          "type": "uint256"
        },
        {
          "internalType": "uint256",
          "name": "_base_rate",
          "type": "uint256"
        },
        {
          "internalType": "uint256",
          "name": "_slope1",
          "type": "uint256"
        },
        {
          "internalType": "uint256",
          "name": "_slope2",
          "type": "uint256"
        },
        {
          "internalType": "uint256",
          "name": "_spread",
          "type": "uint256"
        },
        {
          "internalType": "uint256",
          "name": "_price",
          "type": "uint256"
        },
        {
          "internalType": "bool",
          "name": "truested",
          "type": "bool"
        }
      ],
      "name": "createToken",
      "outputs": [],
      "stateMutability": "nonpayable",
      "type": "function"
    },
    {
      "inputs": [
        {
          "internalType": "address",
          "name": "user",
          "type": "address"
        }
      ],
      "name": "tryDiscardLoan",
      "outputs": [
        {
          "internalType": "bool",
          "name": "",
          "type": "bool"
        }
      ],
      "stateMutability": "nonpayable",
      "type": "function"
    },
    {
      "inputs": [
        {
          "internalType": "address",
          "name": "token",
          "type": "address"
        }
      ],
      "name": "updateTokenPrice",
      "outputs": [],
      "stateMutability": "nonpayable",
      "type": "function"
    },
    {
      "inputs": [
        {
          "internalType": "address",
          "name": "token",
          "type": "address"
        }
      ],
      "name": "checkExchangeability",
      "outputs": [],
      "stateMutability": "nonpayable",
      "type": "function"
    },
    {
      "inputs": [
        {
          "internalType": "address payable",
          "name": "user",
          "type": "address"
        },
        {
          "internalType": "uint256",
          "name": "amount",
          "type": "uint256"
        },
        {
          "internalType": "address",
          "name": "tokenId",
          "type": "address"
        }
      ],
      "name": "deposit",
      "outputs": [],
      "stateMutability": "nonpayable",
      "type": "function"
    },
    {
      "inputs": [
        {
          "internalType": "address payable",
          "name": "user",
          "type": "address"
        },
        {
          "internalType": "uint256",
          "name": "amount",
          "type": "uint256"
        },
        {
          "internalType": "address",
          "name": "tokenId",
          "type": "address"
        }
      ],
      "name": "borrow",
      "outputs": [],
      "stateMutability": "nonpayable",
      "type": "function"
    },
    {
      "inputs": [
        {
          "internalType": "address payable",
          "name": "user",
          "type": "address"
        },
        {
          "internalType": "uint256",
          "name": "amount",
          "type": "uint256"
        },
        {
          "internalType": "address",
          "name": "tokenId",
          "type": "address"
        }
      ],
      "name": "depositCollateral",
      "outputs": [],
      "stateMutability": "nonpayable",
      "type": "function"
    },
    {
      "inputs": [
        {
          "internalType": "address payable",
          "name": "user",
          "type": "address"
        },
        {
          "internalType": "uint256",
          "name": "amount",
          "type": "uint256"
        }
      ],
      "name": "switchDepositToCollateral",
      "outputs": [],
      "stateMutability": "nonpayable",
      "type": "function"
    },
    {
      "inputs": [
        {
          "internalType": "address payable",
          "name": "user",
          "type": "address"
        },
        {
          "internalType": "uint256",
          "name": "amount",
          "type": "uint256"
        }
      ],
      "name": "repay",
      "outputs": [],
      "stateMutability": "nonpayable",
      "type": "function"
    },
    {
      "inputs": [
        {
          "internalType": "address payable",
          "name": "user",
          "type": "address"
        },
        {
          "internalType": "uint256",
          "name": "amount",
          "type": "uint256"
        }
      ],
      "name": "redeem",
      "outputs": [],
      "stateMutability": "nonpayable",
      "type": "function"
    },
    {
      "inputs": [
        {
          "internalType": "address payable",
          "name": "user",
          "type": "address"
        },
        {
          "internalType": "uint256",
          "name": "amount",
          "type": "uint256"
        }
      ],
      "name": "redeemCollateral",
      "outputs": [],
      "stateMutability": "nonpayable",
      "type": "function"
    },
    {
      "inputs": [
        {
          "internalType": "address",
          "name": "user",
          "type": "address"
        }
      ],
      "name": "getCummulatedInterestDeposit",
      "outputs": [
        {
          "internalType": "uint256",
          "name": "",
          "type": "uint256"
        }
      ],
      "stateMutability": "view",
      "type": "function",
      "constant": true
    },
    {
      "inputs": [
        {
          "internalType": "address",
          "name": "user",
          "type": "address"
        }
      ],
      "name": "getCummulatedInterestLoan",
      "outputs": [
        {
          "internalType": "uint256",
          "name": "",
          "type": "uint256"
        }
      ],
      "stateMutability": "view",
      "type": "function",
      "constant": true
    },
    {
      "inputs": [
        {
          "internalType": "address",
          "name": "user",
          "type": "address"
        }
      ],
      "name": "getHealthFactor",
      "outputs": [
        {
          "internalType": "uint256",
          "name": "",
          "type": "uint256"
        }
      ],
      "stateMutability": "view",
      "type": "function",
      "constant": true
    },
    {
      "inputs": [
        {
          "internalType": "address",
          "name": "user",
          "type": "address"
        }
      ],
      "name": "liquidate",
      "outputs": [],
      "stateMutability": "nonpayable",
      "type": "function"
    }
  ],
  "bytecode": "0x60806040523480156200001157600080fd5b5060405162005f5538038062005f55833981810160405260408110156200003757600080fd5b810190808051906020019092919080519060200190929190505050816000806101000a81548173ffffffffffffffffffffffffffffffffffffffff021916908373ffffffffffffffffffffffffffffffffffffffff16021790555080600160006101000a81548173ffffffffffffffffffffffffffffffffffffffff021916908373ffffffffffffffffffffffffffffffffffffffff16021790555033600360006101000a81548173ffffffffffffffffffffffffffffffffffffffff021916908373ffffffffffffffffffffffffffffffffffffffff1602179055505050615e2f80620001266000396000f3fe608060405234801561001057600080fd5b50600436106101165760003560e01c80638fdceb5b116100a2578063d42ce1c511610071578063d42ce1c51461065e578063e7fb6b70146106f5578063f45346dc14610743578063f9a22a5d146107b1578063fe6bcd7c1461080957610116565b80638fdceb5b146104d65780639acd81b31461052e578063a008eeef1461057c578063ac66c6e0146105d857610116565b80632f0bc162116100e95780632f0bc162146102695780632f865568146102c557806358324335146103095780636c665a55146104245780638f58f5081461049257610116565b80631e9a69501461011b578063217466151461016957806322425480146101ad57806322867d781461021b575b600080fd5b6101676004803603604081101561013157600080fd5b81019080803573ffffffffffffffffffffffffffffffffffffffff16906020019092919080359060200190929190505050610861565b005b6101ab6004803603602081101561017f57600080fd5b81019080803573ffffffffffffffffffffffffffffffffffffffff169060200190929190505050610fc3565b005b610219600480360360608110156101c357600080fd5b81019080803573ffffffffffffffffffffffffffffffffffffffff16906020019092919080359060200190929190803573ffffffffffffffffffffffffffffffffffffffff1690602001909291905050506110e6565b005b6102676004803603604081101561023157600080fd5b81019080803573ffffffffffffffffffffffffffffffffffffffff16906020019092919080359060200190929190505050611610565b005b6102ab6004803603602081101561027f57600080fd5b81019080803573ffffffffffffffffffffffffffffffffffffffff169060200190929190505050611d27565b604051808215151515815260200191505060405180910390f35b610307600480360360208110156102db57600080fd5b81019080803573ffffffffffffffffffffffffffffffffffffffff169060200190929190505050611d47565b005b61034b6004803603602081101561031f57600080fd5b81019080803573ffffffffffffffffffffffffffffffffffffffff16906020019092919050505061242a565b604051808b81526020018a81526020018981526020018873ffffffffffffffffffffffffffffffffffffffff1673ffffffffffffffffffffffffffffffffffffffff1681526020018781526020018673ffffffffffffffffffffffffffffffffffffffff1673ffffffffffffffffffffffffffffffffffffffff1681526020018581526020018481526020018381526020018273ffffffffffffffffffffffffffffffffffffffff1673ffffffffffffffffffffffffffffffffffffffff1681526020019a505050505050505050505060405180910390f35b6104906004803603606081101561043a57600080fd5b81019080803573ffffffffffffffffffffffffffffffffffffffff16906020019092919080359060200190929190803573ffffffffffffffffffffffffffffffffffffffff1690602001909291905050506124de565b005b6104d4600480360360208110156104a857600080fd5b81019080803573ffffffffffffffffffffffffffffffffffffffff169060200190929190505050612d11565b005b610518600480360360208110156104ec57600080fd5b81019080803573ffffffffffffffffffffffffffffffffffffffff169060200190929190505050612e47565b6040518082815260200191505060405180910390f35b61057a6004803603604081101561054457600080fd5b81019080803573ffffffffffffffffffffffffffffffffffffffff1690602001909291908035906020019092919050505061307c565b005b6105be6004803603602081101561059257600080fd5b81019080803573ffffffffffffffffffffffffffffffffffffffff169060200190929190505050613549565b604051808215151515815260200191505060405180910390f35b61061a600480360360208110156105ee57600080fd5b81019080803573ffffffffffffffffffffffffffffffffffffffff169060200190929190505050613bcc565b604051808881526020018781526020018681526020018581526020018481526020018381526020018215151515815260200197505050505050505060405180910390f35b6106f3600480360361012081101561067557600080fd5b81019080803573ffffffffffffffffffffffffffffffffffffffff16906020019092919080359060200190929190803590602001909291908035906020019092919080359060200190929190803590602001909291908035906020019092919080359060200190929190803515159060200190929190505050613c1b565b005b6107416004803603604081101561070b57600080fd5b81019080803573ffffffffffffffffffffffffffffffffffffffff16906020019092919080359060200190929190505050613eb8565b005b6107af6004803603606081101561075957600080fd5b81019080803573ffffffffffffffffffffffffffffffffffffffff16906020019092919080359060200190929190803573ffffffffffffffffffffffffffffffffffffffff1690602001909291905050506148cb565b005b6107f3600480360360208110156107c757600080fd5b81019080803573ffffffffffffffffffffffffffffffffffffffff169060200190929190505050614e31565b6040518082815260200191505060405180910390f35b61084b6004803603602081101561081f57600080fd5b81019080803573ffffffffffffffffffffffffffffffffffffffff169060200190929190505050615066565b6040518082815260200191505060405180910390f35b6000600560008473ffffffffffffffffffffffffffffffffffffffff1673ffffffffffffffffffffffffffffffffffffffff16815260200190815260200160002060030160009054906101000a900473ffffffffffffffffffffffffffffffffffffffff1690506108d181612d11565b6108da83613549565b5060006108e684612e47565b90508281101561095e576040517f08c379a00000000000000000000000000000000000000000000000000000000081526004018080602001828103825260118152602001807f52656465656d656420746f6f206d75636800000000000000000000000000000081525060200191505060405180910390fd5b6000600560008673ffffffffffffffffffffffffffffffffffffffff1673ffffffffffffffffffffffffffffffffffffffff16815260200190815260200160002060000154905060008490506000809050828611156109c7578291506109c48684615289565b90505b600460008673ffffffffffffffffffffffffffffffffffffffff1673ffffffffffffffffffffffffffffffffffffffff16815260200190815260200160002060030154610a56600460008873ffffffffffffffffffffffffffffffffffffffff1673ffffffffffffffffffffffffffffffffffffffff1681526020019081526020016000206004015484615289565b1015610aca576040517f08c379a00000000000000000000000000000000000000000000000000000000081526004018080602001828103825260158152602001807f496d706c696573206f766572626f72726f77696e67000000000000000000000081525060200191505060405180910390fd5b60008573ffffffffffffffffffffffffffffffffffffffff166370a08231306040518263ffffffff1660e01b8152600401808273ffffffffffffffffffffffffffffffffffffffff1673ffffffffffffffffffffffffffffffffffffffff16815260200191505060206040518083038186803b158015610b4957600080fd5b505afa158015610b5d573d6000803e3d6000fd5b505050506040513d6020811015610b7357600080fd5b810190808051906020019092919050505090506000821480610c2a5750610c27610bdf82600460008a73ffffffffffffffffffffffffffffffffffffffff1673ffffffffffffffffffffffffffffffffffffffff16815260200190815260200160002060040154615289565b600460008973ffffffffffffffffffffffffffffffffffffffff1673ffffffffffffffffffffffffffffffffffffffff16815260200190815260200160002060050154615289565b82105b610c9c576040517f08c379a00000000000000000000000000000000000000000000000000000000081526004018080602001828103825260198152602001807f4e6f7420656e6f7567682065787472612072657365727665730000000000000081525060200191505060405180910390fd5b610ce8600560008a73ffffffffffffffffffffffffffffffffffffffff1673ffffffffffffffffffffffffffffffffffffffff1681526020019081526020016000206000015484615289565b600560008a73ffffffffffffffffffffffffffffffffffffffff1673ffffffffffffffffffffffffffffffffffffffff16815260200190815260200160002060000181905550610d388588615289565b600560008a73ffffffffffffffffffffffffffffffffffffffff1673ffffffffffffffffffffffffffffffffffffffff168152602001908152602001600020600201819055506000809054906101000a900473ffffffffffffffffffffffffffffffffffffffff1673ffffffffffffffffffffffffffffffffffffffff16630f1f7bc9876040518263ffffffff1660e01b8152600401808273ffffffffffffffffffffffffffffffffffffffff1673ffffffffffffffffffffffffffffffffffffffff16815260200191505060206040518083038186803b158015610e1c57600080fd5b505afa158015610e30573d6000803e3d6000fd5b505050506040513d6020811015610e4657600080fd5b8101908080519060200190929190505050600560008a73ffffffffffffffffffffffffffffffffffffffff1673ffffffffffffffffffffffffffffffffffffffff16815260200190815260200160002060010181905550610eaa86848a60006152d3565b8573ffffffffffffffffffffffffffffffffffffffff1663a9059cbb89846040518363ffffffff1660e01b8152600401808373ffffffffffffffffffffffffffffffffffffffff1673ffffffffffffffffffffffffffffffffffffffff16815260200182815260200192505050602060405180830381600087803b158015610f3157600080fd5b505af1158015610f45573d6000803e3d6000fd5b505050506040513d6020811015610f5b57600080fd5b810190808051906020019092919050505050610fb986600460008973ffffffffffffffffffffffffffffffffffffffff1673ffffffffffffffffffffffffffffffffffffffff168152602001908152602001600020600101546154cc565b5050505050505050565b600160009054906101000a900473ffffffffffffffffffffffffffffffffffffffff1673ffffffffffffffffffffffffffffffffffffffff166341976e09826040518263ffffffff1660e01b8152600401808273ffffffffffffffffffffffffffffffffffffffff1673ffffffffffffffffffffffffffffffffffffffff16815260200191505060206040518083038186803b15801561106257600080fd5b505afa158015611076573d6000803e3d6000fd5b505050506040513d602081101561108c57600080fd5b8101908080519060200190929190505050600460008373ffffffffffffffffffffffffffffffffffffffff1673ffffffffffffffffffffffffffffffffffffffff1681526020019081526020016000206000018190555050565b600073ffffffffffffffffffffffffffffffffffffffff16600560008573ffffffffffffffffffffffffffffffffffffffff1673ffffffffffffffffffffffffffffffffffffffff16815260200190815260200160002060050160009054906101000a900473ffffffffffffffffffffffffffffffffffffffff1673ffffffffffffffffffffffffffffffffffffffff16148061121057508073ffffffffffffffffffffffffffffffffffffffff16600560008573ffffffffffffffffffffffffffffffffffffffff1673ffffffffffffffffffffffffffffffffffffffff16815260200190815260200160002060050160009054906101000a900473ffffffffffffffffffffffffffffffffffffffff1673ffffffffffffffffffffffffffffffffffffffff16145b611282576040517f08c379a00000000000000000000000000000000000000000000000000000000081526004018080602001828103825260168152602001807f416c72656164792068617320636f6c6c61746572616c0000000000000000000081525060200191505060405180910390fd5b6000600460008373ffffffffffffffffffffffffffffffffffffffff1673ffffffffffffffffffffffffffffffffffffffff16815260200190815260200160002060000154141561133b576040517f08c379a000000000000000000000000000000000000000000000000000000000815260040180806020018281038252600d8152602001807f4e6f7420737570706f727465640000000000000000000000000000000000000081525060200191505060405180910390fd5b61134481612d11565b61134d83613549565b5060011515600460008373ffffffffffffffffffffffffffffffffffffffff1673ffffffffffffffffffffffffffffffffffffffff16815260200190815260200160002060060160009054906101000a900460ff161515146113ae5761160b565b600260008273ffffffffffffffffffffffffffffffffffffffff1673ffffffffffffffffffffffffffffffffffffffff16815260200190815260200160002060009054906101000a900460ff16806114935750600460008273ffffffffffffffffffffffffffffffffffffffff1673ffffffffffffffffffffffffffffffffffffffff16815260200190815260200160002060030154611490600460008473ffffffffffffffffffffffffffffffffffffffff1673ffffffffffffffffffffffffffffffffffffffff1681526020019081526020016000206005015484615692565b11155b6114e8576040517f08c379a0000000000000000000000000000000000000000000000000000000008152600401808060200182810382526027815260200180615dd36027913960400191505060405180910390fd5b6114f78183856001600061571a565b80600560008573ffffffffffffffffffffffffffffffffffffffff1673ffffffffffffffffffffffffffffffffffffffff16815260200190815260200160002060050160006101000a81548173ffffffffffffffffffffffffffffffffffffffff021916908373ffffffffffffffffffffffffffffffffffffffff1602179055506115c4600560008573ffffffffffffffffffffffffffffffffffffffff1673ffffffffffffffffffffffffffffffffffffffff1681526020019081526020016000206004015483615692565b600560008573ffffffffffffffffffffffffffffffffffffffff1673ffffffffffffffffffffffffffffffffffffffff168152602001908152602001600020600401819055505b505050565b6000600560008473ffffffffffffffffffffffffffffffffffffffff1673ffffffffffffffffffffffffffffffffffffffff1681526020019081526020016000206006015414156116c9576040517f08c379a00000000000000000000000000000000000000000000000000000000081526004018080602001828103825260108152602001807f4e6f206c6f616e20746f2072657061790000000000000000000000000000000081525060200191505060405180910390fd5b6000600560008473ffffffffffffffffffffffffffffffffffffffff1673ffffffffffffffffffffffffffffffffffffffff16815260200190815260200160002060090160009054906101000a900473ffffffffffffffffffffffffffffffffffffffff16905061173981612d11565b61174283613549565b5060011515600460008373ffffffffffffffffffffffffffffffffffffffff1673ffffffffffffffffffffffffffffffffffffffff16815260200190815260200160002060060160009054906101000a900460ff161515146117a45750611d23565b600260008273ffffffffffffffffffffffffffffffffffffffff1673ffffffffffffffffffffffffffffffffffffffff16815260200190815260200160002060009054906101000a900460ff16806118895750600460008273ffffffffffffffffffffffffffffffffffffffff1673ffffffffffffffffffffffffffffffffffffffff16815260200190815260200160002060050154611886600460008473ffffffffffffffffffffffffffffffffffffffff1673ffffffffffffffffffffffffffffffffffffffff1681526020019081526020016000206003015484615289565b10155b6118de576040517f08c379a0000000000000000000000000000000000000000000000000000000008152600401808060200182810382526027815260200180615dd36027913960400191505060405180910390fd5b60006118e984614e31565b905082811015611961576040517f08c379a000000000000000000000000000000000000000000000000000000000815260040180806020018281038252600f8152602001807f52657061696420746f6f206d756368000000000000000000000000000000000081525060200191505060405180910390fd5b6000600560008673ffffffffffffffffffffffffffffffffffffffff1673ffffffffffffffffffffffffffffffffffffffff16815260200190815260200160002060060154905060008490506000809050828611156119ca578291506119c78683615289565b90505b6119d98583896000600161571a565b8473ffffffffffffffffffffffffffffffffffffffff166323b872dd8830846040518463ffffffff1660e01b8152600401808473ffffffffffffffffffffffffffffffffffffffff1673ffffffffffffffffffffffffffffffffffffffff1681526020018373ffffffffffffffffffffffffffffffffffffffff1673ffffffffffffffffffffffffffffffffffffffff1681526020018281526020019350505050602060405180830381600087803b158015611a9457600080fd5b505af1158015611aa8573d6000803e3d6000fd5b505050506040513d6020811015611abe57600080fd5b810190808051906020019092919050505050611b1c600560008973ffffffffffffffffffffffffffffffffffffffff1673ffffffffffffffffffffffffffffffffffffffff1681526020019081526020016000206006015483615289565b600560008973ffffffffffffffffffffffffffffffffffffffff1673ffffffffffffffffffffffffffffffffffffffff16815260200190815260200160002060060181905550611b6c8487615289565b600560008973ffffffffffffffffffffffffffffffffffffffff1673ffffffffffffffffffffffffffffffffffffffff168152602001908152602001600020600801819055506000809054906101000a900473ffffffffffffffffffffffffffffffffffffffff1673ffffffffffffffffffffffffffffffffffffffff1663f609507b866040518263ffffffff1660e01b8152600401808273ffffffffffffffffffffffffffffffffffffffff1673ffffffffffffffffffffffffffffffffffffffff16815260200191505060206040518083038186803b158015611c5057600080fd5b505afa158015611c64573d6000803e3d6000fd5b505050506040513d6020811015611c7a57600080fd5b8101908080519060200190929190505050600560008973ffffffffffffffffffffffffffffffffffffffff1673ffffffffffffffffffffffffffffffffffffffff16815260200190815260200160002060070181905550611d1d85600460008873ffffffffffffffffffffffffffffffffffffffff1673ffffffffffffffffffffffffffffffffffffffff168152602001908152602001600020600101546154cc565b50505050505b5050565b60026020528060005260406000206000915054906101000a900460ff1681565b6000600560008373ffffffffffffffffffffffffffffffffffffffff1673ffffffffffffffffffffffffffffffffffffffff16815260200190815260200160002060050160009054906101000a900473ffffffffffffffffffffffffffffffffffffffff1690506000600560008473ffffffffffffffffffffffffffffffffffffffff1673ffffffffffffffffffffffffffffffffffffffff16815260200190815260200160002060090160009054906101000a900473ffffffffffffffffffffffffffffffffffffffff169050611e1e81612d11565b611e2783613549565b5060011515600460008373ffffffffffffffffffffffffffffffffffffffff1673ffffffffffffffffffffffffffffffffffffffff16815260200190815260200160002060060160009054906101000a900460ff16151514611e8a575050612427565b611e9382610fc3565b611e9c81610fc3565b6000611ea784614e31565b90506000611ef984600560008873ffffffffffffffffffffffffffffffffffffffff1673ffffffffffffffffffffffffffffffffffffffff1681526020019081526020016000206004015485856159e6565b90506103e88110611f72576040517f08c379a00000000000000000000000000000000000000000000000000000000081526004018080602001828103825260128152602001807f53616665206865616c746820666163746f72000000000000000000000000000081525060200191505060405180910390fd5b8273ffffffffffffffffffffffffffffffffffffffff166323b872dd3330856040518463ffffffff1660e01b8152600401808473ffffffffffffffffffffffffffffffffffffffff1673ffffffffffffffffffffffffffffffffffffffff1681526020018373ffffffffffffffffffffffffffffffffffffffff1673ffffffffffffffffffffffffffffffffffffffff1681526020018281526020019350505050602060405180830381600087803b15801561202d57600080fd5b505af1158015612041573d6000803e3d6000fd5b505050506040513d602081101561205757600080fd5b81019080805190602001909291905050505060006121166120c46120bd85600460008973ffffffffffffffffffffffffffffffffffffffff1673ffffffffffffffffffffffffffffffffffffffff16815260200190815260200160002060000154615aff565b6069615aff565b612111600460008973ffffffffffffffffffffffffffffffffffffffff1673ffffffffffffffffffffffffffffffffffffffff168152602001908152602001600020600001546064615aff565b615b85565b90506000600560008873ffffffffffffffffffffffffffffffffffffffff1673ffffffffffffffffffffffffffffffffffffffff168152602001908152602001600020600601819055506000600560008873ffffffffffffffffffffffffffffffffffffffff1673ffffffffffffffffffffffffffffffffffffffff168152602001908152602001600020600801819055506121f4600560008873ffffffffffffffffffffffffffffffffffffffff1673ffffffffffffffffffffffffffffffffffffffff1681526020019081526020016000206004015482615289565b600560008873ffffffffffffffffffffffffffffffffffffffff1673ffffffffffffffffffffffffffffffffffffffff16815260200190815260200160002060040181905550612286600460008673ffffffffffffffffffffffffffffffffffffffff1673ffffffffffffffffffffffffffffffffffffffff1681526020019081526020016000206003015484615289565b600460008673ffffffffffffffffffffffffffffffffffffffff1673ffffffffffffffffffffffffffffffffffffffff16815260200190815260200160002060030181905550612318600460008773ffffffffffffffffffffffffffffffffffffffff1673ffffffffffffffffffffffffffffffffffffffff1681526020019081526020016000206005015482615289565b600460008773ffffffffffffffffffffffffffffffffffffffff1673ffffffffffffffffffffffffffffffffffffffff168152602001908152602001600020600501819055508473ffffffffffffffffffffffffffffffffffffffff1663a9059cbb33836040518363ffffffff1660e01b8152600401808373ffffffffffffffffffffffffffffffffffffffff1673ffffffffffffffffffffffffffffffffffffffff16815260200182815260200192505050602060405180830381600087803b1580156123e557600080fd5b505af11580156123f9573d6000803e3d6000fd5b505050506040513d602081101561240f57600080fd5b81019080805190602001909291905050505050505050505b50565b60056020528060005260406000206000915090508060000154908060010154908060020154908060030160009054906101000a900473ffffffffffffffffffffffffffffffffffffffff16908060040154908060050160009054906101000a900473ffffffffffffffffffffffffffffffffffffffff16908060060154908060070154908060080154908060090160009054906101000a900473ffffffffffffffffffffffffffffffffffffffff1690508a565b6000600460008373ffffffffffffffffffffffffffffffffffffffff1673ffffffffffffffffffffffffffffffffffffffff168152602001908152602001600020600001541415612597576040517f08c379a000000000000000000000000000000000000000000000000000000000815260040180806020018281038252600d8152602001807f4e6f7420737570706f727465640000000000000000000000000000000000000081525060200191505060405180910390fd5b6125a081612d11565b6125a983613549565b5060011515600460008373ffffffffffffffffffffffffffffffffffffffff1673ffffffffffffffffffffffffffffffffffffffff16815260200190815260200160002060060160009054906101000a900460ff1615151461260a57612d0c565b612656600460008373ffffffffffffffffffffffffffffffffffffffff1673ffffffffffffffffffffffffffffffffffffffff1681526020019081526020016000206003015483615692565b600460008373ffffffffffffffffffffffffffffffffffffffff1673ffffffffffffffffffffffffffffffffffffffff16815260200190815260200160002060040154101561270d576040517f08c379a000000000000000000000000000000000000000000000000000000000815260040180806020018281038252600e8152602001807f4f766572626f72726f77696e677300000000000000000000000000000000000081525060200191505060405180910390fd5b8073ffffffffffffffffffffffffffffffffffffffff16600560008573ffffffffffffffffffffffffffffffffffffffff1673ffffffffffffffffffffffffffffffffffffffff16815260200190815260200160002060090160009054906101000a900473ffffffffffffffffffffffffffffffffffffffff1673ffffffffffffffffffffffffffffffffffffffff1614806127eb57506000600560008573ffffffffffffffffffffffffffffffffffffffff1673ffffffffffffffffffffffffffffffffffffffff16815260200190815260200160002060060154145b61285d576040517f08c379a00000000000000000000000000000000000000000000000000000000081526004018080602001828103825260108152602001807f416c726561647920686173206c6f616e0000000000000000000000000000000081525060200191505060405180910390fd5b6000600560008573ffffffffffffffffffffffffffffffffffffffff1673ffffffffffffffffffffffffffffffffffffffff16815260200190815260200160002060050160009054906101000a900473ffffffffffffffffffffffffffffffffffffffff169050600061295f82600560008873ffffffffffffffffffffffffffffffffffffffff1673ffffffffffffffffffffffffffffffffffffffff168152602001908152602001600020600401548561295a88600560008c73ffffffffffffffffffffffffffffffffffffffff1673ffffffffffffffffffffffffffffffffffffffff16815260200190815260200160002060060154615692565b6159e6565b90506103e881116129bb576040517f08c379a0000000000000000000000000000000000000000000000000000000008152600401808060200182810382526024815260200180615d8a6024913960400191505060405180910390fd5b82600560008773ffffffffffffffffffffffffffffffffffffffff1673ffffffffffffffffffffffffffffffffffffffff16815260200190815260200160002060090160006101000a81548173ffffffffffffffffffffffffffffffffffffffff021916908373ffffffffffffffffffffffffffffffffffffffff160217905550612a88600560008773ffffffffffffffffffffffffffffffffffffffff1673ffffffffffffffffffffffffffffffffffffffff1681526020019081526020016000206006015485615692565b600560008773ffffffffffffffffffffffffffffffffffffffff1673ffffffffffffffffffffffffffffffffffffffff16815260200190815260200160002060060181905550612ae084612adb87614e31565b615692565b600560008773ffffffffffffffffffffffffffffffffffffffff1673ffffffffffffffffffffffffffffffffffffffff16815260200190815260200160002060080181905550612b3383858760016152d3565b612b7f83600460008673ffffffffffffffffffffffffffffffffffffffff1673ffffffffffffffffffffffffffffffffffffffff168152602001908152602001600020600101546154cc565b6000809054906101000a900473ffffffffffffffffffffffffffffffffffffffff1673ffffffffffffffffffffffffffffffffffffffff1663f609507b846040518263ffffffff1660e01b8152600401808273ffffffffffffffffffffffffffffffffffffffff1673ffffffffffffffffffffffffffffffffffffffff16815260200191505060206040518083038186803b158015612c1d57600080fd5b505afa158015612c31573d6000803e3d6000fd5b505050506040513d6020811015612c4757600080fd5b8101908080519060200190929190505050600560008773ffffffffffffffffffffffffffffffffffffffff1673ffffffffffffffffffffffffffffffffffffffff168152602001908152602001600020600701819055507f1db23cf53464267c45324569941e81e23d29c48ff9be2b35af2cc0a2681159d68542604051808373ffffffffffffffffffffffffffffffffffffffff1673ffffffffffffffffffffffffffffffffffffffff1681526020018281526020019250505060405180910390a150505b505050565b600160009054906101000a900473ffffffffffffffffffffffffffffffffffffffff1673ffffffffffffffffffffffffffffffffffffffff16638bb567b4826040518263ffffffff1660e01b8152600401808273ffffffffffffffffffffffffffffffffffffffff1673ffffffffffffffffffffffffffffffffffffffff16815260200191505060206040518083038186803b158015612db057600080fd5b505afa158015612dc4573d6000803e3d6000fd5b505050506040513d6020811015612dda57600080fd5b8101908080519060200190929190505050600460008373ffffffffffffffffffffffffffffffffffffffff1673ffffffffffffffffffffffffffffffffffffffff16815260200190815260200160002060060160006101000a81548160ff02191690831515021790555050565b600080600560008473ffffffffffffffffffffffffffffffffffffffff1673ffffffffffffffffffffffffffffffffffffffff16815260200190815260200160002060030160009054906101000a900473ffffffffffffffffffffffffffffffffffffffff1690506000600560008573ffffffffffffffffffffffffffffffffffffffff1673ffffffffffffffffffffffffffffffffffffffff168152602001908152602001600020600101541415612f04576000915050613077565b61307361302b600560008673ffffffffffffffffffffffffffffffffffffffff1673ffffffffffffffffffffffffffffffffffffffff168152602001908152602001600020600201546000809054906101000a900473ffffffffffffffffffffffffffffffffffffffff1673ffffffffffffffffffffffffffffffffffffffff16630f1f7bc9856040518263ffffffff1660e01b8152600401808273ffffffffffffffffffffffffffffffffffffffff1673ffffffffffffffffffffffffffffffffffffffff16815260200191505060206040518083038186803b158015612feb57600080fd5b505afa158015612fff573d6000803e3d6000fd5b505050506040513d602081101561301557600080fd5b8101908080519060200190929190505050615aff565b600560008673ffffffffffffffffffffffffffffffffffffffff1673ffffffffffffffffffffffffffffffffffffffff16815260200190815260200160002060010154615b85565b9150505b919050565b6000600560008473ffffffffffffffffffffffffffffffffffffffff1673ffffffffffffffffffffffffffffffffffffffff16815260200190815260200160002060050160009054906101000a900473ffffffffffffffffffffffffffffffffffffffff1690506000600560008573ffffffffffffffffffffffffffffffffffffffff1673ffffffffffffffffffffffffffffffffffffffff16815260200190815260200160002060090160009054906101000a900473ffffffffffffffffffffffffffffffffffffffff16905061315382612d11565b61315c81612d11565b61316584613549565b5060011515600460008373ffffffffffffffffffffffffffffffffffffffff1673ffffffffffffffffffffffffffffffffffffffff16815260200190815260200160002060060160009054906101000a900460ff161515146131c8575050613545565b82600560008673ffffffffffffffffffffffffffffffffffffffff1673ffffffffffffffffffffffffffffffffffffffff168152602001908152602001600020600401541015613280576040517f08c379a00000000000000000000000000000000000000000000000000000000081526004018080602001828103825260118152602001807f52656465656d656420746f6f206d75636800000000000000000000000000000081525060200191505060405180910390fd5b60006132e1836132d2600560008973ffffffffffffffffffffffffffffffffffffffff1673ffffffffffffffffffffffffffffffffffffffff1681526020019081526020016000206004015487615289565b846132dc89614e31565b6159e6565b90506103e8811161335a576040517f08c379a000000000000000000000000000000000000000000000000000000000815260040180806020018281038252601e8152602001807f4865616c746820666163746f7220776f756c6420626520746f6f206c6f77000081525060200191505060405180910390fd5b6133a6600560008773ffffffffffffffffffffffffffffffffffffffff1673ffffffffffffffffffffffffffffffffffffffff1681526020019081526020016000206004015485615289565b600560008773ffffffffffffffffffffffffffffffffffffffff1673ffffffffffffffffffffffffffffffffffffffff16815260200190815260200160002060040181905550613438600460008573ffffffffffffffffffffffffffffffffffffffff1673ffffffffffffffffffffffffffffffffffffffff1681526020019081526020016000206005015485615289565b600460008573ffffffffffffffffffffffffffffffffffffffff1673ffffffffffffffffffffffffffffffffffffffff168152602001908152602001600020600501819055508273ffffffffffffffffffffffffffffffffffffffff1663a9059cbb86866040518363ffffffff1660e01b8152600401808373ffffffffffffffffffffffffffffffffffffffff1673ffffffffffffffffffffffffffffffffffffffff16815260200182815260200192505050602060405180830381600087803b15801561350557600080fd5b505af1158015613519573d6000803e3d6000fd5b505050506040513d602081101561352f57600080fd5b8101908080519060200190929190505050505050505b5050565b600080600560008473ffffffffffffffffffffffffffffffffffffffff1673ffffffffffffffffffffffffffffffffffffffff16815260200190815260200160002060090160009054906101000a900473ffffffffffffffffffffffffffffffffffffffff16905060001515600460008373ffffffffffffffffffffffffffffffffffffffff1673ffffffffffffffffffffffffffffffffffffffff16815260200190815260200160002060060160009054906101000a900460ff1615151480156136415750600073ffffffffffffffffffffffffffffffffffffffff168173ffffffffffffffffffffffffffffffffffffffff1614155b15613bc1576136d4600460008373ffffffffffffffffffffffffffffffffffffffff1673ffffffffffffffffffffffffffffffffffffffff16815260200190815260200160002060030154600560008673ffffffffffffffffffffffffffffffffffffffff1673ffffffffffffffffffffffffffffffffffffffff16815260200190815260200160002060060154615289565b600460008373ffffffffffffffffffffffffffffffffffffffff1673ffffffffffffffffffffffffffffffffffffffff168152602001908152602001600020600301819055506000600560008573ffffffffffffffffffffffffffffffffffffffff1673ffffffffffffffffffffffffffffffffffffffff16815260200190815260200160002060050160009054906101000a900473ffffffffffffffffffffffffffffffffffffffff16905061380f600460008373ffffffffffffffffffffffffffffffffffffffff1673ffffffffffffffffffffffffffffffffffffffff16815260200190815260200160002060050154600560008773ffffffffffffffffffffffffffffffffffffffff1673ffffffffffffffffffffffffffffffffffffffff16815260200190815260200160002060040154615289565b600460008373ffffffffffffffffffffffffffffffffffffffff1673ffffffffffffffffffffffffffffffffffffffff16815260200190815260200160002060050181905550604051806101400160405280600560008773ffffffffffffffffffffffffffffffffffffffff1673ffffffffffffffffffffffffffffffffffffffff168152602001908152602001600020600001548152602001600560008773ffffffffffffffffffffffffffffffffffffffff1673ffffffffffffffffffffffffffffffffffffffff168152602001908152602001600020600101548152602001600560008773ffffffffffffffffffffffffffffffffffffffff1673ffffffffffffffffffffffffffffffffffffffff168152602001908152602001600020600201548152602001600560008773ffffffffffffffffffffffffffffffffffffffff1673ffffffffffffffffffffffffffffffffffffffff16815260200190815260200160002060030160009054906101000a900473ffffffffffffffffffffffffffffffffffffffff1673ffffffffffffffffffffffffffffffffffffffff16815260200160008152602001600073ffffffffffffffffffffffffffffffffffffffff168152602001600081526020016000815260200160008152602001600073ffffffffffffffffffffffffffffffffffffffff16815250600560008673ffffffffffffffffffffffffffffffffffffffff1673ffffffffffffffffffffffffffffffffffffffff16815260200190815260200160002060008201518160000155602082015181600101556040820151816002015560608201518160030160006101000a81548173ffffffffffffffffffffffffffffffffffffffff021916908373ffffffffffffffffffffffffffffffffffffffff1602179055506080820151816004015560a08201518160050160006101000a81548173ffffffffffffffffffffffffffffffffffffffff021916908373ffffffffffffffffffffffffffffffffffffffff16021790555060c0820151816006015560e0820151816007015561010082015181600801556101208201518160090160006101000a81548173ffffffffffffffffffffffffffffffffffffffff021916908373ffffffffffffffffffffffffffffffffffffffff160217905550905050613bb682600460008573ffffffffffffffffffffffffffffffffffffffff1673ffffffffffffffffffffffffffffffffffffffff168152602001908152602001600020600101546154cc565b600192505050613bc7565b60009150505b919050565b60046020528060005260406000206000915090508060000154908060010154908060020154908060030154908060040154908060050154908060060160009054906101000a900460ff16905087565b613c2489615bcf565b613c96576040517f08c379a000000000000000000000000000000000000000000000000000000000815260040180806020018281038252600e8152602001807f4e6f74206120636f6e747261637400000000000000000000000000000000000081525060200191505060405180910390fd5b6000809054906101000a900473ffffffffffffffffffffffffffffffffffffffff1673ffffffffffffffffffffffffffffffffffffffff16638306e9538a8a8a8a8a8a8a6040518863ffffffff1660e01b8152600401808873ffffffffffffffffffffffffffffffffffffffff1673ffffffffffffffffffffffffffffffffffffffff168152602001878152602001868152602001858152602001848152602001838152602001828152602001975050505050505050600060405180830381600087803b158015613d6657600080fd5b505af1158015613d7a573d6000803e3d6000fd5b505050506040518060e001604052808381526020016000815260200188815260200160008152602001600081526020016000815260200160011515815250600460008b73ffffffffffffffffffffffffffffffffffffffff1673ffffffffffffffffffffffffffffffffffffffff168152602001908152602001600020600082015181600001556020820151816001015560408201518160020155606082015181600301556080820151816004015560a0820151816005015560c08201518160060160006101000a81548160ff02191690831515021790555090505080600260008b73ffffffffffffffffffffffffffffffffffffffff1673ffffffffffffffffffffffffffffffffffffffff16815260200190815260200160002060006101000a81548160ff021916908315150217905550505050505050505050565b6000600560008473ffffffffffffffffffffffffffffffffffffffff1673ffffffffffffffffffffffffffffffffffffffff16815260200190815260200160002060030160009054906101000a900473ffffffffffffffffffffffffffffffffffffffff1690506000600460008373ffffffffffffffffffffffffffffffffffffffff1673ffffffffffffffffffffffffffffffffffffffff168152602001908152602001600020600001541415613fd8576040517f08c379a000000000000000000000000000000000000000000000000000000000815260040180806020018281038252600d8152602001807f4e6f7420737570706f727465640000000000000000000000000000000000000081525060200191505060405180910390fd5b613fe181612d11565b613fea83613549565b5060011515600460008373ffffffffffffffffffffffffffffffffffffffff1673ffffffffffffffffffffffffffffffffffffffff16815260200190815260200160002060060160009054906101000a900460ff1615151461404c57506148c7565b600260008273ffffffffffffffffffffffffffffffffffffffff1673ffffffffffffffffffffffffffffffffffffffff16815260200190815260200160002060009054906101000a900460ff16806141315750600460008273ffffffffffffffffffffffffffffffffffffffff1673ffffffffffffffffffffffffffffffffffffffff1681526020019081526020016000206003015461412e600460008473ffffffffffffffffffffffffffffffffffffffff1673ffffffffffffffffffffffffffffffffffffffff1681526020019081526020016000206005015484615692565b11155b614186576040517f08c379a0000000000000000000000000000000000000000000000000000000008152600401808060200182810382526027815260200180615dd36027913960400191505060405180910390fd5b81600560008573ffffffffffffffffffffffffffffffffffffffff1673ffffffffffffffffffffffffffffffffffffffff16815260200190815260200160002060000154101561423e576040517f08c379a00000000000000000000000000000000000000000000000000000000081526004018080602001828103825260158152602001807f4465706f736974206973206e6f7420656e6f756768000000000000000000000081525060200191505060405180910390fd5b600073ffffffffffffffffffffffffffffffffffffffff16600560008573ffffffffffffffffffffffffffffffffffffffff1673ffffffffffffffffffffffffffffffffffffffff16815260200190815260200160002060050160009054906101000a900473ffffffffffffffffffffffffffffffffffffffff1673ffffffffffffffffffffffffffffffffffffffff16148061440157508073ffffffffffffffffffffffffffffffffffffffff16600560008573ffffffffffffffffffffffffffffffffffffffff1673ffffffffffffffffffffffffffffffffffffffff16815260200190815260200160002060050160009054906101000a900473ffffffffffffffffffffffffffffffffffffffff1673ffffffffffffffffffffffffffffffffffffffff1614801561440057508073ffffffffffffffffffffffffffffffffffffffff16600560008573ffffffffffffffffffffffffffffffffffffffff1673ffffffffffffffffffffffffffffffffffffffff16815260200190815260200160002060030160009054906101000a900473ffffffffffffffffffffffffffffffffffffffff1673ffffffffffffffffffffffffffffffffffffffff16145b5b614456576040517f08c379a0000000000000000000000000000000000000000000000000000000008152600401808060200182810382526025815260200180615dae6025913960400191505060405180910390fd5b600460008273ffffffffffffffffffffffffffffffffffffffff1673ffffffffffffffffffffffffffffffffffffffff168152602001908152602001600020600301546144e5600460008473ffffffffffffffffffffffffffffffffffffffff1673ffffffffffffffffffffffffffffffffffffffff1681526020019081526020016000206004015484615289565b11614558576040517f08c379a00000000000000000000000000000000000000000000000000000000081526004018080602001828103825260168152602001807f496d706c696573206f766572626f72726f77696e67730000000000000000000081525060200191505060405180910390fd5b6145a4600560008573ffffffffffffffffffffffffffffffffffffffff1673ffffffffffffffffffffffffffffffffffffffff1681526020019081526020016000206000015483615289565b600560008573ffffffffffffffffffffffffffffffffffffffff1673ffffffffffffffffffffffffffffffffffffffff168152602001908152602001600020600001819055506145fc6145f684612e47565b83615289565b600560008573ffffffffffffffffffffffffffffffffffffffff1673ffffffffffffffffffffffffffffffffffffffff1681526020019081526020016000206002018190555080600560008573ffffffffffffffffffffffffffffffffffffffff1673ffffffffffffffffffffffffffffffffffffffff16815260200190815260200160002060050160006101000a81548173ffffffffffffffffffffffffffffffffffffffff021916908373ffffffffffffffffffffffffffffffffffffffff16021790555061470f600460008373ffffffffffffffffffffffffffffffffffffffff1673ffffffffffffffffffffffffffffffffffffffff1681526020019081526020016000206005015483615692565b600460008373ffffffffffffffffffffffffffffffffffffffff1673ffffffffffffffffffffffffffffffffffffffff168152602001908152602001600020600501819055506147a1600460008373ffffffffffffffffffffffffffffffffffffffff1673ffffffffffffffffffffffffffffffffffffffff1681526020019081526020016000206004015483615289565b600460008373ffffffffffffffffffffffffffffffffffffffff1673ffffffffffffffffffffffffffffffffffffffff1681526020019081526020016000206004018190555061483381600460008473ffffffffffffffffffffffffffffffffffffffff1673ffffffffffffffffffffffffffffffffffffffff168152602001908152602001600020600101546154cc565b61487f600560008573ffffffffffffffffffffffffffffffffffffffff1673ffffffffffffffffffffffffffffffffffffffff1681526020019081526020016000206004015483615692565b600560008573ffffffffffffffffffffffffffffffffffffffff1673ffffffffffffffffffffffffffffffffffffffff16815260200190815260200160002060040181905550505b5050565b8073ffffffffffffffffffffffffffffffffffffffff16600560008573ffffffffffffffffffffffffffffffffffffffff1673ffffffffffffffffffffffffffffffffffffffff16815260200190815260200160002060030160009054906101000a900473ffffffffffffffffffffffffffffffffffffffff1673ffffffffffffffffffffffffffffffffffffffff1614806149a957506000600560008573ffffffffffffffffffffffffffffffffffffffff1673ffffffffffffffffffffffffffffffffffffffff16815260200190815260200160002060000154145b614a1b576040517f08c379a00000000000000000000000000000000000000000000000000000000081526004018080602001828103825260158152602001807f416c7265616479206861732061206465706f736974000000000000000000000081525060200191505060405180910390fd5b6000600460008373ffffffffffffffffffffffffffffffffffffffff1673ffffffffffffffffffffffffffffffffffffffff168152602001908152602001600020600001541415614ad4576040517f08c379a000000000000000000000000000000000000000000000000000000000815260040180806020018281038252600d8152602001807f4e6f7420737570706f727465640000000000000000000000000000000000000081525060200191505060405180910390fd5b614add81612d11565b614ae683613549565b5060011515600460008373ffffffffffffffffffffffffffffffffffffffff1673ffffffffffffffffffffffffffffffffffffffff16815260200190815260200160002060060160009054906101000a900460ff16151514614b4757614e2c565b614b5581838560008061571a565b614ba181600460008473ffffffffffffffffffffffffffffffffffffffff1673ffffffffffffffffffffffffffffffffffffffff168152602001908152602001600020600101546154cc565b80600560008573ffffffffffffffffffffffffffffffffffffffff1673ffffffffffffffffffffffffffffffffffffffff16815260200190815260200160002060030160006101000a81548173ffffffffffffffffffffffffffffffffffffffff021916908373ffffffffffffffffffffffffffffffffffffffff160217905550614c6e82600560008673ffffffffffffffffffffffffffffffffffffffff1673ffffffffffffffffffffffffffffffffffffffff16815260200190815260200160002060000154615692565b600560008573ffffffffffffffffffffffffffffffffffffffff1673ffffffffffffffffffffffffffffffffffffffff16815260200190815260200160002060000181905550614cc682614cc185612e47565b615692565b600560008573ffffffffffffffffffffffffffffffffffffffff1673ffffffffffffffffffffffffffffffffffffffff168152602001908152602001600020600201819055506000809054906101000a900473ffffffffffffffffffffffffffffffffffffffff1673ffffffffffffffffffffffffffffffffffffffff16630f1f7bc9826040518263ffffffff1660e01b8152600401808273ffffffffffffffffffffffffffffffffffffffff1673ffffffffffffffffffffffffffffffffffffffff16815260200191505060206040518083038186803b158015614daa57600080fd5b505afa158015614dbe573d6000803e3d6000fd5b505050506040513d6020811015614dd457600080fd5b8101908080519060200190929190505050600560008573ffffffffffffffffffffffffffffffffffffffff1673ffffffffffffffffffffffffffffffffffffffff168152602001908152602001600020600101819055505b505050565b600080600560008473ffffffffffffffffffffffffffffffffffffffff1673ffffffffffffffffffffffffffffffffffffffff16815260200190815260200160002060090160009054906101000a900473ffffffffffffffffffffffffffffffffffffffff1690506000600560008573ffffffffffffffffffffffffffffffffffffffff1673ffffffffffffffffffffffffffffffffffffffff168152602001908152602001600020600701541415614eee576000915050615061565b61505d615015600560008673ffffffffffffffffffffffffffffffffffffffff1673ffffffffffffffffffffffffffffffffffffffff168152602001908152602001600020600801546000809054906101000a900473ffffffffffffffffffffffffffffffffffffffff1673ffffffffffffffffffffffffffffffffffffffff1663f609507b856040518263ffffffff1660e01b8152600401808273ffffffffffffffffffffffffffffffffffffffff1673ffffffffffffffffffffffffffffffffffffffff16815260200191505060206040518083038186803b158015614fd557600080fd5b505afa158015614fe9573d6000803e3d6000fd5b505050506040513d6020811015614fff57600080fd5b8101908080519060200190929190505050615aff565b600560008673ffffffffffffffffffffffffffffffffffffffff1673ffffffffffffffffffffffffffffffffffffffff16815260200190815260200160002060070154615b85565b9150505b919050565b600080600560008473ffffffffffffffffffffffffffffffffffffffff1673ffffffffffffffffffffffffffffffffffffffff16815260200190815260200160002060050160009054906101000a900473ffffffffffffffffffffffffffffffffffffffff1690506000600560008573ffffffffffffffffffffffffffffffffffffffff1673ffffffffffffffffffffffffffffffffffffffff16815260200190815260200160002060090160009054906101000a900473ffffffffffffffffffffffffffffffffffffffff16905060006152106151c8600460008673ffffffffffffffffffffffffffffffffffffffff1673ffffffffffffffffffffffffffffffffffffffff16815260200190815260200160002060020154600460008773ffffffffffffffffffffffffffffffffffffffff1673ffffffffffffffffffffffffffffffffffffffff16815260200190815260200160002060000154615aff565b600560008873ffffffffffffffffffffffffffffffffffffffff1673ffffffffffffffffffffffffffffffffffffffff16815260200190815260200160002060040154615aff565b9050600061521d86614e31565b905061527e61522d83600a615aff565b61527983600460008873ffffffffffffffffffffffffffffffffffffffff1673ffffffffffffffffffffffffffffffffffffffff16815260200190815260200160002060000154615aff565b615b85565b945050505050919050565b60006152cb83836040518060400160405280601e81526020017f536166654d6174683a207375627472616374696f6e206f766572666c6f770000815250615be2565b905092915050565b801561537057615325600460008673ffffffffffffffffffffffffffffffffffffffff1673ffffffffffffffffffffffffffffffffffffffff1681526020019081526020016000206003015484615692565b600460008673ffffffffffffffffffffffffffffffffffffffff1673ffffffffffffffffffffffffffffffffffffffff16815260200190815260200160002060030181905550615403565b6153bc600460008673ffffffffffffffffffffffffffffffffffffffff1673ffffffffffffffffffffffffffffffffffffffff1681526020019081526020016000206004015484615289565b600460008673ffffffffffffffffffffffffffffffffffffffff1673ffffffffffffffffffffffffffffffffffffffff168152602001908152602001600020600401819055505b8373ffffffffffffffffffffffffffffffffffffffff1663a9059cbb83856040518363ffffffff1660e01b8152600401808373ffffffffffffffffffffffffffffffffffffffff1673ffffffffffffffffffffffffffffffffffffffff16815260200182815260200192505050602060405180830381600087803b15801561548a57600080fd5b505af115801561549e573d6000803e3d6000fd5b505050506040513d60208110156154b457600080fd5b81019080805190602001909291905050505050505050565b6000809054906101000a900473ffffffffffffffffffffffffffffffffffffffff1673ffffffffffffffffffffffffffffffffffffffff16633a0c6c2683836040518363ffffffff1660e01b8152600401808373ffffffffffffffffffffffffffffffffffffffff1673ffffffffffffffffffffffffffffffffffffffff16815260200182815260200192505050602060405180830381600087803b15801561557457600080fd5b505af1158015615588573d6000803e3d6000fd5b505050506040513d602081101561559e57600080fd5b810190808051906020019092919050505050615648615600600460008573ffffffffffffffffffffffffffffffffffffffff1673ffffffffffffffffffffffffffffffffffffffff168152602001908152602001600020600301546064615aff565b600460008573ffffffffffffffffffffffffffffffffffffffff1673ffffffffffffffffffffffffffffffffffffffff16815260200190815260200160002060040154615b85565b600460008473ffffffffffffffffffffffffffffffffffffffff1673ffffffffffffffffffffffffffffffffffffffff168152602001908152602001600020600101819055505050565b600080828401905083811015615710576040517f08c379a000000000000000000000000000000000000000000000000000000000815260040180806020018281038252601b8152602001807f536166654d6174683a206164646974696f6e206f766572666c6f77000000000081525060200191505060405180910390fd5b8091505092915050565b8473ffffffffffffffffffffffffffffffffffffffff166323b872dd8430876040518463ffffffff1660e01b8152600401808473ffffffffffffffffffffffffffffffffffffffff1673ffffffffffffffffffffffffffffffffffffffff1681526020018373ffffffffffffffffffffffffffffffffffffffff1673ffffffffffffffffffffffffffffffffffffffff1681526020018281526020019350505050602060405180830381600087803b1580156157d557600080fd5b505af11580156157e9573d6000803e3d6000fd5b505050506040513d60208110156157ff57600080fd5b81019080805190602001909291905050505081156158ae5761586384600460008873ffffffffffffffffffffffffffffffffffffffff1673ffffffffffffffffffffffffffffffffffffffff16815260200190815260200160002060050154615692565b600460008773ffffffffffffffffffffffffffffffffffffffff1673ffffffffffffffffffffffffffffffffffffffff168152602001908152602001600020600501819055506159df565b801561594b57615900600460008773ffffffffffffffffffffffffffffffffffffffff1673ffffffffffffffffffffffffffffffffffffffff1681526020019081526020016000206003015485615289565b600460008773ffffffffffffffffffffffffffffffffffffffff1673ffffffffffffffffffffffffffffffffffffffff168152602001908152602001600020600301819055506159de565b615997600460008773ffffffffffffffffffffffffffffffffffffffff1673ffffffffffffffffffffffffffffffffffffffff1681526020019081526020016000206004015485615692565b600460008773ffffffffffffffffffffffffffffffffffffffff1673ffffffffffffffffffffffffffffffffffffffff168152602001908152602001600020600401819055505b5b5050505050565b60006159f185610fc3565b6159fa83610fc3565b6000615a93615a8d600460008973ffffffffffffffffffffffffffffffffffffffff1673ffffffffffffffffffffffffffffffffffffffff16815260200190815260200160002060020154600460008a73ffffffffffffffffffffffffffffffffffffffff1673ffffffffffffffffffffffffffffffffffffffff16815260200190815260200160002060000154615aff565b86615aff565b9050615af4615aa382600a615aff565b615aef85600460008973ffffffffffffffffffffffffffffffffffffffff1673ffffffffffffffffffffffffffffffffffffffff16815260200190815260200160002060000154615aff565b615b85565b915050949350505050565b600080831415615b125760009050615b7f565b6000828402905082848281615b2357fe5b0414615b7a576040517f08c379a0000000000000000000000000000000000000000000000000000000008152600401808060200182810382526021815260200180615d696021913960400191505060405180910390fd5b809150505b92915050565b6000615bc783836040518060400160405280601a81526020017f536166654d6174683a206469766973696f6e206279207a65726f000000000000815250615ca2565b905092915050565b600080823b905060008111915050919050565b6000838311158290615c8f576040517f08c379a00000000000000000000000000000000000000000000000000000000081526004018080602001828103825283818151815260200191508051906020019080838360005b83811015615c54578082015181840152602081019050615c39565b50505050905090810190601f168015615c815780820380516001836020036101000a031916815260200191505b509250505060405180910390fd5b5060008385039050809150509392505050565b60008083118290615d4e576040517f08c379a00000000000000000000000000000000000000000000000000000000081526004018080602001828103825283818151815260200191508051906020019080838360005b83811015615d13578082015181840152602081019050615cf8565b50505050905090810190601f168015615d405780820380516001836020036101000a031916815260200191505b509250505060405180910390fd5b506000838581615d5a57fe5b04905080915050939250505056fe536166654d6174683a206d756c7469706c69636174696f6e206f766572666c6f7743616e6e6f7420626f72726f77206f76657220636f6c6c61746572616c20666163746f72436f6c6c61746572616c20746f6b656e206973206e6f74206465706f73697420746f6b656e546f6b656e20626f72726f776564206c657373207468616e20636f6c6c61746572616c697a6564a26469706673582212208358a394b59e7ad383908d0c3ae4442896320f6235e3f7247fd306c6648aaa4e64736f6c63430006020033",
  "source": "// SPDX-License-Identifier: MIT\npragma solidity >=0.4.22 <0.8.0;\nimport \"./ERC20.sol\";\nimport \"./Address.sol\";\nimport \"./InterestVariables.sol\";\nimport \"./Exchange.sol\";\nimport './SafeMath.sol';\n\ncontract LiquidityPool {\n\n  InterestVariables private ivar;\n  Exchange private exchange;\n  mapping (address => bool) public trustedTkns;\n\n\n  constructor(address ivar_add, address exchange_add) public {\n    ivar = InterestVariables(ivar_add);\n    exchange = Exchange(exchange_add);\n    owner = msg.sender;\n  }\n\n  address private owner;\n\n  mapping (address => TokenCoreData) public tokensData;\n  mapping (address => UserBalance) public usersBalance;\n\n  struct UserBalance{\n    uint depositedAmount;\n    uint init_interest_deposit;\n    uint cummulated_ir_deposit;\n    address tokenDeposited;\n    uint collateralAmount;\n    address tokenCollateralised;\n    uint borrowedAmount;\n    uint init_interest_borrow;\n    uint cummulated_ir_borrow;\n    address tokenBorrowed;\n  }\n\n  struct TokenCoreData{\n    uint price;\n    uint utilisation;\n    uint collateral_factor;\n    uint totalBorrowed;\n    uint totalDeposited;\n    uint totalCollateral;\n    bool exchangeable;\n  }\n\n  modifier onlyOwner() {\n      require(msg.sender == owner, \"OWLP\");\n      _;\n  }\n\n  event Loan(\n    address user,\n    uint timestamp\n  );\n\n\n  // create token with all data\n  function createToken(address _token_address,\n    uint _optimal_utilisation,\n    uint _collateral_factor,\n    uint _base_rate,\n    uint _slope1,\n    uint _slope2,\n    uint _spread,\n    uint _price,\n    bool truested) public{\n      require(Address.isContract(_token_address), 'Not a contract');\n      ivar.createToken(_token_address, _optimal_utilisation, _collateral_factor, _base_rate, _slope1, _slope2, _spread);\n      tokensData[_token_address] = TokenCoreData(_price, 0, _collateral_factor, 0, 0, 0, true);\n      trustedTkns[_token_address] = truested;\n  }\n\n  // discards all loan details when borrowed token is NOT exchangable anymore\n  function tryDiscardLoan(address user) public returns (bool){\n    address tokenBorrowed = usersBalance[user].tokenBorrowed;\n    if(tokensData[tokenBorrowed].exchangeable == false && tokenBorrowed != address(0)){\n      // delete from reserves registers\n      tokensData[tokenBorrowed].totalBorrowed = SafeMath.sub(tokensData[tokenBorrowed].totalBorrowed, usersBalance[user].borrowedAmount);\n      address tokenColl = usersBalance[user].tokenCollateralised;\n      tokensData[tokenColl].totalCollateral = SafeMath.sub(tokensData[tokenColl].totalCollateral, usersBalance[user].collateralAmount);\n      // delete user's loan and collateral\n      usersBalance[user] = UserBalance(usersBalance[user].depositedAmount, usersBalance[user].init_interest_deposit, usersBalance[user].cummulated_ir_deposit, usersBalance[user].tokenDeposited, 0, address(0), 0, 0, 0, address(0));\n      // compound interest and update utilisation for the borrowed token\n      updateInterestRate(tokenBorrowed, tokensData[tokenBorrowed].utilisation);\n      return true;\n    }\n    return false;\n  }\n\n  // update prices from the exchange\n  function updateTokenPrice(address token) public{\n    tokensData[token].price = exchange.getPrice(token);\n  }\n\n  function checkExchangeability(address token) public{\n    tokensData[token].exchangeable = exchange.isExchangeable(token);\n  }\n\n  // cummulate interest rate for the token\n  function updateInterestRate(address token, uint oldUtilisationRate) internal{\n    ivar.compoundIR(token, oldUtilisationRate);\n    // if not updated means that the compounded IR exceeds uint\n    tokensData[token].utilisation = SafeMath.div(SafeMath.mul(tokensData[token].totalBorrowed, 100), tokensData[token].totalDeposited) ;\n  }\n\n  // add to liquidity pool of token\n  function addToReserves(address tokenId, uint amount, address payable user, bool isCollateral, bool isRepayment) internal{\n    ERC20(tokenId).transferFrom(user, address(this), amount);\n    if(isCollateral){\n      tokensData[tokenId].totalCollateral = SafeMath.add(amount, tokensData[tokenId].totalCollateral);\n    }else if(isRepayment){\n      tokensData[tokenId].totalBorrowed = SafeMath.sub(tokensData[tokenId].totalBorrowed, amount);\n    }else{\n      tokensData[tokenId].totalDeposited = SafeMath.add(tokensData[tokenId].totalDeposited, amount);\n    }\n  }\n\n  // take out from liquidity pool of token\n  function takeFromReserves(address tokenId, uint amount, address payable user, bool isLoan) internal{\n    if(isLoan){\n      tokensData[tokenId].totalBorrowed = SafeMath.add(tokensData[tokenId].totalBorrowed, amount);\n    }else{ //redeeming\n      tokensData[tokenId].totalDeposited = SafeMath.sub(tokensData[tokenId].totalDeposited, amount);\n    }\n    ERC20(tokenId).transfer(user,  amount);\n  }\n\n  function deposit(address payable user, uint amount, address tokenId) public{\n    //make sure users only have deposits in one token\n    require(usersBalance[user].tokenDeposited == tokenId || usersBalance[user].depositedAmount == 0, \"Already has a deposit\");\n    //make sure token is supported\n    require(tokensData[tokenId].price != 0, \"Not supported\");\n\n    // make sure token is exchangeable\n    checkExchangeability(tokenId);\n    tryDiscardLoan(user);\n    if(tokensData[tokenId].exchangeable != true){\n      return;\n    }\n\n    addToReserves(tokenId, amount, user, false, false);\n    updateInterestRate(tokenId,tokensData[tokenId].utilisation);\n    usersBalance[user].tokenDeposited = tokenId;\n    usersBalance[user].depositedAmount = SafeMath.add(amount, usersBalance[user].depositedAmount);\n    usersBalance[user].cummulated_ir_deposit = SafeMath.add(amount, getCummulatedInterestDeposit(user));\n    usersBalance[user].init_interest_deposit = ivar.getIRDepositTotalCummulation(tokenId);\n  }\n\n  function borrow(address payable user, uint amount, address tokenId) public{\n    //make sure token is supported\n    require(tokensData[tokenId].price != 0, \"Not supported\");\n\n    // make sure token is exchangeable\n    checkExchangeability(tokenId); // call at exchange 5\n    tryDiscardLoan(user);\n    if(tokensData[tokenId].exchangeable != true){\n      return;\n    }\n\n    // make sure total borrow plus the amount to be borrowed is less than totalDeposited\n    require(tokensData[tokenId].totalDeposited >= SafeMath.add(tokensData[tokenId].totalBorrowed, amount), \"Overborrowings\");\n    //make sure users only have borrowings in one token\n    require(usersBalance[user].tokenBorrowed == tokenId || usersBalance[user].borrowedAmount == 0, \"Already has loan\");\n    // make sure it borrowes less than the collateral _collateral_factor\n    address collateralToken = usersBalance[user].tokenCollateralised;\n    uint healthFactorAfter = getHealthFactorUnsafe(collateralToken, usersBalance[user].collateralAmount, tokenId, SafeMath.add(amount, usersBalance[user].borrowedAmount));\n    require(healthFactorAfter > 1000, \"Cannot borrow over collateral factor\");\n\n    usersBalance[user].tokenBorrowed = tokenId;\n    usersBalance[user].borrowedAmount = SafeMath.add(usersBalance[user].borrowedAmount, amount);\n    usersBalance[user].cummulated_ir_borrow = SafeMath.add(amount, getCummulatedInterestLoan(user));\n    takeFromReserves(tokenId, amount, user, true); // call at ETh a9\n    updateInterestRate(tokenId,tokensData[tokenId].utilisation); // call at IR cb\n    usersBalance[user].init_interest_borrow = ivar.getIRBorrowTotalCummulation(tokenId); \n    emit Loan(user, now);\n  }\n\n  function depositCollateral(address payable user, uint amount, address tokenId) public{\n    //make sure users only have deposits in one token\n    require(usersBalance[user].tokenCollateralised == address(0) || usersBalance[user].tokenCollateralised == tokenId, \"Already has collateral\");\n    //make sure token is supported\n    require(tokensData[tokenId].price != 0, \"Not supported\");\n\n    // make sure token is exchangeable\n    checkExchangeability(tokenId);\n    tryDiscardLoan(user);\n    if(tokensData[tokenId].exchangeable != true){\n      return;\n    }\n\n    require(trustedTkns[tokenId] || SafeMath.add(tokensData[tokenId].totalCollateral, amount) <= tokensData[tokenId].totalBorrowed, \"Token borrowed less than collateralized\");\n\n    addToReserves(tokenId, amount, user, true, false);\n    usersBalance[user].tokenCollateralised = tokenId;\n    usersBalance[user].collateralAmount = SafeMath.add(usersBalance[user].collateralAmount, amount);\n  }\n\n  // Currently switch from deposit to collaterall can only be done from the principle depositedAmount\n  // not from the accumulated interest\n  function switchDepositToCollateral(address payable user, uint amount) public{\n    address tokenId = usersBalance[user].tokenDeposited;\n    //make sure token is supported\n    require(tokensData[tokenId].price != 0, \"Not supported\");\n\n    // make sure token is exchangeable\n    checkExchangeability(tokenId);\n    tryDiscardLoan(user);\n    if(tokensData[tokenId].exchangeable != true){\n      return;\n    }\n    require(trustedTkns[tokenId] || SafeMath.add(tokensData[tokenId].totalCollateral, amount) <= tokensData[tokenId].totalBorrowed, \"Token borrowed less than collateralized\");\n    // make sure deposited is not zero\n    require(usersBalance[user].depositedAmount >= amount, \"Deposit is not enough\");\n    // make sure collateral is not in another token\n    require(usersBalance[user].tokenCollateralised == address(0) || (usersBalance[user].tokenCollateralised == tokenId && usersBalance[user].tokenDeposited == tokenId), \"Collateral token is not deposit token\");\n    // make sure subtracting amount from deposits does not make the total deposited less than total borrow\n    require(SafeMath.sub(tokensData[tokenId].totalDeposited,amount) > tokensData[tokenId].totalBorrowed, \"Implies overborrowings\");\n\n    usersBalance[user].depositedAmount = SafeMath.sub(usersBalance[user].depositedAmount, amount);\n    usersBalance[user].cummulated_ir_deposit = SafeMath.sub(getCummulatedInterestDeposit(user), amount);\n\n    usersBalance[user].tokenCollateralised = tokenId;\n    tokensData[tokenId].totalCollateral = SafeMath.add(tokensData[tokenId].totalCollateral, amount); // increase reserves collateral\n    tokensData[tokenId].totalDeposited = SafeMath.sub(tokensData[tokenId].totalDeposited, amount); // decrease reserves deposits\n    updateInterestRate(tokenId,tokensData[tokenId].utilisation);\n    usersBalance[user].collateralAmount = SafeMath.add(usersBalance[user].collateralAmount, amount);\n  }\n\n  function repay(address payable user, uint amount) public{\n    // check if there is something to repay\n    require(usersBalance[user].borrowedAmount != 0, \"No loan to repay\");\n\n    address token = usersBalance[user].tokenBorrowed;\n\n    // make sure token is exchangeable\n    checkExchangeability(token);\n    tryDiscardLoan(user);\n    if(tokensData[token].exchangeable != true){\n      return;\n    }\n\n    require(trustedTkns[token] || SafeMath.sub(tokensData[token].totalBorrowed, amount) >= tokensData[token].totalCollateral, \"Token borrowed less than collateralized\");\n    // check if given amount does not exceed the owed amount\n    uint cummulatedInterest = getCummulatedInterestLoan(user); // cummulated amount owed\n    require(cummulatedInterest >= amount, \"Repaid too much\");\n\n    // what is not subtracted from the totalBorrowed of reserves is extra\n    uint borrowedAmount = usersBalance[user].borrowedAmount;\n    uint toPool = amount;\n    uint extra = 0;\n    if(amount > borrowedAmount){\n      toPool = borrowedAmount;\n      extra = SafeMath.sub(amount,toPool);\n    }\n\n    // repay what was borrowed to reserves\n    addToReserves(token, toPool, user,false, true);\n    // give interest payment (extra) to reserves as well\n    ERC20(token).transferFrom(user, address(this), extra);\n\n    // reinitialise initial interest\n    usersBalance[user].borrowedAmount = SafeMath.sub(usersBalance[user].borrowedAmount, toPool);\n    usersBalance[user].cummulated_ir_borrow = SafeMath.sub(cummulatedInterest ,amount);\n    usersBalance[user].init_interest_borrow = ivar.getIRBorrowTotalCummulation(token);\n    // modify utilisation rate and interest\n    updateInterestRate(token, tokensData[token].utilisation);\n  }\n\n  function redeem(address payable user, uint amount) public{\n\n    address token = usersBalance[user].tokenDeposited;\n\n    // chack exchageability but do not require token to be exchangable\n    checkExchangeability(token);\n    tryDiscardLoan(user);\n\n    // check if given amount does not exceed the deposit+interest\n    uint cummulatedInterest = getCummulatedInterestDeposit(user); // cummulated amount owed\n    require(cummulatedInterest >= amount, \"Redeemed too much\");\n\n    // split the amount requested\n    uint depositedAmount = usersBalance[user].depositedAmount;\n    uint fromPool = amount;\n    uint extra = 0;\n    if(amount > depositedAmount){\n      fromPool = depositedAmount;\n      extra = SafeMath.sub(amount, depositedAmount);\n    }\n\n    // check if enough liquidity in reserves\n    require( SafeMath.sub(tokensData[token].totalDeposited, fromPool) >= tokensData[token].totalBorrowed, \"Implies overborrowing\");\n    // check for extra liquidity obtained from interest rate payments on loans\n    uint reservesBalance = ERC20(token).balanceOf(address(this));\n    // if extra redeemed, check if enough in extra reserves\n    require(extra == 0 || extra < SafeMath.sub(SafeMath.sub(reservesBalance, tokensData[token].totalDeposited),tokensData[token].totalCollateral), \"Not enough extra reserves\");\n\n    // update user's deposit variables\n    usersBalance[user].depositedAmount = SafeMath.sub(usersBalance[user].depositedAmount, fromPool);\n    usersBalance[user].cummulated_ir_deposit = SafeMath.sub(cummulatedInterest, amount);\n    usersBalance[user].init_interest_deposit = ivar.getIRDepositTotalCummulation(token);\n\n    // give from reserves\n    takeFromReserves(token,fromPool,user,false);\n    // transfer extra\n    ERC20(token).transfer(user,extra);\n    // modify utilisation rate and interest\n    updateInterestRate(token, tokensData[token].utilisation);\n  }\n\n  function redeemCollateral(address payable user, uint amount) public{\n    // chack exchageability but do not require token to be exchangable\n    address collateralToken = usersBalance[user].tokenCollateralised;\n    address borrowedToken = usersBalance[user].tokenBorrowed;\n    checkExchangeability(collateralToken);\n    checkExchangeability(borrowedToken);\n    tryDiscardLoan(user);\n    if(tokensData[borrowedToken].exchangeable != true){\n      return;\n    }\n\n    // check if there is enough to redeem\n    require(usersBalance[user].collateralAmount >= amount,\"Redeemed too much\");\n    // check if redeeming would not affect the health factor\n    uint healthFactorAfter = getHealthFactorUnsafe(collateralToken, SafeMath.sub(usersBalance[user].collateralAmount, amount), borrowedToken, getCummulatedInterestLoan(user));\n    require( healthFactorAfter > 1000, \"Health factor would be too low\");\n    // do changes in user's balances\n    usersBalance[user].collateralAmount = SafeMath.sub(usersBalance[user].collateralAmount, amount);\n    // do changes in reserves data\n    tokensData[collateralToken].totalCollateral = SafeMath.sub(tokensData[collateralToken].totalCollateral, amount);\n    ERC20(collateralToken).transfer(user,amount);\n  }\n\n  // get value of deposit with cummulated interest so far\n  function getCummulatedInterestDeposit(address user) public view returns (uint){\n    // get initial deposit\n    address token = usersBalance[user].tokenDeposited;\n    if(usersBalance[user].init_interest_deposit == 0){\n      return 0;\n    }\n    // compute interest since depositing\n    return SafeMath.div(SafeMath.mul(usersBalance[user].cummulated_ir_deposit,ivar.getIRDepositTotalCummulation(token)), usersBalance[user].init_interest_deposit);\n  }\n\n  // get value of deposit with cummulated interest so far\n  function getCummulatedInterestLoan(address user) public view returns (uint){\n    // get initial deposit\n    address token = usersBalance[user].tokenBorrowed;\n    if(usersBalance[user].init_interest_borrow == 0){\n      return 0;\n    }\n    // compute interest since depositing\n    return SafeMath.div(SafeMath.mul(usersBalance[user].cummulated_ir_borrow,ivar.getIRBorrowTotalCummulation(token)), usersBalance[user].init_interest_borrow);\n  }\n\n  // returns health factor *1000\n  function getHealthFactor(address user) public view returns(uint){\n    address collToken = usersBalance[user].tokenCollateralised;\n    address borrToken = usersBalance[user].tokenBorrowed;\n    // maximum y=the user can borrow against their collateral (*100)\n    uint upperLimitLoanUSD100 = SafeMath.mul(SafeMath.mul(tokensData[collToken].collateral_factor, tokensData[collToken].price), usersBalance[user].collateralAmount);\n    uint cummulatedLoan = getCummulatedInterestLoan(user);\n    return SafeMath.div(SafeMath.mul(upperLimitLoanUSD100,10),SafeMath.mul(cummulatedLoan,tokensData[borrToken].price));\n  }\n\n  // returns health factor *1000\n  function getHealthFactorUnsafe(address collToken, uint collAmount, address borrToken, uint owed) internal returns(uint){\n    // maximum y=the user can borrow against their collateral (*100)\n    updateTokenPrice(collToken);\n    updateTokenPrice(borrToken);\n    uint upperLimitLoanUSD100 = SafeMath.mul(SafeMath.mul(tokensData[collToken].collateral_factor, tokensData[collToken].price), collAmount);\n    // how much they owe in USD\n    return SafeMath.div(SafeMath.mul(upperLimitLoanUSD100,10),SafeMath.mul(owed, tokensData[borrToken].price));\n  }\n\n  function liquidate(address user) public{\n    // check if the account has health Factor > 1\n    address collToken = usersBalance[user].tokenCollateralised;\n    address borrToken = usersBalance[user].tokenBorrowed;\n    checkExchangeability(borrToken);\n    tryDiscardLoan(user);\n    if(tokensData[borrToken].exchangeable != true){\n      return;\n    }\n    updateTokenPrice(collToken);\n    updateTokenPrice(borrToken);\n    uint cummulatedLoan = getCummulatedInterestLoan(user);\n    uint healthFactor = getHealthFactorUnsafe(collToken, usersBalance[user].collateralAmount, borrToken, cummulatedLoan);\n    require(healthFactor < 1000, \"Safe health factor\");\n\n    // get money from sender (loan)\n    // sender has to give me the amounnt owed\n    ERC20(borrToken).transferFrom(msg.sender, address(this), cummulatedLoan);\n\n    // send to sender (collateral)\n    // sender has to receive the token collateralised correspondend with amount owed*1.05\n    uint toLiquidator = SafeMath.div(SafeMath.mul(SafeMath.mul(cummulatedLoan, tokensData[borrToken].price),105), SafeMath.mul(tokensData[collToken].price, 100));\n\n    // modify details\n    usersBalance[user].borrowedAmount = 0;\n    usersBalance[user].cummulated_ir_borrow = 0;\n    usersBalance[user].collateralAmount = SafeMath.sub(usersBalance[user].collateralAmount, toLiquidator);\n    tokensData[borrToken].totalBorrowed = SafeMath.sub(tokensData[borrToken].totalBorrowed, cummulatedLoan);\n    tokensData[collToken].totalCollateral = SafeMath.sub(tokensData[collToken].totalCollateral, toLiquidator);\n\n    ERC20(collToken).transfer(msg.sender, toLiquidator);\n  }\n\n\n}\n",
  "sourcePath": "/Users/ioanaroceanu/Documents/Project/contracts/LiquidityPool.sol",
  "compiler": {
    "name": "solc",
    "version": "0.6.2+commit.bacdbe57.Emscripten.clang"
  },
  "schemaVersion": "3.3.2",
  "updatedAt": "2021-02-26T16:56:03.068Z",
  "networkType": "ethereum",
  "devdoc": {
    "methods": {}
  },
  "userdoc": {
    "methods": {}
  }
}