{
  "contractName": "LiquidityPool",
  "abi": [
    {
      "inputs": [
        {
          "internalType": "address",
          "name": "ivar_add",
          "type": "address"
        },
        {
          "internalType": "address",
          "name": "exchange_add",
          "type": "address"
        }
      ],
      "stateMutability": "nonpayable",
      "type": "constructor"
    },
    {
      "anonymous": false,
      "inputs": [
        {
          "indexed": false,
          "internalType": "address",
          "name": "user",
          "type": "address"
        },
        {
          "indexed": false,
          "internalType": "uint256",
          "name": "timestamp",
          "type": "uint256"
        }
      ],
      "name": "Loan",
      "type": "event"
    },
    {
      "anonymous": false,
      "inputs": [
        {
          "indexed": false,
          "internalType": "address",
          "name": "token",
          "type": "address"
        },
        {
          "indexed": false,
          "internalType": "uint256",
          "name": "oldPrice",
          "type": "uint256"
        },
        {
          "indexed": false,
          "internalType": "uint256",
          "name": "newPrice",
          "type": "uint256"
        }
      ],
      "name": "PriceChange",
      "type": "event"
    },
    {
      "inputs": [
        {
          "internalType": "address",
          "name": "",
          "type": "address"
        }
      ],
      "name": "tokensCoreData",
      "outputs": [
        {
          "internalType": "uint256",
          "name": "price",
          "type": "uint256"
        },
        {
          "internalType": "string",
          "name": "symbol",
          "type": "string"
        },
        {
          "internalType": "uint256",
          "name": "utilisation",
          "type": "uint256"
        },
        {
          "internalType": "uint256",
          "name": "borrowIR",
          "type": "uint256"
        },
        {
          "internalType": "uint256",
          "name": "depositIR",
          "type": "uint256"
        },
        {
          "internalType": "uint256",
          "name": "collateral_factor",
          "type": "uint256"
        },
        {
          "internalType": "uint256",
          "name": "totalBorrowed",
          "type": "uint256"
        },
        {
          "internalType": "uint256",
          "name": "totalDeposited",
          "type": "uint256"
        },
        {
          "internalType": "uint256",
          "name": "totalCollateral",
          "type": "uint256"
        }
      ],
      "stateMutability": "view",
      "type": "function",
      "constant": true
    },
    {
      "inputs": [
        {
          "internalType": "address",
          "name": "",
          "type": "address"
        }
      ],
      "name": "usersBalance",
      "outputs": [
        {
          "internalType": "uint256",
          "name": "depositedAmount",
          "type": "uint256"
        },
        {
          "internalType": "uint256",
          "name": "init_interest_deposit",
          "type": "uint256"
        },
        {
          "internalType": "uint256",
          "name": "cummulated_ir_deposit",
          "type": "uint256"
        },
        {
          "internalType": "address",
          "name": "tokenDeposited",
          "type": "address"
        },
        {
          "internalType": "uint256",
          "name": "collateralAmount",
          "type": "uint256"
        },
        {
          "internalType": "address",
          "name": "tokenCollateralised",
          "type": "address"
        },
        {
          "internalType": "uint256",
          "name": "borrowedAmount",
          "type": "uint256"
        },
        {
          "internalType": "uint256",
          "name": "init_interest_borrow",
          "type": "uint256"
        },
        {
          "internalType": "uint256",
          "name": "cummulated_ir_borrow",
          "type": "uint256"
        },
        {
          "internalType": "address",
          "name": "tokenBorrowed",
          "type": "address"
        }
      ],
      "stateMutability": "view",
      "type": "function",
      "constant": true
    },
    {
      "inputs": [
        {
          "internalType": "string",
          "name": "_symbol",
          "type": "string"
        },
        {
          "internalType": "address",
          "name": "_token_address",
          "type": "address"
        },
        {
          "internalType": "uint256",
          "name": "_optimal_utilisation",
          "type": "uint256"
        },
        {
          "internalType": "uint256",
          "name": "_collateral_factor",
          "type": "uint256"
        },
        {
          "internalType": "uint256",
          "name": "_base_rate",
          "type": "uint256"
        },
        {
          "internalType": "uint256",
          "name": "_slope1",
          "type": "uint256"
        },
        {
          "internalType": "uint256",
          "name": "_slope2",
          "type": "uint256"
        },
        {
          "internalType": "uint256",
          "name": "_spread",
          "type": "uint256"
        },
        {
          "internalType": "uint256",
          "name": "_price",
          "type": "uint256"
        }
      ],
      "name": "createToken",
      "outputs": [],
      "stateMutability": "nonpayable",
      "type": "function"
    },
    {
      "inputs": [
        {
          "internalType": "address",
          "name": "token",
          "type": "address"
        }
      ],
      "name": "updateTokenPrice",
      "outputs": [],
      "stateMutability": "nonpayable",
      "type": "function"
    },
    {
      "inputs": [
        {
          "internalType": "address",
          "name": "_addr",
          "type": "address"
        }
      ],
      "name": "isContract",
      "outputs": [
        {
          "internalType": "bool",
          "name": "",
          "type": "bool"
        }
      ],
      "stateMutability": "view",
      "type": "function",
      "constant": true
    },
    {
      "inputs": [
        {
          "internalType": "address",
          "name": "tokenId",
          "type": "address"
        }
      ],
      "name": "getReserveBalance",
      "outputs": [
        {
          "internalType": "uint256",
          "name": "",
          "type": "uint256"
        }
      ],
      "stateMutability": "view",
      "type": "function",
      "constant": true
    },
    {
      "inputs": [
        {
          "internalType": "address payable",
          "name": "user",
          "type": "address"
        },
        {
          "internalType": "uint256",
          "name": "amount",
          "type": "uint256"
        },
        {
          "internalType": "address",
          "name": "tokenId",
          "type": "address"
        }
      ],
      "name": "deposit",
      "outputs": [],
      "stateMutability": "nonpayable",
      "type": "function"
    },
    {
      "inputs": [
        {
          "internalType": "address payable",
          "name": "user",
          "type": "address"
        },
        {
          "internalType": "uint256",
          "name": "amount",
          "type": "uint256"
        },
        {
          "internalType": "address",
          "name": "tokenId",
          "type": "address"
        }
      ],
      "name": "borrow",
      "outputs": [],
      "stateMutability": "nonpayable",
      "type": "function"
    },
    {
      "inputs": [
        {
          "internalType": "address payable",
          "name": "user",
          "type": "address"
        },
        {
          "internalType": "uint256",
          "name": "amount",
          "type": "uint256"
        },
        {
          "internalType": "address",
          "name": "tokenId",
          "type": "address"
        }
      ],
      "name": "depositCollateral",
      "outputs": [],
      "stateMutability": "nonpayable",
      "type": "function"
    },
    {
      "inputs": [
        {
          "internalType": "address payable",
          "name": "user",
          "type": "address"
        },
        {
          "internalType": "uint256",
          "name": "amount",
          "type": "uint256"
        },
        {
          "internalType": "address",
          "name": "tokenId",
          "type": "address"
        }
      ],
      "name": "switchDepositToCollateral",
      "outputs": [],
      "stateMutability": "nonpayable",
      "type": "function"
    },
    {
      "inputs": [
        {
          "internalType": "address payable",
          "name": "user",
          "type": "address"
        },
        {
          "internalType": "uint256",
          "name": "amount",
          "type": "uint256"
        }
      ],
      "name": "repay",
      "outputs": [],
      "stateMutability": "nonpayable",
      "type": "function"
    },
    {
      "inputs": [
        {
          "internalType": "address payable",
          "name": "user",
          "type": "address"
        },
        {
          "internalType": "uint256",
          "name": "amount",
          "type": "uint256"
        }
      ],
      "name": "redeem",
      "outputs": [],
      "stateMutability": "nonpayable",
      "type": "function"
    },
    {
      "inputs": [
        {
          "internalType": "address payable",
          "name": "user",
          "type": "address"
        },
        {
          "internalType": "uint256",
          "name": "amount",
          "type": "uint256"
        }
      ],
      "name": "redeemCollateral",
      "outputs": [],
      "stateMutability": "nonpayable",
      "type": "function"
    },
    {
      "inputs": [
        {
          "internalType": "address",
          "name": "user",
          "type": "address"
        }
      ],
      "name": "getCummulatedInterestDeposit",
      "outputs": [
        {
          "internalType": "uint256",
          "name": "",
          "type": "uint256"
        }
      ],
      "stateMutability": "view",
      "type": "function",
      "constant": true
    },
    {
      "inputs": [
        {
          "internalType": "address",
          "name": "user",
          "type": "address"
        }
      ],
      "name": "getCummulatedInterestLoan",
      "outputs": [
        {
          "internalType": "uint256",
          "name": "",
          "type": "uint256"
        }
      ],
      "stateMutability": "view",
      "type": "function",
      "constant": true
    },
    {
      "inputs": [
        {
          "internalType": "address",
          "name": "user",
          "type": "address"
        }
      ],
      "name": "getUserDetails",
      "outputs": [
        {
          "internalType": "uint256",
          "name": "",
          "type": "uint256"
        },
        {
          "internalType": "address",
          "name": "",
          "type": "address"
        },
        {
          "internalType": "uint256",
          "name": "",
          "type": "uint256"
        },
        {
          "internalType": "address",
          "name": "",
          "type": "address"
        }
      ],
      "stateMutability": "view",
      "type": "function",
      "constant": true
    },
    {
      "inputs": [
        {
          "internalType": "address",
          "name": "user",
          "type": "address"
        }
      ],
      "name": "getHealthFactor",
      "outputs": [
        {
          "internalType": "uint256",
          "name": "",
          "type": "uint256"
        }
      ],
      "stateMutability": "view",
      "type": "function",
      "constant": true
    },
    {
      "inputs": [
        {
          "internalType": "address",
          "name": "user",
          "type": "address"
        }
      ],
      "name": "liquidate",
      "outputs": [],
      "stateMutability": "nonpayable",
      "type": "function"
    }
  ],
  "bytecode": "0x60806040523480156200001157600080fd5b506040516200549d3803806200549d833981810160405260408110156200003757600080fd5b81019080805190602001909291908051906020019092919050505062000063826200015d60201b60201c565b80156200007d57506200007c816200015d60201b60201c565b5b620000d4576040517f08c379a0000000000000000000000000000000000000000000000000000000008152600401808060200182810382526035815260200180620054686035913960400191505060405180910390fd5b816000806101000a81548173ffffffffffffffffffffffffffffffffffffffff021916908373ffffffffffffffffffffffffffffffffffffffff16021790555080600160006101000a81548173ffffffffffffffffffffffffffffffffffffffff021916908373ffffffffffffffffffffffffffffffffffffffff160217905550505062000176565b600080823b905060008163ffffffff1611915050919050565b6152e280620001866000396000f3fe608060405234801561001057600080fd5b50600436106101165760003560e01c806358324335116100a2578063c41d9c7e11610071578063c41d9c7e146107a7578063cc3d967b14610815578063f45346dc146108da578063f9a22a5d14610948578063fe6bcd7c146109a057610116565b806358324335146105785780636c665a55146106935780638fdceb5b146107015780639acd81b31461075957610116565b806321746615116100e9578063217466151461033f578063224254801461038357806322867d78146103f15780632f8655681461043f57806339832c551461048357610116565b80630f3fb6231461011b57806315226b541461023d57806316279055146102955780631e9a6950146102f1575b600080fd5b61023b600480360361012081101561013257600080fd5b810190808035906020019064010000000081111561014f57600080fd5b82018360208201111561016157600080fd5b8035906020019184600183028401116401000000008311171561018357600080fd5b91908080601f016020809104026020016040519081016040528093929190818152602001838380828437600081840152601f19601f820116905080830192505050505050509192919290803573ffffffffffffffffffffffffffffffffffffffff169060200190929190803590602001909291908035906020019092919080359060200190929190803590602001909291908035906020019092919080359060200190929190803590602001909291905050506109f8565b005b61027f6004803603602081101561025357600080fd5b81019080803573ffffffffffffffffffffffffffffffffffffffff169060200190929190505050610e80565b6040518082815260200191505060405180910390f35b6102d7600480360360208110156102ab57600080fd5b81019080803573ffffffffffffffffffffffffffffffffffffffff169060200190929190505050610f41565b604051808215151515815260200191505060405180910390f35b61033d6004803603604081101561030757600080fd5b81019080803573ffffffffffffffffffffffffffffffffffffffff16906020019092919080359060200190929190505050610f5a565b005b6103816004803603602081101561035557600080fd5b81019080803573ffffffffffffffffffffffffffffffffffffffff16906020019092919050505061156e565b005b6103ef6004803603606081101561039957600080fd5b81019080803573ffffffffffffffffffffffffffffffffffffffff16906020019092919080359060200190929190803573ffffffffffffffffffffffffffffffffffffffff1690602001909291905050506118c3565b005b61043d6004803603604081101561040757600080fd5b81019080803573ffffffffffffffffffffffffffffffffffffffff16906020019092919080359060200190929190505050611cf2565b005b6104816004803603602081101561045557600080fd5b81019080803573ffffffffffffffffffffffffffffffffffffffff1690602001909291905050506121d1565b005b6104c56004803603602081101561049957600080fd5b81019080803573ffffffffffffffffffffffffffffffffffffffff16906020019092919050505061282b565b604051808a81526020018060200189815260200188815260200187815260200186815260200185815260200184815260200183815260200182810382528a818151815260200191508051906020019080838360005b8381101561053557808201518184015260208101905061051a565b50505050905090810190601f1680156105625780820380516001836020036101000a031916815260200191505b509a505050505050505050505060405180910390f35b6105ba6004803603602081101561058e57600080fd5b81019080803573ffffffffffffffffffffffffffffffffffffffff169060200190929190505050612911565b604051808b81526020018a81526020018981526020018873ffffffffffffffffffffffffffffffffffffffff1673ffffffffffffffffffffffffffffffffffffffff1681526020018781526020018673ffffffffffffffffffffffffffffffffffffffff1673ffffffffffffffffffffffffffffffffffffffff1681526020018581526020018481526020018381526020018273ffffffffffffffffffffffffffffffffffffffff1673ffffffffffffffffffffffffffffffffffffffff1681526020019a505050505050505050505060405180910390f35b6106ff600480360360608110156106a957600080fd5b81019080803573ffffffffffffffffffffffffffffffffffffffff16906020019092919080359060200190929190803573ffffffffffffffffffffffffffffffffffffffff1690602001909291905050506129c5565b005b6107436004803603602081101561071757600080fd5b81019080803573ffffffffffffffffffffffffffffffffffffffff169060200190929190505050613136565b6040518082815260200191505060405180910390f35b6107a56004803603604081101561076f57600080fd5b81019080803573ffffffffffffffffffffffffffffffffffffffff16906020019092919080359060200190929190505050613389565b005b610813600480360360608110156107bd57600080fd5b81019080803573ffffffffffffffffffffffffffffffffffffffff16906020019092919080359060200190929190803573ffffffffffffffffffffffffffffffffffffffff169060200190929190505050613735565b005b6108576004803603602081101561082b57600080fd5b81019080803573ffffffffffffffffffffffffffffffffffffffff169060200190929190505050613efb565b604051808581526020018473ffffffffffffffffffffffffffffffffffffffff1673ffffffffffffffffffffffffffffffffffffffff1681526020018381526020018273ffffffffffffffffffffffffffffffffffffffff1673ffffffffffffffffffffffffffffffffffffffff16815260200194505050505060405180910390f35b610946600480360360608110156108f057600080fd5b81019080803573ffffffffffffffffffffffffffffffffffffffff16906020019092919080359060200190929190803573ffffffffffffffffffffffffffffffffffffffff16906020019092919050505061403a565b005b61098a6004803603602081101561095e57600080fd5b81019080803573ffffffffffffffffffffffffffffffffffffffff16906020019092919050505061454e565b6040518082815260200191505060405180910390f35b6109e2600480360360208110156109b657600080fd5b81019080803573ffffffffffffffffffffffffffffffffffffffff1690602001909291905050506147a1565b6040518082815260200191505060405180910390f35b610a0188610f41565b610a56576040517f08c379a00000000000000000000000000000000000000000000000000000000081526004018080602001828103825260288152602001806151b76028913960400191505060405180910390fd5b6000809054906101000a900473ffffffffffffffffffffffffffffffffffffffff1673ffffffffffffffffffffffffffffffffffffffff1663402fda408a8a8a8a8a8a8a8a6040518963ffffffff1660e01b815260040180806020018973ffffffffffffffffffffffffffffffffffffffff1673ffffffffffffffffffffffffffffffffffffffff16815260200188815260200187815260200186815260200185815260200184815260200183815260200182810382528a818151815260200191508051906020019080838360005b83811015610b40578082015181840152602081019050610b25565b50505050905090810190601f168015610b6d5780820380516001836020036101000a031916815260200191505b509950505050505050505050600060405180830381600087803b158015610b9357600080fd5b505af1158015610ba7573d6000803e3d6000fd5b5050505060008060009054906101000a900473ffffffffffffffffffffffffffffffffffffffff1673ffffffffffffffffffffffffffffffffffffffff16638abe523f8a60006040518363ffffffff1660e01b8152600401808373ffffffffffffffffffffffffffffffffffffffff1673ffffffffffffffffffffffffffffffffffffffff1681526020018281526020019250505060206040518083038186803b158015610c5457600080fd5b505afa158015610c68573d6000803e3d6000fd5b505050506040513d6020811015610c7e57600080fd5b8101908080519060200190929190505050905060008060009054906101000a900473ffffffffffffffffffffffffffffffffffffffff1673ffffffffffffffffffffffffffffffffffffffff16637289370e8b6000856040518463ffffffff1660e01b8152600401808473ffffffffffffffffffffffffffffffffffffffff1673ffffffffffffffffffffffffffffffffffffffff168152602001838152602001828152602001935050505060206040518083038186803b158015610d4257600080fd5b505afa158015610d56573d6000803e3d6000fd5b505050506040513d6020811015610d6c57600080fd5b810190808051906020019092919050505090506040518061012001604052808481526020018c81526020016000815260200183815260200182815260200189815260200160008152602001600081526020016000815250600360008c73ffffffffffffffffffffffffffffffffffffffff1673ffffffffffffffffffffffffffffffffffffffff168152602001908152602001600020600082015181600001556020820151816001019080519060200190610e28929190614ff9565b5060408201518160020155606082015181600301556080820151816004015560a0820151816005015560c0820151816006015560e0820151816007015561010082015181600801559050505050505050505050505050565b60008173ffffffffffffffffffffffffffffffffffffffff166370a08231306040518263ffffffff1660e01b8152600401808273ffffffffffffffffffffffffffffffffffffffff1673ffffffffffffffffffffffffffffffffffffffff16815260200191505060206040518083038186803b158015610eff57600080fd5b505afa158015610f13573d6000803e3d6000fd5b505050506040513d6020811015610f2957600080fd5b81019080805190602001909291905050509050919050565b600080823b905060008163ffffffff1611915050919050565b6000610f6583613136565b905081811015610fc0576040517f08c379a000000000000000000000000000000000000000000000000000000000815260040180806020018281038252602781526020018061520e6027913960400191505060405180910390fd5b6000600460008573ffffffffffffffffffffffffffffffffffffffff1673ffffffffffffffffffffffffffffffffffffffff16815260200190815260200160002060000154905060008390506000809050828511156110225782915082850390505b6000600460008873ffffffffffffffffffffffffffffffffffffffff1673ffffffffffffffffffffffffffffffffffffffff16815260200190815260200160002060030160009054906101000a900473ffffffffffffffffffffffffffffffffffffffff169050600360008273ffffffffffffffffffffffffffffffffffffffff1673ffffffffffffffffffffffffffffffffffffffff1681526020019081526020016000206006015483600360008473ffffffffffffffffffffffffffffffffffffffff1673ffffffffffffffffffffffffffffffffffffffff16815260200190815260200160002060070154031015611185576040517f08c379a000000000000000000000000000000000000000000000000000000000815260040180806020018281038252601a8152602001807f44656d616e6420776f756c642065786365656420737570706c7900000000000081525060200191505060405180910390fd5b600061119082610e80565b9050600360008373ffffffffffffffffffffffffffffffffffffffff1673ffffffffffffffffffffffffffffffffffffffff16815260200190815260200160002060080154600360008473ffffffffffffffffffffffffffffffffffffffff1673ffffffffffffffffffffffffffffffffffffffff16815260200190815260200160002060070154820303831061128f576040517f08c379a00000000000000000000000000000000000000000000000000000000081526004018080602001828103825260198152602001807f4e6f7420656e6f7567682065787472612072657365727665730000000000000081525060200191505060405180910390fd5b83600460008a73ffffffffffffffffffffffffffffffffffffffff1673ffffffffffffffffffffffffffffffffffffffff16815260200190815260200160002060000160008282540392505081905550868603600460008a73ffffffffffffffffffffffffffffffffffffffff1673ffffffffffffffffffffffffffffffffffffffff168152602001908152602001600020600201819055506000809054906101000a900473ffffffffffffffffffffffffffffffffffffffff1673ffffffffffffffffffffffffffffffffffffffff16630f1f7bc9836040518263ffffffff1660e01b8152600401808273ffffffffffffffffffffffffffffffffffffffff1673ffffffffffffffffffffffffffffffffffffffff16815260200191505060206040518083038186803b1580156113c657600080fd5b505afa1580156113da573d6000803e3d6000fd5b505050506040513d60208110156113f057600080fd5b8101908080519060200190929190505050600460008a73ffffffffffffffffffffffffffffffffffffffff1673ffffffffffffffffffffffffffffffffffffffff1681526020019081526020016000206001018190555061145482858a60006149ae565b8173ffffffffffffffffffffffffffffffffffffffff1663a9059cbb89856040518363ffffffff1660e01b8152600401808373ffffffffffffffffffffffffffffffffffffffff1673ffffffffffffffffffffffffffffffffffffffff16815260200182815260200192505050602060405180830381600087803b1580156114db57600080fd5b505af11580156114ef573d6000803e3d6000fd5b505050506040513d602081101561150557600080fd5b8101908080519060200190929190505050506115648883600360008673ffffffffffffffffffffffffffffffffffffffff1673ffffffffffffffffffffffffffffffffffffffff16815260200190815260200160002060020154614b23565b5050505050505050565b6040518060200160405280600081525080519060200120600360008373ffffffffffffffffffffffffffffffffffffffff1673ffffffffffffffffffffffffffffffffffffffff16815260200190815260200160002060010160405180828054600181600116156101000203166002900480156116225780601f10611600576101008083540402835291820191611622565b820191906000526020600020905b81548152906001019060200180831161160e575b5050915050604051809103902014156116a3576040517f08c379a00000000000000000000000000000000000000000000000000000000081526004018080602001828103825260138152602001807f546f6b656e206e6f7420737570706f727465640000000000000000000000000081525060200191505060405180910390fd5b6000600360008373ffffffffffffffffffffffffffffffffffffffff1673ffffffffffffffffffffffffffffffffffffffff168152602001908152602001600020600001549050600160009054906101000a900473ffffffffffffffffffffffffffffffffffffffff1673ffffffffffffffffffffffffffffffffffffffff166341976e09836040518263ffffffff1660e01b8152600401808273ffffffffffffffffffffffffffffffffffffffff1673ffffffffffffffffffffffffffffffffffffffff16815260200191505060206040518083038186803b15801561178957600080fd5b505afa15801561179d573d6000803e3d6000fd5b505050506040513d60208110156117b357600080fd5b8101908080519060200190929190505050600360008473ffffffffffffffffffffffffffffffffffffffff1673ffffffffffffffffffffffffffffffffffffffff168152602001908152602001600020600001819055507f024e1c492bc15609a5125924e67e792a203a4f550a353426fad01a2c6d5ff9768282600360008673ffffffffffffffffffffffffffffffffffffffff1673ffffffffffffffffffffffffffffffffffffffff16815260200190815260200160002060000154604051808473ffffffffffffffffffffffffffffffffffffffff1673ffffffffffffffffffffffffffffffffffffffff168152602001838152602001828152602001935050505060405180910390a15050565b600073ffffffffffffffffffffffffffffffffffffffff16600460008573ffffffffffffffffffffffffffffffffffffffff1673ffffffffffffffffffffffffffffffffffffffff16815260200190815260200160002060050160009054906101000a900473ffffffffffffffffffffffffffffffffffffffff1673ffffffffffffffffffffffffffffffffffffffff1614806119ed57508073ffffffffffffffffffffffffffffffffffffffff16600460008573ffffffffffffffffffffffffffffffffffffffff1673ffffffffffffffffffffffffffffffffffffffff16815260200190815260200160002060050160009054906101000a900473ffffffffffffffffffffffffffffffffffffffff1673ffffffffffffffffffffffffffffffffffffffff16145b611a42576040517f08c379a000000000000000000000000000000000000000000000000000000000815260040180806020018281038252602f8152602001806151df602f913960400191505060405180910390fd5b6040518060200160405280600081525080519060200120600360008373ffffffffffffffffffffffffffffffffffffffff1673ffffffffffffffffffffffffffffffffffffffff1681526020019081526020016000206001016040518082805460018160011615610100020316600290048015611af65780601f10611ad4576101008083540402835291820191611af6565b820191906000526020600020905b815481529060010190602001808311611ae2575b505091505060405180910390201415611b77576040517f08c379a00000000000000000000000000000000000000000000000000000000081526004018080602001828103825260138152602001807f546f6b656e206e6f7420737570706f727465640000000000000000000000000081525060200191505060405180910390fd5b611b8681838560016000614c19565b8073ffffffffffffffffffffffffffffffffffffffff16600460008573ffffffffffffffffffffffffffffffffffffffff1673ffffffffffffffffffffffffffffffffffffffff16815260200190815260200160002060050160009054906101000a900473ffffffffffffffffffffffffffffffffffffffff1673ffffffffffffffffffffffffffffffffffffffff1614611c9d5780600460008573ffffffffffffffffffffffffffffffffffffffff1673ffffffffffffffffffffffffffffffffffffffff16815260200190815260200160002060050160006101000a81548173ffffffffffffffffffffffffffffffffffffffff021916908373ffffffffffffffffffffffffffffffffffffffff1602179055505b81600460008573ffffffffffffffffffffffffffffffffffffffff1673ffffffffffffffffffffffffffffffffffffffff16815260200190815260200160002060040160008282540192505081905550505050565b6000600460008473ffffffffffffffffffffffffffffffffffffffff1673ffffffffffffffffffffffffffffffffffffffff168152602001908152602001600020600601541415611d8e576040517f08c379a00000000000000000000000000000000000000000000000000000000081526004018080602001828103825260228152602001806152356022913960400191505060405180910390fd5b6000611d998361454e565b905081811015611df4576040517f08c379a00000000000000000000000000000000000000000000000000000000081526004018080602001828103825260218152602001806150d76021913960400191505060405180910390fd5b6000600460008573ffffffffffffffffffffffffffffffffffffffff1673ffffffffffffffffffffffffffffffffffffffff1681526020019081526020016000206006015490506000839050600080905082851115611e565782915081850390505b6000600460008873ffffffffffffffffffffffffffffffffffffffff1673ffffffffffffffffffffffffffffffffffffffff16815260200190815260200160002060090160009054906101000a900473ffffffffffffffffffffffffffffffffffffffff169050611ecc81848960006001614c19565b8073ffffffffffffffffffffffffffffffffffffffff166323b872dd8830856040518463ffffffff1660e01b8152600401808473ffffffffffffffffffffffffffffffffffffffff1673ffffffffffffffffffffffffffffffffffffffff1681526020018373ffffffffffffffffffffffffffffffffffffffff1673ffffffffffffffffffffffffffffffffffffffff1681526020018281526020019350505050602060405180830381600087803b158015611f8757600080fd5b505af1158015611f9b573d6000803e3d6000fd5b505050506040513d6020811015611fb157600080fd5b81019080805190602001909291905050505082600460008973ffffffffffffffffffffffffffffffffffffffff1673ffffffffffffffffffffffffffffffffffffffff16815260200190815260200160002060060160008282540392505081905550858503600460008973ffffffffffffffffffffffffffffffffffffffff1673ffffffffffffffffffffffffffffffffffffffff168152602001908152602001600020600801819055506000809054906101000a900473ffffffffffffffffffffffffffffffffffffffff1673ffffffffffffffffffffffffffffffffffffffff1663f609507b826040518263ffffffff1660e01b8152600401808273ffffffffffffffffffffffffffffffffffffffff1673ffffffffffffffffffffffffffffffffffffffff16815260200191505060206040518083038186803b1580156120fa57600080fd5b505afa15801561210e573d6000803e3d6000fd5b505050506040513d602081101561212457600080fd5b8101908080519060200190929190505050600460008973ffffffffffffffffffffffffffffffffffffffff1673ffffffffffffffffffffffffffffffffffffffff168152602001908152602001600020600701819055506121c88782600360008573ffffffffffffffffffffffffffffffffffffffff1673ffffffffffffffffffffffffffffffffffffffff16815260200190815260200160002060020154614b23565b50505050505050565b6000600460008373ffffffffffffffffffffffffffffffffffffffff1673ffffffffffffffffffffffffffffffffffffffff16815260200190815260200160002060050160009054906101000a900473ffffffffffffffffffffffffffffffffffffffff1690506000600460008473ffffffffffffffffffffffffffffffffffffffff1673ffffffffffffffffffffffffffffffffffffffff16815260200190815260200160002060090160009054906101000a900473ffffffffffffffffffffffffffffffffffffffff1690506122a88261156e565b6122b18161156e565b6000600460008573ffffffffffffffffffffffffffffffffffffffff1673ffffffffffffffffffffffffffffffffffffffff16815260200190815260200160002060040154600360008573ffffffffffffffffffffffffffffffffffffffff1673ffffffffffffffffffffffffffffffffffffffff16815260200190815260200160002060000154600360008673ffffffffffffffffffffffffffffffffffffffff1673ffffffffffffffffffffffffffffffffffffffff1681526020019081526020016000206005015402029050600061238b8561454e565b905060006064600360008673ffffffffffffffffffffffffffffffffffffffff1673ffffffffffffffffffffffffffffffffffffffff16815260200190815260200160002060000154830202905080831061244e576040517f08c379a000000000000000000000000000000000000000000000000000000000815260040180806020018281038252601d8152602001807f4c6f616e2068617320612073616665206865616c746820666163746f7200000081525060200191505060405180910390fd5b8373ffffffffffffffffffffffffffffffffffffffff166323b872dd3330856040518463ffffffff1660e01b8152600401808473ffffffffffffffffffffffffffffffffffffffff1673ffffffffffffffffffffffffffffffffffffffff1681526020018373ffffffffffffffffffffffffffffffffffffffff1673ffffffffffffffffffffffffffffffffffffffff1681526020018281526020019350505050602060405180830381600087803b15801561250957600080fd5b505af115801561251d573d6000803e3d6000fd5b505050506040513d602081101561253357600080fd5b81019080805190602001909291905050505060006064600360008873ffffffffffffffffffffffffffffffffffffffff1673ffffffffffffffffffffffffffffffffffffffff16815260200190815260200160002060000154026069600360008873ffffffffffffffffffffffffffffffffffffffff1673ffffffffffffffffffffffffffffffffffffffff16815260200190815260200160002060000154850202816125dc57fe5b0490508573ffffffffffffffffffffffffffffffffffffffff1663a9059cbb33836040518363ffffffff1660e01b8152600401808373ffffffffffffffffffffffffffffffffffffffff1673ffffffffffffffffffffffffffffffffffffffff16815260200182815260200192505050602060405180830381600087803b15801561266657600080fd5b505af115801561267a573d6000803e3d6000fd5b505050506040513d602081101561269057600080fd5b8101908080519060200190929190505050506000600460008973ffffffffffffffffffffffffffffffffffffffff1673ffffffffffffffffffffffffffffffffffffffff168152602001908152602001600020600601819055506000600460008973ffffffffffffffffffffffffffffffffffffffff1673ffffffffffffffffffffffffffffffffffffffff1681526020019081526020016000206008018190555080600460008973ffffffffffffffffffffffffffffffffffffffff1673ffffffffffffffffffffffffffffffffffffffff1681526020019081526020016000206004016000828254039250508190555082600360008773ffffffffffffffffffffffffffffffffffffffff1673ffffffffffffffffffffffffffffffffffffffff1681526020019081526020016000206006016000828254039250508190555080600360008873ffffffffffffffffffffffffffffffffffffffff1673ffffffffffffffffffffffffffffffffffffffff1681526020019081526020016000206008016000828254039250508190555050505050505050565b6003602052806000526040600020600091509050806000015490806001018054600181600116156101000203166002900480601f0160208091040260200160405190810160405280929190818152602001828054600181600116156101000203166002900480156128dd5780601f106128b2576101008083540402835291602001916128dd565b820191906000526020600020905b8154815290600101906020018083116128c057829003601f168201915b5050505050908060020154908060030154908060040154908060050154908060060154908060070154908060080154905089565b60046020528060005260406000206000915090508060000154908060010154908060020154908060030160009054906101000a900473ffffffffffffffffffffffffffffffffffffffff16908060040154908060050160009054906101000a900473ffffffffffffffffffffffffffffffffffffffff16908060060154908060070154908060080154908060090160009054906101000a900473ffffffffffffffffffffffffffffffffffffffff1690508a565b6040518060200160405280600081525080519060200120600360008373ffffffffffffffffffffffffffffffffffffffff1673ffffffffffffffffffffffffffffffffffffffff1681526020019081526020016000206001016040518082805460018160011615610100020316600290048015612a795780601f10612a57576101008083540402835291820191612a79565b820191906000526020600020905b815481529060010190602001808311612a65575b505091505060405180910390201415612afa576040517f08c379a00000000000000000000000000000000000000000000000000000000081526004018080602001828103825260168152602001807f546f6b656e20646f6573206e6f742068617665204c500000000000000000000081525060200191505060405180910390fd5b81600360008373ffffffffffffffffffffffffffffffffffffffff1673ffffffffffffffffffffffffffffffffffffffff1681526020019081526020016000206006015401600360008373ffffffffffffffffffffffffffffffffffffffff1673ffffffffffffffffffffffffffffffffffffffff1681526020019081526020016000206007015411612bd8576040517f08c379a000000000000000000000000000000000000000000000000000000000815260040180806020018281038252602d815260200180615257602d913960400191505060405180910390fd5b600073ffffffffffffffffffffffffffffffffffffffff16600460008573ffffffffffffffffffffffffffffffffffffffff1673ffffffffffffffffffffffffffffffffffffffff16815260200190815260200160002060090160009054906101000a900473ffffffffffffffffffffffffffffffffffffffff1673ffffffffffffffffffffffffffffffffffffffff161480612cb757506000600460008573ffffffffffffffffffffffffffffffffffffffff1673ffffffffffffffffffffffffffffffffffffffff16815260200190815260200160002060060154145b612d29576040517f08c379a000000000000000000000000000000000000000000000000000000000815260040180806020018281038252601a8152602001807f4164647265737320616c7265616479206861732061206c6f616e00000000000081525060200191505060405180910390fd5b6000600460008573ffffffffffffffffffffffffffffffffffffffff1673ffffffffffffffffffffffffffffffffffffffff16815260200190815260200160002060050160009054906101000a900473ffffffffffffffffffffffffffffffffffffffff1690506000612de082600460008873ffffffffffffffffffffffffffffffffffffffff1673ffffffffffffffffffffffffffffffffffffffff168152602001908152602001600020600401548587614e1f565b90506103e88111612e3c576040517f08c379a00000000000000000000000000000000000000000000000000000000081526004018080602001828103825260248152602001806151936024913960400191505060405180910390fd5b82600460008773ffffffffffffffffffffffffffffffffffffffff1673ffffffffffffffffffffffffffffffffffffffff16815260200190815260200160002060090160006101000a81548173ffffffffffffffffffffffffffffffffffffffff021916908373ffffffffffffffffffffffffffffffffffffffff16021790555083600460008773ffffffffffffffffffffffffffffffffffffffff1673ffffffffffffffffffffffffffffffffffffffff1681526020019081526020016000206006018190555083600460008773ffffffffffffffffffffffffffffffffffffffff1673ffffffffffffffffffffffffffffffffffffffff16815260200190815260200160002060080181905550612f5883858760016149ae565b612fa58584600360008773ffffffffffffffffffffffffffffffffffffffff1673ffffffffffffffffffffffffffffffffffffffff16815260200190815260200160002060020154614b23565b6000809054906101000a900473ffffffffffffffffffffffffffffffffffffffff1673ffffffffffffffffffffffffffffffffffffffff1663f609507b846040518263ffffffff1660e01b8152600401808273ffffffffffffffffffffffffffffffffffffffff1673ffffffffffffffffffffffffffffffffffffffff16815260200191505060206040518083038186803b15801561304357600080fd5b505afa158015613057573d6000803e3d6000fd5b505050506040513d602081101561306d57600080fd5b8101908080519060200190929190505050600460008773ffffffffffffffffffffffffffffffffffffffff1673ffffffffffffffffffffffffffffffffffffffff168152602001908152602001600020600701819055507f1db23cf53464267c45324569941e81e23d29c48ff9be2b35af2cc0a2681159d68542604051808373ffffffffffffffffffffffffffffffffffffffff1673ffffffffffffffffffffffffffffffffffffffff1681526020018281526020019250505060405180910390a15050505050565b600080600460008473ffffffffffffffffffffffffffffffffffffffff1673ffffffffffffffffffffffffffffffffffffffff1681526020019081526020016000206002015490506000600460008573ffffffffffffffffffffffffffffffffffffffff1673ffffffffffffffffffffffffffffffffffffffff16815260200190815260200160002060030160009054906101000a900473ffffffffffffffffffffffffffffffffffffffff1690506000600460008673ffffffffffffffffffffffffffffffffffffffff1673ffffffffffffffffffffffffffffffffffffffff16815260200190815260200160002060010154905060008060009054906101000a900473ffffffffffffffffffffffffffffffffffffffff1673ffffffffffffffffffffffffffffffffffffffff16630f1f7bc9846040518263ffffffff1660e01b8152600401808273ffffffffffffffffffffffffffffffffffffffff1673ffffffffffffffffffffffffffffffffffffffff16815260200191505060206040518083038186803b1580156132cc57600080fd5b505afa1580156132e0573d6000803e3d6000fd5b505050506040513d60208110156132f657600080fd5b810190808051906020019092919050505090506000811415613363576040517f08c379a00000000000000000000000000000000000000000000000000000000081526004018080602001828103825260228152602001806150f86022913960400191505060405180910390fd5b600082828161336e57fe5b049050828286028161337c57fe5b0495505050505050919050565b80600460008473ffffffffffffffffffffffffffffffffffffffff1673ffffffffffffffffffffffffffffffffffffffff168152602001908152602001600020600401541015613424576040517f08c379a00000000000000000000000000000000000000000000000000000000081526004018080602001828103825260318152602001806151626031913960400191505060405180910390fd5b6000600460008473ffffffffffffffffffffffffffffffffffffffff1673ffffffffffffffffffffffffffffffffffffffff16815260200190815260200160002060050160009054906101000a900473ffffffffffffffffffffffffffffffffffffffff1690506000600460008573ffffffffffffffffffffffffffffffffffffffff1673ffffffffffffffffffffffffffffffffffffffff16815260200190815260200160002060090160009054906101000a900473ffffffffffffffffffffffffffffffffffffffff16905060006134fd8561454e565b905060006135518486600460008a73ffffffffffffffffffffffffffffffffffffffff1673ffffffffffffffffffffffffffffffffffffffff16815260200190815260200160002060040154038585614e1f565b90506103e881116135ca576040517f08c379a000000000000000000000000000000000000000000000000000000000815260040180806020018281038252601e8152602001807f4865616c746820666163746f7220776f756c6420626520746f6f206c6f77000081525060200191505060405180910390fd5b84600460008873ffffffffffffffffffffffffffffffffffffffff1673ffffffffffffffffffffffffffffffffffffffff1681526020019081526020016000206004016000828254039250508190555084600360008673ffffffffffffffffffffffffffffffffffffffff1673ffffffffffffffffffffffffffffffffffffffff168152602001908152602001600020600801600082825403925050819055508373ffffffffffffffffffffffffffffffffffffffff1663a9059cbb87876040518363ffffffff1660e01b8152600401808373ffffffffffffffffffffffffffffffffffffffff1673ffffffffffffffffffffffffffffffffffffffff16815260200182815260200192505050602060405180830381600087803b1580156136f157600080fd5b505af1158015613705573d6000803e3d6000fd5b505050506040513d602081101561371b57600080fd5b810190808051906020019092919050505050505050505050565b6040518060200160405280600081525080519060200120600360008373ffffffffffffffffffffffffffffffffffffffff1673ffffffffffffffffffffffffffffffffffffffff16815260200190815260200160002060010160405180828054600181600116156101000203166002900480156137e95780601f106137c75761010080835404028352918201916137e9565b820191906000526020600020905b8154815290600101906020018083116137d5575b50509150506040518091039020141561386a576040517f08c379a00000000000000000000000000000000000000000000000000000000081526004018080602001828103825260148152602001807f546f6b656e20646f6573206e6f7420657869737400000000000000000000000081525060200191505060405180910390fd5b81600460008573ffffffffffffffffffffffffffffffffffffffff1673ffffffffffffffffffffffffffffffffffffffff168152602001908152602001600020600001541015613905576040517f08c379a00000000000000000000000000000000000000000000000000000000081526004018080602001828103825260298152602001806152846029913960400191505060405180910390fd5b600073ffffffffffffffffffffffffffffffffffffffff16600460008573ffffffffffffffffffffffffffffffffffffffff1673ffffffffffffffffffffffffffffffffffffffff16815260200190815260200160002060050160009054906101000a900473ffffffffffffffffffffffffffffffffffffffff1673ffffffffffffffffffffffffffffffffffffffff161480613ac857508073ffffffffffffffffffffffffffffffffffffffff16600460008573ffffffffffffffffffffffffffffffffffffffff1673ffffffffffffffffffffffffffffffffffffffff16815260200190815260200160002060050160009054906101000a900473ffffffffffffffffffffffffffffffffffffffff1673ffffffffffffffffffffffffffffffffffffffff16148015613ac757508073ffffffffffffffffffffffffffffffffffffffff16600460008573ffffffffffffffffffffffffffffffffffffffff1673ffffffffffffffffffffffffffffffffffffffff16815260200190815260200160002060030160009054906101000a900473ffffffffffffffffffffffffffffffffffffffff1673ffffffffffffffffffffffffffffffffffffffff16145b5b613b1d576040517f08c379a000000000000000000000000000000000000000000000000000000000815260040180806020018281038252604881526020018061511a6048913960600191505060405180910390fd5b600360008273ffffffffffffffffffffffffffffffffffffffff1673ffffffffffffffffffffffffffffffffffffffff1681526020019081526020016000206006015482600360008473ffffffffffffffffffffffffffffffffffffffff1673ffffffffffffffffffffffffffffffffffffffff168152602001908152602001600020600701540311613bfb576040517f08c379a000000000000000000000000000000000000000000000000000000000815260040180806020018281038252603881526020018061509f6038913960400191505060405180910390fd5b81600460008573ffffffffffffffffffffffffffffffffffffffff1673ffffffffffffffffffffffffffffffffffffffff168152602001908152602001600020600001600082825403925050819055506000613c5684613136565b9050828103600460008673ffffffffffffffffffffffffffffffffffffffff1673ffffffffffffffffffffffffffffffffffffffff168152602001908152602001600020600201819055508173ffffffffffffffffffffffffffffffffffffffff16600460008673ffffffffffffffffffffffffffffffffffffffff1673ffffffffffffffffffffffffffffffffffffffff16815260200190815260200160002060050160009054906101000a900473ffffffffffffffffffffffffffffffffffffffff1673ffffffffffffffffffffffffffffffffffffffff1614613db85781600460008673ffffffffffffffffffffffffffffffffffffffff1673ffffffffffffffffffffffffffffffffffffffff16815260200190815260200160002060050160006101000a81548173ffffffffffffffffffffffffffffffffffffffff021916908373ffffffffffffffffffffffffffffffffffffffff1602179055505b82600360008473ffffffffffffffffffffffffffffffffffffffff1673ffffffffffffffffffffffffffffffffffffffff1681526020019081526020016000206008016000828254019250508190555082600360008473ffffffffffffffffffffffffffffffffffffffff1673ffffffffffffffffffffffffffffffffffffffff16815260200190815260200160002060070160008282540392505081905550613ea58483600360008673ffffffffffffffffffffffffffffffffffffffff1673ffffffffffffffffffffffffffffffffffffffff16815260200190815260200160002060020154614b23565b82600460008673ffffffffffffffffffffffffffffffffffffffff1673ffffffffffffffffffffffffffffffffffffffff1681526020019081526020016000206004016000828254019250508190555050505050565b6000806000806000600460008773ffffffffffffffffffffffffffffffffffffffff1673ffffffffffffffffffffffffffffffffffffffff1681526020019081526020016000206004015490506000600460008873ffffffffffffffffffffffffffffffffffffffff1673ffffffffffffffffffffffffffffffffffffffff16815260200190815260200160002060050160009054906101000a900473ffffffffffffffffffffffffffffffffffffffff1690506000613fba8861454e565b90506000600460008a73ffffffffffffffffffffffffffffffffffffffff1673ffffffffffffffffffffffffffffffffffffffff16815260200190815260200160002060090160009054906101000a900473ffffffffffffffffffffffffffffffffffffffff169050838383839750975097509750505050509193509193565b600073ffffffffffffffffffffffffffffffffffffffff16600460008573ffffffffffffffffffffffffffffffffffffffff1673ffffffffffffffffffffffffffffffffffffffff16815260200190815260200160002060030160009054906101000a900473ffffffffffffffffffffffffffffffffffffffff1673ffffffffffffffffffffffffffffffffffffffff16148061411957506000600460008573ffffffffffffffffffffffffffffffffffffffff1673ffffffffffffffffffffffffffffffffffffffff16815260200190815260200160002060000154145b61418b576040517f08c379a000000000000000000000000000000000000000000000000000000000815260040180806020018281038252601d8152602001807f4164647265737320616c7265616479206861732061206465706f73697400000081525060200191505060405180910390fd5b6040518060200160405280600081525080519060200120600360008373ffffffffffffffffffffffffffffffffffffffff1673ffffffffffffffffffffffffffffffffffffffff168152602001908152602001600020600101604051808280546001816001161561010002031660029004801561423f5780601f1061421d57610100808354040283529182019161423f565b820191906000526020600020905b81548152906001019060200180831161422b575b5050915050604051809103902014156142c0576040517f08c379a00000000000000000000000000000000000000000000000000000000081526004018080602001828103825260168152602001807f546f6b656e20646f6573206e6f742068617665204c500000000000000000000081525060200191505060405180910390fd5b6142ce818385600080614c19565b61431b8382600360008573ffffffffffffffffffffffffffffffffffffffff1673ffffffffffffffffffffffffffffffffffffffff16815260200190815260200160002060020154614b23565b80600460008573ffffffffffffffffffffffffffffffffffffffff1673ffffffffffffffffffffffffffffffffffffffff16815260200190815260200160002060030160006101000a81548173ffffffffffffffffffffffffffffffffffffffff021916908373ffffffffffffffffffffffffffffffffffffffff16021790555081600460008573ffffffffffffffffffffffffffffffffffffffff1673ffffffffffffffffffffffffffffffffffffffff1681526020019081526020016000206000018190555081600460008573ffffffffffffffffffffffffffffffffffffffff1673ffffffffffffffffffffffffffffffffffffffff168152602001908152602001600020600201819055506000809054906101000a900473ffffffffffffffffffffffffffffffffffffffff1673ffffffffffffffffffffffffffffffffffffffff16630f1f7bc9826040518263ffffffff1660e01b8152600401808273ffffffffffffffffffffffffffffffffffffffff1673ffffffffffffffffffffffffffffffffffffffff16815260200191505060206040518083038186803b1580156144c857600080fd5b505afa1580156144dc573d6000803e3d6000fd5b505050506040513d60208110156144f257600080fd5b8101908080519060200190929190505050600460008573ffffffffffffffffffffffffffffffffffffffff1673ffffffffffffffffffffffffffffffffffffffff16815260200190815260200160002060010181905550505050565b600080600460008473ffffffffffffffffffffffffffffffffffffffff1673ffffffffffffffffffffffffffffffffffffffff1681526020019081526020016000206008015490506000600460008573ffffffffffffffffffffffffffffffffffffffff1673ffffffffffffffffffffffffffffffffffffffff16815260200190815260200160002060090160009054906101000a900473ffffffffffffffffffffffffffffffffffffffff1690506000600460008673ffffffffffffffffffffffffffffffffffffffff1673ffffffffffffffffffffffffffffffffffffffff16815260200190815260200160002060070154905060008060009054906101000a900473ffffffffffffffffffffffffffffffffffffffff1673ffffffffffffffffffffffffffffffffffffffff1663f609507b846040518263ffffffff1660e01b8152600401808273ffffffffffffffffffffffffffffffffffffffff1673ffffffffffffffffffffffffffffffffffffffff16815260200191505060206040518083038186803b1580156146e457600080fd5b505afa1580156146f8573d6000803e3d6000fd5b505050506040513d602081101561470e57600080fd5b81019080805190602001909291905050509050600081141561477b576040517f08c379a00000000000000000000000000000000000000000000000000000000081526004018080602001828103825260228152602001806150f86022913960400191505060405180910390fd5b600082828161478657fe5b049050828286028161479457fe5b0495505050505050919050565b600080600460008473ffffffffffffffffffffffffffffffffffffffff1673ffffffffffffffffffffffffffffffffffffffff16815260200190815260200160002060050160009054906101000a900473ffffffffffffffffffffffffffffffffffffffff1690506000600460008573ffffffffffffffffffffffffffffffffffffffff1673ffffffffffffffffffffffffffffffffffffffff16815260200190815260200160002060090160009054906101000a900473ffffffffffffffffffffffffffffffffffffffff1690506000600460008673ffffffffffffffffffffffffffffffffffffffff1673ffffffffffffffffffffffffffffffffffffffff16815260200190815260200160002060040154600360008573ffffffffffffffffffffffffffffffffffffffff1673ffffffffffffffffffffffffffffffffffffffff16815260200190815260200160002060000154600360008673ffffffffffffffffffffffffffffffffffffffff1673ffffffffffffffffffffffffffffffffffffffff1681526020019081526020016000206005015402029050600061494a8661454e565b90506000600360008573ffffffffffffffffffffffffffffffffffffffff1673ffffffffffffffffffffffffffffffffffffffff168152602001908152602001600020600001548202905080600a8402816149a157fe5b0495505050505050919050565b8373ffffffffffffffffffffffffffffffffffffffff1663a9059cbb83856040518363ffffffff1660e01b8152600401808373ffffffffffffffffffffffffffffffffffffffff1673ffffffffffffffffffffffffffffffffffffffff16815260200182815260200192505050602060405180830381600087803b158015614a3557600080fd5b505af1158015614a49573d6000803e3d6000fd5b505050506040513d6020811015614a5f57600080fd5b8101908080519060200190929190505050508015614acc5782600360008673ffffffffffffffffffffffffffffffffffffffff1673ffffffffffffffffffffffffffffffffffffffff16815260200190815260200160002060060160008282540192505081905550614b1d565b82600360008673ffffffffffffffffffffffffffffffffffffffff1673ffffffffffffffffffffffffffffffffffffffff168152602001908152602001600020600701600082825403925050819055505b50505050565b60008060009054906101000a900473ffffffffffffffffffffffffffffffffffffffff1673ffffffffffffffffffffffffffffffffffffffff16633a0c6c2684846040518363ffffffff1660e01b8152600401808373ffffffffffffffffffffffffffffffffffffffff1673ffffffffffffffffffffffffffffffffffffffff16815260200182815260200192505050602060405180830381600087803b158015614bcd57600080fd5b505af1158015614be1573d6000803e3d6000fd5b505050506040513d6020811015614bf757600080fd5b81019080805190602001909291905050509050614c1383614f22565b50505050565b8473ffffffffffffffffffffffffffffffffffffffff166323b872dd8430876040518463ffffffff1660e01b8152600401808473ffffffffffffffffffffffffffffffffffffffff1673ffffffffffffffffffffffffffffffffffffffff1681526020018373ffffffffffffffffffffffffffffffffffffffff1673ffffffffffffffffffffffffffffffffffffffff1681526020018281526020019350505050602060405180830381600087803b158015614cd457600080fd5b505af1158015614ce8573d6000803e3d6000fd5b505050506040513d6020811015614cfe57600080fd5b8101908080519060200190929190505050508115614d6b5783600360008773ffffffffffffffffffffffffffffffffffffffff1673ffffffffffffffffffffffffffffffffffffffff16815260200190815260200160002060080160008282540192505081905550614e18565b8015614dc65783600360008773ffffffffffffffffffffffffffffffffffffffff1673ffffffffffffffffffffffffffffffffffffffff16815260200190815260200160002060060160008282540392505081905550614e17565b83600360008773ffffffffffffffffffffffffffffffffffffffff1673ffffffffffffffffffffffffffffffffffffffff168152602001908152602001600020600701600082825401925050819055505b5b5050505050565b6000614e2a8561156e565b614e338361156e565b600084600360008873ffffffffffffffffffffffffffffffffffffffff1673ffffffffffffffffffffffffffffffffffffffff16815260200190815260200160002060000154600360008973ffffffffffffffffffffffffffffffffffffffff1673ffffffffffffffffffffffffffffffffffffffff16815260200190815260200160002060050154020290506000600360008673ffffffffffffffffffffffffffffffffffffffff1673ffffffffffffffffffffffffffffffffffffffff168152602001908152602001600020600001548402905080600a830281614f1557fe5b0492505050949350505050565b600360008273ffffffffffffffffffffffffffffffffffffffff1673ffffffffffffffffffffffffffffffffffffffff16815260200190815260200160002060070154600360008373ffffffffffffffffffffffffffffffffffffffff1673ffffffffffffffffffffffffffffffffffffffff1681526020019081526020016000206006015481614faf57fe5b04600360008373ffffffffffffffffffffffffffffffffffffffff1673ffffffffffffffffffffffffffffffffffffffff1681526020019081526020016000206002018190555050565b828054600181600116156101000203166002900490600052602060002090601f016020900481019282601f1061503a57805160ff1916838001178555615068565b82800160010185558215615068579182015b8281111561506757825182559160200191906001019061504c565b5b5090506150759190615079565b5090565b61509b91905b8082111561509757600081600090555060010161507f565b5090565b9056fe43616e6e6f74206465637265617365206465706f7369747320696620697420726573756c747320696e206f766572626f72726f77696e6773416d6f756e7420726570616964206973206c6172676572207468616e206f776564494e74657265737420546f74616c2043756d6d756c6174696f6e206973207a65726f436f6c6c61746572616c20616c726561647920696e20616e6f7468657220746f6b656e206f7220636f6c6c61746572616c20746f6b656e20213d206465706f73697420746f6b656e476976656e20616d6f756e742067726561746572207468616e20746865206578697374696e6720636f6c6c61746572616c43616e6e6f7420626f72726f77206f76657220636f6c6c61746572616c20666163746f72546f6b656e20636f6e74726163742061646472657373206973206e6f74206120636f6e74726163744164647265737320616c72656164792068617320636f6c6c61746572616c20696e20616e6f7468657220746f6b656e416d6f756e742072656465656d6564206973206c6172676572207468616e2061737369676e65645468657265206973206e6f206c6f616e20746f20726570617920666f72207573657243616e6e6f7420626f72726f7720696620697420726573756c747320696e206f766572626f72726f77696e67734465706f73697420697320302c2063616e6e6f742073776974636820746f20636f6c6c61746572616ca264697066735822122056e94bb2d316cd14681086a61ade22f3ab0b19047c398cf652977a9f40a5a42f64736f6c63430006020033496e746572657374205661726961626c657320636f6e74726163742061646472657373206973206e6f74206120636f6e7472616374",
  "source": "// SPDX-License-Identifier: MIT\npragma solidity >=0.4.22 <0.8.0;\nimport \"./ERC20.sol\";\nimport \"./Address.sol\";\nimport \"./InterestVariables.sol\";\nimport \"./Exchange.sol\";\n\ncontract LiquidityPool {\n\n  InterestVariables private ivar;\n  Exchange private exchange;\n\n\n  constructor(address ivar_add, address exchange_add) public {\n    require(isContract(ivar_add) && isContract(exchange_add), 'Interest Variables contract address is not a contract');\n    ivar = InterestVariables(ivar_add);\n    exchange = Exchange(exchange_add);\n  }\n\n  address private owner;\n\n  mapping (address => TokenCoreData) public tokensCoreData;\n  mapping (address => UserBalance) public usersBalance;\n\n  struct UserBalance{\n    uint depositedAmount;\n    uint init_interest_deposit;\n    uint cummulated_ir_deposit;\n    address tokenDeposited;\n    uint collateralAmount;\n    address tokenCollateralised;\n    uint borrowedAmount;\n    uint init_interest_borrow;\n    uint cummulated_ir_borrow;\n    address tokenBorrowed;\n  }\n\n  struct TokenCoreData{\n    uint price;\n    string symbol;\n    uint utilisation;\n    uint borrowIR;\n    uint depositIR;\n    uint collateral_factor;\n    uint totalBorrowed;\n    uint totalDeposited;\n    uint totalCollateral;\n  }\n\n  modifier onlyOwner() {\n      require(msg.sender == owner, \"Only owner can call transaction (LP)\");\n      _;\n  }\n\n  event Loan(\n    address user,\n    uint timestamp\n  );\n\n  event PriceChange(\n    address token,\n    uint oldPrice,\n    uint newPrice\n  );\n\n  // create token with all data\n  function createToken(string memory _symbol,\n    address _token_address,\n    uint _optimal_utilisation,\n    uint _collateral_factor,\n    uint _base_rate,\n    uint _slope1,\n    uint _slope2,\n    uint _spread,\n    uint _price) public{\n      require(isContract(_token_address), 'Token contract address is not a contract');\n      ivar.createToken(_symbol, _token_address, _optimal_utilisation, _collateral_factor, _base_rate, _slope1, _slope2, _spread);\n      uint borrowIR = ivar.borrowInterestRate(_token_address, 0);\n      uint depositIR = ivar.depositInterestRate(_token_address, 0, borrowIR);\n      tokensCoreData[_token_address] = TokenCoreData(_price, _symbol, 0, borrowIR, depositIR, _collateral_factor, 0, 0, 0);\n  }\n\n  // update prices from the exchange\n  function updateTokenPrice(address token) public{\n    require(keccak256(bytes(tokensCoreData[token].symbol)) != keccak256(bytes(\"\")), \"Token not supported\");\n    uint oldPrice = tokensCoreData[token].price;\n    tokensCoreData[token].price = exchange.getPrice(token);\n    emit PriceChange(token, oldPrice, tokensCoreData[token].price);\n  }\n\n  function isContract(address _addr) public view returns (bool){\n    uint32 size;\n    assembly {\n      size := extcodesize(_addr)\n    }\n    return size > 0;\n  }\n\n  // update utilisation rate\n  function updateUtilisationRate(address tokenId) internal{\n    tokensCoreData[tokenId].utilisation = tokensCoreData[tokenId].totalBorrowed / tokensCoreData[tokenId].totalDeposited;\n  }\n\n  // cummulate interest rate for the token\n  function updateInterestRate(address user, address token, uint oldUtilisationRate) internal{\n    bool updated = ivar.compoundIR(token, oldUtilisationRate);\n    // if not updated means that the compounded IR exceeds uint\n    updateUtilisationRate(token);\n  }\n\n  // add to liquidity pool of token\n  function addToReserves(address tokenId, uint amount, address payable user, bool isCollateral, bool isRepayment) internal{\n    ERC20(tokenId).transferFrom(user, address(this), amount);\n    if(isCollateral){\n      tokensCoreData[tokenId].totalCollateral+=amount;\n    }else if(isRepayment){\n      tokensCoreData[tokenId].totalBorrowed-=amount;\n    }else{\n      tokensCoreData[tokenId].totalDeposited+=amount;\n    }\n  }\n\n  // take out from liquidity pool of token\n  function takeFromReserves(address tokenId, uint amount, address payable user, bool isLoan) internal{\n    ERC20(tokenId).transfer(user,  amount);\n    if(isLoan){\n      tokensCoreData[tokenId].totalBorrowed+=amount;\n    }else{ //redeeming\n      tokensCoreData[tokenId].totalDeposited-=amount;\n    }\n  }\n\n  function getReserveBalance(address tokenId) public view returns(uint){\n    return ERC20(tokenId).balanceOf(address(this));\n  }\n\n\n  function deposit(address payable user, uint amount, address tokenId) public{\n    //make sure users only have deposits in one token\n    require(usersBalance[user].tokenDeposited == address(0) || usersBalance[user].depositedAmount == 0, \"Address already has a deposit\");\n    //make sure token is supported\n    require(keccak256(bytes(tokensCoreData[tokenId].symbol)) != keccak256(bytes(\"\")), \"Token does not have LP\");\n    addToReserves(tokenId, amount, user, false, false);\n    updateInterestRate(user,tokenId,tokensCoreData[tokenId].utilisation);\n    usersBalance[user].tokenDeposited = tokenId;\n    usersBalance[user].depositedAmount = amount;\n    usersBalance[user].cummulated_ir_deposit = amount;\n    usersBalance[user].init_interest_deposit = ivar.getIRDepositTotalCummulation(tokenId);\n  }\n\n  function borrow(address payable user, uint amount, address tokenId) public{\n    //make sure token is supported\n    require(keccak256(bytes(tokensCoreData[tokenId].symbol)) != keccak256(bytes(\"\")), \"Token does not have LP\");\n    // make sure subtracting amount from deposits does not make the total deposited less than total borrow\n    require(tokensCoreData[tokenId].totalDeposited > tokensCoreData[tokenId].totalBorrowed + amount, \"Cannot borrow if it results in overborrowings\");\n    //make sure users only have borrowings in one token\n    require(usersBalance[user].tokenBorrowed == address(0) || usersBalance[user].borrowedAmount == 0, \"Address already has a loan\");\n    // make sure it borrowes less than the collateral _collateral_factor\n    address collateralToken = usersBalance[user].tokenCollateralised;\n    uint healthFactorAfter = getHealthFactorUnsafe(collateralToken, usersBalance[user].collateralAmount, tokenId, amount);\n    require(healthFactorAfter > 1000, \"Cannot borrow over collateral factor\");\n\n    usersBalance[user].tokenBorrowed = tokenId;\n    usersBalance[user].borrowedAmount = amount;\n    usersBalance[user].cummulated_ir_borrow = amount;\n    takeFromReserves(tokenId, amount, user, true);\n    updateInterestRate(user,tokenId,tokensCoreData[tokenId].utilisation);\n    usersBalance[user].init_interest_borrow = ivar.getIRBorrowTotalCummulation(tokenId);\n    emit Loan(user, now);\n  }\n\n  function depositCollateral(address payable user, uint amount, address tokenId) public{\n    //make sure users only have deposits in one token\n    require(usersBalance[user].tokenCollateralised == address(0) || usersBalance[user].tokenCollateralised == tokenId, \"Address already has collateral in another token\");\n    //make sure token is supported\n    require(keccak256(bytes(tokensCoreData[tokenId].symbol)) != keccak256(bytes(\"\")), \"Token not supported\");\n    addToReserves(tokenId, amount, user, true, false);\n    if(usersBalance[user].tokenCollateralised != tokenId){\n      usersBalance[user].tokenCollateralised = tokenId;\n    }\n    usersBalance[user].collateralAmount += amount;\n  }\n\n  // Currently switch from deposit to collaterall can only be done from the principle depositedAmount\n  // not from the accumulated interest\n  function switchDepositToCollateral(address payable user, uint amount, address tokenId) public{\n    //make sure token is supported\n    require(keccak256(bytes(tokensCoreData[tokenId].symbol)) != keccak256(bytes(\"\")), \"Token does not exist\");\n    // make sure deposited is not zero\n    require(usersBalance[user].depositedAmount >= amount, \"Deposit is 0, cannot switch to collateral\");\n    // make sure collateral is not in another token\n    require(usersBalance[user].tokenCollateralised == address(0) || (usersBalance[user].tokenCollateralised == tokenId && usersBalance[user].tokenDeposited == tokenId), \"Collateral already in another token or collateral token != deposit token\");\n    // make sure subtracting amount from deposits does not make the total deposited less than total borrow\n    require(tokensCoreData[tokenId].totalDeposited - amount > tokensCoreData[tokenId].totalBorrowed, \"Cannot decrease deposits if it results in overborrowings\");\n\n    usersBalance[user].depositedAmount -= amount;\n    uint cummulatedInterest = getCummulatedInterestDeposit(user);\n    usersBalance[user].cummulated_ir_deposit = cummulatedInterest - amount;\n    if(usersBalance[user].tokenCollateralised != tokenId){\n      usersBalance[user].tokenCollateralised = tokenId;\n    }\n    tokensCoreData[tokenId].totalCollateral +=amount; // increase reserves collateral\n    tokensCoreData[tokenId].totalDeposited -=amount; // decrease reserves deposits\n    updateInterestRate(user,tokenId,tokensCoreData[tokenId].utilisation);\n    usersBalance[user].collateralAmount += amount;\n  }\n\n  function repay(address payable user, uint amount) public{\n    // check if there is something to repay\n    require(usersBalance[user].borrowedAmount != 0, \"There is no loan to repay for user\");\n\n    // check if given amount does not exceed the owed amount\n    uint cummulatedInterest = getCummulatedInterestLoan(user); // cummulated amount owed\n    require(cummulatedInterest >= amount, \"Amount repaid is larger than owed\");\n\n    // what is not subtracted from the totalBorrowed of reserves is extra\n    uint borrowedAmount = usersBalance[user].borrowedAmount;\n    uint toPool = amount;\n    uint extra = 0;\n    if(amount > borrowedAmount){\n      toPool = borrowedAmount;\n      extra = amount-toPool;\n    }\n\n    address token = usersBalance[user].tokenBorrowed;\n\n    // repay what was borrowed to reserves\n    addToReserves(token, toPool, user,false, true);\n    // give interest payment (extra) to reserves as well\n    ERC20(token).transferFrom(user, address(this), extra);\n\n    // reinitialise initial interest\n    usersBalance[user].borrowedAmount -= toPool;\n    usersBalance[user].cummulated_ir_borrow = cummulatedInterest - amount;\n    usersBalance[user].init_interest_borrow = ivar.getIRBorrowTotalCummulation(token);\n    // modify utilisation rate and interest\n    updateInterestRate(user, token, tokensCoreData[token].utilisation);\n  }\n\n  function redeem(address payable user, uint amount) public{\n    // check if given amount does not exceed the deposit+interest\n    uint cummulatedInterest = getCummulatedInterestDeposit(user); // cummulated amount owed\n    require(cummulatedInterest >= amount, \"Amount redeemed is larger than assigned\");\n\n    // split the amount requested\n    uint depositedAmount = usersBalance[user].depositedAmount;\n    uint fromPool = amount;\n    uint extra = 0;\n    if(amount > depositedAmount){\n      fromPool = depositedAmount;\n      extra = amount - depositedAmount;\n    }\n\n    address token = usersBalance[user].tokenDeposited;\n\n    // check if enough liquidity in reserves\n    require( tokensCoreData[token].totalDeposited - fromPool >= tokensCoreData[token].totalBorrowed, \"Demand would exceed supply\");\n    // check for extra liquidity obtained from interest rate payments on loans\n    uint reservesBalance = getReserveBalance(token);\n    require(extra < reservesBalance - tokensCoreData[token].totalDeposited - tokensCoreData[token].totalCollateral, \"Not enough extra reserves\");\n\n    // update user's deposit variables\n    usersBalance[user].depositedAmount -= fromPool;\n    usersBalance[user].cummulated_ir_deposit = cummulatedInterest - amount;\n    usersBalance[user].init_interest_deposit = ivar.getIRDepositTotalCummulation(token);\n\n    // give from reserves\n    takeFromReserves(token,fromPool,user,false);\n    // transfer extra\n    ERC20(token).transfer(user,extra);\n    // modify utilisation rate and interest\n    updateInterestRate(user, token, tokensCoreData[token].utilisation);\n  }\n\n  function redeemCollateral(address payable user, uint amount) public{\n    // check if there is enough to redeem\n    require(usersBalance[user].collateralAmount >= amount,\"Given amount greater than the existing collateral\");\n    // check if redeeming would not affect the health factor\n    address collateralToken = usersBalance[user].tokenCollateralised;\n    address borrowedToken = usersBalance[user].tokenBorrowed;\n    uint cummulatedInterest = getCummulatedInterestLoan(user); // cummulated amount owed\n    uint healthFactorAfter = getHealthFactorUnsafe(collateralToken, usersBalance[user].collateralAmount - amount, borrowedToken, cummulatedInterest);\n    require( healthFactorAfter > 1000, \"Health factor would be too low\");\n    // do changes in user's balances\n    usersBalance[user].collateralAmount -= amount;\n    // do changes in reserves data\n    tokensCoreData[collateralToken].totalCollateral -= amount;\n    ERC20(collateralToken).transfer(user,amount);\n  }\n\n  // get value of deposit with cummulated interest so far\n  function getCummulatedInterestDeposit(address user) public view returns (uint){\n    // get initial deposit\n    uint balanceSoFar = usersBalance[user].cummulated_ir_deposit;\n    address token = usersBalance[user].tokenDeposited;\n    uint initial_ir = usersBalance[user].init_interest_deposit;\n    // get token interest tokenCummulation\n    uint interest_total_cummulation = ivar.getIRDepositTotalCummulation(token);\n    require(interest_total_cummulation != 0, \"INterest Total Cummulation is zero\" );\n    uint interest_earned = interest_total_cummulation/initial_ir;\n\n    // compute interest since depositing\n    return (balanceSoFar*interest_total_cummulation)/initial_ir;\n  }\n\n  // get value of deposit with cummulated interest so far\n  function getCummulatedInterestLoan(address user) public view returns (uint){\n    // get initial deposit\n    uint balanceSoFar = usersBalance[user].cummulated_ir_borrow;\n    address token = usersBalance[user].tokenBorrowed;\n    uint initial_ir = usersBalance[user].init_interest_borrow;\n    // get token interest tokenCummulation\n    uint interest_total_cummulation = ivar.getIRBorrowTotalCummulation(token);\n    require(interest_total_cummulation != 0, \"INterest Total Cummulation is zero\" );\n    uint interest_earned = interest_total_cummulation/initial_ir;\n\n    // compute interest since depositing\n    return (balanceSoFar*interest_total_cummulation)/initial_ir;\n  }\n\n  // used for liquidations\n  function getUserDetails(address user) public view returns(uint, address, uint, address){\n    uint collateral = usersBalance[user].collateralAmount;\n    address collToken = usersBalance[user].tokenCollateralised;\n    uint owed = getCummulatedInterestLoan(user);\n    address borrToken = usersBalance[user].tokenBorrowed;\n    return (collateral, collToken, owed, borrToken);\n  }\n\n  // returns health factor *1000\n  function getHealthFactor(address user) public view returns(uint){\n    address collToken = usersBalance[user].tokenCollateralised;\n    address borrToken = usersBalance[user].tokenBorrowed;\n    // maximum y=the user can borrow against their collateral (*100)\n    uint upperLimitLoanUSD = tokensCoreData[collToken].collateral_factor * tokensCoreData[collToken].price * usersBalance[user].collateralAmount;\n    uint cummulatedLoan = getCummulatedInterestLoan(user);\n    // how much they owe in USD\n    uint owedUSD = cummulatedLoan * tokensCoreData[borrToken].price;\n    // returns health factor *1000\n    return (upperLimitLoanUSD*10)/owedUSD;\n  }\n\n  // returns health factor *1000\n  function getHealthFactorUnsafe(address collToken, uint collAmount, address borrToken, uint owed) internal returns(uint){\n    // maximum y=the user can borrow against their collateral (*100)\n    updateTokenPrice(collToken);\n    updateTokenPrice(borrToken);\n    uint upperLimitLoanUSD = tokensCoreData[collToken].collateral_factor * tokensCoreData[collToken].price * collAmount;\n    // how much they owe in USD\n    uint owedUSD = owed * tokensCoreData[borrToken].price;\n    return (upperLimitLoanUSD*10)/owedUSD;\n  }\n\n  function liquidate(address user) public{\n    // check if the account has health Factor > 1\n    address collToken = usersBalance[user].tokenCollateralised;\n    address borrToken = usersBalance[user].tokenBorrowed;\n    updateTokenPrice(collToken);\n    updateTokenPrice(borrToken);\n    uint upperLimitLoanUSD = tokensCoreData[collToken].collateral_factor * tokensCoreData[collToken].price * usersBalance[user].collateralAmount;\n    uint cummulatedLoan = getCummulatedInterestLoan(user);\n    uint owedUSD = cummulatedLoan * tokensCoreData[borrToken].price * 100;\n    require(upperLimitLoanUSD < owedUSD, \"Loan has a safe health factor\");\n\n    // get money from sender (loan)\n    // sender has to give me the amounnt owed\n    ERC20(borrToken).transferFrom(msg.sender, address(this), cummulatedLoan);\n\n    // send to sender (collateral)\n    // sender has to receive the token collateralised correspondend with amount owed*1.05\n    uint toLiquidator = (cummulatedLoan * tokensCoreData[borrToken].price * 105) / (tokensCoreData[collToken].price * 100);\n    ERC20(collToken).transfer(msg.sender, toLiquidator);\n\n    // modify details\n    usersBalance[user].borrowedAmount = 0;\n    usersBalance[user].cummulated_ir_borrow = 0;\n    usersBalance[user].collateralAmount -= toLiquidator;\n    tokensCoreData[borrToken].totalBorrowed -= cummulatedLoan;\n    tokensCoreData[collToken].totalCollateral -= toLiquidator;\n  }\n\n\n}\n",
  "sourcePath": "/Users/ioanaroceanu/Documents/Project/contracts/LiquidityPool.sol",
  "compiler": {
    "name": "solc",
    "version": "0.6.2+commit.bacdbe57.Emscripten.clang"
  },
  "schemaVersion": "3.3.2",
  "updatedAt": "2021-02-06T09:32:12.832Z",
  "networkType": "ethereum",
  "devdoc": {
    "methods": {}
  },
  "userdoc": {
    "methods": {}
  }
}