{
  "contractName": "LiquidationManager",
  "abi": [
    {
      "inputs": [],
      "stateMutability": "nonpayable",
      "type": "constructor"
    },
    {
      "inputs": [],
      "name": "lp_address",
      "outputs": [
        {
          "internalType": "address",
          "name": "",
          "type": "address"
        }
      ],
      "stateMutability": "view",
      "type": "function",
      "constant": true
    },
    {
      "inputs": [
        {
          "internalType": "address",
          "name": "",
          "type": "address"
        }
      ],
      "name": "neededTokens",
      "outputs": [
        {
          "internalType": "uint256",
          "name": "",
          "type": "uint256"
        }
      ],
      "stateMutability": "view",
      "type": "function",
      "constant": true
    },
    {
      "inputs": [
        {
          "internalType": "address",
          "name": "",
          "type": "address"
        }
      ],
      "name": "reserves",
      "outputs": [
        {
          "internalType": "uint256",
          "name": "",
          "type": "uint256"
        }
      ],
      "stateMutability": "view",
      "type": "function",
      "constant": true
    },
    {
      "inputs": [
        {
          "internalType": "address",
          "name": "lp_add",
          "type": "address"
        },
        {
          "internalType": "address",
          "name": "ex_add",
          "type": "address"
        }
      ],
      "name": "setLPandEx",
      "outputs": [],
      "stateMutability": "nonpayable",
      "type": "function"
    },
    {
      "inputs": [
        {
          "internalType": "address",
          "name": "token",
          "type": "address"
        },
        {
          "internalType": "uint256",
          "name": "amount",
          "type": "uint256"
        }
      ],
      "name": "registerNeed",
      "outputs": [],
      "stateMutability": "nonpayable",
      "type": "function"
    },
    {
      "inputs": [
        {
          "internalType": "address",
          "name": "tokenGet",
          "type": "address"
        },
        {
          "internalType": "uint256",
          "name": "amountGet",
          "type": "uint256"
        },
        {
          "internalType": "address",
          "name": "tokenGive",
          "type": "address"
        },
        {
          "internalType": "address",
          "name": "user",
          "type": "address"
        }
      ],
      "name": "exchange",
      "outputs": [],
      "stateMutability": "nonpayable",
      "type": "function"
    }
  ],
  "bytecode": "0x608060405234801561001057600080fd5b50600580546001600160a01b031916331790556108f3806100326000396000f3fe608060405234801561001057600080fd5b50600436106100625760003560e01c80630df61fec146100675780634f58cf4c1461008b5780636316bfef146100c3578063b7ee9aac14610101578063d66bd5241461012d578063e0829b2e14610153575b600080fd5b61006f610181565b604080516001600160a01b039092168252519081900360200190f35b6100b1600480360360208110156100a157600080fd5b50356001600160a01b0316610190565b60408051918252519081900360200190f35b6100ff600480360360808110156100d957600080fd5b506001600160a01b038135811691602081013591604082013581169160600135166101a2565b005b6100ff6004803603604081101561011757600080fd5b506001600160a01b0381351690602001356105e1565b6100b16004803603602081101561014357600080fd5b50356001600160a01b031661066c565b6100ff6004803603604081101561016957600080fd5b506001600160a01b038135811691602001351661067e565b6001546001600160a01b031681565b60036020526000908152604090205481565b6001600160a01b0384166000908152600360205260409020548310156101ff576040805162461bcd60e51b815260206004820152600d60248201526c08ec2ecca40e8dede40daeac6d609b1b604482015290519081900360640190fd5b600254604080516341976e0960e01b81526001600160a01b0387811660048301529151600093610314936102939360699361028e938b9316916341976e09916024808301926020929190829003018186803b15801561025d57600080fd5b505afa158015610271573d6000803e3d6000fd5b505050506040513d602081101561028757600080fd5b5051610701565b610701565b600254604080516341976e0960e01b81526001600160a01b038881166004830152915191909216916341976e09916024808301926020929190829003018186803b1580156102e057600080fd5b505afa1580156102f4573d6000803e3d6000fd5b505050506040513d602081101561030a57600080fd5b5051606402610763565b905080836001600160a01b03166370a08231306040518263ffffffff1660e01b815260040180826001600160a01b0316815260200191505060206040518083038186803b15801561036457600080fd5b505afa158015610378573d6000803e3d6000fd5b505050506040513d602081101561038e57600080fd5b505110156103d8576040805162461bcd60e51b8152602060048201526012602482015271082e6d6cac840ccdee440e8dede40daeac6d60731b604482015290519081900360640190fd5b604080516323b872dd60e01b81526001600160a01b038481166004830152306024830152604482018790529151918716916323b872dd916064808201926020929091908290030181600087803b15801561043157600080fd5b505af1158015610445573d6000803e3d6000fd5b505050506040513d602081101561045b57600080fd5b50506001546040805163a9059cbb60e01b81526001600160a01b0392831660048201526024810187905290519187169163a9059cbb916044808201926020929091908290030181600087803b1580156104b357600080fd5b505af11580156104c7573d6000803e3d6000fd5b505050506040513d60208110156104dd57600080fd5b5050600080546040805162e5a9f560e21b81526001600160a01b0387811660048301526024820186905289811660448301526064820189905291519190921692630396a7d4926084808201939182900301818387803b15801561053f57600080fd5b505af1158015610553573d6000803e3d6000fd5b50505050826001600160a01b031663a9059cbb83836040518363ffffffff1660e01b815260040180836001600160a01b0316815260200182815260200192505050602060405180830381600087803b1580156105ae57600080fd5b505af11580156105c2573d6000803e3d6000fd5b505050506040513d60208110156105d857600080fd5b50505050505050565b6001546001600160a01b03163314610629576040805162461bcd60e51b8152602060048083019190915260248201526304f574c560e41b604482015290519081900360640190fd5b6001600160a01b03821660009081526003602052604090205461064c90826107a2565b6001600160a01b0390921660009081526003602052604090209190915550565b60046020526000908152604090205481565b6005546001600160a01b031633146106c6576040805162461bcd60e51b8152602060048083019190915260248201526304f574c560e41b604482015290519081900360640190fd5b600080546001600160a01b039384166001600160a01b0319918216811790925560018054821690921790915560028054929093169116179055565b6000826107105750600061075d565b8282028284828161071d57fe5b041461075a5760405162461bcd60e51b815260040180806020018281038252602181526020018061089d6021913960400191505060405180910390fd5b90505b92915050565b600061075a83836040518060400160405280601a815260200179536166654d6174683a206469766973696f6e206279207a65726f60301b8152506107fa565b60008282018381101561075a576040805162461bcd60e51b815260206004820152601b60248201527a536166654d6174683a206164646974696f6e206f766572666c6f7760281b604482015290519081900360640190fd5b600081836108865760405162461bcd60e51b81526004018080602001828103825283818151815260200191508051906020019080838360005b8381101561084b578181015183820152602001610833565b50505050905090810190601f1680156108785780820380516001836020036101000a031916815260200191505b509250505060405180910390fd5b50600083858161089257fe5b049594505050505056fe536166654d6174683a206d756c7469706c69636174696f6e206f766572666c6f77a2646970667358221220bcb82da99447871bb3f7d707766878681095045de089b3d7bd9b43e98a6c502964736f6c634300060c0033",
  "immutableReferences": {},
  "source": "// SPDX-License-Identifier: MIT\npragma solidity >=0.4.22 <0.8.0;\nimport \"./LiquidityPool.sol\";\nimport \"./Exchange.sol\";\nimport './SafeMath.sol';\n\ncontract LiquidationManager {\n\n  LiquidityPool private lp;\n  address public lp_address;\n  Exchange private ex;\n  mapping (address => uint) public neededTokens;\n  mapping (address => uint) public reserves;\n\n  constructor() public {\n    owner = msg.sender;\n  }\n\n  address private owner;\n\n  modifier onlyOwner() {\n      require(msg.sender == owner, \"OWLP\");\n      _;\n  }\n\n  modifier onlyLP() {\n      require(msg.sender == lp_address, \"OWLP\");\n      _;\n  }\n\n  function setLPandEx(address lp_add, address ex_add) public onlyOwner{\n    lp = LiquidityPool(lp_add);\n    lp_address = lp_add;\n    ex = Exchange(ex_add);\n  }\n\n  function registerNeed(address token, uint amount) public onlyLP {\n    neededTokens[token] = SafeMath.add(neededTokens[token], amount);\n  }\n\n  // user gives the token needed and received 105% of token from reserves\n  function exchange(address tokenGet, uint amountGet, address tokenGive, address user) public{\n    require(neededTokens[tokenGet] <= amountGet, \"Gave too much\");\n    uint amountGive = SafeMath.div(SafeMath.mul(105, SafeMath.mul(amountGet, ex.getPrice(tokenGet))), ex.getPrice(tokenGive)*100);\n    require(ERC20(tokenGive).balanceOf(address(this)) >=  amountGive, \"Asked for too much\");\n    // get from user the token needed and transfer it to LP (token needed is the one borrowed backed by unexhangable token)\n    ERC20(tokenGet).transferFrom(user, address(this), amountGet);\n    ERC20(tokenGet).transfer(lp_address, amountGet);\n    // LP totalborrow TokenGet -- amount get\n    // LP totalColl TokenGive -- amountGive\n    lp.modifyReserves(tokenGive, amountGive, tokenGet, amountGet);\n    // give user the token they aked for\n    ERC20(tokenGive).transfer(user, amountGive);\n  }\n\n\n\n}\n",
  "sourcePath": "/Users/ioanaroceanu/Documents/Project/contracts/LiquidationManager.sol",
  "compiler": {
    "name": "solc",
    "version": "0.6.12+commit.27d51765.Emscripten.clang"
  },
  "schemaVersion": "3.3.2",
  "updatedAt": "2021-03-08T18:04:20.063Z",
  "networkType": "ethereum",
  "devdoc": {
    "kind": "dev",
    "methods": {},
    "version": 1
  },
  "userdoc": {
    "kind": "user",
    "methods": {},
    "version": 1
  }
}