{
  "contractName": "LiquidityPool",
  "abi": [
    {
      "inputs": [],
      "stateMutability": "nonpayable",
      "type": "constructor"
    },
    {
      "inputs": [
        {
          "internalType": "address",
          "name": "",
          "type": "address"
        }
      ],
      "name": "usersBalance",
      "outputs": [
        {
          "internalType": "uint256",
          "name": "depositedAmount",
          "type": "uint256"
        },
        {
          "internalType": "address",
          "name": "tokenDeposited",
          "type": "address"
        },
        {
          "internalType": "uint256",
          "name": "collateralAmount",
          "type": "uint256"
        },
        {
          "internalType": "address",
          "name": "tokenCollateralised",
          "type": "address"
        },
        {
          "internalType": "uint256",
          "name": "borrowedAmount",
          "type": "uint256"
        },
        {
          "internalType": "address",
          "name": "tokenBorrowed",
          "type": "address"
        }
      ],
      "stateMutability": "view",
      "type": "function",
      "constant": true
    },
    {
      "inputs": [
        {
          "internalType": "string",
          "name": "_symbol",
          "type": "string"
        },
        {
          "internalType": "address",
          "name": "_token_address",
          "type": "address"
        },
        {
          "internalType": "uint256",
          "name": "_optimal_utilisation",
          "type": "uint256"
        },
        {
          "internalType": "uint256",
          "name": "_collateral_factor",
          "type": "uint256"
        },
        {
          "internalType": "uint256",
          "name": "_base_rate",
          "type": "uint256"
        },
        {
          "internalType": "uint256",
          "name": "_slope1",
          "type": "uint256"
        },
        {
          "internalType": "uint256",
          "name": "_slope2",
          "type": "uint256"
        },
        {
          "internalType": "uint256",
          "name": "_spread",
          "type": "uint256"
        },
        {
          "internalType": "uint256",
          "name": "_price",
          "type": "uint256"
        }
      ],
      "name": "createToken",
      "outputs": [],
      "stateMutability": "nonpayable",
      "type": "function"
    },
    {
      "inputs": [
        {
          "internalType": "address",
          "name": "tokenId",
          "type": "address"
        },
        {
          "internalType": "uint256",
          "name": "_price",
          "type": "uint256"
        }
      ],
      "name": "updateTokenPrice",
      "outputs": [],
      "stateMutability": "nonpayable",
      "type": "function"
    },
    {
      "inputs": [
        {
          "internalType": "address",
          "name": "tokenId",
          "type": "address"
        }
      ],
      "name": "getReserveBalance",
      "outputs": [],
      "stateMutability": "nonpayable",
      "type": "function"
    },
    {
      "inputs": [
        {
          "internalType": "address payable",
          "name": "user",
          "type": "address"
        },
        {
          "internalType": "uint256",
          "name": "amount",
          "type": "uint256"
        },
        {
          "internalType": "address",
          "name": "tokenId",
          "type": "address"
        }
      ],
      "name": "deposit",
      "outputs": [],
      "stateMutability": "nonpayable",
      "type": "function"
    }
  ],
  "bytecode": "0x608060405234801561001057600080fd5b50610f69806100206000396000f3fe608060405234801561001057600080fd5b50600436106100575760003560e01c80630f3fb6231461005c57806315226b541461017e57806358324335146101c2578063d4ee651b146102c1578063f45346dc1461030f575b600080fd5b61017c600480360361012081101561007357600080fd5b810190808035906020019064010000000081111561009057600080fd5b8201836020820111156100a257600080fd5b803590602001918460018302840111640100000000831117156100c457600080fd5b91908080601f016020809104026020016040519081016040528093929190818152602001838380828437600081840152601f19601f820116905080830192505050505050509192919290803573ffffffffffffffffffffffffffffffffffffffff1690602001909291908035906020019092919080359060200190929190803590602001909291908035906020019092919080359060200190929190803590602001909291908035906020019092919050505061037d565b005b6101c06004803603602081101561019457600080fd5b81019080803573ffffffffffffffffffffffffffffffffffffffff1690602001909291905050506107ab565b005b610204600480360360208110156101d857600080fd5b81019080803573ffffffffffffffffffffffffffffffffffffffff169060200190929190505050610867565b604051808781526020018673ffffffffffffffffffffffffffffffffffffffff1673ffffffffffffffffffffffffffffffffffffffff1681526020018581526020018473ffffffffffffffffffffffffffffffffffffffff1673ffffffffffffffffffffffffffffffffffffffff1681526020018381526020018273ffffffffffffffffffffffffffffffffffffffff1673ffffffffffffffffffffffffffffffffffffffff168152602001965050505050505060405180910390f35b61030d600480360360408110156102d757600080fd5b81019080803573ffffffffffffffffffffffffffffffffffffffff16906020019092919080359060200190929190505050610903565b005b61037b6004803603606081101561032557600080fd5b81019080803573ffffffffffffffffffffffffffffffffffffffff16906020019092919080359060200190929190803573ffffffffffffffffffffffffffffffffffffffff16906020019092919050505061094e565b005b61038688610c94565b6103db576040517f08c379a000000000000000000000000000000000000000000000000000000000815260040180806020018281038252603e815260200180610ef6603e913960400191505060405180910390fd5b60007390a96bf14084fa258c3b6e6bbae53514e7cd176890508073ffffffffffffffffffffffffffffffffffffffff1663402fda408b8b8b8b8b8b8b8b6040518963ffffffff1660e01b815260040180806020018973ffffffffffffffffffffffffffffffffffffffff1673ffffffffffffffffffffffffffffffffffffffff16815260200188815260200187815260200186815260200185815260200184815260200183815260200182810382528a818151815260200191508051906020019080838360005b838110156104bd5780820151818401526020810190506104a2565b50505050905090810190601f1680156104ea5780820380516001836020036101000a031916815260200191505b509950505050505050505050600060405180830381600087803b15801561051057600080fd5b505af1158015610524573d6000803e3d6000fd5b5050505060008173ffffffffffffffffffffffffffffffffffffffff16638abe523f8b60006040518363ffffffff1660e01b8152600401808373ffffffffffffffffffffffffffffffffffffffff1673ffffffffffffffffffffffffffffffffffffffff1681526020018281526020019250505060206040518083038186803b1580156105b057600080fd5b505afa1580156105c4573d6000803e3d6000fd5b505050506040513d60208110156105da57600080fd5b8101908080519060200190929190505050905060008273ffffffffffffffffffffffffffffffffffffffff16637289370e8c6000856040518463ffffffff1660e01b8152600401808473ffffffffffffffffffffffffffffffffffffffff1673ffffffffffffffffffffffffffffffffffffffff168152602001838152602001828152602001935050505060206040518083038186803b15801561067d57600080fd5b505afa158015610691573d6000803e3d6000fd5b505050506040513d60208110156106a757600080fd5b810190808051906020019092919050505090506040518061010001604052808581526020018d81526020016000815260200183815260200182815260200160008152602001600081526020016000815250600160008d73ffffffffffffffffffffffffffffffffffffffff1673ffffffffffffffffffffffffffffffffffffffff16815260200190815260200160002060008201518160000155602082015181600101908051906020019061075d929190610e50565b5060408201518160020155606082015181600301556080820151816004015560a0820151816005015560c0820151816006015560e08201518160070155905050505050505050505050505050565b8073ffffffffffffffffffffffffffffffffffffffff166370a08231306040518263ffffffff1660e01b8152600401808273ffffffffffffffffffffffffffffffffffffffff1673ffffffffffffffffffffffffffffffffffffffff16815260200191505060206040518083038186803b15801561082857600080fd5b505afa15801561083c573d6000803e3d6000fd5b505050506040513d602081101561085257600080fd5b81019080805190602001909291905050505050565b60026020528060005260406000206000915090508060000154908060010160009054906101000a900473ffffffffffffffffffffffffffffffffffffffff16908060020154908060030160009054906101000a900473ffffffffffffffffffffffffffffffffffffffff16908060040154908060050160009054906101000a900473ffffffffffffffffffffffffffffffffffffffff16905086565b80600160008473ffffffffffffffffffffffffffffffffffffffff1673ffffffffffffffffffffffffffffffffffffffff168152602001908152602001600020600001819055505050565b600073ffffffffffffffffffffffffffffffffffffffff16600260008573ffffffffffffffffffffffffffffffffffffffff1673ffffffffffffffffffffffffffffffffffffffff16815260200190815260200160002060010160009054906101000a900473ffffffffffffffffffffffffffffffffffffffff1673ffffffffffffffffffffffffffffffffffffffff161480610a2d57506000600260008573ffffffffffffffffffffffffffffffffffffffff1673ffffffffffffffffffffffffffffffffffffffff16815260200190815260200160002060000154145b610a9f576040517f08c379a000000000000000000000000000000000000000000000000000000000815260040180806020018281038252601d8152602001807f4164647265737320616c7265616479206861732061206465706f73697400000081525060200191505060405180910390fd5b6000600160008373ffffffffffffffffffffffffffffffffffffffff1673ffffffffffffffffffffffffffffffffffffffff1681526020019081526020016000206000015414158015610bb157506040518060200160405280600081525080519060200120600160008373ffffffffffffffffffffffffffffffffffffffff1673ffffffffffffffffffffffffffffffffffffffff1681526020019081526020016000206001016040518082805460018160011615610100020316600290048015610ba15780601f10610b7f576101008083540402835291820191610ba1565b820191906000526020600020905b815481529060010190602001808311610b8d575b5050915050604051809103902014155b610bba57600080fd5b610bc78183856000610ca7565b80600260008573ffffffffffffffffffffffffffffffffffffffff1673ffffffffffffffffffffffffffffffffffffffff16815260200190815260200160002060010160006101000a81548173ffffffffffffffffffffffffffffffffffffffff021916908373ffffffffffffffffffffffffffffffffffffffff16021790555081600260008573ffffffffffffffffffffffffffffffffffffffff1673ffffffffffffffffffffffffffffffffffffffff16815260200190815260200160002060000181905550505050565b600080823b905060008111915050919050565b8373ffffffffffffffffffffffffffffffffffffffff166323b872dd8330866040518463ffffffff1660e01b8152600401808473ffffffffffffffffffffffffffffffffffffffff1673ffffffffffffffffffffffffffffffffffffffff1681526020018373ffffffffffffffffffffffffffffffffffffffff1673ffffffffffffffffffffffffffffffffffffffff1681526020018281526020019350505050602060405180830381600087803b158015610d6257600080fd5b505af1158015610d76573d6000803e3d6000fd5b505050506040513d6020811015610d8c57600080fd5b8101908080519060200190929190505050508015610df95782600160008673ffffffffffffffffffffffffffffffffffffffff1673ffffffffffffffffffffffffffffffffffffffff16815260200190815260200160002060070160008282540192505081905550610e4a565b82600160008673ffffffffffffffffffffffffffffffffffffffff1673ffffffffffffffffffffffffffffffffffffffff168152602001908152602001600020600601600082825401925050819055505b50505050565b828054600181600116156101000203166002900490600052602060002090601f016020900481019282601f10610e9157805160ff1916838001178555610ebf565b82800160010185558215610ebf579182015b82811115610ebe578251825591602001919060010190610ea3565b5b509050610ecc9190610ed0565b5090565b610ef291905b80821115610eee576000816000905550600101610ed6565b5090565b9056fe43616e206f6e6c7920637265617465206120636f6e7472616374206966206974206973206465706c6f79656420616e64206973206120636f6e7472616374a264697066735822122090ffa5c8bc03d72fd55bae99b95a5bed6fa013aa955046d4159e4f05c88f93d764736f6c63430006020033",
  "source": "// SPDX-License-Identifier: MIT\npragma solidity >=0.4.22 <0.8.0;\nimport \"./ERC20.sol\";\nimport \"./Address.sol\";\nimport \"./InterestVariables.sol\";\n\ncontract LiquidityPool {\n  constructor() public {\n  }\n\n  address private owner;\n\n  mapping (address => TokenCoreData) internal tokensCoreData;\n  mapping (address => UserBalance) public usersBalance;\n\n  struct UserBalance{\n    uint depositedAmount;\n    address tokenDeposited;\n    uint collateralAmount;\n    address tokenCollateralised;\n    uint borrowedAmount;\n    address tokenBorrowed;\n  }\n\n  struct TokenCoreData{\n    uint price;\n    string symbol;\n    uint utilisation;\n    uint borrowIR;\n    uint depositIR;\n    uint totalBorrowed;\n    uint totalDeposited;\n    uint totalCollateral;\n  }\n\n  modifier onlyOwner() {\n      require(msg.sender == owner);\n      _;\n  }\n\n  // create token with all data\n  function createToken(string memory _symbol,\n    address _token_address,\n    uint _optimal_utilisation,\n    uint _collateral_factor,\n    uint _base_rate,\n    uint _slope1,\n    uint _slope2,\n    uint _spread,\n    uint _price) public{\n      require(isContract(_token_address), \"Can only create a contract if it is deployed and is a contract\");\n      InterestVariables ivar = InterestVariables(0x90A96BF14084Fa258c3B6E6BbAe53514e7Cd1768);\n      ivar.createToken(_symbol, _token_address, _optimal_utilisation, _collateral_factor, _base_rate, _slope1, _slope2, _spread);\n      uint borrowIR = ivar.borrowInterestRate(_token_address, 0);\n      uint depositIR = ivar.depositInterestRate(_token_address, 0, borrowIR);\n      tokensCoreData[_token_address] = TokenCoreData(_price, _symbol, 0, borrowIR, depositIR, 0, 0, 0);\n  }\n\n  function isContract(address account) internal view returns (bool) {\n        // This method relies on extcodesize, which returns 0 for contracts in\n        // construction, since the code is only stored at the end of the\n        // constructor execution.\n\n        uint256 size;\n        // solhint-disable-next-line no-inline-assembly\n        assembly { size := extcodesize(account) }\n        return size > 0;\n    }\n\n  // update token price and call liquid checks\n  function updateTokenPrice(address tokenId, uint _price) public{\n    tokensCoreData[tokenId].price = _price;\n  }\n\n  // update utilisation rate\n  function updateUtilisationRate(address tokenId) internal{\n    tokensCoreData[tokenId].price = tokensCoreData[tokenId].totalBorrowed / tokensCoreData[tokenId].totalDeposited;\n  }\n\n  // add to liquidity pool of token\n  function addToReserves(address tokenId, uint amount, address payable user, bool isCollateral) internal{\n    ERC20(tokenId).transferFrom(user, address(this), amount);\n    if(isCollateral){\n      tokensCoreData[tokenId].totalCollateral+=amount;\n    }else{\n      tokensCoreData[tokenId].totalDeposited+=amount;\n    }\n  }\n\n  function getReserveBalance(address tokenId) public{\n    ERC20(tokenId).balanceOf(address(this));\n  }\n\n  // take out from liquidity pool of token\n\n  function deposit(address payable user, uint amount, address tokenId) public{\n    //make sure users only have deposits in one token\n    require(usersBalance[user].tokenDeposited == address(0) || usersBalance[user].depositedAmount == 0, \"Address already has a deposit\");\n    //make sure token is supported\n    require(tokensCoreData[tokenId].price != 0 && keccak256(bytes(tokensCoreData[tokenId].symbol)) != keccak256(bytes(\"\")));\n    addToReserves(tokenId, amount, user, false);\n    usersBalance[user].tokenDeposited = tokenId;\n    usersBalance[user].depositedAmount = amount;\n  }\n\n}\n",
  "sourcePath": "/Users/ioanaroceanu/Documents/Project/contracts/LiquidityPool.sol",
  "compiler": {
    "name": "solc",
    "version": "0.6.2+commit.bacdbe57.Emscripten.clang"
  },
  "schemaVersion": "3.3.2",
  "updatedAt": "2020-11-19T18:49:40.687Z",
  "networkType": "ethereum",
  "devdoc": {
    "methods": {}
  },
  "userdoc": {
    "methods": {}
  }
}