{
  "contractName": "LiquidityPool",
  "abi": [
    {
      "inputs": [
        {
          "internalType": "address",
          "name": "ivar_add",
          "type": "address"
        },
        {
          "internalType": "address",
          "name": "exchange_add",
          "type": "address"
        },
        {
          "internalType": "address",
          "name": "lm_address",
          "type": "address"
        }
      ],
      "stateMutability": "nonpayable",
      "type": "constructor"
    },
    {
      "anonymous": false,
      "inputs": [
        {
          "indexed": false,
          "internalType": "address",
          "name": "user",
          "type": "address"
        },
        {
          "indexed": false,
          "internalType": "uint256",
          "name": "timestamp",
          "type": "uint256"
        }
      ],
      "name": "Loan",
      "type": "event"
    },
    {
      "inputs": [],
      "name": "lm_add",
      "outputs": [
        {
          "internalType": "address",
          "name": "",
          "type": "address"
        }
      ],
      "stateMutability": "view",
      "type": "function",
      "constant": true
    },
    {
      "inputs": [
        {
          "internalType": "address",
          "name": "",
          "type": "address"
        }
      ],
      "name": "tknsData",
      "outputs": [
        {
          "internalType": "uint256",
          "name": "price",
          "type": "uint256"
        },
        {
          "internalType": "uint256",
          "name": "utilisation",
          "type": "uint256"
        },
        {
          "internalType": "uint256",
          "name": "collateral_factor",
          "type": "uint256"
        },
        {
          "internalType": "uint256",
          "name": "totalBorrowed",
          "type": "uint256"
        },
        {
          "internalType": "uint256",
          "name": "totalDeposited",
          "type": "uint256"
        },
        {
          "internalType": "uint256",
          "name": "totalCollateral",
          "type": "uint256"
        },
        {
          "internalType": "bool",
          "name": "exchangeable",
          "type": "bool"
        }
      ],
      "stateMutability": "view",
      "type": "function",
      "constant": true
    },
    {
      "inputs": [
        {
          "internalType": "address",
          "name": "",
          "type": "address"
        }
      ],
      "name": "trustedTkns",
      "outputs": [
        {
          "internalType": "bool",
          "name": "",
          "type": "bool"
        }
      ],
      "stateMutability": "view",
      "type": "function",
      "constant": true
    },
    {
      "inputs": [
        {
          "internalType": "address",
          "name": "",
          "type": "address"
        }
      ],
      "name": "uBal",
      "outputs": [
        {
          "internalType": "uint256",
          "name": "depositedAmount",
          "type": "uint256"
        },
        {
          "internalType": "uint256",
          "name": "init_ir_deposit",
          "type": "uint256"
        },
        {
          "internalType": "uint256",
          "name": "cummulated_dep",
          "type": "uint256"
        },
        {
          "internalType": "address",
          "name": "tknDeposited",
          "type": "address"
        },
        {
          "internalType": "uint256",
          "name": "collateralAmount",
          "type": "uint256"
        },
        {
          "internalType": "address",
          "name": "tknCollateralised",
          "type": "address"
        },
        {
          "internalType": "uint256",
          "name": "borrowedAmount",
          "type": "uint256"
        },
        {
          "internalType": "uint256",
          "name": "init_ir_borrow",
          "type": "uint256"
        },
        {
          "internalType": "uint256",
          "name": "cummulated_borr",
          "type": "uint256"
        },
        {
          "internalType": "address",
          "name": "tknBorrowed",
          "type": "address"
        }
      ],
      "stateMutability": "view",
      "type": "function",
      "constant": true
    },
    {
      "inputs": [
        {
          "internalType": "address",
          "name": "_tkn_address",
          "type": "address"
        },
        {
          "internalType": "uint256",
          "name": "_optimal_utilisation",
          "type": "uint256"
        },
        {
          "internalType": "uint256",
          "name": "_collateral_factor",
          "type": "uint256"
        },
        {
          "internalType": "uint256",
          "name": "_base_rate",
          "type": "uint256"
        },
        {
          "internalType": "uint256",
          "name": "_slope1",
          "type": "uint256"
        },
        {
          "internalType": "uint256",
          "name": "_slope2",
          "type": "uint256"
        },
        {
          "internalType": "uint256",
          "name": "_spread",
          "type": "uint256"
        },
        {
          "internalType": "uint256",
          "name": "_price",
          "type": "uint256"
        },
        {
          "internalType": "bool",
          "name": "truested",
          "type": "bool"
        }
      ],
      "name": "createtkn",
      "outputs": [],
      "stateMutability": "nonpayable",
      "type": "function"
    },
    {
      "inputs": [
        {
          "internalType": "address",
          "name": "user",
          "type": "address"
        }
      ],
      "name": "tryDiscardLoan",
      "outputs": [],
      "stateMutability": "nonpayable",
      "type": "function"
    },
    {
      "inputs": [
        {
          "internalType": "address",
          "name": "colltkn",
          "type": "address"
        },
        {
          "internalType": "uint256",
          "name": "minusColl",
          "type": "uint256"
        },
        {
          "internalType": "address",
          "name": "borrtkn",
          "type": "address"
        },
        {
          "internalType": "uint256",
          "name": "minusBorr",
          "type": "uint256"
        }
      ],
      "name": "modifyReserves",
      "outputs": [],
      "stateMutability": "nonpayable",
      "type": "function"
    },
    {
      "inputs": [
        {
          "internalType": "address",
          "name": "tkn",
          "type": "address"
        }
      ],
      "name": "updatetknPrice",
      "outputs": [],
      "stateMutability": "nonpayable",
      "type": "function"
    },
    {
      "inputs": [
        {
          "internalType": "address",
          "name": "tkn",
          "type": "address"
        }
      ],
      "name": "checkExchangeability",
      "outputs": [],
      "stateMutability": "nonpayable",
      "type": "function"
    },
    {
      "inputs": [
        {
          "internalType": "address payable",
          "name": "user",
          "type": "address"
        },
        {
          "internalType": "uint256",
          "name": "amount",
          "type": "uint256"
        },
        {
          "internalType": "address",
          "name": "tknId",
          "type": "address"
        }
      ],
      "name": "deposit",
      "outputs": [],
      "stateMutability": "nonpayable",
      "type": "function"
    },
    {
      "inputs": [
        {
          "internalType": "address payable",
          "name": "user",
          "type": "address"
        },
        {
          "internalType": "uint256",
          "name": "amount",
          "type": "uint256"
        },
        {
          "internalType": "address",
          "name": "tknId",
          "type": "address"
        }
      ],
      "name": "borrow",
      "outputs": [],
      "stateMutability": "nonpayable",
      "type": "function"
    },
    {
      "inputs": [
        {
          "internalType": "address payable",
          "name": "user",
          "type": "address"
        },
        {
          "internalType": "uint256",
          "name": "amount",
          "type": "uint256"
        },
        {
          "internalType": "address",
          "name": "tknId",
          "type": "address"
        }
      ],
      "name": "depositCollateral",
      "outputs": [],
      "stateMutability": "nonpayable",
      "type": "function"
    },
    {
      "inputs": [
        {
          "internalType": "address payable",
          "name": "user",
          "type": "address"
        },
        {
          "internalType": "uint256",
          "name": "amount",
          "type": "uint256"
        }
      ],
      "name": "repay",
      "outputs": [],
      "stateMutability": "nonpayable",
      "type": "function"
    },
    {
      "inputs": [
        {
          "internalType": "address payable",
          "name": "user",
          "type": "address"
        },
        {
          "internalType": "uint256",
          "name": "amount",
          "type": "uint256"
        }
      ],
      "name": "redeem",
      "outputs": [],
      "stateMutability": "nonpayable",
      "type": "function"
    },
    {
      "inputs": [
        {
          "internalType": "address payable",
          "name": "user",
          "type": "address"
        },
        {
          "internalType": "uint256",
          "name": "amount",
          "type": "uint256"
        }
      ],
      "name": "redeemCollateral",
      "outputs": [],
      "stateMutability": "nonpayable",
      "type": "function"
    },
    {
      "inputs": [
        {
          "internalType": "address",
          "name": "user",
          "type": "address"
        }
      ],
      "name": "getHealthFactor",
      "outputs": [
        {
          "internalType": "uint256",
          "name": "",
          "type": "uint256"
        }
      ],
      "stateMutability": "view",
      "type": "function",
      "constant": true
    },
    {
      "inputs": [
        {
          "internalType": "address",
          "name": "user",
          "type": "address"
        }
      ],
      "name": "liquidate",
      "outputs": [],
      "stateMutability": "nonpayable",
      "type": "function"
    }
  ],
  "bytecode": "0x608060405234801561001057600080fd5b50604051612ef9380380612ef98339818101604052606081101561003357600080fd5b5080516020820151604090920151600080546001600160a01b039384166001600160a01b031991821617909155600180549484169482169490941790935560028054929091169183168217905560038054831690911790556005805490911633179055612e54806100a56000396000f3fe608060405234801561001057600080fd5b50600436106100db5760003560e01c80630396a7d4146100e05780631a8fe7ba1461011c5780631e9a69501461017c57806322425480146101a857806322867d78146101de5780632f0bc1621461020a5780632f865568146102445780636c665a551461026a5780638f58f508146102a05780639acd81b3146102c6578063a008eeef146102f2578063ccfe393a14610318578063d4090ca51461033c578063daa40c46146103bb578063f2ca0e6414610415578063f45346dc1461043b578063fe6bcd7c14610471575b600080fd5b61011a600480360360808110156100f657600080fd5b506001600160a01b03813581169160208101359160408201351690606001356104a9565b005b6101426004803603602081101561013257600080fd5b50356001600160a01b0316610551565b604080519788526020880196909652868601949094526060860192909252608085015260a0840152151560c0830152519081900360e00190f35b61011a6004803603604081101561019257600080fd5b506001600160a01b038135169060200135610592565b61011a600480360360608110156101be57600080fd5b506001600160a01b03813581169160208101359160409091013516610a2a565b61011a600480360360408110156101f457600080fd5b506001600160a01b038135169060200135610c51565b6102306004803603602081101561022057600080fd5b50356001600160a01b0316611063565b604080519115158252519081900360200190f35b61011a6004803603602081101561025a57600080fd5b50356001600160a01b0316611078565b61011a6004803603606081101561028057600080fd5b506001600160a01b0381358116916020810135916040909101351661140d565b61011a600480360360208110156102b657600080fd5b50356001600160a01b0316611859565b61011a600480360360408110156102dc57600080fd5b506001600160a01b038135169060200135611901565b61011a6004803603602081101561030857600080fd5b50356001600160a01b0316611bdb565b61032061207d565b604080516001600160a01b039092168252519081900360200190f35b6103626004803603602081101561035257600080fd5b50356001600160a01b031661208c565b604080519a8b5260208b0199909952898901979097526001600160a01b0395861660608a0152608089019490945291841660a088015260c087015260e08601526101008501521661012083015251908190036101400190f35b61011a60048036036101208110156103d257600080fd5b506001600160a01b038135169060208101359060408101359060608101359060808101359060a08101359060c08101359060e081013590610100013515156120eb565b61011a6004803603602081101561042b57600080fd5b50356001600160a01b03166122c9565b61011a6004803603606081101561045157600080fd5b506001600160a01b0381358116916020810135916040909101351661235e565b6104976004803603602081101561048757600080fd5b50356001600160a01b0316612624565b60408051918252519081900360200190f35b6005546001600160a01b03163314806104cc57506003546001600160a01b031633145b610506576040805162461bcd60e51b8152602060048083019190915260248201526304f574c560e41b604482015290519081900360640190fd5b6001600160a01b03821660009081526006602052604090206003015461052c9082612775565b6001600160a01b03909216600090815260066020526040902060030191909155505050565b600660208190526000918252604090912080546001820154600283015460038401546004850154600586015495909601549395929491939092919060ff1687565b6001600160a01b03808316600090815260076020526040902060030154166105b981611859565b6105c283611bdb565b600080546001600160a01b03858116835260076020908152604080852060038101546002820154600190920154835163647cc4c360e01b81529186166004830152602482019290925260448101919091529051929093169263647cc4c39260648083019392829003018186803b15801561063b57600080fd5b505afa15801561064f573d6000803e3d6000fd5b505050506040513d602081101561066557600080fd5b50519050828110156106b2576040805162461bcd60e51b81526020600482015260116024820152700a4cac8cacadacac840e8dede40daeac6d607b1b604482015290519081900360640190fd5b6001600160a01b038416600090815260076020526040812054908490828211156106e6578291506106e38684612775565b90505b6001600160a01b038516600090815260066020526040902060038101546004909101546107139084612775565b1015610756576040805162461bcd60e51b815260206004820152600d60248201526c4f766572626f72726f77696e6760981b604482015290519081900360640190fd5b6000856001600160a01b03166370a08231306040518263ffffffff1660e01b815260040180826001600160a01b0316815260200191505060206040518083038186803b1580156107a557600080fd5b505afa1580156107b9573d6000803e3d6000fd5b505050506040513d60208110156107cf57600080fd5b5051905081158061082a57506001600160a01b03861660009081526006602052604090206004015461082790610806908390612775565b6001600160a01b038816600090815260066020526040902060050154612775565b82105b610877576040805162461bcd60e51b81526020600482015260196024820152784e6f7420656e6f75676820657874726120726573657276657360381b604482015290519081900360640190fd5b6001600160a01b03881660009081526007602052604090205461089a9084612775565b6001600160a01b0389166000908152600760205260409020556108bd8588612775565b6001600160a01b03808a1660009081526007602090815260408083206002019490945590548351630f1f7bc960e01b81528a841660048201529351921692630f1f7bc99260248083019392829003018186803b15801561091c57600080fd5b505afa158015610930573d6000803e3d6000fd5b505050506040513d602081101561094657600080fd5b50516001600160a01b03891660009081526007602052604081206001019190915561097690879085908b906127c0565b856001600160a01b031663a9059cbb89846040518363ffffffff1660e01b815260040180836001600160a01b0316815260200182815260200192505050602060405180830381600087803b1580156109cd57600080fd5b505af11580156109e1573d6000803e3d6000fd5b505050506040513d60208110156109f757600080fd5b50506001600160a01b038616600090815260066020526040902060010154610a209087906128d9565b5050505050505050565b6001600160a01b03838116600090815260076020526040902060050154161580610a7357506001600160a01b038381166000908152600760205260409020600501548116908216145b610abd576040805162461bcd60e51b8152602060048201526016602482015275105b1c9958591e481a185cc818dbdb1b185d195c985b60521b604482015290519081900360640190fd5b6001600160a01b038116600090815260066020526040902054610b17576040805162461bcd60e51b815260206004820152600d60248201526c139bdd081cdd5c1c1bdc9d1959609a1b604482015290519081900360640190fd5b610b2081611859565b610b2983611bdb565b6001600160a01b0381166000908152600660208190526040909120015460ff16610b5257610c4c565b6001600160a01b03811660009081526004602052604090205460ff1680610ba457506001600160a01b03811660009081526006602052604090206003810154600590910154610ba19084612a0a565b11155b610bdf5760405162461bcd60e51b8152600401808060200182810382526021815260200180612ddd6021913960400191505060405180910390fd5b610bee81838560016000612a62565b6001600160a01b0383811660009081526007602052604090206005810180546001600160a01b0319169284169290921790915560040154610c2f9083612a0a565b6001600160a01b0384166000908152600760205260409020600401555b505050565b6001600160a01b038216600090815260076020526040902060060154610cb1576040805162461bcd60e51b815260206004820152601060248201526f4e6f206c6f616e20746f20726570617960801b604482015290519081900360640190fd5b6001600160a01b0380831660009081526007602052604090206009015416610cd881611859565b610ce183611bdb565b6001600160a01b0381166000908152600660208190526040909120015460ff16610d0b575061105f565b6001600160a01b03811660009081526004602052604090205460ff1680610d5d57506001600160a01b03811660009081526006602052604090206005810154600390910154610d5a9084612775565b10155b610d985760405162461bcd60e51b8152600401808060200182810382526021815260200180612ddd6021913960400191505060405180910390fd5b600080546001600160a01b038581168352600760208181526040808620600881015493015481516347716f5960e01b81528886166004820152602481019490945260448401525192909316926347716f5992606480840193829003018186803b158015610e0457600080fd5b505afa158015610e18573d6000803e3d6000fd5b505050506040513d6020811015610e2e57600080fd5b5051905082811015610e79576040805162461bcd60e51b815260206004820152600f60248201526e0a4cae0c2d2c840e8dede40daeac6d608b1b604482015290519081900360640190fd5b6001600160a01b03841660009081526007602052604081206006015490849082821115610eb057829150610ead8683612775565b90505b610ebf85838960006001612a62565b604080516323b872dd60e01b81526001600160a01b038981166004830152306024830152604482018490529151918716916323b872dd916064808201926020929091908290030181600087803b158015610f1857600080fd5b505af1158015610f2c573d6000803e3d6000fd5b505050506040513d6020811015610f4257600080fd5b50506001600160a01b038716600090815260076020526040902060060154610f6a9083612775565b6001600160a01b038816600090815260076020526040902060060155610f908487612775565b6001600160a01b038089166000908152600760209081526040808320600801949094559054835163f609507b60e01b81528984166004820152935192169263f609507b9260248083019392829003018186803b158015610fef57600080fd5b505afa158015611003573d6000803e3d6000fd5b505050506040513d602081101561101957600080fd5b50516001600160a01b03808916600090815260076020818152604080842090920194909455918816815260069092529020600101546110599086906128d9565b50505050505b5050565b60046020526000908152604090205460ff1681565b6001600160a01b038082166000908152600760205260409020600581015460099091015490821691166110aa81611859565b6110b383611bdb565b6001600160a01b0381166000908152600660208190526040909120015460ff166110de57505061140a565b6110e7826122c9565b6110f0816122c9565b600080546001600160a01b038581168352600760208181526040808620600881015493015481516347716f5960e01b81528886166004820152602481019490945260448401525192909316926347716f5992606480840193829003018186803b15801561115c57600080fd5b505afa158015611170573d6000803e3d6000fd5b505050506040513d602081101561118657600080fd5b50516001600160a01b038516600090815260076020526040812060040154919250906111b59085908585612bcc565b90506103e881106111f7576040805162461bcd60e51b815260206004820152600760248201526629b0b33290242360c91b604482015290519081900360640190fd5b604080516323b872dd60e01b81523360048201523060248201526044810184905290516001600160a01b038516916323b872dd9160648083019260209291908290030181600087803b15801561124c57600080fd5b505af1158015611260573d6000803e3d6000fd5b505050506040513d602081101561127657600080fd5b50506001600160a01b0383166000908152600660205260408120546112d4906112ab906112a4908690612c42565b6069612c42565b6001600160a01b0387166000908152600660205260409020546112cf906064612c42565b612c9b565b6001600160a01b03871660009081526007602052604081206006810182905560088101919091556004015490915061130c9082612775565b6001600160a01b038088166000908152600760209081526040808320600401949094559187168152600690915220600301546113489084612775565b6001600160a01b03808616600090815260066020526040808220600301939093559087168152206005015461137d9082612775565b6001600160a01b038616600081815260066020908152604080832060050194909455835163a9059cbb60e01b8152336004820152602481018690529351929363a9059cbb9360448083019491928390030190829087803b1580156113e057600080fd5b505af11580156113f4573d6000803e3d6000fd5b505050506040513d6020811015610a2057600080fd5b50565b6001600160a01b038116600090815260066020526040902054611467576040805162461bcd60e51b815260206004820152600d60248201526c139bdd081cdd5c1c1bdc9d1959609a1b604482015290519081900360640190fd5b61147081611859565b61147983611bdb565b6001600160a01b0381166000908152600660208190526040909120015460ff166114a257610c4c565b6001600160a01b0381166000908152600660205260409020600301546114c89083612a0a565b6001600160a01b0382166000908152600660205260409020600401541015611528576040805162461bcd60e51b815260206004820152600e60248201526d4f766572626f72726f77696e677360901b604482015290519081900360640190fd5b6001600160a01b038381166000908152600760205260409020600901548116908216148061156f57506001600160a01b038316600090815260076020526040902060060154155b6115b3576040805162461bcd60e51b815260206004820152601060248201526f20b63932b0b23c903430b9903637b0b760811b604482015290519081900360640190fd5b6001600160a01b038084166000908152600760205260408120600581015460048201546006909201549316926115f791849186906115f2908990612a0a565b612bcc565b90506103e8811161163b576040805162461bcd60e51b8152602060048201526009602482015268556e6865616c74687960b81b604482015290519081900360640190fd5b6001600160a01b0385811660009081526007602052604090206009810180546001600160a01b031916928616929092179091556006015461167c9085612a0a565b6001600160a01b038087166000908152600760208181526040808420600681019690965592546008860154959092015483516347716f5960e01b8152898616600482015260248101969096526044860152915161172c94899492909216926347716f599260648082019391829003018186803b1580156116fb57600080fd5b505afa15801561170f573d6000803e3d6000fd5b505050506040513d602081101561172557600080fd5b5051612a0a565b6001600160a01b03861660009081526007602052604090206008015561175583858760016127c0565b6001600160a01b03831660009081526006602052604090206001015461177c9084906128d9565b6000546040805163f609507b60e01b81526001600160a01b0386811660048301529151919092169163f609507b916024808301926020929190829003018186803b1580156117c957600080fd5b505afa1580156117dd573d6000803e3d6000fd5b505050506040513d60208110156117f357600080fd5b50516001600160a01b038616600081815260076020818152604092839020909101939093558051918252429282019290925281517f1db23cf53464267c45324569941e81e23d29c48ff9be2b35af2cc0a2681159d6929181900390910190a15050505050565b600154604080516322ed59ed60e21b81526001600160a01b03848116600483015291519190921691638bb567b4916024808301926020929190829003018186803b1580156118a657600080fd5b505afa1580156118ba573d6000803e3d6000fd5b505050506040513d60208110156118d057600080fd5b50516001600160a01b0391909116600090815260066020819052604090912001805460ff1916911515919091179055565b6001600160a01b0380831660009081526007602052604090206005810154600990910154908216911661193382611859565b61193c81611859565b61194584611bdb565b6001600160a01b0381166000908152600660208190526040909120015460ff1661197057505061105f565b6001600160a01b0384166000908152600760205260409020600401548311156119d4576040805162461bcd60e51b81526020600482015260116024820152700a4cac8cacadacac840e8dede40daeac6d607b1b604482015290519081900360640190fd5b6001600160a01b038416600090815260076020526040812060040154611aa4908490611a009087612775565b600080546001600160a01b038a8116835260076020818152604094859020600881015492015485516347716f5960e01b8152848c166004820152602481019390935260448301529351899492909316926347716f5992606480840193919291829003018186803b158015611a7357600080fd5b505afa158015611a87573d6000803e3d6000fd5b505050506040513d6020811015611a9d57600080fd5b5051612bcc565b90506103e88111611ae8576040805162461bcd60e51b8152602060048201526009602482015268556e6865616c74687960b81b604482015290519081900360640190fd5b6001600160a01b038516600090815260076020526040902060040154611b0e9085612775565b6001600160a01b03808716600090815260076020908152604080832060040194909455918616815260069091522060050154611b4a9085612775565b6001600160a01b03808516600081815260066020908152604080832060050195909555845163a9059cbb60e01b8152938a166004850152602484018990529351919363a9059cbb936044808201949293918390030190829087803b158015611bb157600080fd5b505af1158015611bc5573d6000803e3d6000fd5b505050506040513d602081101561105957600080fd5b6001600160a01b0380821660009081526007602081815260408084206009810154600582015486546008840154939096015484516347716f5960e01b81529289166004840181905260248401949094526044830152925191969283169594909216926347716f599260648082019391829003018186803b158015611c5e57600080fd5b505afa158015611c72573d6000803e3d6000fd5b505050506040513d6020811015611c8857600080fd5b50516001600160a01b0384166000908152600660208190526040909120015490915060ff16158015611cc257506001600160a01b03831615155b15611fd4576003546001600160a01b038581166000908152600760209081526040808320600490810154825163a9059cbb60e01b8152968616918701919091526024860152519286169363a9059cbb9360448083019491928390030190829087803b158015611d3057600080fd5b505af1158015611d44573d6000803e3d6000fd5b505050506040513d6020811015611d5a57600080fd5b50506001600160a01b0380831660009081526006602090815260408083206005015493881683526007909152902060040154611d969190612775565b60066000846001600160a01b03166001600160a01b031681526020019081526020016000206005018190555060405180610140016040528060076000876001600160a01b03166001600160a01b0316815260200190815260200160002060000154815260200160076000876001600160a01b03166001600160a01b0316815260200190815260200160002060010154815260200160076000876001600160a01b03166001600160a01b0316815260200190815260200160002060020154815260200160076000876001600160a01b03166001600160a01b0316815260200190815260200160002060030160009054906101000a90046001600160a01b03166001600160a01b031681526020016000815260200160006001600160a01b0316815260200160008152602001600081526020016000815260200160006001600160a01b031681525060076000866001600160a01b03166001600160a01b0316815260200190815260200160002060008201518160000155602082015181600101556040820151816002015560608201518160030160006101000a8154816001600160a01b0302191690836001600160a01b031602179055506080820151816004015560a08201518160050160006101000a8154816001600160a01b0302191690836001600160a01b0316021790555060c0820151816006015560e0820151816007015561010082015181600801556101208201518160090160006101000a8154816001600160a01b0302191690836001600160a01b031602179055509050505b6001600160a01b0382166000908152600660208190526040909120015460ff1615801561200957506001600160a01b03821615155b156120775760025460408051632dfba6ab60e21b81526001600160a01b038681166004830152602482018590529151919092169163b7ee9aac91604480830192600092919082900301818387803b15801561206357600080fd5b505af1158015610a20573d6000803e3d6000fd5b50505050565b6003546001600160a01b031681565b600760208190526000918252604090912080546001820154600283015460038401546004850154600586015460068701549787015460088801546009909801549698959794966001600160a01b0394851696939592851694919291168a565b6120f489612cda565b612136576040805162461bcd60e51b815260206004820152600e60248201526d139bdd08184818dbdb9d1c9858dd60921b604482015290519081900360640190fd5b6000805460408051638306e95360e01b81526001600160a01b038d81166004830152602482018d9052604482018c9052606482018b9052608482018a905260a4820189905260c4820188905291519190921692638306e9539260e4808201939182900301818387803b1580156121ab57600080fd5b505af11580156121bf573d6000803e3d6000fd5b505050506040518060e001604052808381526020016000815260200188815260200160008152602001600081526020016000815260200160011515815250600660008b6001600160a01b03166001600160a01b03168152602001908152602001600020600082015181600001556020820151816001015560408201518160020155606082015181600301556080820151816004015560a0820151816005015560c08201518160060160006101000a81548160ff02191690831515021790555090505080600460008b6001600160a01b03166001600160a01b0316815260200190815260200160002060006101000a81548160ff021916908315150217905550505050505050505050565b600154604080516341976e0960e01b81526001600160a01b038481166004830152915191909216916341976e09916024808301926020929190829003018186803b15801561231657600080fd5b505afa15801561232a573d6000803e3d6000fd5b505050506040513d602081101561234057600080fd5b50516001600160a01b03909116600090815260066020526040902055565b6001600160a01b03838116600090815260076020526040902060030154811690821614806123a257506001600160a01b038316600090815260076020526040902054155b6123eb576040805162461bcd60e51b8152602060048201526015602482015274105b1c9958591e481a185cc8184819195c1bdcda5d605a1b604482015290519081900360640190fd5b6001600160a01b038116600090815260066020526040902054612445576040805162461bcd60e51b815260206004820152600d60248201526c139bdd081cdd5c1c1bdc9d1959609a1b604482015290519081900360640190fd5b61244e81611859565b61245783611bdb565b6001600160a01b0381166000908152600660208190526040909120015460ff1661248057610c4c565b61248e818385600080612a62565b6001600160a01b0381166000908152600660205260409020600101546124b59082906128d9565b6001600160a01b0383811660009081526007602052604090206003810180546001600160a01b03191692841692909217909155546124f4908390612a0a565b6001600160a01b038085166000908152600760209081526040808320948555915460038501546002860154600190960154845163647cc4c360e01b81529186166004830152602482019690965260448101959095529151612578948794939093169263647cc4c3926064808301939192829003018186803b1580156116fb57600080fd5b6001600160a01b0380851660009081526007602090815260408083206002019490945590548351630f1f7bc960e01b815285841660048201529351921692630f1f7bc99260248083019392829003018186803b1580156125d757600080fd5b505afa1580156125eb573d6000803e3d6000fd5b505050506040513d602081101561260157600080fd5b50516001600160a01b038416600090815260076020526040902060010155505050565b6001600160a01b038082166000908152600760209081526040808320600581015460099091015490851680855260069093529083206002810154905493949293919092169184916126999161267891612c42565b6001600160a01b038716600090815260076020526040902060040154612c42565b600080546001600160a01b038881168352600760208181526040808620600881015493015481516347716f5960e01b81528a861660048201526024810194909452604484015251959650939491909216926347716f599260648082019391829003018186803b15801561270b57600080fd5b505afa15801561271f573d6000803e3d6000fd5b505050506040513d602081101561273557600080fd5b5051905061276b61274783600a612c42565b6001600160a01b0385166000908152600660205260409020546112cf908490612c42565b9695505050505050565b60006127b783836040518060400160405280601e81526020017f536166654d6174683a207375627472616374696f6e206f766572666c6f770000815250612ce0565b90505b92915050565b801561280d576001600160a01b0384166000908152600660205260409020600301546127ec9084612a0a565b6001600160a01b038516600090815260066020526040902060030155612850565b6001600160a01b0384166000908152600660205260409020600401546128339084612775565b6001600160a01b0385166000908152600660205260409020600401555b836001600160a01b031663a9059cbb83856040518363ffffffff1660e01b815260040180836001600160a01b0316815260200182815260200192505050602060405180830381600087803b1580156128a757600080fd5b505af11580156128bb573d6000803e3d6000fd5b505050506040513d60208110156128d157600080fd5b505050505050565b6000805460408051631d06361360e11b81526001600160a01b0386811660048301526024820186905291519190921692633a0c6c2692604480820193602093909283900390910190829087803b15801561293257600080fd5b505af1158015612946573d6000803e3d6000fd5b505050506040513d602081101561295c57600080fd5b50506001600160a01b038216600090815260066020526040902060040154156129ec576001600160a01b0382166000908152600660205260409020600301546129cb906129aa906064612c42565b6001600160a01b038416600090815260066020526040902060040154612c9b565b6001600160a01b03831660009081526006602052604090206001015561105f565b506001600160a01b0316600090815260066020526040812060010155565b6000828201838110156127b7576040805162461bcd60e51b815260206004820152601b60248201527a536166654d6174683a206164646974696f6e206f766572666c6f7760281b604482015290519081900360640190fd5b604080516323b872dd60e01b81526001600160a01b038581166004830152306024830152604482018790529151918716916323b872dd916064808201926020929091908290030181600087803b158015612abb57600080fd5b505af1158015612acf573d6000803e3d6000fd5b505050506040513d6020811015612ae557600080fd5b50508115612b35576001600160a01b038516600090815260066020526040902060050154612b14908590612a0a565b6001600160a01b038616600090815260066020526040902060050155612bc5565b8015612b82576001600160a01b038516600090815260066020526040902060030154612b619085612775565b6001600160a01b038616600090815260066020526040902060030155612bc5565b6001600160a01b038516600090815260066020526040902060040154612ba89085612a0a565b6001600160a01b0386166000908152600660205260409020600401555b5050505050565b6000612bd7856122c9565b612be0836122c9565b6001600160a01b038516600090815260066020526040812060028101549054612c1291612c0c91612c42565b86612c42565b905061276b612c2282600a612c42565b6001600160a01b0386166000908152600660205260409020546112cf9086905b600082612c51575060006127ba565b82820282848281612c5e57fe5b04146127b75760405162461bcd60e51b8152600401808060200182810382526021815260200180612dfe6021913960400191505060405180910390fd5b60006127b783836040518060400160405280601a815260200179536166654d6174683a206469766973696f6e206279207a65726f60301b815250612d77565b3b151590565b60008184841115612d6f5760405162461bcd60e51b81526004018080602001828103825283818151815260200191508051906020019080838360005b83811015612d34578181015183820152602001612d1c565b50505050905090810190601f168015612d615780820380516001836020036101000a031916815260200191505b509250505060405180910390fd5b505050900390565b60008183612dc65760405162461bcd60e51b8152602060048201818152835160248401528351909283926044909101919085019080838360008315612d34578181015183820152602001612d1c565b506000838581612dd257fe5b049594505050505056fe626f72726f776564206c657373207468616e20636f6c6c61746572616c697a6564536166654d6174683a206d756c7469706c69636174696f6e206f766572666c6f77a26469706673582212206e6c52d5ecf06a337476e992c6dd663ef11a0e83977684c7a934eb25ac0d4be964736f6c634300060c0033",
  "immutableReferences": {},
  "source": "// SPDX-License-Identifier: MIT\npragma solidity >=0.4.22 <0.8.0;\nimport \"./ERC20.sol\";\nimport \"./Address.sol\";\nimport \"./InterestVariables.sol\";\nimport \"./Exchange.sol\";\nimport './SafeMath.sol';\nimport './LiquidationManager.sol';\n\ncontract LiquidityPool {\n\n  InterestVariables private ivar;\n  Exchange private exchange;\n  LiquidationManager private lm;\n  address public lm_add;\n  mapping (address => bool) public trustedTkns;\n\n\n  constructor(address ivar_add, address exchange_add, address lm_address) public {\n    ivar = InterestVariables(ivar_add);\n    exchange = Exchange(exchange_add);\n    lm = LiquidationManager(lm_address);\n    lm_add = lm_address;\n    owner = msg.sender;\n  }\n\n  address private owner;\n\n  mapping (address => tknCoreData) public tknsData;\n  mapping (address => UserBalance) public uBal;\n\n  struct UserBalance{\n    uint depositedAmount;\n    uint init_ir_deposit;\n    uint cummulated_dep;\n    address tknDeposited;\n    uint collateralAmount;\n    address tknCollateralised;\n    uint borrowedAmount;\n    uint init_ir_borrow;\n    uint cummulated_borr;\n    address tknBorrowed;\n  }\n\n  struct tknCoreData{\n    uint price;\n    uint utilisation;\n    uint collateral_factor;\n    uint totalBorrowed;\n    uint totalDeposited;\n    uint totalCollateral;\n    bool exchangeable;\n  }\n\n  modifier onlyOwner() {\n      require(msg.sender == owner || msg.sender == lm_add, \"OWLP\");\n      _;\n  }\n\n  event Loan(\n    address user,\n    uint timestamp\n  );\n\n\n  // create tkn with all data\n  function createtkn(address _tkn_address,\n    uint _optimal_utilisation,\n    uint _collateral_factor,\n    uint _base_rate,\n    uint _slope1,\n    uint _slope2,\n    uint _spread,\n    uint _price,\n    bool truested) public{\n      require(Address.isContract(_tkn_address), 'Not a contract');\n      ivar.createToken(_tkn_address, _optimal_utilisation, _collateral_factor, _base_rate, _slope1, _slope2, _spread);\n      tknsData[_tkn_address] = tknCoreData(_price, 0, _collateral_factor, 0, 0, 0, true);\n      trustedTkns[_tkn_address] = truested;\n  }\n\n  // discards all loan details when borrowed tkn is NOT exchangable anymore\n  function tryDiscardLoan(address user) public{\n    address tknBorr = uBal[user].tknBorrowed;\n    address tknColl = uBal[user].tknCollateralised;\n    uint cumm = ivar.getCumIrLoan(tknBorr, uBal[user].cummulated_borr, uBal[user].init_ir_borrow);\n    if(!tknsData[tknBorr].exchangeable && tknBorr != address(0)){\n      ERC20(tknColl).transfer(lm_add,uBal[user].collateralAmount); // give collateral to LM\n      tknsData[tknColl].totalCollateral = SafeMath.sub(tknsData[tknColl].totalCollateral, uBal[user].collateralAmount);\n      uBal[user] = UserBalance(uBal[user].depositedAmount, uBal[user].init_ir_deposit, uBal[user].cummulated_dep, uBal[user].tknDeposited, 0, address(0), 0, 0, 0, address(0));\n    }\n    if(!tknsData[tknColl].exchangeable && tknColl != address(0)){\n      lm.registerNeed(tknBorr, cumm);\n      //uBal[user] = UserBalance(uBal[user].depositedAmount, uBal[user].init_ir_deposit, uBal[user].cummulated_dep, uBal[user].tknDeposited, 0, address(0), 0, 0, 0, address(0));\n    }\n  }\n\n  function modifyReserves(address colltkn, uint minusColl, address borrtkn, uint minusBorr) public onlyOwner{\n    tknsData[borrtkn].totalBorrowed = SafeMath.sub(tknsData[borrtkn].totalBorrowed, minusBorr);\n  }\n\n  // update prices from the exchange\n  function updatetknPrice(address tkn) public{\n    tknsData[tkn].price = exchange.getPrice(tkn);\n  }\n\n  function checkExchangeability(address tkn) public{\n    tknsData[tkn].exchangeable = exchange.isExchangeable(tkn);\n  }\n\n  // cummulate interest rate for the tkn\n  function updateInterestRate(address tkn, uint oldUtilisationRate) internal{\n    ivar.compoundIR(tkn, oldUtilisationRate);\n    // if not updated means that the compounded IR exceeds uint\n    if(tknsData[tkn].totalDeposited != 0){\n      tknsData[tkn].utilisation = SafeMath.div(SafeMath.mul(tknsData[tkn].totalBorrowed, 100), tknsData[tkn].totalDeposited);\n    }else{\n      tknsData[tkn].utilisation = 0;\n    }\n\n  }\n\n  // add to liquidity pool of tkn\n  function addToReserves(address tknId, uint amount, address payable user, bool isCollateral, bool isRepayment) internal{\n    ERC20(tknId).transferFrom(user, address(this), amount);\n    if(isCollateral){\n      tknsData[tknId].totalCollateral = SafeMath.add(amount, tknsData[tknId].totalCollateral);\n    }else if(isRepayment){\n      tknsData[tknId].totalBorrowed = SafeMath.sub(tknsData[tknId].totalBorrowed, amount);\n    }else{\n      tknsData[tknId].totalDeposited = SafeMath.add(tknsData[tknId].totalDeposited, amount);\n    }\n  }\n\n  // take out from liquidity pool of tkn\n  function takeFromReserves(address tknId, uint amount, address payable user, bool isLoan) internal{\n    if(isLoan){\n      tknsData[tknId].totalBorrowed = SafeMath.add(tknsData[tknId].totalBorrowed, amount);\n    }else{ //redeeming\n      tknsData[tknId].totalDeposited = SafeMath.sub(tknsData[tknId].totalDeposited, amount);\n    }\n    ERC20(tknId).transfer(user,  amount);\n  }\n\n  function deposit(address payable user, uint amount, address tknId) public{\n    //make sure users only have deposits in one tkn\n    require(uBal[user].tknDeposited == tknId || uBal[user].depositedAmount == 0, \"Already has a deposit\");\n    //make sure tkn is supported\n    require(tknsData[tknId].price != 0, \"Not supported\");\n\n    // make sure tkn is exchangeable\n    checkExchangeability(tknId);\n    tryDiscardLoan(user);\n    if(!tknsData[tknId].exchangeable){\n      return;\n    }\n\n    addToReserves(tknId, amount, user, false, false);\n    updateInterestRate(tknId,tknsData[tknId].utilisation);\n    uBal[user].tknDeposited = tknId;\n    uBal[user].depositedAmount = SafeMath.add(amount, uBal[user].depositedAmount);\n    uBal[user].cummulated_dep = SafeMath.add(amount, ivar.getCumIrDeposit(uBal[user].tknDeposited, uBal[user].cummulated_dep, uBal[user].init_ir_deposit));\n    uBal[user].init_ir_deposit = ivar.getIRDepositTotalCummulation(tknId);\n  }\n\n  function borrow(address payable user, uint amount, address tknId) public{\n    //make sure tkn is supported\n    require(tknsData[tknId].price != 0, \"Not supported\");\n\n    // make sure tkn is exchangeable\n    checkExchangeability(tknId); // call at exchange 5\n    tryDiscardLoan(user);\n    if(!tknsData[tknId].exchangeable){\n      return;\n    }\n\n    require(tknsData[tknId].totalDeposited >= SafeMath.add(tknsData[tknId].totalBorrowed, amount), \"Overborrowings\");\n\n    require(uBal[user].tknBorrowed == tknId || uBal[user].borrowedAmount == 0, \"Already has loan\");\n\n    address collateraltkn = uBal[user].tknCollateralised;\n    uint healthFactorAfter = getHealthFactorUnsafe(collateraltkn, uBal[user].collateralAmount, tknId, SafeMath.add(amount, uBal[user].borrowedAmount));\n    require(healthFactorAfter > 1000, \"Unhealthy\");\n\n    uBal[user].tknBorrowed = tknId;\n    uBal[user].borrowedAmount = SafeMath.add(uBal[user].borrowedAmount, amount);\n    uBal[user].cummulated_borr = SafeMath.add(amount, ivar.getCumIrLoan(tknId, uBal[user].cummulated_borr, uBal[user].init_ir_borrow));\n    takeFromReserves(tknId, amount, user, true);\n    updateInterestRate(tknId,tknsData[tknId].utilisation);\n    uBal[user].init_ir_borrow = ivar.getIRBorrowTotalCummulation(tknId);\n    emit Loan(user, now);\n  }\n\n  function depositCollateral(address payable user, uint amount, address tknId) public{\n    require(uBal[user].tknCollateralised == address(0) || uBal[user].tknCollateralised == tknId, \"Already has collateral\");\n\n    require(tknsData[tknId].price != 0, \"Not supported\");\n\n    checkExchangeability(tknId);\n    tryDiscardLoan(user);\n    if(!tknsData[tknId].exchangeable){\n      return;\n    }\n\n    require(trustedTkns[tknId] || SafeMath.add(tknsData[tknId].totalCollateral, amount) <= tknsData[tknId].totalBorrowed, \"borrowed less than collateralized\");\n\n    addToReserves(tknId, amount, user, true, false);\n    uBal[user].tknCollateralised = tknId;\n    uBal[user].collateralAmount = SafeMath.add(uBal[user].collateralAmount, amount);\n  }\n\n  function repay(address payable user, uint amount) public{\n    require(uBal[user].borrowedAmount != 0, \"No loan to repay\");\n    address tkn = uBal[user].tknBorrowed;\n    checkExchangeability(tkn);\n    tryDiscardLoan(user);\n    if(!tknsData[tkn].exchangeable){\n      return;\n    }\n\n    require(trustedTkns[tkn] || SafeMath.sub(tknsData[tkn].totalBorrowed, amount) >= tknsData[tkn].totalCollateral, \"borrowed less than collateralized\");\n    uint cummulatedInterest = ivar.getCumIrLoan(tkn, uBal[user].cummulated_borr, uBal[user].init_ir_borrow); // cummulated amount owed\n    require(cummulatedInterest >= amount, \"Repaid too much\");\n\n    // what is not subtracted from the totalBorrowed of reserves is extra\n    uint borrowedAmount = uBal[user].borrowedAmount;\n    uint toPool = amount;\n    uint extra = 0;\n    if(amount > borrowedAmount){\n      toPool = borrowedAmount;\n      extra = SafeMath.sub(amount,toPool);\n    }\n\n    // repay what was borrowed to reserves\n    addToReserves(tkn, toPool, user,false, true);\n    // give interest payment (extra) to reserves as well\n    ERC20(tkn).transferFrom(user, address(this), extra);\n\n    // reinitialise initial interest\n    uBal[user].borrowedAmount = SafeMath.sub(uBal[user].borrowedAmount, toPool);\n    uBal[user].cummulated_borr = SafeMath.sub(cummulatedInterest ,amount);\n    uBal[user].init_ir_borrow = ivar.getIRBorrowTotalCummulation(tkn);\n    updateInterestRate(tkn, tknsData[tkn].utilisation);\n  }\n\n  function redeem(address payable user, uint amount) public{\n\n    address tkn = uBal[user].tknDeposited;\n\n    checkExchangeability(tkn);\n    tryDiscardLoan(user);\n\n    uint cummulatedInterest = ivar.getCumIrDeposit(uBal[user].tknDeposited, uBal[user].cummulated_dep, uBal[user].init_ir_deposit);\n    require(cummulatedInterest >= amount, \"Redeemed too much\");\n\n    // split the amount requested\n    uint depositedAmount = uBal[user].depositedAmount;\n    uint fromPool = amount;\n    uint extra = 0;\n    if(amount > depositedAmount){\n      fromPool = depositedAmount;\n      extra = SafeMath.sub(amount, depositedAmount);\n    }\n\n    require( SafeMath.sub(tknsData[tkn].totalDeposited, fromPool) >= tknsData[tkn].totalBorrowed, \"Overborrowing\");\n    uint reservesBalance = ERC20(tkn).balanceOf(address(this));\n    require(extra == 0 || extra < SafeMath.sub(SafeMath.sub(reservesBalance, tknsData[tkn].totalDeposited),tknsData[tkn].totalCollateral), \"Not enough extra reserves\");\n\n    // update user's deposit variables\n    uBal[user].depositedAmount = SafeMath.sub(uBal[user].depositedAmount, fromPool);\n    uBal[user].cummulated_dep = SafeMath.sub(cummulatedInterest, amount);\n    uBal[user].init_ir_deposit = ivar.getIRDepositTotalCummulation(tkn);\n\n    takeFromReserves(tkn,fromPool,user,false);\n    ERC20(tkn).transfer(user,extra);\n    updateInterestRate(tkn, tknsData[tkn].utilisation);\n  }\n\n  function redeemCollateral(address payable user, uint amount) public{\n    // chack exchageability but do not require tkn to be exchangable\n    address collateraltkn = uBal[user].tknCollateralised;\n    address borrowedtkn = uBal[user].tknBorrowed;\n    checkExchangeability(collateraltkn);\n    checkExchangeability(borrowedtkn);\n    tryDiscardLoan(user);\n    if(!tknsData[borrowedtkn].exchangeable){\n      return;\n    }\n\n    require(uBal[user].collateralAmount >= amount,\"Redeemed too much\");\n    uint healthFactorAfter = getHealthFactorUnsafe(collateraltkn, SafeMath.sub(uBal[user].collateralAmount, amount), borrowedtkn, ivar.getCumIrLoan(borrowedtkn, uBal[user].cummulated_borr, uBal[user].init_ir_borrow));\n    require( healthFactorAfter > 1000, \"Unhealthy\");\n    uBal[user].collateralAmount = SafeMath.sub(uBal[user].collateralAmount, amount);\n    tknsData[collateraltkn].totalCollateral = SafeMath.sub(tknsData[collateraltkn].totalCollateral, amount);\n    ERC20(collateraltkn).transfer(user,amount);\n  }\n\n  // returns health factor *1000\n  function getHealthFactorUnsafe(address colltkn, uint collAmount, address borrtkn, uint owed) internal returns(uint){\n    // maximum y=the user can borrow against their collateral (*100)\n    updatetknPrice(colltkn);\n    updatetknPrice(borrtkn);\n    uint upperLimitLoanUSD100 = SafeMath.mul(SafeMath.mul(tknsData[colltkn].collateral_factor, tknsData[colltkn].price), collAmount);\n    // how much they owe in USD\n    return SafeMath.div(SafeMath.mul(upperLimitLoanUSD100,10),SafeMath.mul(owed, tknsData[borrtkn].price));\n  }\n\n  // returns health factor *1000\n  function getHealthFactor(address user) public view returns(uint){\n    address collToken = uBal[user].tknCollateralised;\n    address borrToken = uBal[user].tknBorrowed;\n    // maximum y=the user can borrow against their collateral (*100)\n    uint upperLimitLoanUSD100 = SafeMath.mul(SafeMath.mul(tknsData[collToken].collateral_factor, tknsData[collToken].price), uBal[user].collateralAmount);\n    uint cummulatedLoan = ivar.getCumIrLoan(borrToken, uBal[user].cummulated_borr, uBal[user].init_ir_borrow);\n    return SafeMath.div(SafeMath.mul(upperLimitLoanUSD100,10),SafeMath.mul(cummulatedLoan,tknsData[borrToken].price));\n  }\n\n  function liquidate(address user) public{\n    // check if the account has health Factor > 1\n    address colltkn = uBal[user].tknCollateralised;\n    address borrtkn = uBal[user].tknBorrowed;\n    checkExchangeability(borrtkn);\n    tryDiscardLoan(user);\n    if(!tknsData[borrtkn].exchangeable){\n      return;\n    }\n    updatetknPrice(colltkn);\n    updatetknPrice(borrtkn);\n    uint cummulatedLoan = ivar.getCumIrLoan(borrtkn, uBal[user].cummulated_borr, uBal[user].init_ir_borrow);\n    uint healthFactor = getHealthFactorUnsafe(colltkn, uBal[user].collateralAmount, borrtkn, cummulatedLoan);\n    require(healthFactor < 1000, \"Safe HF\");\n\n    // get money from sender (loan)\n    // sender has to give me the amounnt owed\n    ERC20(borrtkn).transferFrom(msg.sender, address(this), cummulatedLoan);\n\n    // send to sender (collateral)\n    // sender has to receive the tkn collateralised correspondend with amount owed*1.05\n    uint toLiquidator = SafeMath.div(SafeMath.mul(SafeMath.mul(cummulatedLoan, tknsData[borrtkn].price),105), SafeMath.mul(tknsData[colltkn].price, 100));\n\n    // modify details\n    uBal[user].borrowedAmount = 0;\n    uBal[user].cummulated_borr = 0;\n    uBal[user].collateralAmount = SafeMath.sub(uBal[user].collateralAmount, toLiquidator);\n    tknsData[borrtkn].totalBorrowed = SafeMath.sub(tknsData[borrtkn].totalBorrowed, cummulatedLoan);\n    tknsData[colltkn].totalCollateral = SafeMath.sub(tknsData[colltkn].totalCollateral, toLiquidator);\n\n    ERC20(colltkn).transfer(msg.sender, toLiquidator);\n  }\n\n\n}\n",
  "sourcePath": "/Users/ioanaroceanu/Documents/Project/contracts/LiquidityPool.sol",
  "compiler": {
    "name": "solc",
    "version": "0.6.12+commit.27d51765.Emscripten.clang"
  },
  "schemaVersion": "3.3.2",
  "updatedAt": "2021-03-08T18:04:20.019Z",
  "networkType": "ethereum",
  "devdoc": {
    "kind": "dev",
    "methods": {},
    "version": 1
  },
  "userdoc": {
    "kind": "user",
    "methods": {},
    "version": 1
  }
}