{
  "contractName": "LiquidityPool",
  "abi": [
    {
      "inputs": [
        {
          "internalType": "address",
          "name": "ivar_add",
          "type": "address"
        },
        {
          "internalType": "address",
          "name": "exchange_add",
          "type": "address"
        }
      ],
      "stateMutability": "nonpayable",
      "type": "constructor"
    },
    {
      "anonymous": false,
      "inputs": [
        {
          "indexed": false,
          "internalType": "address",
          "name": "user",
          "type": "address"
        },
        {
          "indexed": false,
          "internalType": "uint256",
          "name": "timestamp",
          "type": "uint256"
        }
      ],
      "name": "Loan",
      "type": "event"
    },
    {
      "inputs": [
        {
          "internalType": "address",
          "name": "",
          "type": "address"
        }
      ],
      "name": "tokensData",
      "outputs": [
        {
          "internalType": "uint256",
          "name": "price",
          "type": "uint256"
        },
        {
          "internalType": "uint256",
          "name": "utilisation",
          "type": "uint256"
        },
        {
          "internalType": "uint256",
          "name": "collateral_factor",
          "type": "uint256"
        },
        {
          "internalType": "uint256",
          "name": "totalBorrowed",
          "type": "uint256"
        },
        {
          "internalType": "uint256",
          "name": "totalDeposited",
          "type": "uint256"
        },
        {
          "internalType": "uint256",
          "name": "totalCollateral",
          "type": "uint256"
        },
        {
          "internalType": "bool",
          "name": "exchangeable",
          "type": "bool"
        }
      ],
      "stateMutability": "view",
      "type": "function"
    },
    {
      "inputs": [
        {
          "internalType": "address",
          "name": "",
          "type": "address"
        }
      ],
      "name": "trustedTkns",
      "outputs": [
        {
          "internalType": "bool",
          "name": "",
          "type": "bool"
        }
      ],
      "stateMutability": "view",
      "type": "function"
    },
    {
      "inputs": [
        {
          "internalType": "address",
          "name": "",
          "type": "address"
        }
      ],
      "name": "usersBalance",
      "outputs": [
        {
          "internalType": "uint256",
          "name": "depositedAmount",
          "type": "uint256"
        },
        {
          "internalType": "uint256",
          "name": "init_interest_deposit",
          "type": "uint256"
        },
        {
          "internalType": "uint256",
          "name": "cummulated_ir_deposit",
          "type": "uint256"
        },
        {
          "internalType": "address",
          "name": "tokenDeposited",
          "type": "address"
        },
        {
          "internalType": "uint256",
          "name": "collateralAmount",
          "type": "uint256"
        },
        {
          "internalType": "address",
          "name": "tokenCollateralised",
          "type": "address"
        },
        {
          "internalType": "uint256",
          "name": "borrowedAmount",
          "type": "uint256"
        },
        {
          "internalType": "uint256",
          "name": "init_interest_borrow",
          "type": "uint256"
        },
        {
          "internalType": "uint256",
          "name": "cummulated_ir_borrow",
          "type": "uint256"
        },
        {
          "internalType": "address",
          "name": "tokenBorrowed",
          "type": "address"
        }
      ],
      "stateMutability": "view",
      "type": "function"
    },
    {
      "inputs": [
        {
          "internalType": "address",
          "name": "_token_address",
          "type": "address"
        },
        {
          "internalType": "uint256",
          "name": "_optimal_utilisation",
          "type": "uint256"
        },
        {
          "internalType": "uint256",
          "name": "_collateral_factor",
          "type": "uint256"
        },
        {
          "internalType": "uint256",
          "name": "_base_rate",
          "type": "uint256"
        },
        {
          "internalType": "uint256",
          "name": "_slope1",
          "type": "uint256"
        },
        {
          "internalType": "uint256",
          "name": "_slope2",
          "type": "uint256"
        },
        {
          "internalType": "uint256",
          "name": "_spread",
          "type": "uint256"
        },
        {
          "internalType": "uint256",
          "name": "_price",
          "type": "uint256"
        },
        {
          "internalType": "bool",
          "name": "truested",
          "type": "bool"
        }
      ],
      "name": "createToken",
      "outputs": [],
      "stateMutability": "nonpayable",
      "type": "function"
    },
    {
      "inputs": [
        {
          "internalType": "address",
          "name": "user",
          "type": "address"
        }
      ],
      "name": "tryDiscardLoan",
      "outputs": [
        {
          "internalType": "bool",
          "name": "",
          "type": "bool"
        }
      ],
      "stateMutability": "nonpayable",
      "type": "function"
    },
    {
      "inputs": [
        {
          "internalType": "address",
          "name": "token",
          "type": "address"
        }
      ],
      "name": "updateTokenPrice",
      "outputs": [],
      "stateMutability": "nonpayable",
      "type": "function"
    },
    {
      "inputs": [
        {
          "internalType": "address",
          "name": "token",
          "type": "address"
        }
      ],
      "name": "checkExchangeability",
      "outputs": [],
      "stateMutability": "nonpayable",
      "type": "function"
    },
    {
      "inputs": [
        {
          "internalType": "address payable",
          "name": "user",
          "type": "address"
        },
        {
          "internalType": "uint256",
          "name": "amount",
          "type": "uint256"
        },
        {
          "internalType": "address",
          "name": "tokenId",
          "type": "address"
        }
      ],
      "name": "deposit",
      "outputs": [],
      "stateMutability": "nonpayable",
      "type": "function"
    },
    {
      "inputs": [
        {
          "internalType": "address payable",
          "name": "user",
          "type": "address"
        },
        {
          "internalType": "uint256",
          "name": "amount",
          "type": "uint256"
        },
        {
          "internalType": "address",
          "name": "tokenId",
          "type": "address"
        }
      ],
      "name": "borrow",
      "outputs": [],
      "stateMutability": "nonpayable",
      "type": "function"
    },
    {
      "inputs": [
        {
          "internalType": "address payable",
          "name": "user",
          "type": "address"
        },
        {
          "internalType": "uint256",
          "name": "amount",
          "type": "uint256"
        },
        {
          "internalType": "address",
          "name": "tokenId",
          "type": "address"
        }
      ],
      "name": "depositCollateral",
      "outputs": [],
      "stateMutability": "nonpayable",
      "type": "function"
    },
    {
      "inputs": [
        {
          "internalType": "address payable",
          "name": "user",
          "type": "address"
        },
        {
          "internalType": "uint256",
          "name": "amount",
          "type": "uint256"
        }
      ],
      "name": "switchDepositToCollateral",
      "outputs": [],
      "stateMutability": "nonpayable",
      "type": "function"
    },
    {
      "inputs": [
        {
          "internalType": "address payable",
          "name": "user",
          "type": "address"
        },
        {
          "internalType": "uint256",
          "name": "amount",
          "type": "uint256"
        }
      ],
      "name": "repay",
      "outputs": [],
      "stateMutability": "nonpayable",
      "type": "function"
    },
    {
      "inputs": [
        {
          "internalType": "address payable",
          "name": "user",
          "type": "address"
        },
        {
          "internalType": "uint256",
          "name": "amount",
          "type": "uint256"
        }
      ],
      "name": "redeem",
      "outputs": [],
      "stateMutability": "nonpayable",
      "type": "function"
    },
    {
      "inputs": [
        {
          "internalType": "address payable",
          "name": "user",
          "type": "address"
        },
        {
          "internalType": "uint256",
          "name": "amount",
          "type": "uint256"
        }
      ],
      "name": "redeemCollateral",
      "outputs": [],
      "stateMutability": "nonpayable",
      "type": "function"
    },
    {
      "inputs": [
        {
          "internalType": "address",
          "name": "user",
          "type": "address"
        }
      ],
      "name": "getCummulatedInterestDeposit",
      "outputs": [
        {
          "internalType": "uint256",
          "name": "",
          "type": "uint256"
        }
      ],
      "stateMutability": "view",
      "type": "function"
    },
    {
      "inputs": [
        {
          "internalType": "address",
          "name": "user",
          "type": "address"
        }
      ],
      "name": "getCummulatedInterestLoan",
      "outputs": [
        {
          "internalType": "uint256",
          "name": "",
          "type": "uint256"
        }
      ],
      "stateMutability": "view",
      "type": "function"
    },
    {
      "inputs": [
        {
          "internalType": "address",
          "name": "user",
          "type": "address"
        }
      ],
      "name": "getHealthFactor",
      "outputs": [
        {
          "internalType": "uint256",
          "name": "",
          "type": "uint256"
        }
      ],
      "stateMutability": "view",
      "type": "function"
    },
    {
      "inputs": [
        {
          "internalType": "address",
          "name": "user",
          "type": "address"
        }
      ],
      "name": "liquidate",
      "outputs": [],
      "stateMutability": "nonpayable",
      "type": "function"
    }
  ],
  "bytecode": "0x60806040523480156200001157600080fd5b5060405162005f6238038062005f62833981810160405260408110156200003757600080fd5b810190808051906020019092919080519060200190929190505050816000806101000a81548173ffffffffffffffffffffffffffffffffffffffff021916908373ffffffffffffffffffffffffffffffffffffffff16021790555080600160006101000a81548173ffffffffffffffffffffffffffffffffffffffff021916908373ffffffffffffffffffffffffffffffffffffffff1602179055505050615e7d80620000e56000396000f3fe608060405234801561001057600080fd5b50600436106101165760003560e01c80638fdceb5b116100a2578063d42ce1c511610071578063d42ce1c51461065e578063e7fb6b70146106f5578063f45346dc14610743578063f9a22a5d146107b1578063fe6bcd7c1461080957610116565b80638fdceb5b146104d65780639acd81b31461052e578063a008eeef1461057c578063ac66c6e0146105d857610116565b80632f0bc162116100e95780632f0bc162146102695780632f865568146102c557806358324335146103095780636c665a55146104245780638f58f5081461049257610116565b80631e9a69501461011b578063217466151461016957806322425480146101ad57806322867d781461021b575b600080fd5b6101676004803603604081101561013157600080fd5b81019080803573ffffffffffffffffffffffffffffffffffffffff16906020019092919080359060200190929190505050610861565b005b6101ab6004803603602081101561017f57600080fd5b81019080803573ffffffffffffffffffffffffffffffffffffffff169060200190929190505050610fc3565b005b610219600480360360608110156101c357600080fd5b81019080803573ffffffffffffffffffffffffffffffffffffffff16906020019092919080359060200190929190803573ffffffffffffffffffffffffffffffffffffffff1690602001909291905050506110e6565b005b6102676004803603604081101561023157600080fd5b81019080803573ffffffffffffffffffffffffffffffffffffffff1690602001909291908035906020019092919050505061162d565b005b6102ab6004803603602081101561027f57600080fd5b81019080803573ffffffffffffffffffffffffffffffffffffffff169060200190929190505050611d61565b604051808215151515815260200191505060405180910390f35b610307600480360360208110156102db57600080fd5b81019080803573ffffffffffffffffffffffffffffffffffffffff169060200190929190505050611d81565b005b61034b6004803603602081101561031f57600080fd5b81019080803573ffffffffffffffffffffffffffffffffffffffff169060200190929190505050612464565b604051808b81526020018a81526020018981526020018873ffffffffffffffffffffffffffffffffffffffff1673ffffffffffffffffffffffffffffffffffffffff1681526020018781526020018673ffffffffffffffffffffffffffffffffffffffff1673ffffffffffffffffffffffffffffffffffffffff1681526020018581526020018481526020018381526020018273ffffffffffffffffffffffffffffffffffffffff1673ffffffffffffffffffffffffffffffffffffffff1681526020019a505050505050505050505060405180910390f35b6104906004803603606081101561043a57600080fd5b81019080803573ffffffffffffffffffffffffffffffffffffffff16906020019092919080359060200190929190803573ffffffffffffffffffffffffffffffffffffffff169060200190929190505050612518565b005b6104d4600480360360208110156104a857600080fd5b81019080803573ffffffffffffffffffffffffffffffffffffffff169060200190929190505050612d4b565b005b610518600480360360208110156104ec57600080fd5b81019080803573ffffffffffffffffffffffffffffffffffffffff169060200190929190505050612e81565b6040518082815260200191505060405180910390f35b61057a6004803603604081101561054457600080fd5b81019080803573ffffffffffffffffffffffffffffffffffffffff169060200190929190803590602001909291905050506130b6565b005b6105be6004803603602081101561059257600080fd5b81019080803573ffffffffffffffffffffffffffffffffffffffff169060200190929190505050613566565b604051808215151515815260200191505060405180910390f35b61061a600480360360208110156105ee57600080fd5b81019080803573ffffffffffffffffffffffffffffffffffffffff169060200190929190505050613be9565b604051808881526020018781526020018681526020018581526020018481526020018381526020018215151515815260200197505050505050505060405180910390f35b6106f3600480360361012081101561067557600080fd5b81019080803573ffffffffffffffffffffffffffffffffffffffff16906020019092919080359060200190929190803590602001909291908035906020019092919080359060200190929190803590602001909291908035906020019092919080359060200190929190803515159060200190929190505050613c38565b005b6107416004803603604081101561070b57600080fd5b81019080803573ffffffffffffffffffffffffffffffffffffffff16906020019092919080359060200190929190505050613ed5565b005b6107af6004803603606081101561075957600080fd5b81019080803573ffffffffffffffffffffffffffffffffffffffff16906020019092919080359060200190929190803573ffffffffffffffffffffffffffffffffffffffff169060200190929190505050614905565b005b6107f3600480360360208110156107c757600080fd5b81019080803573ffffffffffffffffffffffffffffffffffffffff169060200190929190505050614e6b565b6040518082815260200191505060405180910390f35b61084b6004803603602081101561081f57600080fd5b81019080803573ffffffffffffffffffffffffffffffffffffffff1690602001909291905050506150a0565b6040518082815260200191505060405180910390f35b6000600560008473ffffffffffffffffffffffffffffffffffffffff1673ffffffffffffffffffffffffffffffffffffffff16815260200190815260200160002060030160009054906101000a900473ffffffffffffffffffffffffffffffffffffffff1690506108d181612d4b565b6108da83613566565b5060006108e684612e81565b90508281101561095e576040517f08c379a00000000000000000000000000000000000000000000000000000000081526004018080602001828103825260138152602001807f52656465656d6564203e2061737369676e65640000000000000000000000000081525060200191505060405180910390fd5b6000600560008673ffffffffffffffffffffffffffffffffffffffff1673ffffffffffffffffffffffffffffffffffffffff16815260200190815260200160002060000154905060008490506000809050828611156109c7578291506109c486846152c3565b90505b600460008673ffffffffffffffffffffffffffffffffffffffff1673ffffffffffffffffffffffffffffffffffffffff16815260200190815260200160002060030154610a56600460008873ffffffffffffffffffffffffffffffffffffffff1673ffffffffffffffffffffffffffffffffffffffff16815260200190815260200160002060040154846152c3565b1015610aca576040517f08c379a000000000000000000000000000000000000000000000000000000000815260040180806020018281038252600f8152602001807f44656d616e64203e20737570706c79000000000000000000000000000000000081525060200191505060405180910390fd5b60008573ffffffffffffffffffffffffffffffffffffffff166370a08231306040518263ffffffff1660e01b8152600401808273ffffffffffffffffffffffffffffffffffffffff1673ffffffffffffffffffffffffffffffffffffffff16815260200191505060206040518083038186803b158015610b4957600080fd5b505afa158015610b5d573d6000803e3d6000fd5b505050506040513d6020811015610b7357600080fd5b810190808051906020019092919050505090506000821480610c2a5750610c27610bdf82600460008a73ffffffffffffffffffffffffffffffffffffffff1673ffffffffffffffffffffffffffffffffffffffff168152602001908152602001600020600401546152c3565b600460008973ffffffffffffffffffffffffffffffffffffffff1673ffffffffffffffffffffffffffffffffffffffff168152602001908152602001600020600501546152c3565b82105b610c9c576040517f08c379a00000000000000000000000000000000000000000000000000000000081526004018080602001828103825260198152602001807f4e6f7420656e6f7567682065787472612072657365727665730000000000000081525060200191505060405180910390fd5b610ce8600560008a73ffffffffffffffffffffffffffffffffffffffff1673ffffffffffffffffffffffffffffffffffffffff16815260200190815260200160002060000154846152c3565b600560008a73ffffffffffffffffffffffffffffffffffffffff1673ffffffffffffffffffffffffffffffffffffffff16815260200190815260200160002060000181905550610d3885886152c3565b600560008a73ffffffffffffffffffffffffffffffffffffffff1673ffffffffffffffffffffffffffffffffffffffff168152602001908152602001600020600201819055506000809054906101000a900473ffffffffffffffffffffffffffffffffffffffff1673ffffffffffffffffffffffffffffffffffffffff16630f1f7bc9876040518263ffffffff1660e01b8152600401808273ffffffffffffffffffffffffffffffffffffffff1673ffffffffffffffffffffffffffffffffffffffff16815260200191505060206040518083038186803b158015610e1c57600080fd5b505afa158015610e30573d6000803e3d6000fd5b505050506040513d6020811015610e4657600080fd5b8101908080519060200190929190505050600560008a73ffffffffffffffffffffffffffffffffffffffff1673ffffffffffffffffffffffffffffffffffffffff16815260200190815260200160002060010181905550610eaa86848a600061530d565b8573ffffffffffffffffffffffffffffffffffffffff1663a9059cbb89846040518363ffffffff1660e01b8152600401808373ffffffffffffffffffffffffffffffffffffffff1673ffffffffffffffffffffffffffffffffffffffff16815260200182815260200192505050602060405180830381600087803b158015610f3157600080fd5b505af1158015610f45573d6000803e3d6000fd5b505050506040513d6020811015610f5b57600080fd5b810190808051906020019092919050505050610fb986600460008973ffffffffffffffffffffffffffffffffffffffff1673ffffffffffffffffffffffffffffffffffffffff16815260200190815260200160002060010154615506565b5050505050505050565b600160009054906101000a900473ffffffffffffffffffffffffffffffffffffffff1673ffffffffffffffffffffffffffffffffffffffff166341976e09826040518263ffffffff1660e01b8152600401808273ffffffffffffffffffffffffffffffffffffffff1673ffffffffffffffffffffffffffffffffffffffff16815260200191505060206040518083038186803b15801561106257600080fd5b505afa158015611076573d6000803e3d6000fd5b505050506040513d602081101561108c57600080fd5b8101908080519060200190929190505050600460008373ffffffffffffffffffffffffffffffffffffffff1673ffffffffffffffffffffffffffffffffffffffff1681526020019081526020016000206000018190555050565b600073ffffffffffffffffffffffffffffffffffffffff16600560008573ffffffffffffffffffffffffffffffffffffffff1673ffffffffffffffffffffffffffffffffffffffff16815260200190815260200160002060050160009054906101000a900473ffffffffffffffffffffffffffffffffffffffff1673ffffffffffffffffffffffffffffffffffffffff16148061121057508073ffffffffffffffffffffffffffffffffffffffff16600560008573ffffffffffffffffffffffffffffffffffffffff1673ffffffffffffffffffffffffffffffffffffffff16815260200190815260200160002060050160009054906101000a900473ffffffffffffffffffffffffffffffffffffffff1673ffffffffffffffffffffffffffffffffffffffff16145b611282576040517f08c379a00000000000000000000000000000000000000000000000000000000081526004018080602001828103825260168152602001807f416c72656164792068617320636f6c6c61746572616c0000000000000000000081525060200191505060405180910390fd5b6000600460008373ffffffffffffffffffffffffffffffffffffffff1673ffffffffffffffffffffffffffffffffffffffff16815260200190815260200160002060000154141561133b576040517f08c379a000000000000000000000000000000000000000000000000000000000815260040180806020018281038252600d8152602001807f4e6f7420737570706f727465640000000000000000000000000000000000000081525060200191505060405180910390fd5b61134481612d4b565b61134d83613566565b5060011515600460008373ffffffffffffffffffffffffffffffffffffffff1673ffffffffffffffffffffffffffffffffffffffff16815260200190815260200160002060060160009054906101000a900460ff161515146113ae57611628565b600260008273ffffffffffffffffffffffffffffffffffffffff1673ffffffffffffffffffffffffffffffffffffffff16815260200190815260200160002060009054906101000a900460ff16806114935750600460008273ffffffffffffffffffffffffffffffffffffffff1673ffffffffffffffffffffffffffffffffffffffff16815260200190815260200160002060030154611490600460008473ffffffffffffffffffffffffffffffffffffffff1673ffffffffffffffffffffffffffffffffffffffff16815260200190815260200160002060050154846156cc565b11155b611505576040517f08c379a00000000000000000000000000000000000000000000000000000000081526004018080602001828103825260208152602001807f426f72726f77203e20636f6c6c20636f6e646974696f6e20627265616368656481525060200191505060405180910390fd5b61151481838560016000615754565b80600560008573ffffffffffffffffffffffffffffffffffffffff1673ffffffffffffffffffffffffffffffffffffffff16815260200190815260200160002060050160006101000a81548173ffffffffffffffffffffffffffffffffffffffff021916908373ffffffffffffffffffffffffffffffffffffffff1602179055506115e1600560008573ffffffffffffffffffffffffffffffffffffffff1673ffffffffffffffffffffffffffffffffffffffff16815260200190815260200160002060040154836156cc565b600560008573ffffffffffffffffffffffffffffffffffffffff1673ffffffffffffffffffffffffffffffffffffffff168152602001908152602001600020600401819055505b505050565b6000600560008473ffffffffffffffffffffffffffffffffffffffff1673ffffffffffffffffffffffffffffffffffffffff1681526020019081526020016000206006015414156116e6576040517f08c379a00000000000000000000000000000000000000000000000000000000081526004018080602001828103825260108152602001807f4e6f206c6f616e20746f2072657061790000000000000000000000000000000081525060200191505060405180910390fd5b6000600560008473ffffffffffffffffffffffffffffffffffffffff1673ffffffffffffffffffffffffffffffffffffffff16815260200190815260200160002060090160009054906101000a900473ffffffffffffffffffffffffffffffffffffffff16905061175681612d4b565b61175f83613566565b5060011515600460008373ffffffffffffffffffffffffffffffffffffffff1673ffffffffffffffffffffffffffffffffffffffff16815260200190815260200160002060060160009054906101000a900460ff161515146117c15750611d5d565b600260008273ffffffffffffffffffffffffffffffffffffffff1673ffffffffffffffffffffffffffffffffffffffff16815260200190815260200160002060009054906101000a900460ff16806118a65750600460008273ffffffffffffffffffffffffffffffffffffffff1673ffffffffffffffffffffffffffffffffffffffff168152602001908152602001600020600501546118a3600460008473ffffffffffffffffffffffffffffffffffffffff1673ffffffffffffffffffffffffffffffffffffffff16815260200190815260200160002060030154846152c3565b11155b611918576040517f08c379a00000000000000000000000000000000000000000000000000000000081526004018080602001828103825260208152602001807f426f72726f77203e20636f6c6c20636f6e646974696f6e20627265616368656481525060200191505060405180910390fd5b600061192384614e6b565b90508281101561199b576040517f08c379a000000000000000000000000000000000000000000000000000000000815260040180806020018281038252600d8152602001807f526570616964203e206f7765640000000000000000000000000000000000000081525060200191505060405180910390fd5b6000600560008673ffffffffffffffffffffffffffffffffffffffff1673ffffffffffffffffffffffffffffffffffffffff1681526020019081526020016000206006015490506000849050600080905082861115611a0457829150611a0186836152c3565b90505b611a1385838960006001615754565b8473ffffffffffffffffffffffffffffffffffffffff166323b872dd8830846040518463ffffffff1660e01b8152600401808473ffffffffffffffffffffffffffffffffffffffff1673ffffffffffffffffffffffffffffffffffffffff1681526020018373ffffffffffffffffffffffffffffffffffffffff1673ffffffffffffffffffffffffffffffffffffffff1681526020018281526020019350505050602060405180830381600087803b158015611ace57600080fd5b505af1158015611ae2573d6000803e3d6000fd5b505050506040513d6020811015611af857600080fd5b810190808051906020019092919050505050611b56600560008973ffffffffffffffffffffffffffffffffffffffff1673ffffffffffffffffffffffffffffffffffffffff16815260200190815260200160002060060154836152c3565b600560008973ffffffffffffffffffffffffffffffffffffffff1673ffffffffffffffffffffffffffffffffffffffff16815260200190815260200160002060060181905550611ba684876152c3565b600560008973ffffffffffffffffffffffffffffffffffffffff1673ffffffffffffffffffffffffffffffffffffffff168152602001908152602001600020600801819055506000809054906101000a900473ffffffffffffffffffffffffffffffffffffffff1673ffffffffffffffffffffffffffffffffffffffff1663f609507b866040518263ffffffff1660e01b8152600401808273ffffffffffffffffffffffffffffffffffffffff1673ffffffffffffffffffffffffffffffffffffffff16815260200191505060206040518083038186803b158015611c8a57600080fd5b505afa158015611c9e573d6000803e3d6000fd5b505050506040513d6020811015611cb457600080fd5b8101908080519060200190929190505050600560008973ffffffffffffffffffffffffffffffffffffffff1673ffffffffffffffffffffffffffffffffffffffff16815260200190815260200160002060070181905550611d5785600460008873ffffffffffffffffffffffffffffffffffffffff1673ffffffffffffffffffffffffffffffffffffffff16815260200190815260200160002060010154615506565b50505050505b5050565b60026020528060005260406000206000915054906101000a900460ff1681565b6000600560008373ffffffffffffffffffffffffffffffffffffffff1673ffffffffffffffffffffffffffffffffffffffff16815260200190815260200160002060050160009054906101000a900473ffffffffffffffffffffffffffffffffffffffff1690506000600560008473ffffffffffffffffffffffffffffffffffffffff1673ffffffffffffffffffffffffffffffffffffffff16815260200190815260200160002060090160009054906101000a900473ffffffffffffffffffffffffffffffffffffffff169050611e5881612d4b565b611e6183613566565b5060011515600460008373ffffffffffffffffffffffffffffffffffffffff1673ffffffffffffffffffffffffffffffffffffffff16815260200190815260200160002060060160009054906101000a900460ff16151514611ec4575050612461565b611ecd82610fc3565b611ed681610fc3565b6000611ee184614e6b565b90506000611f3384600560008873ffffffffffffffffffffffffffffffffffffffff1673ffffffffffffffffffffffffffffffffffffffff168152602001908152602001600020600401548585615a20565b90506103e88110611fac576040517f08c379a00000000000000000000000000000000000000000000000000000000081526004018080602001828103825260128152602001807f53616665206865616c746820666163746f72000000000000000000000000000081525060200191505060405180910390fd5b8273ffffffffffffffffffffffffffffffffffffffff166323b872dd3330856040518463ffffffff1660e01b8152600401808473ffffffffffffffffffffffffffffffffffffffff1673ffffffffffffffffffffffffffffffffffffffff1681526020018373ffffffffffffffffffffffffffffffffffffffff1673ffffffffffffffffffffffffffffffffffffffff1681526020018281526020019350505050602060405180830381600087803b15801561206757600080fd5b505af115801561207b573d6000803e3d6000fd5b505050506040513d602081101561209157600080fd5b81019080805190602001909291905050505060006121506120fe6120f785600460008973ffffffffffffffffffffffffffffffffffffffff1673ffffffffffffffffffffffffffffffffffffffff16815260200190815260200160002060000154615b39565b6069615b39565b61214b600460008973ffffffffffffffffffffffffffffffffffffffff1673ffffffffffffffffffffffffffffffffffffffff168152602001908152602001600020600001546064615b39565b615bbf565b90508473ffffffffffffffffffffffffffffffffffffffff1663a9059cbb33836040518363ffffffff1660e01b8152600401808373ffffffffffffffffffffffffffffffffffffffff1673ffffffffffffffffffffffffffffffffffffffff16815260200182815260200192505050602060405180830381600087803b1580156121d957600080fd5b505af11580156121ed573d6000803e3d6000fd5b505050506040513d602081101561220357600080fd5b8101908080519060200190929190505050506000600560008873ffffffffffffffffffffffffffffffffffffffff1673ffffffffffffffffffffffffffffffffffffffff168152602001908152602001600020600601819055506000600560008873ffffffffffffffffffffffffffffffffffffffff1673ffffffffffffffffffffffffffffffffffffffff168152602001908152602001600020600801819055506122f1600560008873ffffffffffffffffffffffffffffffffffffffff1673ffffffffffffffffffffffffffffffffffffffff16815260200190815260200160002060040154826152c3565b600560008873ffffffffffffffffffffffffffffffffffffffff1673ffffffffffffffffffffffffffffffffffffffff16815260200190815260200160002060040181905550612383600460008673ffffffffffffffffffffffffffffffffffffffff1673ffffffffffffffffffffffffffffffffffffffff16815260200190815260200160002060030154846152c3565b600460008673ffffffffffffffffffffffffffffffffffffffff1673ffffffffffffffffffffffffffffffffffffffff16815260200190815260200160002060030181905550612415600460008773ffffffffffffffffffffffffffffffffffffffff1673ffffffffffffffffffffffffffffffffffffffff16815260200190815260200160002060050154826152c3565b600460008773ffffffffffffffffffffffffffffffffffffffff1673ffffffffffffffffffffffffffffffffffffffff1681526020019081526020016000206005018190555050505050505b50565b60056020528060005260406000206000915090508060000154908060010154908060020154908060030160009054906101000a900473ffffffffffffffffffffffffffffffffffffffff16908060040154908060050160009054906101000a900473ffffffffffffffffffffffffffffffffffffffff16908060060154908060070154908060080154908060090160009054906101000a900473ffffffffffffffffffffffffffffffffffffffff1690508a565b6000600460008373ffffffffffffffffffffffffffffffffffffffff1673ffffffffffffffffffffffffffffffffffffffff1681526020019081526020016000206000015414156125d1576040517f08c379a000000000000000000000000000000000000000000000000000000000815260040180806020018281038252600d8152602001807f4e6f7420737570706f727465640000000000000000000000000000000000000081525060200191505060405180910390fd5b6125da81612d4b565b6125e383613566565b5060011515600460008373ffffffffffffffffffffffffffffffffffffffff1673ffffffffffffffffffffffffffffffffffffffff16815260200190815260200160002060060160009054906101000a900460ff1615151461264457612d46565b612690600460008373ffffffffffffffffffffffffffffffffffffffff1673ffffffffffffffffffffffffffffffffffffffff16815260200190815260200160002060030154836156cc565b600460008373ffffffffffffffffffffffffffffffffffffffff1673ffffffffffffffffffffffffffffffffffffffff168152602001908152602001600020600401541015612747576040517f08c379a00000000000000000000000000000000000000000000000000000000081526004018080602001828103825260188152602001807f426f72726f77203d3e206f766572626f72726f77696e6773000000000000000081525060200191505060405180910390fd5b8073ffffffffffffffffffffffffffffffffffffffff16600560008573ffffffffffffffffffffffffffffffffffffffff1673ffffffffffffffffffffffffffffffffffffffff16815260200190815260200160002060090160009054906101000a900473ffffffffffffffffffffffffffffffffffffffff1673ffffffffffffffffffffffffffffffffffffffff16148061282557506000600560008573ffffffffffffffffffffffffffffffffffffffff1673ffffffffffffffffffffffffffffffffffffffff16815260200190815260200160002060060154145b612897576040517f08c379a00000000000000000000000000000000000000000000000000000000081526004018080602001828103825260108152602001807f416c726561647920686173206c6f616e0000000000000000000000000000000081525060200191505060405180910390fd5b6000600560008573ffffffffffffffffffffffffffffffffffffffff1673ffffffffffffffffffffffffffffffffffffffff16815260200190815260200160002060050160009054906101000a900473ffffffffffffffffffffffffffffffffffffffff169050600061299982600560008873ffffffffffffffffffffffffffffffffffffffff1673ffffffffffffffffffffffffffffffffffffffff168152602001908152602001600020600401548561299488600560008c73ffffffffffffffffffffffffffffffffffffffff1673ffffffffffffffffffffffffffffffffffffffff168152602001908152602001600020600601546156cc565b615a20565b90506103e881116129f5576040517f08c379a0000000000000000000000000000000000000000000000000000000008152600401808060200182810382526024815260200180615e246024913960400191505060405180910390fd5b82600560008773ffffffffffffffffffffffffffffffffffffffff1673ffffffffffffffffffffffffffffffffffffffff16815260200190815260200160002060090160006101000a81548173ffffffffffffffffffffffffffffffffffffffff021916908373ffffffffffffffffffffffffffffffffffffffff160217905550612ac2600560008773ffffffffffffffffffffffffffffffffffffffff1673ffffffffffffffffffffffffffffffffffffffff16815260200190815260200160002060060154856156cc565b600560008773ffffffffffffffffffffffffffffffffffffffff1673ffffffffffffffffffffffffffffffffffffffff16815260200190815260200160002060060181905550612b1a84612b1587614e6b565b6156cc565b600560008773ffffffffffffffffffffffffffffffffffffffff1673ffffffffffffffffffffffffffffffffffffffff16815260200190815260200160002060080181905550612b6d838587600161530d565b612bb983600460008673ffffffffffffffffffffffffffffffffffffffff1673ffffffffffffffffffffffffffffffffffffffff16815260200190815260200160002060010154615506565b6000809054906101000a900473ffffffffffffffffffffffffffffffffffffffff1673ffffffffffffffffffffffffffffffffffffffff1663f609507b846040518263ffffffff1660e01b8152600401808273ffffffffffffffffffffffffffffffffffffffff1673ffffffffffffffffffffffffffffffffffffffff16815260200191505060206040518083038186803b158015612c5757600080fd5b505afa158015612c6b573d6000803e3d6000fd5b505050506040513d6020811015612c8157600080fd5b8101908080519060200190929190505050600560008773ffffffffffffffffffffffffffffffffffffffff1673ffffffffffffffffffffffffffffffffffffffff168152602001908152602001600020600701819055507f1db23cf53464267c45324569941e81e23d29c48ff9be2b35af2cc0a2681159d68542604051808373ffffffffffffffffffffffffffffffffffffffff1673ffffffffffffffffffffffffffffffffffffffff1681526020018281526020019250505060405180910390a150505b505050565b600160009054906101000a900473ffffffffffffffffffffffffffffffffffffffff1673ffffffffffffffffffffffffffffffffffffffff16638bb567b4826040518263ffffffff1660e01b8152600401808273ffffffffffffffffffffffffffffffffffffffff1673ffffffffffffffffffffffffffffffffffffffff16815260200191505060206040518083038186803b158015612dea57600080fd5b505afa158015612dfe573d6000803e3d6000fd5b505050506040513d6020811015612e1457600080fd5b8101908080519060200190929190505050600460008373ffffffffffffffffffffffffffffffffffffffff1673ffffffffffffffffffffffffffffffffffffffff16815260200190815260200160002060060160006101000a81548160ff02191690831515021790555050565b600080600560008473ffffffffffffffffffffffffffffffffffffffff1673ffffffffffffffffffffffffffffffffffffffff16815260200190815260200160002060030160009054906101000a900473ffffffffffffffffffffffffffffffffffffffff1690506000600560008573ffffffffffffffffffffffffffffffffffffffff1673ffffffffffffffffffffffffffffffffffffffff168152602001908152602001600020600101541415612f3e5760009150506130b1565b6130ad613065600560008673ffffffffffffffffffffffffffffffffffffffff1673ffffffffffffffffffffffffffffffffffffffff168152602001908152602001600020600201546000809054906101000a900473ffffffffffffffffffffffffffffffffffffffff1673ffffffffffffffffffffffffffffffffffffffff16630f1f7bc9856040518263ffffffff1660e01b8152600401808273ffffffffffffffffffffffffffffffffffffffff1673ffffffffffffffffffffffffffffffffffffffff16815260200191505060206040518083038186803b15801561302557600080fd5b505afa158015613039573d6000803e3d6000fd5b505050506040513d602081101561304f57600080fd5b8101908080519060200190929190505050615b39565b600560008673ffffffffffffffffffffffffffffffffffffffff1673ffffffffffffffffffffffffffffffffffffffff16815260200190815260200160002060010154615bbf565b9150505b919050565b6000600560008473ffffffffffffffffffffffffffffffffffffffff1673ffffffffffffffffffffffffffffffffffffffff16815260200190815260200160002060050160009054906101000a900473ffffffffffffffffffffffffffffffffffffffff1690506000600560008573ffffffffffffffffffffffffffffffffffffffff1673ffffffffffffffffffffffffffffffffffffffff16815260200190815260200160002060090160009054906101000a900473ffffffffffffffffffffffffffffffffffffffff16905061318d82612d4b565b61319681612d4b565b61319f84613566565b5060011515600460008373ffffffffffffffffffffffffffffffffffffffff1673ffffffffffffffffffffffffffffffffffffffff16815260200190815260200160002060060160009054906101000a900460ff16151514613202575050613562565b82600560008673ffffffffffffffffffffffffffffffffffffffff1673ffffffffffffffffffffffffffffffffffffffff16815260200190815260200160002060040154101561329d576040517f08c379a0000000000000000000000000000000000000000000000000000000008152600401808060200182810382526021815260200180615de26021913960400191505060405180910390fd5b60006132fe836132ef600560008973ffffffffffffffffffffffffffffffffffffffff1673ffffffffffffffffffffffffffffffffffffffff16815260200190815260200160002060040154876152c3565b846132f989614e6b565b615a20565b90506103e88111613377576040517f08c379a000000000000000000000000000000000000000000000000000000000815260040180806020018281038252601e8152602001807f4865616c746820666163746f7220776f756c6420626520746f6f206c6f77000081525060200191505060405180910390fd5b6133c3600560008773ffffffffffffffffffffffffffffffffffffffff1673ffffffffffffffffffffffffffffffffffffffff16815260200190815260200160002060040154856152c3565b600560008773ffffffffffffffffffffffffffffffffffffffff1673ffffffffffffffffffffffffffffffffffffffff16815260200190815260200160002060040181905550613455600460008573ffffffffffffffffffffffffffffffffffffffff1673ffffffffffffffffffffffffffffffffffffffff16815260200190815260200160002060050154856152c3565b600460008573ffffffffffffffffffffffffffffffffffffffff1673ffffffffffffffffffffffffffffffffffffffff168152602001908152602001600020600501819055508273ffffffffffffffffffffffffffffffffffffffff1663a9059cbb86866040518363ffffffff1660e01b8152600401808373ffffffffffffffffffffffffffffffffffffffff1673ffffffffffffffffffffffffffffffffffffffff16815260200182815260200192505050602060405180830381600087803b15801561352257600080fd5b505af1158015613536573d6000803e3d6000fd5b505050506040513d602081101561354c57600080fd5b8101908080519060200190929190505050505050505b5050565b600080600560008473ffffffffffffffffffffffffffffffffffffffff1673ffffffffffffffffffffffffffffffffffffffff16815260200190815260200160002060090160009054906101000a900473ffffffffffffffffffffffffffffffffffffffff16905060001515600460008373ffffffffffffffffffffffffffffffffffffffff1673ffffffffffffffffffffffffffffffffffffffff16815260200190815260200160002060060160009054906101000a900460ff16151514801561365e5750600073ffffffffffffffffffffffffffffffffffffffff168173ffffffffffffffffffffffffffffffffffffffff1614155b15613bde576136f1600460008373ffffffffffffffffffffffffffffffffffffffff1673ffffffffffffffffffffffffffffffffffffffff16815260200190815260200160002060030154600560008673ffffffffffffffffffffffffffffffffffffffff1673ffffffffffffffffffffffffffffffffffffffff168152602001908152602001600020600601546152c3565b600460008373ffffffffffffffffffffffffffffffffffffffff1673ffffffffffffffffffffffffffffffffffffffff168152602001908152602001600020600301819055506000600560008573ffffffffffffffffffffffffffffffffffffffff1673ffffffffffffffffffffffffffffffffffffffff16815260200190815260200160002060050160009054906101000a900473ffffffffffffffffffffffffffffffffffffffff16905061382c600460008373ffffffffffffffffffffffffffffffffffffffff1673ffffffffffffffffffffffffffffffffffffffff16815260200190815260200160002060050154600560008773ffffffffffffffffffffffffffffffffffffffff1673ffffffffffffffffffffffffffffffffffffffff168152602001908152602001600020600401546152c3565b600460008373ffffffffffffffffffffffffffffffffffffffff1673ffffffffffffffffffffffffffffffffffffffff16815260200190815260200160002060050181905550604051806101400160405280600560008773ffffffffffffffffffffffffffffffffffffffff1673ffffffffffffffffffffffffffffffffffffffff168152602001908152602001600020600001548152602001600560008773ffffffffffffffffffffffffffffffffffffffff1673ffffffffffffffffffffffffffffffffffffffff168152602001908152602001600020600101548152602001600560008773ffffffffffffffffffffffffffffffffffffffff1673ffffffffffffffffffffffffffffffffffffffff168152602001908152602001600020600201548152602001600560008773ffffffffffffffffffffffffffffffffffffffff1673ffffffffffffffffffffffffffffffffffffffff16815260200190815260200160002060030160009054906101000a900473ffffffffffffffffffffffffffffffffffffffff1673ffffffffffffffffffffffffffffffffffffffff16815260200160008152602001600073ffffffffffffffffffffffffffffffffffffffff168152602001600081526020016000815260200160008152602001600073ffffffffffffffffffffffffffffffffffffffff16815250600560008673ffffffffffffffffffffffffffffffffffffffff1673ffffffffffffffffffffffffffffffffffffffff16815260200190815260200160002060008201518160000155602082015181600101556040820151816002015560608201518160030160006101000a81548173ffffffffffffffffffffffffffffffffffffffff021916908373ffffffffffffffffffffffffffffffffffffffff1602179055506080820151816004015560a08201518160050160006101000a81548173ffffffffffffffffffffffffffffffffffffffff021916908373ffffffffffffffffffffffffffffffffffffffff16021790555060c0820151816006015560e0820151816007015561010082015181600801556101208201518160090160006101000a81548173ffffffffffffffffffffffffffffffffffffffff021916908373ffffffffffffffffffffffffffffffffffffffff160217905550905050613bd382600460008573ffffffffffffffffffffffffffffffffffffffff1673ffffffffffffffffffffffffffffffffffffffff16815260200190815260200160002060010154615506565b600192505050613be4565b60009150505b919050565b60046020528060005260406000206000915090508060000154908060010154908060020154908060030154908060040154908060050154908060060160009054906101000a900460ff16905087565b613c4189615c09565b613cb3576040517f08c379a000000000000000000000000000000000000000000000000000000000815260040180806020018281038252600e8152602001807f4e6f74206120636f6e747261637400000000000000000000000000000000000081525060200191505060405180910390fd5b6000809054906101000a900473ffffffffffffffffffffffffffffffffffffffff1673ffffffffffffffffffffffffffffffffffffffff16638306e9538a8a8a8a8a8a8a6040518863ffffffff1660e01b8152600401808873ffffffffffffffffffffffffffffffffffffffff1673ffffffffffffffffffffffffffffffffffffffff168152602001878152602001868152602001858152602001848152602001838152602001828152602001975050505050505050600060405180830381600087803b158015613d8357600080fd5b505af1158015613d97573d6000803e3d6000fd5b505050506040518060e001604052808381526020016000815260200188815260200160008152602001600081526020016000815260200160011515815250600460008b73ffffffffffffffffffffffffffffffffffffffff1673ffffffffffffffffffffffffffffffffffffffff168152602001908152602001600020600082015181600001556020820151816001015560408201518160020155606082015181600301556080820151816004015560a0820151816005015560c08201518160060160006101000a81548160ff02191690831515021790555090505080600260008b73ffffffffffffffffffffffffffffffffffffffff1673ffffffffffffffffffffffffffffffffffffffff16815260200190815260200160002060006101000a81548160ff021916908315150217905550505050505050505050565b6000600560008473ffffffffffffffffffffffffffffffffffffffff1673ffffffffffffffffffffffffffffffffffffffff16815260200190815260200160002060030160009054906101000a900473ffffffffffffffffffffffffffffffffffffffff1690506000600460008373ffffffffffffffffffffffffffffffffffffffff1673ffffffffffffffffffffffffffffffffffffffff168152602001908152602001600020600001541415613ff5576040517f08c379a000000000000000000000000000000000000000000000000000000000815260040180806020018281038252600d8152602001807f4e6f7420737570706f727465640000000000000000000000000000000000000081525060200191505060405180910390fd5b613ffe81612d4b565b61400783613566565b5060011515600460008373ffffffffffffffffffffffffffffffffffffffff1673ffffffffffffffffffffffffffffffffffffffff16815260200190815260200160002060060160009054906101000a900460ff161515146140695750614901565b600260008273ffffffffffffffffffffffffffffffffffffffff1673ffffffffffffffffffffffffffffffffffffffff16815260200190815260200160002060009054906101000a900460ff168061414e5750600460008273ffffffffffffffffffffffffffffffffffffffff1673ffffffffffffffffffffffffffffffffffffffff1681526020019081526020016000206003015461414b600460008473ffffffffffffffffffffffffffffffffffffffff1673ffffffffffffffffffffffffffffffffffffffff16815260200190815260200160002060050154846156cc565b11155b6141c0576040517f08c379a00000000000000000000000000000000000000000000000000000000081526004018080602001828103825260208152602001807f426f72726f77203e20636f6c6c20636f6e646974696f6e20627265616368656481525060200191505060405180910390fd5b81600560008573ffffffffffffffffffffffffffffffffffffffff1673ffffffffffffffffffffffffffffffffffffffff168152602001908152602001600020600001541015614278576040517f08c379a00000000000000000000000000000000000000000000000000000000081526004018080602001828103825260158152602001807f4465706f736974206973206e6f7420656e6f756768000000000000000000000081525060200191505060405180910390fd5b600073ffffffffffffffffffffffffffffffffffffffff16600560008573ffffffffffffffffffffffffffffffffffffffff1673ffffffffffffffffffffffffffffffffffffffff16815260200190815260200160002060050160009054906101000a900473ffffffffffffffffffffffffffffffffffffffff1673ffffffffffffffffffffffffffffffffffffffff16148061443b57508073ffffffffffffffffffffffffffffffffffffffff16600560008573ffffffffffffffffffffffffffffffffffffffff1673ffffffffffffffffffffffffffffffffffffffff16815260200190815260200160002060050160009054906101000a900473ffffffffffffffffffffffffffffffffffffffff1673ffffffffffffffffffffffffffffffffffffffff1614801561443a57508073ffffffffffffffffffffffffffffffffffffffff16600560008573ffffffffffffffffffffffffffffffffffffffff1673ffffffffffffffffffffffffffffffffffffffff16815260200190815260200160002060030160009054906101000a900473ffffffffffffffffffffffffffffffffffffffff1673ffffffffffffffffffffffffffffffffffffffff16145b5b614490576040517f08c379a000000000000000000000000000000000000000000000000000000000815260040180806020018281038252603f815260200180615da3603f913960400191505060405180910390fd5b600460008273ffffffffffffffffffffffffffffffffffffffff1673ffffffffffffffffffffffffffffffffffffffff1681526020019081526020016000206003015461451f600460008473ffffffffffffffffffffffffffffffffffffffff1673ffffffffffffffffffffffffffffffffffffffff16815260200190815260200160002060040154846152c3565b11614592576040517f08c379a000000000000000000000000000000000000000000000000000000000815260040180806020018281038252601b8152602001807f4465706f7369742d2d203d3e206f766572626f72726f77696e6773000000000081525060200191505060405180910390fd5b6145de600560008573ffffffffffffffffffffffffffffffffffffffff1673ffffffffffffffffffffffffffffffffffffffff16815260200190815260200160002060000154836152c3565b600560008573ffffffffffffffffffffffffffffffffffffffff1673ffffffffffffffffffffffffffffffffffffffff1681526020019081526020016000206000018190555061463661463084612e81565b836152c3565b600560008573ffffffffffffffffffffffffffffffffffffffff1673ffffffffffffffffffffffffffffffffffffffff1681526020019081526020016000206002018190555080600560008573ffffffffffffffffffffffffffffffffffffffff1673ffffffffffffffffffffffffffffffffffffffff16815260200190815260200160002060050160006101000a81548173ffffffffffffffffffffffffffffffffffffffff021916908373ffffffffffffffffffffffffffffffffffffffff160217905550614749600460008373ffffffffffffffffffffffffffffffffffffffff1673ffffffffffffffffffffffffffffffffffffffff16815260200190815260200160002060050154836156cc565b600460008373ffffffffffffffffffffffffffffffffffffffff1673ffffffffffffffffffffffffffffffffffffffff168152602001908152602001600020600501819055506147db600460008373ffffffffffffffffffffffffffffffffffffffff1673ffffffffffffffffffffffffffffffffffffffff16815260200190815260200160002060040154836152c3565b600460008373ffffffffffffffffffffffffffffffffffffffff1673ffffffffffffffffffffffffffffffffffffffff1681526020019081526020016000206004018190555061486d81600460008473ffffffffffffffffffffffffffffffffffffffff1673ffffffffffffffffffffffffffffffffffffffff16815260200190815260200160002060010154615506565b6148b9600560008573ffffffffffffffffffffffffffffffffffffffff1673ffffffffffffffffffffffffffffffffffffffff16815260200190815260200160002060040154836156cc565b600560008573ffffffffffffffffffffffffffffffffffffffff1673ffffffffffffffffffffffffffffffffffffffff16815260200190815260200160002060040181905550505b5050565b8073ffffffffffffffffffffffffffffffffffffffff16600560008573ffffffffffffffffffffffffffffffffffffffff1673ffffffffffffffffffffffffffffffffffffffff16815260200190815260200160002060030160009054906101000a900473ffffffffffffffffffffffffffffffffffffffff1673ffffffffffffffffffffffffffffffffffffffff1614806149e357506000600560008573ffffffffffffffffffffffffffffffffffffffff1673ffffffffffffffffffffffffffffffffffffffff16815260200190815260200160002060000154145b614a55576040517f08c379a00000000000000000000000000000000000000000000000000000000081526004018080602001828103825260158152602001807f416c7265616479206861732061206465706f736974000000000000000000000081525060200191505060405180910390fd5b6000600460008373ffffffffffffffffffffffffffffffffffffffff1673ffffffffffffffffffffffffffffffffffffffff168152602001908152602001600020600001541415614b0e576040517f08c379a000000000000000000000000000000000000000000000000000000000815260040180806020018281038252600d8152602001807f4e6f7420737570706f727465640000000000000000000000000000000000000081525060200191505060405180910390fd5b614b1781612d4b565b614b2083613566565b5060011515600460008373ffffffffffffffffffffffffffffffffffffffff1673ffffffffffffffffffffffffffffffffffffffff16815260200190815260200160002060060160009054906101000a900460ff16151514614b8157614e66565b614b8f818385600080615754565b614bdb81600460008473ffffffffffffffffffffffffffffffffffffffff1673ffffffffffffffffffffffffffffffffffffffff16815260200190815260200160002060010154615506565b80600560008573ffffffffffffffffffffffffffffffffffffffff1673ffffffffffffffffffffffffffffffffffffffff16815260200190815260200160002060030160006101000a81548173ffffffffffffffffffffffffffffffffffffffff021916908373ffffffffffffffffffffffffffffffffffffffff160217905550614ca882600560008673ffffffffffffffffffffffffffffffffffffffff1673ffffffffffffffffffffffffffffffffffffffff168152602001908152602001600020600001546156cc565b600560008573ffffffffffffffffffffffffffffffffffffffff1673ffffffffffffffffffffffffffffffffffffffff16815260200190815260200160002060000181905550614d0082614cfb85612e81565b6156cc565b600560008573ffffffffffffffffffffffffffffffffffffffff1673ffffffffffffffffffffffffffffffffffffffff168152602001908152602001600020600201819055506000809054906101000a900473ffffffffffffffffffffffffffffffffffffffff1673ffffffffffffffffffffffffffffffffffffffff16630f1f7bc9826040518263ffffffff1660e01b8152600401808273ffffffffffffffffffffffffffffffffffffffff1673ffffffffffffffffffffffffffffffffffffffff16815260200191505060206040518083038186803b158015614de457600080fd5b505afa158015614df8573d6000803e3d6000fd5b505050506040513d6020811015614e0e57600080fd5b8101908080519060200190929190505050600560008573ffffffffffffffffffffffffffffffffffffffff1673ffffffffffffffffffffffffffffffffffffffff168152602001908152602001600020600101819055505b505050565b600080600560008473ffffffffffffffffffffffffffffffffffffffff1673ffffffffffffffffffffffffffffffffffffffff16815260200190815260200160002060090160009054906101000a900473ffffffffffffffffffffffffffffffffffffffff1690506000600560008573ffffffffffffffffffffffffffffffffffffffff1673ffffffffffffffffffffffffffffffffffffffff168152602001908152602001600020600701541415614f2857600091505061509b565b61509761504f600560008673ffffffffffffffffffffffffffffffffffffffff1673ffffffffffffffffffffffffffffffffffffffff168152602001908152602001600020600801546000809054906101000a900473ffffffffffffffffffffffffffffffffffffffff1673ffffffffffffffffffffffffffffffffffffffff1663f609507b856040518263ffffffff1660e01b8152600401808273ffffffffffffffffffffffffffffffffffffffff1673ffffffffffffffffffffffffffffffffffffffff16815260200191505060206040518083038186803b15801561500f57600080fd5b505afa158015615023573d6000803e3d6000fd5b505050506040513d602081101561503957600080fd5b8101908080519060200190929190505050615b39565b600560008673ffffffffffffffffffffffffffffffffffffffff1673ffffffffffffffffffffffffffffffffffffffff16815260200190815260200160002060070154615bbf565b9150505b919050565b600080600560008473ffffffffffffffffffffffffffffffffffffffff1673ffffffffffffffffffffffffffffffffffffffff16815260200190815260200160002060050160009054906101000a900473ffffffffffffffffffffffffffffffffffffffff1690506000600560008573ffffffffffffffffffffffffffffffffffffffff1673ffffffffffffffffffffffffffffffffffffffff16815260200190815260200160002060090160009054906101000a900473ffffffffffffffffffffffffffffffffffffffff169050600061524a615202600460008673ffffffffffffffffffffffffffffffffffffffff1673ffffffffffffffffffffffffffffffffffffffff16815260200190815260200160002060020154600460008773ffffffffffffffffffffffffffffffffffffffff1673ffffffffffffffffffffffffffffffffffffffff16815260200190815260200160002060000154615b39565b600560008873ffffffffffffffffffffffffffffffffffffffff1673ffffffffffffffffffffffffffffffffffffffff16815260200190815260200160002060040154615b39565b9050600061525786614e6b565b90506152b861526783600a615b39565b6152b383600460008873ffffffffffffffffffffffffffffffffffffffff1673ffffffffffffffffffffffffffffffffffffffff16815260200190815260200160002060000154615b39565b615bbf565b945050505050919050565b600061530583836040518060400160405280601e81526020017f536166654d6174683a207375627472616374696f6e206f766572666c6f770000815250615c1c565b905092915050565b8373ffffffffffffffffffffffffffffffffffffffff1663a9059cbb83856040518363ffffffff1660e01b8152600401808373ffffffffffffffffffffffffffffffffffffffff1673ffffffffffffffffffffffffffffffffffffffff16815260200182815260200192505050602060405180830381600087803b15801561539457600080fd5b505af11580156153a8573d6000803e3d6000fd5b505050506040513d60208110156153be57600080fd5b810190808051906020019092919050505050801561546d57615422600460008673ffffffffffffffffffffffffffffffffffffffff1673ffffffffffffffffffffffffffffffffffffffff16815260200190815260200160002060030154846156cc565b600460008673ffffffffffffffffffffffffffffffffffffffff1673ffffffffffffffffffffffffffffffffffffffff16815260200190815260200160002060030181905550615500565b6154b9600460008673ffffffffffffffffffffffffffffffffffffffff1673ffffffffffffffffffffffffffffffffffffffff16815260200190815260200160002060040154846152c3565b600460008673ffffffffffffffffffffffffffffffffffffffff1673ffffffffffffffffffffffffffffffffffffffff168152602001908152602001600020600401819055505b50505050565b6000809054906101000a900473ffffffffffffffffffffffffffffffffffffffff1673ffffffffffffffffffffffffffffffffffffffff16633a0c6c2683836040518363ffffffff1660e01b8152600401808373ffffffffffffffffffffffffffffffffffffffff1673ffffffffffffffffffffffffffffffffffffffff16815260200182815260200192505050602060405180830381600087803b1580156155ae57600080fd5b505af11580156155c2573d6000803e3d6000fd5b505050506040513d60208110156155d857600080fd5b81019080805190602001909291905050505061568261563a600460008573ffffffffffffffffffffffffffffffffffffffff1673ffffffffffffffffffffffffffffffffffffffff168152602001908152602001600020600301546064615b39565b600460008573ffffffffffffffffffffffffffffffffffffffff1673ffffffffffffffffffffffffffffffffffffffff16815260200190815260200160002060040154615bbf565b600460008473ffffffffffffffffffffffffffffffffffffffff1673ffffffffffffffffffffffffffffffffffffffff168152602001908152602001600020600101819055505050565b60008082840190508381101561574a576040517f08c379a000000000000000000000000000000000000000000000000000000000815260040180806020018281038252601b8152602001807f536166654d6174683a206164646974696f6e206f766572666c6f77000000000081525060200191505060405180910390fd5b8091505092915050565b8473ffffffffffffffffffffffffffffffffffffffff166323b872dd8430876040518463ffffffff1660e01b8152600401808473ffffffffffffffffffffffffffffffffffffffff1673ffffffffffffffffffffffffffffffffffffffff1681526020018373ffffffffffffffffffffffffffffffffffffffff1673ffffffffffffffffffffffffffffffffffffffff1681526020018281526020019350505050602060405180830381600087803b15801561580f57600080fd5b505af1158015615823573d6000803e3d6000fd5b505050506040513d602081101561583957600080fd5b81019080805190602001909291905050505081156158e85761589d84600460008873ffffffffffffffffffffffffffffffffffffffff1673ffffffffffffffffffffffffffffffffffffffff168152602001908152602001600020600501546156cc565b600460008773ffffffffffffffffffffffffffffffffffffffff1673ffffffffffffffffffffffffffffffffffffffff16815260200190815260200160002060050181905550615a19565b80156159855761593a600460008773ffffffffffffffffffffffffffffffffffffffff1673ffffffffffffffffffffffffffffffffffffffff16815260200190815260200160002060030154856152c3565b600460008773ffffffffffffffffffffffffffffffffffffffff1673ffffffffffffffffffffffffffffffffffffffff16815260200190815260200160002060030181905550615a18565b6159d1600460008773ffffffffffffffffffffffffffffffffffffffff1673ffffffffffffffffffffffffffffffffffffffff16815260200190815260200160002060040154856156cc565b600460008773ffffffffffffffffffffffffffffffffffffffff1673ffffffffffffffffffffffffffffffffffffffff168152602001908152602001600020600401819055505b5b5050505050565b6000615a2b85610fc3565b615a3483610fc3565b6000615acd615ac7600460008973ffffffffffffffffffffffffffffffffffffffff1673ffffffffffffffffffffffffffffffffffffffff16815260200190815260200160002060020154600460008a73ffffffffffffffffffffffffffffffffffffffff1673ffffffffffffffffffffffffffffffffffffffff16815260200190815260200160002060000154615b39565b86615b39565b9050615b2e615add82600a615b39565b615b2985600460008973ffffffffffffffffffffffffffffffffffffffff1673ffffffffffffffffffffffffffffffffffffffff16815260200190815260200160002060000154615b39565b615bbf565b915050949350505050565b600080831415615b4c5760009050615bb9565b6000828402905082848281615b5d57fe5b0414615bb4576040517f08c379a0000000000000000000000000000000000000000000000000000000008152600401808060200182810382526021815260200180615e036021913960400191505060405180910390fd5b809150505b92915050565b6000615c0183836040518060400160405280601a81526020017f536166654d6174683a206469766973696f6e206279207a65726f000000000000815250615cdc565b905092915050565b600080823b905060008111915050919050565b6000838311158290615cc9576040517f08c379a00000000000000000000000000000000000000000000000000000000081526004018080602001828103825283818151815260200191508051906020019080838360005b83811015615c8e578082015181840152602081019050615c73565b50505050905090810190601f168015615cbb5780820380516001836020036101000a031916815260200191505b509250505060405180910390fd5b5060008385039050809150509392505050565b60008083118290615d88576040517f08c379a00000000000000000000000000000000000000000000000000000000081526004018080602001828103825283818151815260200191508051906020019080838360005b83811015615d4d578082015181840152602081019050615d32565b50505050905090810190601f168015615d7a5780820380516001836020036101000a031916815260200191505b509250505060405180910390fd5b506000838581615d9457fe5b04905080915050939250505056fe436f6c6c61746572616c20696e20616e6f7468657220746f6b656e202f20636f6c6c61746572616c20746f6b656e20213d206465706f73697420746f6b656e476976656e20616d6f756e742067726561746572203e20636f6c6c61746572616c536166654d6174683a206d756c7469706c69636174696f6e206f766572666c6f7743616e6e6f7420626f72726f77206f76657220636f6c6c61746572616c20666163746f72a26469706673582212207d3dc01256a6bb9c8c73f93b3b611b0046b6046d6b159920f9d6418e10b2e47964736f6c63430006020033",
  "source": "// SPDX-License-Identifier: MIT\npragma solidity >=0.4.22 <0.8.0;\nimport \"./ERC20.sol\";\nimport \"./Address.sol\";\nimport \"./InterestVariables.sol\";\nimport \"./Exchange.sol\";\nimport './SafeMath.sol';\n\ncontract LiquidityPool {\n\n  InterestVariables private ivar;\n  Exchange private exchange;\n  mapping (address => bool) public trustedTkns;\n\n\n  constructor(address ivar_add, address exchange_add) public {\n    ivar = InterestVariables(ivar_add);\n    exchange = Exchange(exchange_add);\n  }\n\n  address private owner;\n\n  mapping (address => TokenCoreData) public tokensData;\n  mapping (address => UserBalance) public usersBalance;\n\n  struct UserBalance{\n    uint depositedAmount;\n    uint init_interest_deposit;\n    uint cummulated_ir_deposit;\n    address tokenDeposited;\n    uint collateralAmount;\n    address tokenCollateralised;\n    uint borrowedAmount;\n    uint init_interest_borrow;\n    uint cummulated_ir_borrow;\n    address tokenBorrowed;\n  }\n\n  struct TokenCoreData{\n    uint price;\n    uint utilisation;\n    uint collateral_factor;\n    uint totalBorrowed;\n    uint totalDeposited;\n    uint totalCollateral;\n    bool exchangeable;\n  }\n\n  modifier onlyOwner() {\n      require(msg.sender == owner, \"OWLP\");\n      _;\n  }\n\n  event Loan(\n    address user,\n    uint timestamp\n  );\n\n\n  // create token with all data\n  function createToken(address _token_address,\n    uint _optimal_utilisation,\n    uint _collateral_factor,\n    uint _base_rate,\n    uint _slope1,\n    uint _slope2,\n    uint _spread,\n    uint _price,\n    bool truested) public{\n      require(Address.isContract(_token_address), 'Not a contract');\n      ivar.createToken(_token_address, _optimal_utilisation, _collateral_factor, _base_rate, _slope1, _slope2, _spread);\n      tokensData[_token_address] = TokenCoreData(_price, 0, _collateral_factor, 0, 0, 0, true);\n      trustedTkns[_token_address] = truested;\n  }\n\n  // discards all loan details when borrowed token is NOT exchangable anymore\n  function tryDiscardLoan(address user) public returns (bool){\n    address tokenBorrowed = usersBalance[user].tokenBorrowed;\n    if(tokensData[tokenBorrowed].exchangeable == false && tokenBorrowed != address(0)){\n      // delete from reserves registers\n      tokensData[tokenBorrowed].totalBorrowed = SafeMath.sub(tokensData[tokenBorrowed].totalBorrowed, usersBalance[user].borrowedAmount);\n      address tokenColl = usersBalance[user].tokenCollateralised;\n      tokensData[tokenColl].totalCollateral = SafeMath.sub(tokensData[tokenColl].totalCollateral, usersBalance[user].collateralAmount);\n      // delete user's loan and collateral\n      usersBalance[user] = UserBalance(usersBalance[user].depositedAmount, usersBalance[user].init_interest_deposit, usersBalance[user].cummulated_ir_deposit, usersBalance[user].tokenDeposited, 0, address(0), 0, 0, 0, address(0));\n      // compound interest and update utilisation for the borrowed token\n      updateInterestRate(tokenBorrowed, tokensData[tokenBorrowed].utilisation);\n      return true;\n    }\n    return false;\n  }\n\n  // update prices from the exchange\n  function updateTokenPrice(address token) public{\n    tokensData[token].price = exchange.getPrice(token);\n  }\n\n  function checkExchangeability(address token) public{\n    tokensData[token].exchangeable = exchange.isExchangeable(token);\n  }\n\n  // cummulate interest rate for the token\n  function updateInterestRate(address token, uint oldUtilisationRate) internal{\n    ivar.compoundIR(token, oldUtilisationRate);\n    // if not updated means that the compounded IR exceeds uint\n    tokensData[token].utilisation = SafeMath.div(SafeMath.mul(tokensData[token].totalBorrowed, 100), tokensData[token].totalDeposited) ;\n  }\n\n  // add to liquidity pool of token\n  function addToReserves(address tokenId, uint amount, address payable user, bool isCollateral, bool isRepayment) internal{\n    ERC20(tokenId).transferFrom(user, address(this), amount);\n    if(isCollateral){\n      tokensData[tokenId].totalCollateral = SafeMath.add(amount, tokensData[tokenId].totalCollateral);\n    }else if(isRepayment){\n      tokensData[tokenId].totalBorrowed = SafeMath.sub(tokensData[tokenId].totalBorrowed, amount);\n    }else{\n      tokensData[tokenId].totalDeposited = SafeMath.add(tokensData[tokenId].totalDeposited, amount);\n    }\n  }\n\n  // take out from liquidity pool of token\n  function takeFromReserves(address tokenId, uint amount, address payable user, bool isLoan) internal{\n    ERC20(tokenId).transfer(user,  amount);\n    if(isLoan){\n      tokensData[tokenId].totalBorrowed = SafeMath.add(tokensData[tokenId].totalBorrowed, amount);\n    }else{ //redeeming\n      tokensData[tokenId].totalDeposited = SafeMath.sub(tokensData[tokenId].totalDeposited, amount);\n    }\n  }\n\n  function deposit(address payable user, uint amount, address tokenId) public{\n    //make sure users only have deposits in one token\n    require(usersBalance[user].tokenDeposited == tokenId || usersBalance[user].depositedAmount == 0, \"Already has a deposit\");\n    //make sure token is supported\n    require(tokensData[tokenId].price != 0, \"Not supported\");\n\n    // make sure token is exchangeable\n    checkExchangeability(tokenId);\n    tryDiscardLoan(user);\n    if(tokensData[tokenId].exchangeable != true){\n      return;\n    }\n\n    addToReserves(tokenId, amount, user, false, false);\n    updateInterestRate(tokenId,tokensData[tokenId].utilisation);\n    usersBalance[user].tokenDeposited = tokenId;\n    usersBalance[user].depositedAmount = SafeMath.add(amount, usersBalance[user].depositedAmount);\n    usersBalance[user].cummulated_ir_deposit = SafeMath.add(amount, getCummulatedInterestDeposit(user));\n    usersBalance[user].init_interest_deposit = ivar.getIRDepositTotalCummulation(tokenId);\n  }\n\n  function borrow(address payable user, uint amount, address tokenId) public{\n    //make sure token is supported\n    require(tokensData[tokenId].price != 0, \"Not supported\");\n\n    // make sure token is exchangeable\n    checkExchangeability(tokenId);\n    tryDiscardLoan(user);\n    if(tokensData[tokenId].exchangeable != true){\n      return;\n    }\n\n    // make sure total borrow plus the amount to be borrowed is less than totalDeposited\n    require(tokensData[tokenId].totalDeposited >= SafeMath.add(tokensData[tokenId].totalBorrowed, amount), \"Borrow => overborrowings\");\n    //make sure users only have borrowings in one token\n    require(usersBalance[user].tokenBorrowed == tokenId || usersBalance[user].borrowedAmount == 0, \"Already has loan\");\n    // make sure it borrowes less than the collateral _collateral_factor\n    address collateralToken = usersBalance[user].tokenCollateralised;\n    uint healthFactorAfter = getHealthFactorUnsafe(collateralToken, usersBalance[user].collateralAmount, tokenId, SafeMath.add(amount, usersBalance[user].borrowedAmount));\n    require(healthFactorAfter > 1000, \"Cannot borrow over collateral factor\");\n\n    usersBalance[user].tokenBorrowed = tokenId;\n    usersBalance[user].borrowedAmount = SafeMath.add(usersBalance[user].borrowedAmount, amount);\n    usersBalance[user].cummulated_ir_borrow = SafeMath.add(amount, getCummulatedInterestLoan(user));\n    takeFromReserves(tokenId, amount, user, true);\n    updateInterestRate(tokenId,tokensData[tokenId].utilisation);\n    usersBalance[user].init_interest_borrow = ivar.getIRBorrowTotalCummulation(tokenId);\n    emit Loan(user, now);\n  }\n\n  function depositCollateral(address payable user, uint amount, address tokenId) public{\n    //make sure users only have deposits in one token\n    require(usersBalance[user].tokenCollateralised == address(0) || usersBalance[user].tokenCollateralised == tokenId, \"Already has collateral\");\n    //make sure token is supported\n    require(tokensData[tokenId].price != 0, \"Not supported\");\n\n    // make sure token is exchangeable\n    checkExchangeability(tokenId);\n    tryDiscardLoan(user);\n    if(tokensData[tokenId].exchangeable != true){\n      return;\n    }\n\n    require(trustedTkns[tokenId] || SafeMath.add(tokensData[tokenId].totalCollateral, amount) <= tokensData[tokenId].totalBorrowed, \"Borrow > coll condition breached\");\n\n    addToReserves(tokenId, amount, user, true, false);\n    usersBalance[user].tokenCollateralised = tokenId;\n    usersBalance[user].collateralAmount = SafeMath.add(usersBalance[user].collateralAmount, amount);\n  }\n\n  // Currently switch from deposit to collaterall can only be done from the principle depositedAmount\n  // not from the accumulated interest\n  function switchDepositToCollateral(address payable user, uint amount) public{\n    address tokenId = usersBalance[user].tokenDeposited;\n    //make sure token is supported\n    require(tokensData[tokenId].price != 0, \"Not supported\");\n\n    // make sure token is exchangeable\n    checkExchangeability(tokenId);\n    tryDiscardLoan(user);\n    if(tokensData[tokenId].exchangeable != true){\n      return;\n    }\n    require(trustedTkns[tokenId] || SafeMath.add(tokensData[tokenId].totalCollateral, amount) <= tokensData[tokenId].totalBorrowed, \"Borrow > coll condition breached\");\n    // make sure deposited is not zero\n    require(usersBalance[user].depositedAmount >= amount, \"Deposit is not enough\");\n    // make sure collateral is not in another token\n    require(usersBalance[user].tokenCollateralised == address(0) || (usersBalance[user].tokenCollateralised == tokenId && usersBalance[user].tokenDeposited == tokenId), \"Collateral in another token / collateral token != deposit token\");\n    // make sure subtracting amount from deposits does not make the total deposited less than total borrow\n    require(SafeMath.sub(tokensData[tokenId].totalDeposited,amount) > tokensData[tokenId].totalBorrowed, \"Deposit-- => overborrowings\");\n\n    usersBalance[user].depositedAmount = SafeMath.sub(usersBalance[user].depositedAmount, amount);\n    usersBalance[user].cummulated_ir_deposit = SafeMath.sub(getCummulatedInterestDeposit(user), amount);\n\n    usersBalance[user].tokenCollateralised = tokenId;\n    tokensData[tokenId].totalCollateral = SafeMath.add(tokensData[tokenId].totalCollateral, amount); // increase reserves collateral\n    tokensData[tokenId].totalDeposited = SafeMath.sub(tokensData[tokenId].totalDeposited, amount); // decrease reserves deposits\n    updateInterestRate(tokenId,tokensData[tokenId].utilisation);\n    usersBalance[user].collateralAmount = SafeMath.add(usersBalance[user].collateralAmount, amount);\n  }\n\n  function repay(address payable user, uint amount) public{\n    // check if there is something to repay\n    require(usersBalance[user].borrowedAmount != 0, \"No loan to repay\");\n\n    address token = usersBalance[user].tokenBorrowed;\n\n    // make sure token is exchangeable\n    checkExchangeability(token);\n    tryDiscardLoan(user);\n    if(tokensData[token].exchangeable != true){\n      return;\n    }\n\n    require(trustedTkns[token] || SafeMath.sub(tokensData[token].totalBorrowed, amount) <= tokensData[token].totalCollateral, \"Borrow > coll condition breached\");\n    // check if given amount does not exceed the owed amount\n    uint cummulatedInterest = getCummulatedInterestLoan(user); // cummulated amount owed\n    require(cummulatedInterest >= amount, \"Repaid > owed\");\n\n    // what is not subtracted from the totalBorrowed of reserves is extra\n    uint borrowedAmount = usersBalance[user].borrowedAmount;\n    uint toPool = amount;\n    uint extra = 0;\n    if(amount > borrowedAmount){\n      toPool = borrowedAmount;\n      extra = SafeMath.sub(amount,toPool);\n    }\n\n    // repay what was borrowed to reserves\n    addToReserves(token, toPool, user,false, true);\n    // give interest payment (extra) to reserves as well\n    ERC20(token).transferFrom(user, address(this), extra);\n\n    // reinitialise initial interest\n    usersBalance[user].borrowedAmount = SafeMath.sub(usersBalance[user].borrowedAmount, toPool);\n    usersBalance[user].cummulated_ir_borrow = SafeMath.sub(cummulatedInterest ,amount);\n    usersBalance[user].init_interest_borrow = ivar.getIRBorrowTotalCummulation(token);\n    // modify utilisation rate and interest\n    updateInterestRate(token, tokensData[token].utilisation);\n  }\n\n  function redeem(address payable user, uint amount) public{\n\n    address token = usersBalance[user].tokenDeposited;\n\n    // chack exchageability but do not require token to be exchangable\n    checkExchangeability(token);\n    tryDiscardLoan(user);\n\n    // check if given amount does not exceed the deposit+interest\n    uint cummulatedInterest = getCummulatedInterestDeposit(user); // cummulated amount owed\n    require(cummulatedInterest >= amount, \"Redeemed > assigned\");\n\n    // split the amount requested\n    uint depositedAmount = usersBalance[user].depositedAmount;\n    uint fromPool = amount;\n    uint extra = 0;\n    if(amount > depositedAmount){\n      fromPool = depositedAmount;\n      extra = SafeMath.sub(amount, depositedAmount);\n    }\n\n    // check if enough liquidity in reserves\n    require( SafeMath.sub(tokensData[token].totalDeposited, fromPool) >= tokensData[token].totalBorrowed, \"Demand > supply\");\n    // check for extra liquidity obtained from interest rate payments on loans\n    uint reservesBalance = ERC20(token).balanceOf(address(this));\n    // if extra redeemed, check if enough in extra reserves\n    require(extra == 0 || extra < SafeMath.sub(SafeMath.sub(reservesBalance, tokensData[token].totalDeposited),tokensData[token].totalCollateral), \"Not enough extra reserves\");\n\n    // update user's deposit variables\n    usersBalance[user].depositedAmount = SafeMath.sub(usersBalance[user].depositedAmount, fromPool);\n    usersBalance[user].cummulated_ir_deposit = SafeMath.sub(cummulatedInterest, amount);\n    usersBalance[user].init_interest_deposit = ivar.getIRDepositTotalCummulation(token);\n\n    // give from reserves\n    takeFromReserves(token,fromPool,user,false);\n    // transfer extra\n    ERC20(token).transfer(user,extra);\n    // modify utilisation rate and interest\n    updateInterestRate(token, tokensData[token].utilisation);\n  }\n\n  function redeemCollateral(address payable user, uint amount) public{\n    // chack exchageability but do not require token to be exchangable\n    address collateralToken = usersBalance[user].tokenCollateralised;\n    address borrowedToken = usersBalance[user].tokenBorrowed;\n    checkExchangeability(collateralToken);\n    checkExchangeability(borrowedToken);\n    tryDiscardLoan(user);\n    if(tokensData[borrowedToken].exchangeable != true){\n      return;\n    }\n\n    // check if there is enough to redeem\n    require(usersBalance[user].collateralAmount >= amount,\"Given amount greater > collateral\");\n    // check if redeeming would not affect the health factor\n    uint healthFactorAfter = getHealthFactorUnsafe(collateralToken, SafeMath.sub(usersBalance[user].collateralAmount, amount), borrowedToken, getCummulatedInterestLoan(user));\n    require( healthFactorAfter > 1000, \"Health factor would be too low\");\n    // do changes in user's balances\n    usersBalance[user].collateralAmount = SafeMath.sub(usersBalance[user].collateralAmount, amount);\n    // do changes in reserves data\n    tokensData[collateralToken].totalCollateral = SafeMath.sub(tokensData[collateralToken].totalCollateral, amount);\n    ERC20(collateralToken).transfer(user,amount);\n  }\n\n  // get value of deposit with cummulated interest so far\n  function getCummulatedInterestDeposit(address user) public view returns (uint){\n    // get initial deposit\n    address token = usersBalance[user].tokenDeposited;\n    if(usersBalance[user].init_interest_deposit == 0){\n      return 0;\n    }\n    // compute interest since depositing\n    return SafeMath.div(SafeMath.mul(usersBalance[user].cummulated_ir_deposit,ivar.getIRDepositTotalCummulation(token)), usersBalance[user].init_interest_deposit);\n  }\n\n  // get value of deposit with cummulated interest so far\n  function getCummulatedInterestLoan(address user) public view returns (uint){\n    // get initial deposit\n    address token = usersBalance[user].tokenBorrowed;\n    if(usersBalance[user].init_interest_borrow == 0){\n      return 0;\n    }\n    // compute interest since depositing\n    return SafeMath.div(SafeMath.mul(usersBalance[user].cummulated_ir_borrow,ivar.getIRBorrowTotalCummulation(token)), usersBalance[user].init_interest_borrow);\n  }\n\n  // returns health factor *1000\n  function getHealthFactor(address user) public view returns(uint){\n    address collToken = usersBalance[user].tokenCollateralised;\n    address borrToken = usersBalance[user].tokenBorrowed;\n    // maximum y=the user can borrow against their collateral (*100)\n    uint upperLimitLoanUSD100 = SafeMath.mul(SafeMath.mul(tokensData[collToken].collateral_factor, tokensData[collToken].price), usersBalance[user].collateralAmount);\n    uint cummulatedLoan = getCummulatedInterestLoan(user);\n    return SafeMath.div(SafeMath.mul(upperLimitLoanUSD100,10),SafeMath.mul(cummulatedLoan,tokensData[borrToken].price));\n  }\n\n  // returns health factor *1000\n  function getHealthFactorUnsafe(address collToken, uint collAmount, address borrToken, uint owed) internal returns(uint){\n    // maximum y=the user can borrow against their collateral (*100)\n    updateTokenPrice(collToken);\n    updateTokenPrice(borrToken);\n    uint upperLimitLoanUSD100 = SafeMath.mul(SafeMath.mul(tokensData[collToken].collateral_factor, tokensData[collToken].price), collAmount);\n    // how much they owe in USD\n    return SafeMath.div(SafeMath.mul(upperLimitLoanUSD100,10),SafeMath.mul(owed, tokensData[borrToken].price));\n  }\n\n  function liquidate(address user) public{\n    // check if the account has health Factor > 1\n    address collToken = usersBalance[user].tokenCollateralised;\n    address borrToken = usersBalance[user].tokenBorrowed;\n    checkExchangeability(borrToken);\n    tryDiscardLoan(user);\n    if(tokensData[borrToken].exchangeable != true){\n      return;\n    }\n    updateTokenPrice(collToken);\n    updateTokenPrice(borrToken);\n    uint cummulatedLoan = getCummulatedInterestLoan(user);\n    uint healthFactor = getHealthFactorUnsafe(collToken, usersBalance[user].collateralAmount, borrToken, cummulatedLoan);\n    require(healthFactor < 1000, \"Safe health factor\");\n\n    // get money from sender (loan)\n    // sender has to give me the amounnt owed\n    ERC20(borrToken).transferFrom(msg.sender, address(this), cummulatedLoan);\n\n    // send to sender (collateral)\n    // sender has to receive the token collateralised correspondend with amount owed*1.05\n    uint toLiquidator = SafeMath.div(SafeMath.mul(SafeMath.mul(cummulatedLoan, tokensData[borrToken].price),105), SafeMath.mul(tokensData[collToken].price, 100));\n    ERC20(collToken).transfer(msg.sender, toLiquidator);\n\n    // modify details\n    usersBalance[user].borrowedAmount = 0;\n    usersBalance[user].cummulated_ir_borrow = 0;\n    usersBalance[user].collateralAmount = SafeMath.sub(usersBalance[user].collateralAmount, toLiquidator);\n    tokensData[borrToken].totalBorrowed = SafeMath.sub(tokensData[borrToken].totalBorrowed, cummulatedLoan);\n    tokensData[collToken].totalCollateral = SafeMath.sub(tokensData[collToken].totalCollateral, toLiquidator);\n  }\n\n\n}\n",
  "sourcePath": "/Users/ioanaroceanu/Documents/Project/contracts/LiquidityPool.sol",
  "compiler": {
    "name": "solc",
    "version": "0.6.2+commit.bacdbe57.Emscripten.clang"
  },
  "schemaVersion": "3.3.2",
  "updatedAt": "2021-02-23T12:10:16.995Z",
  "devdoc": {
    "methods": {}
  },
  "userdoc": {
    "methods": {}
  }
}