{
  "contractName": "LiquidityPool",
  "abi": [
    {
      "inputs": [
        {
          "internalType": "address",
          "name": "ivar_add",
          "type": "address"
        }
      ],
      "stateMutability": "nonpayable",
      "type": "constructor"
    },
    {
      "inputs": [
        {
          "internalType": "address",
          "name": "",
          "type": "address"
        }
      ],
      "name": "tokensCoreData",
      "outputs": [
        {
          "internalType": "uint256",
          "name": "price",
          "type": "uint256"
        },
        {
          "internalType": "string",
          "name": "symbol",
          "type": "string"
        },
        {
          "internalType": "uint256",
          "name": "utilisation",
          "type": "uint256"
        },
        {
          "internalType": "uint256",
          "name": "borrowIR",
          "type": "uint256"
        },
        {
          "internalType": "uint256",
          "name": "depositIR",
          "type": "uint256"
        },
        {
          "internalType": "uint256",
          "name": "collateral_factor",
          "type": "uint256"
        },
        {
          "internalType": "uint256",
          "name": "totalBorrowed",
          "type": "uint256"
        },
        {
          "internalType": "uint256",
          "name": "totalDeposited",
          "type": "uint256"
        },
        {
          "internalType": "uint256",
          "name": "totalCollateral",
          "type": "uint256"
        }
      ],
      "stateMutability": "view",
      "type": "function",
      "constant": true
    },
    {
      "inputs": [
        {
          "internalType": "address",
          "name": "",
          "type": "address"
        }
      ],
      "name": "usersBalance",
      "outputs": [
        {
          "internalType": "uint256",
          "name": "depositedAmount",
          "type": "uint256"
        },
        {
          "internalType": "uint256",
          "name": "init_interest_deposit",
          "type": "uint256"
        },
        {
          "internalType": "uint256",
          "name": "cummulated_ir_deposit",
          "type": "uint256"
        },
        {
          "internalType": "address",
          "name": "tokenDeposited",
          "type": "address"
        },
        {
          "internalType": "uint256",
          "name": "collateralAmount",
          "type": "uint256"
        },
        {
          "internalType": "address",
          "name": "tokenCollateralised",
          "type": "address"
        },
        {
          "internalType": "uint256",
          "name": "borrowedAmount",
          "type": "uint256"
        },
        {
          "internalType": "uint256",
          "name": "init_interest_borrow",
          "type": "uint256"
        },
        {
          "internalType": "uint256",
          "name": "cummulated_ir_borrow",
          "type": "uint256"
        },
        {
          "internalType": "address",
          "name": "tokenBorrowed",
          "type": "address"
        }
      ],
      "stateMutability": "view",
      "type": "function",
      "constant": true
    },
    {
      "inputs": [
        {
          "internalType": "string",
          "name": "_symbol",
          "type": "string"
        },
        {
          "internalType": "address",
          "name": "_token_address",
          "type": "address"
        },
        {
          "internalType": "uint256",
          "name": "_optimal_utilisation",
          "type": "uint256"
        },
        {
          "internalType": "uint256",
          "name": "_collateral_factor",
          "type": "uint256"
        },
        {
          "internalType": "uint256",
          "name": "_base_rate",
          "type": "uint256"
        },
        {
          "internalType": "uint256",
          "name": "_slope1",
          "type": "uint256"
        },
        {
          "internalType": "uint256",
          "name": "_slope2",
          "type": "uint256"
        },
        {
          "internalType": "uint256",
          "name": "_spread",
          "type": "uint256"
        },
        {
          "internalType": "uint256",
          "name": "_price",
          "type": "uint256"
        }
      ],
      "name": "createToken",
      "outputs": [],
      "stateMutability": "nonpayable",
      "type": "function"
    },
    {
      "inputs": [
        {
          "internalType": "address",
          "name": "_addr",
          "type": "address"
        }
      ],
      "name": "isContract",
      "outputs": [
        {
          "internalType": "bool",
          "name": "",
          "type": "bool"
        }
      ],
      "stateMutability": "view",
      "type": "function",
      "constant": true
    },
    {
      "inputs": [
        {
          "internalType": "address",
          "name": "tokenId",
          "type": "address"
        },
        {
          "internalType": "uint256",
          "name": "_price",
          "type": "uint256"
        }
      ],
      "name": "updateTokenPrice",
      "outputs": [],
      "stateMutability": "nonpayable",
      "type": "function"
    },
    {
      "inputs": [
        {
          "internalType": "address",
          "name": "tokenId",
          "type": "address"
        }
      ],
      "name": "getReserveBalance",
      "outputs": [
        {
          "internalType": "uint256",
          "name": "",
          "type": "uint256"
        }
      ],
      "stateMutability": "view",
      "type": "function",
      "constant": true
    },
    {
      "inputs": [
        {
          "internalType": "address payable",
          "name": "user",
          "type": "address"
        },
        {
          "internalType": "uint256",
          "name": "amount",
          "type": "uint256"
        },
        {
          "internalType": "address",
          "name": "tokenId",
          "type": "address"
        }
      ],
      "name": "deposit",
      "outputs": [],
      "stateMutability": "nonpayable",
      "type": "function"
    },
    {
      "inputs": [
        {
          "internalType": "address payable",
          "name": "user",
          "type": "address"
        },
        {
          "internalType": "uint256",
          "name": "amount",
          "type": "uint256"
        },
        {
          "internalType": "address",
          "name": "tokenId",
          "type": "address"
        }
      ],
      "name": "borrow",
      "outputs": [],
      "stateMutability": "nonpayable",
      "type": "function"
    },
    {
      "inputs": [
        {
          "internalType": "address payable",
          "name": "user",
          "type": "address"
        },
        {
          "internalType": "uint256",
          "name": "amount",
          "type": "uint256"
        },
        {
          "internalType": "address",
          "name": "tokenId",
          "type": "address"
        }
      ],
      "name": "depositCollateral",
      "outputs": [],
      "stateMutability": "nonpayable",
      "type": "function"
    },
    {
      "inputs": [
        {
          "internalType": "address payable",
          "name": "user",
          "type": "address"
        },
        {
          "internalType": "uint256",
          "name": "amount",
          "type": "uint256"
        },
        {
          "internalType": "address",
          "name": "tokenId",
          "type": "address"
        }
      ],
      "name": "switchDepositToCollateral",
      "outputs": [],
      "stateMutability": "nonpayable",
      "type": "function"
    },
    {
      "inputs": [
        {
          "internalType": "address payable",
          "name": "user",
          "type": "address"
        },
        {
          "internalType": "uint256",
          "name": "amount",
          "type": "uint256"
        }
      ],
      "name": "repay",
      "outputs": [],
      "stateMutability": "nonpayable",
      "type": "function"
    },
    {
      "inputs": [
        {
          "internalType": "address payable",
          "name": "user",
          "type": "address"
        },
        {
          "internalType": "uint256",
          "name": "amount",
          "type": "uint256"
        }
      ],
      "name": "redeem",
      "outputs": [],
      "stateMutability": "nonpayable",
      "type": "function"
    },
    {
      "inputs": [
        {
          "internalType": "address payable",
          "name": "user",
          "type": "address"
        },
        {
          "internalType": "uint256",
          "name": "amount",
          "type": "uint256"
        }
      ],
      "name": "redeemCollateral",
      "outputs": [],
      "stateMutability": "nonpayable",
      "type": "function"
    },
    {
      "inputs": [
        {
          "internalType": "address",
          "name": "user",
          "type": "address"
        }
      ],
      "name": "getCummulatedInterestDeposit",
      "outputs": [
        {
          "internalType": "uint256",
          "name": "",
          "type": "uint256"
        }
      ],
      "stateMutability": "view",
      "type": "function",
      "constant": true
    },
    {
      "inputs": [
        {
          "internalType": "address",
          "name": "user",
          "type": "address"
        }
      ],
      "name": "getCummulatedInterestLoan",
      "outputs": [
        {
          "internalType": "uint256",
          "name": "",
          "type": "uint256"
        }
      ],
      "stateMutability": "view",
      "type": "function",
      "constant": true
    },
    {
      "inputs": [
        {
          "internalType": "address",
          "name": "user",
          "type": "address"
        }
      ],
      "name": "getUserInitDeposit",
      "outputs": [
        {
          "internalType": "uint256",
          "name": "",
          "type": "uint256"
        }
      ],
      "stateMutability": "view",
      "type": "function",
      "constant": true
    },
    {
      "inputs": [
        {
          "internalType": "address",
          "name": "user",
          "type": "address"
        }
      ],
      "name": "getUserInterestTotalCummulation",
      "outputs": [
        {
          "internalType": "uint256",
          "name": "",
          "type": "uint256"
        }
      ],
      "stateMutability": "view",
      "type": "function",
      "constant": true
    },
    {
      "inputs": [
        {
          "internalType": "address",
          "name": "user",
          "type": "address"
        }
      ],
      "name": "getUserInitInterest",
      "outputs": [
        {
          "internalType": "uint256",
          "name": "",
          "type": "uint256"
        }
      ],
      "stateMutability": "view",
      "type": "function",
      "constant": true
    }
  ],
  "bytecode": "0x60806040523480156200001157600080fd5b506040516200480f3803806200480f833981810160405260208110156200003757600080fd5b81019080805190602001909291905050506200005981620000f760201b60201c565b620000b0576040517f08c379a0000000000000000000000000000000000000000000000000000000008152600401808060200182810382526035815260200180620047da6035913960400191505060405180910390fd5b806000806101000a81548173ffffffffffffffffffffffffffffffffffffffff021916908373ffffffffffffffffffffffffffffffffffffffff1602179055505062000110565b600080823b905060008163ffffffff1611915050919050565b6146ba80620001206000396000f3fe608060405234801561001057600080fd5b50600436106101165760003560e01c806358324335116100a25780639acd81b3116100715780639acd81b3146107d9578063c41d9c7e14610827578063d4ee651b14610895578063f45346dc146108e3578063f9a22a5d1461095157610116565b806358324335146105a05780636c665a55146106bb5780638fdceb5b146107295780639749ddfc1461078157610116565b80631e9a6950116100e95780631e9a695014610349578063206da5701461039757806322425480146103ef57806322867d781461045d57806339832c55146104ab57610116565b80630f3fb6231461011b57806315226b541461023d578063162790551461029557806316b10372146102f1575b600080fd5b61023b600480360361012081101561013257600080fd5b810190808035906020019064010000000081111561014f57600080fd5b82018360208201111561016157600080fd5b8035906020019184600183028401116401000000008311171561018357600080fd5b91908080601f016020809104026020016040519081016040528093929190818152602001838380828437600081840152601f19601f820116905080830192505050505050509192919290803573ffffffffffffffffffffffffffffffffffffffff169060200190929190803590602001909291908035906020019092919080359060200190929190803590602001909291908035906020019092919080359060200190929190803590602001909291905050506109a9565b005b61027f6004803603602081101561025357600080fd5b81019080803573ffffffffffffffffffffffffffffffffffffffff169060200190929190505050610e31565b6040518082815260200191505060405180910390f35b6102d7600480360360208110156102ab57600080fd5b81019080803573ffffffffffffffffffffffffffffffffffffffff169060200190929190505050610ef2565b604051808215151515815260200191505060405180910390f35b6103336004803603602081101561030757600080fd5b81019080803573ffffffffffffffffffffffffffffffffffffffff169060200190929190505050610f0b565b6040518082815260200191505060405180910390f35b6103956004803603604081101561035f57600080fd5b81019080803573ffffffffffffffffffffffffffffffffffffffff16906020019092919080359060200190929190505050611054565b005b6103d9600480360360208110156103ad57600080fd5b81019080803573ffffffffffffffffffffffffffffffffffffffff169060200190929190505050611668565b6040518082815260200191505060405180910390f35b61045b6004803603606081101561040557600080fd5b81019080803573ffffffffffffffffffffffffffffffffffffffff16906020019092919080359060200190929190803573ffffffffffffffffffffffffffffffffffffffff1690602001909291905050506116b4565b005b6104a96004803603604081101561047357600080fd5b81019080803573ffffffffffffffffffffffffffffffffffffffff16906020019092919080359060200190929190505050611b32565b005b6104ed600480360360208110156104c157600080fd5b81019080803573ffffffffffffffffffffffffffffffffffffffff169060200190929190505050612011565b604051808a81526020018060200189815260200188815260200187815260200186815260200185815260200184815260200183815260200182810382528a818151815260200191508051906020019080838360005b8381101561055d578082015181840152602081019050610542565b50505050905090810190601f16801561058a5780820380516001836020036101000a031916815260200191505b509a505050505050505050505060405180910390f35b6105e2600480360360208110156105b657600080fd5b81019080803573ffffffffffffffffffffffffffffffffffffffff1690602001909291905050506120f7565b604051808b81526020018a81526020018981526020018873ffffffffffffffffffffffffffffffffffffffff1673ffffffffffffffffffffffffffffffffffffffff1681526020018781526020018673ffffffffffffffffffffffffffffffffffffffff1673ffffffffffffffffffffffffffffffffffffffff1681526020018581526020018481526020018381526020018273ffffffffffffffffffffffffffffffffffffffff1673ffffffffffffffffffffffffffffffffffffffff1681526020019a505050505050505050505060405180910390f35b610727600480360360608110156106d157600080fd5b81019080803573ffffffffffffffffffffffffffffffffffffffff16906020019092919080359060200190929190803573ffffffffffffffffffffffffffffffffffffffff1690602001909291905050506121ab565b005b61076b6004803603602081101561073f57600080fd5b81019080803573ffffffffffffffffffffffffffffffffffffffff1690602001909291905050506128c8565b6040518082815260200191505060405180910390f35b6107c36004803603602081101561079757600080fd5b81019080803573ffffffffffffffffffffffffffffffffffffffff169060200190929190505050612b1b565b6040518082815260200191505060405180910390f35b610825600480360360408110156107ef57600080fd5b81019080803573ffffffffffffffffffffffffffffffffffffffff16906020019092919080359060200190929190505050612b67565b005b6108936004803603606081101561083d57600080fd5b81019080803573ffffffffffffffffffffffffffffffffffffffff16906020019092919080359060200190929190803573ffffffffffffffffffffffffffffffffffffffff169060200190929190505050612edc565b005b6108e1600480360360408110156108ab57600080fd5b81019080803573ffffffffffffffffffffffffffffffffffffffff169060200190929190803590602001909291905050506136f1565b005b61094f600480360360608110156108f957600080fd5b81019080803573ffffffffffffffffffffffffffffffffffffffff16906020019092919080359060200190929190803573ffffffffffffffffffffffffffffffffffffffff16906020019092919050505061373c565b005b6109936004803603602081101561096757600080fd5b81019080803573ffffffffffffffffffffffffffffffffffffffff169060200190929190505050613c36565b6040518082815260200191505060405180910390f35b6109b288610ef2565b610a07576040517f08c379a000000000000000000000000000000000000000000000000000000000815260040180806020018281038252602881526020018061458f6028913960400191505060405180910390fd5b6000809054906101000a900473ffffffffffffffffffffffffffffffffffffffff1673ffffffffffffffffffffffffffffffffffffffff1663402fda408a8a8a8a8a8a8a8a6040518963ffffffff1660e01b815260040180806020018973ffffffffffffffffffffffffffffffffffffffff1673ffffffffffffffffffffffffffffffffffffffff16815260200188815260200187815260200186815260200185815260200184815260200183815260200182810382528a818151815260200191508051906020019080838360005b83811015610af1578082015181840152602081019050610ad6565b50505050905090810190601f168015610b1e5780820380516001836020036101000a031916815260200191505b509950505050505050505050600060405180830381600087803b158015610b4457600080fd5b505af1158015610b58573d6000803e3d6000fd5b5050505060008060009054906101000a900473ffffffffffffffffffffffffffffffffffffffff1673ffffffffffffffffffffffffffffffffffffffff16638abe523f8a60006040518363ffffffff1660e01b8152600401808373ffffffffffffffffffffffffffffffffffffffff1673ffffffffffffffffffffffffffffffffffffffff1681526020018281526020019250505060206040518083038186803b158015610c0557600080fd5b505afa158015610c19573d6000803e3d6000fd5b505050506040513d6020811015610c2f57600080fd5b8101908080519060200190929190505050905060008060009054906101000a900473ffffffffffffffffffffffffffffffffffffffff1673ffffffffffffffffffffffffffffffffffffffff16637289370e8b6000856040518463ffffffff1660e01b8152600401808473ffffffffffffffffffffffffffffffffffffffff1673ffffffffffffffffffffffffffffffffffffffff168152602001838152602001828152602001935050505060206040518083038186803b158015610cf357600080fd5b505afa158015610d07573d6000803e3d6000fd5b505050506040513d6020811015610d1d57600080fd5b810190808051906020019092919050505090506040518061012001604052808481526020018c81526020016000815260200183815260200182815260200189815260200160008152602001600081526020016000815250600260008c73ffffffffffffffffffffffffffffffffffffffff1673ffffffffffffffffffffffffffffffffffffffff168152602001908152602001600020600082015181600001556020820151816001019080519060200190610dd99291906143d1565b5060408201518160020155606082015181600301556080820151816004015560a0820151816005015560c0820151816006015560e0820151816007015561010082015181600801559050505050505050505050505050565b60008173ffffffffffffffffffffffffffffffffffffffff166370a08231306040518263ffffffff1660e01b8152600401808273ffffffffffffffffffffffffffffffffffffffff1673ffffffffffffffffffffffffffffffffffffffff16815260200191505060206040518083038186803b158015610eb057600080fd5b505afa158015610ec4573d6000803e3d6000fd5b505050506040513d6020811015610eda57600080fd5b81019080805190602001909291905050509050919050565b600080823b905060008163ffffffff1611915050919050565b600080600360008473ffffffffffffffffffffffffffffffffffffffff1673ffffffffffffffffffffffffffffffffffffffff16815260200190815260200160002060030160009054906101000a900473ffffffffffffffffffffffffffffffffffffffff1690506000809054906101000a900473ffffffffffffffffffffffffffffffffffffffff1673ffffffffffffffffffffffffffffffffffffffff16630f1f7bc9826040518263ffffffff1660e01b8152600401808273ffffffffffffffffffffffffffffffffffffffff1673ffffffffffffffffffffffffffffffffffffffff16815260200191505060206040518083038186803b15801561101157600080fd5b505afa158015611025573d6000803e3d6000fd5b505050506040513d602081101561103b57600080fd5b8101908080519060200190929190505050915050919050565b600061105f836128c8565b9050818110156110ba576040517f08c379a00000000000000000000000000000000000000000000000000000000081526004018080602001828103825260278152602001806145e66027913960400191505060405180910390fd5b6000600360008573ffffffffffffffffffffffffffffffffffffffff1673ffffffffffffffffffffffffffffffffffffffff168152602001908152602001600020600001549050600083905060008090508285111561111c5782915082850390505b6000600360008873ffffffffffffffffffffffffffffffffffffffff1673ffffffffffffffffffffffffffffffffffffffff16815260200190815260200160002060030160009054906101000a900473ffffffffffffffffffffffffffffffffffffffff169050600260008273ffffffffffffffffffffffffffffffffffffffff1673ffffffffffffffffffffffffffffffffffffffff1681526020019081526020016000206006015483600260008473ffffffffffffffffffffffffffffffffffffffff1673ffffffffffffffffffffffffffffffffffffffff1681526020019081526020016000206007015403101561127f576040517f08c379a000000000000000000000000000000000000000000000000000000000815260040180806020018281038252601a8152602001807f44656d616e6420776f756c642065786365656420737570706c7900000000000081525060200191505060405180910390fd5b600061128a82610e31565b9050600260008373ffffffffffffffffffffffffffffffffffffffff1673ffffffffffffffffffffffffffffffffffffffff16815260200190815260200160002060080154600260008473ffffffffffffffffffffffffffffffffffffffff1673ffffffffffffffffffffffffffffffffffffffff168152602001908152602001600020600701548203038310611389576040517f08c379a00000000000000000000000000000000000000000000000000000000081526004018080602001828103825260198152602001807f4e6f7420656e6f7567682065787472612072657365727665730000000000000081525060200191505060405180910390fd5b83600360008a73ffffffffffffffffffffffffffffffffffffffff1673ffffffffffffffffffffffffffffffffffffffff16815260200190815260200160002060000160008282540392505081905550868603600360008a73ffffffffffffffffffffffffffffffffffffffff1673ffffffffffffffffffffffffffffffffffffffff168152602001908152602001600020600201819055506000809054906101000a900473ffffffffffffffffffffffffffffffffffffffff1673ffffffffffffffffffffffffffffffffffffffff16630f1f7bc9836040518263ffffffff1660e01b8152600401808273ffffffffffffffffffffffffffffffffffffffff1673ffffffffffffffffffffffffffffffffffffffff16815260200191505060206040518083038186803b1580156114c057600080fd5b505afa1580156114d4573d6000803e3d6000fd5b505050506040513d60208110156114ea57600080fd5b8101908080519060200190929190505050600360008a73ffffffffffffffffffffffffffffffffffffffff1673ffffffffffffffffffffffffffffffffffffffff1681526020019081526020016000206001018190555061154e82858a6000613e89565b8173ffffffffffffffffffffffffffffffffffffffff1663a9059cbb89856040518363ffffffff1660e01b8152600401808373ffffffffffffffffffffffffffffffffffffffff1673ffffffffffffffffffffffffffffffffffffffff16815260200182815260200192505050602060405180830381600087803b1580156115d557600080fd5b505af11580156115e9573d6000803e3d6000fd5b505050506040513d60208110156115ff57600080fd5b81019080805190602001909291905050505061165e8883600260008673ffffffffffffffffffffffffffffffffffffffff1673ffffffffffffffffffffffffffffffffffffffff16815260200190815260200160002060020154613ffe565b5050505050505050565b6000600360008373ffffffffffffffffffffffffffffffffffffffff1673ffffffffffffffffffffffffffffffffffffffff168152602001908152602001600020600101549050919050565b600073ffffffffffffffffffffffffffffffffffffffff16600360008573ffffffffffffffffffffffffffffffffffffffff1673ffffffffffffffffffffffffffffffffffffffff16815260200190815260200160002060050160009054906101000a900473ffffffffffffffffffffffffffffffffffffffff1673ffffffffffffffffffffffffffffffffffffffff1614806117de57508073ffffffffffffffffffffffffffffffffffffffff16600360008573ffffffffffffffffffffffffffffffffffffffff1673ffffffffffffffffffffffffffffffffffffffff16815260200190815260200160002060050160009054906101000a900473ffffffffffffffffffffffffffffffffffffffff1673ffffffffffffffffffffffffffffffffffffffff16145b611833576040517f08c379a000000000000000000000000000000000000000000000000000000000815260040180806020018281038252602f8152602001806145b7602f913960400191505060405180910390fd5b6000600260008373ffffffffffffffffffffffffffffffffffffffff1673ffffffffffffffffffffffffffffffffffffffff168152602001908152602001600020600001541415801561194557506040518060200160405280600081525080519060200120600260008373ffffffffffffffffffffffffffffffffffffffff1673ffffffffffffffffffffffffffffffffffffffff16815260200190815260200160002060010160405180828054600181600116156101000203166002900480156119355780601f10611913576101008083540402835291820191611935565b820191906000526020600020905b815481529060010190602001808311611921575b5050915050604051809103902014155b6119b7576040517f08c379a00000000000000000000000000000000000000000000000000000000081526004018080602001828103825260138152602001807f546f6b656e206e6f7420737570706f727465640000000000000000000000000081525060200191505060405180910390fd5b6119c6818385600160006140f4565b8073ffffffffffffffffffffffffffffffffffffffff16600360008573ffffffffffffffffffffffffffffffffffffffff1673ffffffffffffffffffffffffffffffffffffffff16815260200190815260200160002060050160009054906101000a900473ffffffffffffffffffffffffffffffffffffffff1673ffffffffffffffffffffffffffffffffffffffff1614611add5780600360008573ffffffffffffffffffffffffffffffffffffffff1673ffffffffffffffffffffffffffffffffffffffff16815260200190815260200160002060050160006101000a81548173ffffffffffffffffffffffffffffffffffffffff021916908373ffffffffffffffffffffffffffffffffffffffff1602179055505b81600360008573ffffffffffffffffffffffffffffffffffffffff1673ffffffffffffffffffffffffffffffffffffffff16815260200190815260200160002060040160008282540192505081905550505050565b6000600360008473ffffffffffffffffffffffffffffffffffffffff1673ffffffffffffffffffffffffffffffffffffffff168152602001908152602001600020600601541415611bce576040517f08c379a000000000000000000000000000000000000000000000000000000000815260040180806020018281038252602281526020018061460d6022913960400191505060405180910390fd5b6000611bd983613c36565b905081811015611c34576040517f08c379a00000000000000000000000000000000000000000000000000000000081526004018080602001828103825260218152602001806144af6021913960400191505060405180910390fd5b6000600360008573ffffffffffffffffffffffffffffffffffffffff1673ffffffffffffffffffffffffffffffffffffffff1681526020019081526020016000206006015490506000839050600080905082851115611c965782915081850390505b6000600360008873ffffffffffffffffffffffffffffffffffffffff1673ffffffffffffffffffffffffffffffffffffffff16815260200190815260200160002060090160009054906101000a900473ffffffffffffffffffffffffffffffffffffffff169050611d0c818489600060016140f4565b8073ffffffffffffffffffffffffffffffffffffffff166323b872dd8830856040518463ffffffff1660e01b8152600401808473ffffffffffffffffffffffffffffffffffffffff1673ffffffffffffffffffffffffffffffffffffffff1681526020018373ffffffffffffffffffffffffffffffffffffffff1673ffffffffffffffffffffffffffffffffffffffff1681526020018281526020019350505050602060405180830381600087803b158015611dc757600080fd5b505af1158015611ddb573d6000803e3d6000fd5b505050506040513d6020811015611df157600080fd5b81019080805190602001909291905050505082600360008973ffffffffffffffffffffffffffffffffffffffff1673ffffffffffffffffffffffffffffffffffffffff16815260200190815260200160002060060160008282540392505081905550858503600360008973ffffffffffffffffffffffffffffffffffffffff1673ffffffffffffffffffffffffffffffffffffffff168152602001908152602001600020600801819055506000809054906101000a900473ffffffffffffffffffffffffffffffffffffffff1673ffffffffffffffffffffffffffffffffffffffff1663f609507b826040518263ffffffff1660e01b8152600401808273ffffffffffffffffffffffffffffffffffffffff1673ffffffffffffffffffffffffffffffffffffffff16815260200191505060206040518083038186803b158015611f3a57600080fd5b505afa158015611f4e573d6000803e3d6000fd5b505050506040513d6020811015611f6457600080fd5b8101908080519060200190929190505050600360008973ffffffffffffffffffffffffffffffffffffffff1673ffffffffffffffffffffffffffffffffffffffff168152602001908152602001600020600701819055506120088782600260008573ffffffffffffffffffffffffffffffffffffffff1673ffffffffffffffffffffffffffffffffffffffff16815260200190815260200160002060020154613ffe565b50505050505050565b6002602052806000526040600020600091509050806000015490806001018054600181600116156101000203166002900480601f0160208091040260200160405190810160405280929190818152602001828054600181600116156101000203166002900480156120c35780601f10612098576101008083540402835291602001916120c3565b820191906000526020600020905b8154815290600101906020018083116120a657829003601f168201915b5050505050908060020154908060030154908060040154908060050154908060060154908060070154908060080154905089565b60036020528060005260406000206000915090508060000154908060010154908060020154908060030160009054906101000a900473ffffffffffffffffffffffffffffffffffffffff16908060040154908060050160009054906101000a900473ffffffffffffffffffffffffffffffffffffffff16908060060154908060070154908060080154908060090160009054906101000a900473ffffffffffffffffffffffffffffffffffffffff1690508a565b6000600260008373ffffffffffffffffffffffffffffffffffffffff1673ffffffffffffffffffffffffffffffffffffffff16815260200190815260200160002060000154141580156122bd57506040518060200160405280600081525080519060200120600260008373ffffffffffffffffffffffffffffffffffffffff1673ffffffffffffffffffffffffffffffffffffffff16815260200190815260200160002060010160405180828054600181600116156101000203166002900480156122ad5780601f1061228b5761010080835404028352918201916122ad565b820191906000526020600020905b815481529060010190602001808311612299575b5050915050604051809103902014155b6122c657600080fd5b81600260008373ffffffffffffffffffffffffffffffffffffffff1673ffffffffffffffffffffffffffffffffffffffff1681526020019081526020016000206006015401600260008373ffffffffffffffffffffffffffffffffffffffff1673ffffffffffffffffffffffffffffffffffffffff16815260200190815260200160002060070154116123a4576040517f08c379a000000000000000000000000000000000000000000000000000000000815260040180806020018281038252602d81526020018061462f602d913960400191505060405180910390fd5b600073ffffffffffffffffffffffffffffffffffffffff16600360008573ffffffffffffffffffffffffffffffffffffffff1673ffffffffffffffffffffffffffffffffffffffff16815260200190815260200160002060090160009054906101000a900473ffffffffffffffffffffffffffffffffffffffff1673ffffffffffffffffffffffffffffffffffffffff16148061248357506000600360008573ffffffffffffffffffffffffffffffffffffffff1673ffffffffffffffffffffffffffffffffffffffff16815260200190815260200160002060060154145b6124f5576040517f08c379a000000000000000000000000000000000000000000000000000000000815260040180806020018281038252601a8152602001807f4164647265737320616c7265616479206861732061206c6f616e00000000000081525060200191505060405180910390fd5b6000600360008573ffffffffffffffffffffffffffffffffffffffff1673ffffffffffffffffffffffffffffffffffffffff16815260200190815260200160002060050160009054906101000a900473ffffffffffffffffffffffffffffffffffffffff169050600360008573ffffffffffffffffffffffffffffffffffffffff1673ffffffffffffffffffffffffffffffffffffffff16815260200190815260200160002060040154600260008373ffffffffffffffffffffffffffffffffffffffff1673ffffffffffffffffffffffffffffffffffffffff1681526020019081526020016000206005015402831061263a576040517f08c379a000000000000000000000000000000000000000000000000000000000815260040180806020018281038252602481526020018061456b6024913960400191505060405180910390fd5b81600360008673ffffffffffffffffffffffffffffffffffffffff1673ffffffffffffffffffffffffffffffffffffffff16815260200190815260200160002060090160006101000a81548173ffffffffffffffffffffffffffffffffffffffff021916908373ffffffffffffffffffffffffffffffffffffffff16021790555082600360008673ffffffffffffffffffffffffffffffffffffffff1673ffffffffffffffffffffffffffffffffffffffff1681526020019081526020016000206006018190555082600360008673ffffffffffffffffffffffffffffffffffffffff1673ffffffffffffffffffffffffffffffffffffffff168152602001908152602001600020600801819055506127568284866001613e89565b6127a38483600260008673ffffffffffffffffffffffffffffffffffffffff1673ffffffffffffffffffffffffffffffffffffffff16815260200190815260200160002060020154613ffe565b6000809054906101000a900473ffffffffffffffffffffffffffffffffffffffff1673ffffffffffffffffffffffffffffffffffffffff1663f609507b836040518263ffffffff1660e01b8152600401808273ffffffffffffffffffffffffffffffffffffffff1673ffffffffffffffffffffffffffffffffffffffff16815260200191505060206040518083038186803b15801561284157600080fd5b505afa158015612855573d6000803e3d6000fd5b505050506040513d602081101561286b57600080fd5b8101908080519060200190929190505050600360008673ffffffffffffffffffffffffffffffffffffffff1673ffffffffffffffffffffffffffffffffffffffff1681526020019081526020016000206007018190555050505050565b600080600360008473ffffffffffffffffffffffffffffffffffffffff1673ffffffffffffffffffffffffffffffffffffffff1681526020019081526020016000206002015490506000600360008573ffffffffffffffffffffffffffffffffffffffff1673ffffffffffffffffffffffffffffffffffffffff16815260200190815260200160002060030160009054906101000a900473ffffffffffffffffffffffffffffffffffffffff1690506000600360008673ffffffffffffffffffffffffffffffffffffffff1673ffffffffffffffffffffffffffffffffffffffff16815260200190815260200160002060010154905060008060009054906101000a900473ffffffffffffffffffffffffffffffffffffffff1673ffffffffffffffffffffffffffffffffffffffff16630f1f7bc9846040518263ffffffff1660e01b8152600401808273ffffffffffffffffffffffffffffffffffffffff1673ffffffffffffffffffffffffffffffffffffffff16815260200191505060206040518083038186803b158015612a5e57600080fd5b505afa158015612a72573d6000803e3d6000fd5b505050506040513d6020811015612a8857600080fd5b810190808051906020019092919050505090506000811415612af5576040517f08c379a00000000000000000000000000000000000000000000000000000000081526004018080602001828103825260228152602001806144d06022913960400191505060405180910390fd5b6000828281612b0057fe5b0490508282860281612b0e57fe5b0495505050505050919050565b6000600360008373ffffffffffffffffffffffffffffffffffffffff1673ffffffffffffffffffffffffffffffffffffffff168152602001908152602001600020600001549050919050565b80600360008473ffffffffffffffffffffffffffffffffffffffff1673ffffffffffffffffffffffffffffffffffffffff168152602001908152602001600020600401541015612c02576040517f08c379a000000000000000000000000000000000000000000000000000000000815260040180806020018281038252603181526020018061453a6031913960400191505060405180910390fd5b6000612c0d83613c36565b90506000600360008573ffffffffffffffffffffffffffffffffffffffff1673ffffffffffffffffffffffffffffffffffffffff16815260200190815260200160002060050160009054906101000a900473ffffffffffffffffffffffffffffffffffffffff16905082600360008673ffffffffffffffffffffffffffffffffffffffff1673ffffffffffffffffffffffffffffffffffffffff1681526020019081526020016000206004015403600260008373ffffffffffffffffffffffffffffffffffffffff1673ffffffffffffffffffffffffffffffffffffffff16815260200190815260200160002060050154028210612d73576040517f08c379a000000000000000000000000000000000000000000000000000000000815260040180806020018281038252601e8152602001807f4865616c746820666163746f7220776f756c6420626520746f6f206c6f77000081525060200191505060405180910390fd5b82600360008673ffffffffffffffffffffffffffffffffffffffff1673ffffffffffffffffffffffffffffffffffffffff1681526020019081526020016000206004016000828254039250508190555082600260008373ffffffffffffffffffffffffffffffffffffffff1673ffffffffffffffffffffffffffffffffffffffff168152602001908152602001600020600801600082825403925050819055508073ffffffffffffffffffffffffffffffffffffffff1663a9059cbb85856040518363ffffffff1660e01b8152600401808373ffffffffffffffffffffffffffffffffffffffff1673ffffffffffffffffffffffffffffffffffffffff16815260200182815260200192505050602060405180830381600087803b158015612e9a57600080fd5b505af1158015612eae573d6000803e3d6000fd5b505050506040513d6020811015612ec457600080fd5b81019080805190602001909291905050505050505050565b6000600260008373ffffffffffffffffffffffffffffffffffffffff1673ffffffffffffffffffffffffffffffffffffffff1681526020019081526020016000206000015414158015612fee57506040518060200160405280600081525080519060200120600260008373ffffffffffffffffffffffffffffffffffffffff1673ffffffffffffffffffffffffffffffffffffffff1681526020019081526020016000206001016040518082805460018160011615610100020316600290048015612fde5780601f10612fbc576101008083540402835291820191612fde565b820191906000526020600020905b815481529060010190602001808311612fca575b5050915050604051809103902014155b613060576040517f08c379a00000000000000000000000000000000000000000000000000000000081526004018080602001828103825260148152602001807f546f6b656e20646f6573206e6f7420657869737400000000000000000000000081525060200191505060405180910390fd5b81600360008573ffffffffffffffffffffffffffffffffffffffff1673ffffffffffffffffffffffffffffffffffffffff1681526020019081526020016000206000015410156130fb576040517f08c379a000000000000000000000000000000000000000000000000000000000815260040180806020018281038252602981526020018061465c6029913960400191505060405180910390fd5b600073ffffffffffffffffffffffffffffffffffffffff16600360008573ffffffffffffffffffffffffffffffffffffffff1673ffffffffffffffffffffffffffffffffffffffff16815260200190815260200160002060050160009054906101000a900473ffffffffffffffffffffffffffffffffffffffff1673ffffffffffffffffffffffffffffffffffffffff1614806132be57508073ffffffffffffffffffffffffffffffffffffffff16600360008573ffffffffffffffffffffffffffffffffffffffff1673ffffffffffffffffffffffffffffffffffffffff16815260200190815260200160002060050160009054906101000a900473ffffffffffffffffffffffffffffffffffffffff1673ffffffffffffffffffffffffffffffffffffffff161480156132bd57508073ffffffffffffffffffffffffffffffffffffffff16600360008573ffffffffffffffffffffffffffffffffffffffff1673ffffffffffffffffffffffffffffffffffffffff16815260200190815260200160002060030160009054906101000a900473ffffffffffffffffffffffffffffffffffffffff1673ffffffffffffffffffffffffffffffffffffffff16145b5b613313576040517f08c379a00000000000000000000000000000000000000000000000000000000081526004018080602001828103825260488152602001806144f26048913960600191505060405180910390fd5b600260008273ffffffffffffffffffffffffffffffffffffffff1673ffffffffffffffffffffffffffffffffffffffff1681526020019081526020016000206006015482600260008473ffffffffffffffffffffffffffffffffffffffff1673ffffffffffffffffffffffffffffffffffffffff1681526020019081526020016000206007015403116133f1576040517f08c379a00000000000000000000000000000000000000000000000000000000081526004018080602001828103825260388152602001806144776038913960400191505060405180910390fd5b81600360008573ffffffffffffffffffffffffffffffffffffffff1673ffffffffffffffffffffffffffffffffffffffff16815260200190815260200160002060000160008282540392505081905550600061344c846128c8565b9050828103600360008673ffffffffffffffffffffffffffffffffffffffff1673ffffffffffffffffffffffffffffffffffffffff168152602001908152602001600020600201819055508173ffffffffffffffffffffffffffffffffffffffff16600360008673ffffffffffffffffffffffffffffffffffffffff1673ffffffffffffffffffffffffffffffffffffffff16815260200190815260200160002060050160009054906101000a900473ffffffffffffffffffffffffffffffffffffffff1673ffffffffffffffffffffffffffffffffffffffff16146135ae5781600360008673ffffffffffffffffffffffffffffffffffffffff1673ffffffffffffffffffffffffffffffffffffffff16815260200190815260200160002060050160006101000a81548173ffffffffffffffffffffffffffffffffffffffff021916908373ffffffffffffffffffffffffffffffffffffffff1602179055505b82600260008473ffffffffffffffffffffffffffffffffffffffff1673ffffffffffffffffffffffffffffffffffffffff1681526020019081526020016000206008016000828254019250508190555082600260008473ffffffffffffffffffffffffffffffffffffffff1673ffffffffffffffffffffffffffffffffffffffff1681526020019081526020016000206007016000828254039250508190555061369b8483600260008673ffffffffffffffffffffffffffffffffffffffff1673ffffffffffffffffffffffffffffffffffffffff16815260200190815260200160002060020154613ffe565b82600360008673ffffffffffffffffffffffffffffffffffffffff1673ffffffffffffffffffffffffffffffffffffffff1681526020019081526020016000206004016000828254019250508190555050505050565b80600260008473ffffffffffffffffffffffffffffffffffffffff1673ffffffffffffffffffffffffffffffffffffffff168152602001908152602001600020600001819055505050565b600073ffffffffffffffffffffffffffffffffffffffff16600360008573ffffffffffffffffffffffffffffffffffffffff1673ffffffffffffffffffffffffffffffffffffffff16815260200190815260200160002060030160009054906101000a900473ffffffffffffffffffffffffffffffffffffffff1673ffffffffffffffffffffffffffffffffffffffff16148061381b57506000600360008573ffffffffffffffffffffffffffffffffffffffff1673ffffffffffffffffffffffffffffffffffffffff16815260200190815260200160002060000154145b61388d576040517f08c379a000000000000000000000000000000000000000000000000000000000815260040180806020018281038252601d8152602001807f4164647265737320616c7265616479206861732061206465706f73697400000081525060200191505060405180910390fd5b6000600260008373ffffffffffffffffffffffffffffffffffffffff1673ffffffffffffffffffffffffffffffffffffffff168152602001908152602001600020600001541415801561399f57506040518060200160405280600081525080519060200120600260008373ffffffffffffffffffffffffffffffffffffffff1673ffffffffffffffffffffffffffffffffffffffff168152602001908152602001600020600101604051808280546001816001161561010002031660029004801561398f5780601f1061396d57610100808354040283529182019161398f565b820191906000526020600020905b81548152906001019060200180831161397b575b5050915050604051809103902014155b6139a857600080fd5b6139b68183856000806140f4565b613a038382600260008573ffffffffffffffffffffffffffffffffffffffff1673ffffffffffffffffffffffffffffffffffffffff16815260200190815260200160002060020154613ffe565b80600360008573ffffffffffffffffffffffffffffffffffffffff1673ffffffffffffffffffffffffffffffffffffffff16815260200190815260200160002060030160006101000a81548173ffffffffffffffffffffffffffffffffffffffff021916908373ffffffffffffffffffffffffffffffffffffffff16021790555081600360008573ffffffffffffffffffffffffffffffffffffffff1673ffffffffffffffffffffffffffffffffffffffff1681526020019081526020016000206000018190555081600360008573ffffffffffffffffffffffffffffffffffffffff1673ffffffffffffffffffffffffffffffffffffffff168152602001908152602001600020600201819055506000809054906101000a900473ffffffffffffffffffffffffffffffffffffffff1673ffffffffffffffffffffffffffffffffffffffff16630f1f7bc9826040518263ffffffff1660e01b8152600401808273ffffffffffffffffffffffffffffffffffffffff1673ffffffffffffffffffffffffffffffffffffffff16815260200191505060206040518083038186803b158015613bb057600080fd5b505afa158015613bc4573d6000803e3d6000fd5b505050506040513d6020811015613bda57600080fd5b8101908080519060200190929190505050600360008573ffffffffffffffffffffffffffffffffffffffff1673ffffffffffffffffffffffffffffffffffffffff16815260200190815260200160002060010181905550505050565b600080600360008473ffffffffffffffffffffffffffffffffffffffff1673ffffffffffffffffffffffffffffffffffffffff1681526020019081526020016000206008015490506000600360008573ffffffffffffffffffffffffffffffffffffffff1673ffffffffffffffffffffffffffffffffffffffff16815260200190815260200160002060090160009054906101000a900473ffffffffffffffffffffffffffffffffffffffff1690506000600360008673ffffffffffffffffffffffffffffffffffffffff1673ffffffffffffffffffffffffffffffffffffffff16815260200190815260200160002060070154905060008060009054906101000a900473ffffffffffffffffffffffffffffffffffffffff1673ffffffffffffffffffffffffffffffffffffffff1663f609507b846040518263ffffffff1660e01b8152600401808273ffffffffffffffffffffffffffffffffffffffff1673ffffffffffffffffffffffffffffffffffffffff16815260200191505060206040518083038186803b158015613dcc57600080fd5b505afa158015613de0573d6000803e3d6000fd5b505050506040513d6020811015613df657600080fd5b810190808051906020019092919050505090506000811415613e63576040517f08c379a00000000000000000000000000000000000000000000000000000000081526004018080602001828103825260228152602001806144d06022913960400191505060405180910390fd5b6000828281613e6e57fe5b0490508282860281613e7c57fe5b0495505050505050919050565b8373ffffffffffffffffffffffffffffffffffffffff1663a9059cbb83856040518363ffffffff1660e01b8152600401808373ffffffffffffffffffffffffffffffffffffffff1673ffffffffffffffffffffffffffffffffffffffff16815260200182815260200192505050602060405180830381600087803b158015613f1057600080fd5b505af1158015613f24573d6000803e3d6000fd5b505050506040513d6020811015613f3a57600080fd5b8101908080519060200190929190505050508015613fa75782600260008673ffffffffffffffffffffffffffffffffffffffff1673ffffffffffffffffffffffffffffffffffffffff16815260200190815260200160002060060160008282540192505081905550613ff8565b82600260008673ffffffffffffffffffffffffffffffffffffffff1673ffffffffffffffffffffffffffffffffffffffff168152602001908152602001600020600701600082825403925050819055505b50505050565b60008060009054906101000a900473ffffffffffffffffffffffffffffffffffffffff1673ffffffffffffffffffffffffffffffffffffffff16633a0c6c2684846040518363ffffffff1660e01b8152600401808373ffffffffffffffffffffffffffffffffffffffff1673ffffffffffffffffffffffffffffffffffffffff16815260200182815260200192505050602060405180830381600087803b1580156140a857600080fd5b505af11580156140bc573d6000803e3d6000fd5b505050506040513d60208110156140d257600080fd5b810190808051906020019092919050505090506140ee836142fa565b50505050565b8473ffffffffffffffffffffffffffffffffffffffff166323b872dd8430876040518463ffffffff1660e01b8152600401808473ffffffffffffffffffffffffffffffffffffffff1673ffffffffffffffffffffffffffffffffffffffff1681526020018373ffffffffffffffffffffffffffffffffffffffff1673ffffffffffffffffffffffffffffffffffffffff1681526020018281526020019350505050602060405180830381600087803b1580156141af57600080fd5b505af11580156141c3573d6000803e3d6000fd5b505050506040513d60208110156141d957600080fd5b81019080805190602001909291905050505081156142465783600260008773ffffffffffffffffffffffffffffffffffffffff1673ffffffffffffffffffffffffffffffffffffffff168152602001908152602001600020600801600082825401925050819055506142f3565b80156142a15783600260008773ffffffffffffffffffffffffffffffffffffffff1673ffffffffffffffffffffffffffffffffffffffff168152602001908152602001600020600601600082825403925050819055506142f2565b83600260008773ffffffffffffffffffffffffffffffffffffffff1673ffffffffffffffffffffffffffffffffffffffff168152602001908152602001600020600701600082825401925050819055505b5b5050505050565b600260008273ffffffffffffffffffffffffffffffffffffffff1673ffffffffffffffffffffffffffffffffffffffff16815260200190815260200160002060070154600260008373ffffffffffffffffffffffffffffffffffffffff1673ffffffffffffffffffffffffffffffffffffffff168152602001908152602001600020600601548161438757fe5b04600260008373ffffffffffffffffffffffffffffffffffffffff1673ffffffffffffffffffffffffffffffffffffffff1681526020019081526020016000206002018190555050565b828054600181600116156101000203166002900490600052602060002090601f016020900481019282601f1061441257805160ff1916838001178555614440565b82800160010185558215614440579182015b8281111561443f578251825591602001919060010190614424565b5b50905061444d9190614451565b5090565b61447391905b8082111561446f576000816000905550600101614457565b5090565b9056fe43616e6e6f74206465637265617365206465706f7369747320696620697420726573756c747320696e206f766572626f72726f77696e6773416d6f756e7420726570616964206973206c6172676572207468616e206f776564494e74657265737420546f74616c2043756d6d756c6174696f6e206973207a65726f436f6c6c61746572616c20616c726561647920696e20616e6f7468657220746f6b656e206f7220636f6c6c61746572616c20746f6b656e20213d206465706f73697420746f6b656e476976656e20616d6f756e742067726561746572207468616e20746865206578697374696e6720636f6c6c61746572616c43616e6e6f7420626f72726f77206f76657220636f6c6c61746572616c20666163746f72546f6b656e20636f6e74726163742061646472657373206973206e6f74206120636f6e74726163744164647265737320616c72656164792068617320636f6c6c61746572616c20696e20616e6f7468657220746f6b656e416d6f756e742072656465656d6564206973206c6172676572207468616e2061737369676e65645468657265206973206e6f206c6f616e20746f20726570617920666f72207573657243616e6e6f7420626f72726f7720696620697420726573756c747320696e206f766572626f72726f77696e67734465706f73697420697320302c2063616e6e6f742073776974636820746f20636f6c6c61746572616ca2646970667358221220835802424f335e9ec2c415ccd05c1b69bea7dc7374ad2381e49be32357a0326064736f6c63430006020033496e746572657374205661726961626c657320636f6e74726163742061646472657373206973206e6f74206120636f6e7472616374",
  "source": "// SPDX-License-Identifier: MIT\npragma solidity >=0.4.22 <0.8.0;\nimport \"./ERC20.sol\";\nimport \"./Address.sol\";\nimport \"./InterestVariables.sol\";\n\ncontract LiquidityPool {\n\n  InterestVariables private ivar;\n\n  constructor(address ivar_add) public {\n    require(isContract(ivar_add), 'Interest Variables contract address is not a contract');\n    ivar = InterestVariables(ivar_add);\n  }\n\n  address private owner;\n\n  mapping (address => TokenCoreData) public tokensCoreData;\n  mapping (address => UserBalance) public usersBalance;\n\n  struct UserBalance{\n    uint depositedAmount;\n    uint init_interest_deposit;\n    uint cummulated_ir_deposit;\n    address tokenDeposited;\n    uint collateralAmount;\n    address tokenCollateralised;\n    uint borrowedAmount;\n    uint init_interest_borrow;\n    uint cummulated_ir_borrow;\n    address tokenBorrowed;\n  }\n\n  struct TokenCoreData{\n    uint price;\n    string symbol;\n    uint utilisation;\n    uint borrowIR;\n    uint depositIR;\n    uint collateral_factor;\n    uint totalBorrowed;\n    uint totalDeposited;\n    uint totalCollateral;\n  }\n\n  modifier onlyOwner() {\n      require(msg.sender == owner);\n      _;\n  }\n\n  // create token with all data\n  function createToken(string memory _symbol,\n    address _token_address,\n    uint _optimal_utilisation,\n    uint _collateral_factor,\n    uint _base_rate,\n    uint _slope1,\n    uint _slope2,\n    uint _spread,\n    uint _price) public{\n      require(isContract(_token_address), 'Token contract address is not a contract');\n      ivar.createToken(_symbol, _token_address, _optimal_utilisation, _collateral_factor, _base_rate, _slope1, _slope2, _spread);\n      uint borrowIR = ivar.borrowInterestRate(_token_address, 0);\n      uint depositIR = ivar.depositInterestRate(_token_address, 0, borrowIR);\n      tokensCoreData[_token_address] = TokenCoreData(_price, _symbol, 0, borrowIR, depositIR, _collateral_factor, 0, 0, 0);\n  }\n\n  function isContract(address _addr) public view returns (bool){\n    uint32 size;\n    assembly {\n      size := extcodesize(_addr)\n    }\n    return size > 0;\n  }\n\n  // update token price and call liquid checks\n  function updateTokenPrice(address tokenId, uint _price) public{\n    tokensCoreData[tokenId].price = _price;\n  }\n\n  // update utilisation rate\n  function updateUtilisationRate(address tokenId) internal{\n    tokensCoreData[tokenId].utilisation = tokensCoreData[tokenId].totalBorrowed / tokensCoreData[tokenId].totalDeposited;\n  }\n\n  // cummulate interest rate for the token\n  function updateInterestRate(address user, address token, uint oldUtilisationRate) internal{\n    bool updated = ivar.compoundIR(token, oldUtilisationRate);\n    // if not updated means that the compounded IR exceeds uint\n    updateUtilisationRate(token);\n  }\n\n  // add to liquidity pool of token\n  function addToReserves(address tokenId, uint amount, address payable user, bool isCollateral, bool isRepayment) internal{\n    ERC20(tokenId).transferFrom(user, address(this), amount);\n    if(isCollateral){\n      tokensCoreData[tokenId].totalCollateral+=amount;\n    }else if(isRepayment){\n      tokensCoreData[tokenId].totalBorrowed-=amount;\n    }else{\n      tokensCoreData[tokenId].totalDeposited+=amount;\n    }\n  }\n\n  // take out from liquidity pool of token\n  function takeFromReserves(address tokenId, uint amount, address payable user, bool isLoan) internal{\n    ERC20(tokenId).transfer(user,  amount);\n    if(isLoan){\n      tokensCoreData[tokenId].totalBorrowed+=amount;\n    }else{ //redeeming\n      tokensCoreData[tokenId].totalDeposited-=amount;\n    }\n  }\n\n  function getReserveBalance(address tokenId) public view returns(uint){\n    return ERC20(tokenId).balanceOf(address(this));\n  }\n\n\n  function deposit(address payable user, uint amount, address tokenId) public{\n    //make sure users only have deposits in one token\n    require(usersBalance[user].tokenDeposited == address(0) || usersBalance[user].depositedAmount == 0, \"Address already has a deposit\");\n    //make sure token is supported\n    require(tokensCoreData[tokenId].price != 0 && keccak256(bytes(tokensCoreData[tokenId].symbol)) != keccak256(bytes(\"\")));\n    addToReserves(tokenId, amount, user, false, false);\n    updateInterestRate(user,tokenId,tokensCoreData[tokenId].utilisation);\n    usersBalance[user].tokenDeposited = tokenId;\n    usersBalance[user].depositedAmount = amount;\n    usersBalance[user].cummulated_ir_deposit = amount;\n    usersBalance[user].init_interest_deposit = ivar.getIRDepositTotalCummulation(tokenId);\n  }\n\n  function borrow(address payable user, uint amount, address tokenId) public{\n    //make sure token is supported\n    require(tokensCoreData[tokenId].price != 0 && keccak256(bytes(tokensCoreData[tokenId].symbol)) != keccak256(bytes(\"\")));\n    // make sure subtracting amount from deposits does not make the total deposited less than total borrow\n    require(tokensCoreData[tokenId].totalDeposited > tokensCoreData[tokenId].totalBorrowed + amount, \"Cannot borrow if it results in overborrowings\");\n    //make sure users only have borrowings in one token\n    require(usersBalance[user].tokenBorrowed == address(0) || usersBalance[user].borrowedAmount == 0, \"Address already has a loan\");\n    // make sure it borrowes less than the collateral _collateral_factor\n    address collateralToken = usersBalance[user].tokenCollateralised;\n    require(amount < tokensCoreData[collateralToken].collateral_factor * usersBalance[user].collateralAmount, \"Cannot borrow over collateral factor\");\n\n    usersBalance[user].tokenBorrowed = tokenId;\n    usersBalance[user].borrowedAmount = amount;\n    usersBalance[user].cummulated_ir_borrow = amount;\n    takeFromReserves(tokenId, amount, user, true);\n    updateInterestRate(user,tokenId,tokensCoreData[tokenId].utilisation);\n    usersBalance[user].init_interest_borrow = ivar.getIRBorrowTotalCummulation(tokenId);\n\n  }\n\n  function depositCollateral(address payable user, uint amount, address tokenId) public{\n    //make sure users only have deposits in one token\n    require(usersBalance[user].tokenCollateralised == address(0) || usersBalance[user].tokenCollateralised == tokenId, \"Address already has collateral in another token\");\n    //make sure token is supported\n    require(tokensCoreData[tokenId].price != 0 && keccak256(bytes(tokensCoreData[tokenId].symbol)) != keccak256(bytes(\"\")), \"Token not supported\");\n    addToReserves(tokenId, amount, user, true, false);\n    if(usersBalance[user].tokenCollateralised != tokenId){\n      usersBalance[user].tokenCollateralised = tokenId;\n    }\n    usersBalance[user].collateralAmount += amount;\n  }\n\n  // Currently switch from deposit to collaterall can only be done from the principle depositedAmount\n  // not from the accumulated interest\n  function switchDepositToCollateral(address payable user, uint amount, address tokenId) public{\n    //make sure token is supported\n    require(tokensCoreData[tokenId].price != 0 && keccak256(bytes(tokensCoreData[tokenId].symbol)) != keccak256(bytes(\"\")), \"Token does not exist\");\n    // make sure deposited is not zero\n    require(usersBalance[user].depositedAmount >= amount, \"Deposit is 0, cannot switch to collateral\");\n    // make sure collateral is not in another token\n    require(usersBalance[user].tokenCollateralised == address(0) || (usersBalance[user].tokenCollateralised == tokenId && usersBalance[user].tokenDeposited == tokenId), \"Collateral already in another token or collateral token != deposit token\");\n    // make sure subtracting amount from deposits does not make the total deposited less than total borrow\n    require(tokensCoreData[tokenId].totalDeposited - amount > tokensCoreData[tokenId].totalBorrowed, \"Cannot decrease deposits if it results in overborrowings\");\n\n    usersBalance[user].depositedAmount -= amount;\n    uint cummulatedInterest = getCummulatedInterestDeposit(user);\n    usersBalance[user].cummulated_ir_deposit = cummulatedInterest - amount;\n    if(usersBalance[user].tokenCollateralised != tokenId){\n      usersBalance[user].tokenCollateralised = tokenId;\n    }\n    tokensCoreData[tokenId].totalCollateral +=amount; // increase reserves collateral\n    tokensCoreData[tokenId].totalDeposited -=amount; // decrease reserves deposits\n    updateInterestRate(user,tokenId,tokensCoreData[tokenId].utilisation);\n    usersBalance[user].collateralAmount += amount;\n  }\n\n  function repay(address payable user, uint amount) public{\n    // check if there is something to repay\n    require(usersBalance[user].borrowedAmount != 0, \"There is no loan to repay for user\");\n\n    // check if given amount does not exceed the owed amount\n    uint cummulatedInterest = getCummulatedInterestLoan(user); // cummulated amount owed\n    require(cummulatedInterest >= amount, \"Amount repaid is larger than owed\");\n\n    // what is not subtracted from the totalBorrowed of reserves is extra\n    uint borrowedAmount = usersBalance[user].borrowedAmount;\n    uint toPool = amount;\n    uint extra = 0;\n    if(amount > borrowedAmount){\n      toPool = borrowedAmount;\n      extra = amount-toPool;\n    }\n\n    address token = usersBalance[user].tokenBorrowed;\n\n    // repay what was borrowed to reserves\n    addToReserves(token, toPool, user,false, true);\n    // give interest payment (extra) to reserves as well\n    ERC20(token).transferFrom(user, address(this), extra);\n\n    // reinitialise initial interest\n    usersBalance[user].borrowedAmount -= toPool;\n    usersBalance[user].cummulated_ir_borrow = cummulatedInterest - amount;\n    usersBalance[user].init_interest_borrow = ivar.getIRBorrowTotalCummulation(token);\n    // modify utilisation rate and interest\n    updateInterestRate(user, token, tokensCoreData[token].utilisation);\n  }\n\n  function redeem(address payable user, uint amount) public{\n    // check if given amount does not exceed the deposit+interest\n    uint cummulatedInterest = getCummulatedInterestDeposit(user); // cummulated amount owed\n    require(cummulatedInterest >= amount, \"Amount redeemed is larger than assigned\");\n\n    // split the amount requested\n    uint depositedAmount = usersBalance[user].depositedAmount;\n    uint fromPool = amount;\n    uint extra = 0;\n    if(amount > depositedAmount){\n      fromPool = depositedAmount;\n      extra = amount - depositedAmount;\n    }\n\n    address token = usersBalance[user].tokenDeposited;\n\n    // check if enough liquidity in reserves\n    require( tokensCoreData[token].totalDeposited - fromPool >= tokensCoreData[token].totalBorrowed, \"Demand would exceed supply\");\n    // check for extra liquidity obtained from interest rate payments on loans\n    uint reservesBalance = getReserveBalance(token);\n    require(extra < reservesBalance - tokensCoreData[token].totalDeposited - tokensCoreData[token].totalCollateral, \"Not enough extra reserves\");\n\n    // update user's deposit variables\n    usersBalance[user].depositedAmount -= fromPool;\n    usersBalance[user].cummulated_ir_deposit = cummulatedInterest - amount;\n    usersBalance[user].init_interest_deposit = ivar.getIRDepositTotalCummulation(token);\n\n    // give from reserves\n    takeFromReserves(token,fromPool,user,false);\n    // transfer extra\n    ERC20(token).transfer(user,extra);\n    // modify utilisation rate and interest\n    updateInterestRate(user, token, tokensCoreData[token].utilisation);\n  }\n\n  function redeemCollateral(address payable user, uint amount) public{\n    // check if there is enough to redeem\n    require(usersBalance[user].collateralAmount >= amount,\"Given amount greater than the existing collateral\");\n    // check if redeeming would not affect the health factor\n    uint cummulatedInterest = getCummulatedInterestLoan(user); // cummulated amount owed\n    address collateralToken = usersBalance[user].tokenCollateralised;\n    require(cummulatedInterest < tokensCoreData[collateralToken].collateral_factor * (usersBalance[user].collateralAmount - amount), \"Health factor would be too low\");\n    // do changes in user's balances\n    usersBalance[user].collateralAmount -= amount;\n    // do changes in reserves data\n    tokensCoreData[collateralToken].totalCollateral -= amount;\n    ERC20(collateralToken).transfer(user,amount);\n  }\n\n  // get value of deposit with cummulated interest so far\n  function getCummulatedInterestDeposit(address user) public view returns (uint){\n    // get initial deposit\n    uint balanceSoFar = usersBalance[user].cummulated_ir_deposit;\n    address token = usersBalance[user].tokenDeposited;\n    uint initial_ir = usersBalance[user].init_interest_deposit;\n    // get token interest tokenCummulation\n    uint interest_total_cummulation = ivar.getIRDepositTotalCummulation(token);\n    require(interest_total_cummulation != 0, \"INterest Total Cummulation is zero\" );\n    uint interest_earned = interest_total_cummulation/initial_ir;\n\n    // compute interest since depositing\n    return (balanceSoFar*interest_total_cummulation)/initial_ir;\n  }\n\n  // get value of deposit with cummulated interest so far\n  function getCummulatedInterestLoan(address user) public view returns (uint){\n    // get initial deposit\n    uint balanceSoFar = usersBalance[user].cummulated_ir_borrow;\n    address token = usersBalance[user].tokenBorrowed;\n    uint initial_ir = usersBalance[user].init_interest_borrow;\n    // get token interest tokenCummulation\n    uint interest_total_cummulation = ivar.getIRBorrowTotalCummulation(token);\n    require(interest_total_cummulation != 0, \"INterest Total Cummulation is zero\" );\n    uint interest_earned = interest_total_cummulation/initial_ir;\n\n    // compute interest since depositing\n    return (balanceSoFar*interest_total_cummulation)/initial_ir;\n  }\n\n  function getUserInitDeposit(address user) public view returns(uint){\n    return usersBalance[user].depositedAmount;\n  }\n  function getUserInterestTotalCummulation(address user) public view returns(uint){\n    address token = usersBalance[user].tokenDeposited;\n    return ivar.getIRDepositTotalCummulation(token);\n  }\n  function getUserInitInterest(address user) public view returns(uint){\n    return usersBalance[user].init_interest_deposit;\n  }\n\n}\n",
  "sourcePath": "/Users/ioanaroceanu/Documents/Project/contracts/LiquidityPool.sol",
  "compiler": {
    "name": "solc",
    "version": "0.6.2+commit.bacdbe57.Emscripten.clang"
  },
  "schemaVersion": "3.3.2",
  "updatedAt": "2021-01-04T12:34:22.333Z",
  "networkType": "ethereum",
  "devdoc": {
    "methods": {}
  },
  "userdoc": {
    "methods": {}
  }
}