{
  "contractName": "LiquidityPool",
  "abi": [
    {
      "inputs": [],
      "stateMutability": "nonpayable",
      "type": "constructor"
    },
    {
      "inputs": [
        {
          "internalType": "address",
          "name": "",
          "type": "address"
        }
      ],
      "name": "tokensCoreData",
      "outputs": [
        {
          "internalType": "uint256",
          "name": "price",
          "type": "uint256"
        },
        {
          "internalType": "string",
          "name": "symbol",
          "type": "string"
        },
        {
          "internalType": "uint256",
          "name": "utilisation",
          "type": "uint256"
        },
        {
          "internalType": "uint256",
          "name": "borrowIR",
          "type": "uint256"
        },
        {
          "internalType": "uint256",
          "name": "depositIR",
          "type": "uint256"
        },
        {
          "internalType": "uint256",
          "name": "collateral_factor",
          "type": "uint256"
        },
        {
          "internalType": "uint256",
          "name": "totalBorrowed",
          "type": "uint256"
        },
        {
          "internalType": "uint256",
          "name": "totalDeposited",
          "type": "uint256"
        },
        {
          "internalType": "uint256",
          "name": "totalCollateral",
          "type": "uint256"
        }
      ],
      "stateMutability": "view",
      "type": "function",
      "constant": true
    },
    {
      "inputs": [
        {
          "internalType": "address",
          "name": "",
          "type": "address"
        }
      ],
      "name": "usersBalance",
      "outputs": [
        {
          "internalType": "uint256",
          "name": "depositedAmount",
          "type": "uint256"
        },
        {
          "internalType": "address",
          "name": "tokenDeposited",
          "type": "address"
        },
        {
          "internalType": "uint256",
          "name": "collateralAmount",
          "type": "uint256"
        },
        {
          "internalType": "address",
          "name": "tokenCollateralised",
          "type": "address"
        },
        {
          "internalType": "uint256",
          "name": "borrowedAmount",
          "type": "uint256"
        },
        {
          "internalType": "address",
          "name": "tokenBorrowed",
          "type": "address"
        }
      ],
      "stateMutability": "view",
      "type": "function",
      "constant": true
    },
    {
      "inputs": [
        {
          "internalType": "string",
          "name": "_symbol",
          "type": "string"
        },
        {
          "internalType": "address",
          "name": "_token_address",
          "type": "address"
        },
        {
          "internalType": "uint256",
          "name": "_optimal_utilisation",
          "type": "uint256"
        },
        {
          "internalType": "uint256",
          "name": "_collateral_factor",
          "type": "uint256"
        },
        {
          "internalType": "uint256",
          "name": "_base_rate",
          "type": "uint256"
        },
        {
          "internalType": "uint256",
          "name": "_slope1",
          "type": "uint256"
        },
        {
          "internalType": "uint256",
          "name": "_slope2",
          "type": "uint256"
        },
        {
          "internalType": "uint256",
          "name": "_spread",
          "type": "uint256"
        },
        {
          "internalType": "uint256",
          "name": "_price",
          "type": "uint256"
        },
        {
          "internalType": "address",
          "name": "_InterestContract_address",
          "type": "address"
        }
      ],
      "name": "createToken",
      "outputs": [],
      "stateMutability": "nonpayable",
      "type": "function"
    },
    {
      "inputs": [
        {
          "internalType": "address",
          "name": "_addr",
          "type": "address"
        }
      ],
      "name": "isContract",
      "outputs": [
        {
          "internalType": "bool",
          "name": "",
          "type": "bool"
        }
      ],
      "stateMutability": "view",
      "type": "function",
      "constant": true
    },
    {
      "inputs": [
        {
          "internalType": "address",
          "name": "tokenId",
          "type": "address"
        },
        {
          "internalType": "uint256",
          "name": "_price",
          "type": "uint256"
        }
      ],
      "name": "updateTokenPrice",
      "outputs": [],
      "stateMutability": "nonpayable",
      "type": "function"
    },
    {
      "inputs": [
        {
          "internalType": "address",
          "name": "tokenId",
          "type": "address"
        }
      ],
      "name": "getReserveBalance",
      "outputs": [],
      "stateMutability": "nonpayable",
      "type": "function"
    },
    {
      "inputs": [
        {
          "internalType": "address payable",
          "name": "user",
          "type": "address"
        },
        {
          "internalType": "uint256",
          "name": "amount",
          "type": "uint256"
        },
        {
          "internalType": "address",
          "name": "tokenId",
          "type": "address"
        }
      ],
      "name": "deposit",
      "outputs": [],
      "stateMutability": "nonpayable",
      "type": "function"
    },
    {
      "inputs": [
        {
          "internalType": "address payable",
          "name": "user",
          "type": "address"
        },
        {
          "internalType": "uint256",
          "name": "amount",
          "type": "uint256"
        },
        {
          "internalType": "address",
          "name": "tokenId",
          "type": "address"
        }
      ],
      "name": "borrow",
      "outputs": [],
      "stateMutability": "nonpayable",
      "type": "function"
    },
    {
      "inputs": [
        {
          "internalType": "address payable",
          "name": "user",
          "type": "address"
        },
        {
          "internalType": "uint256",
          "name": "amount",
          "type": "uint256"
        },
        {
          "internalType": "address",
          "name": "tokenId",
          "type": "address"
        }
      ],
      "name": "depositCollateral",
      "outputs": [],
      "stateMutability": "nonpayable",
      "type": "function"
    },
    {
      "inputs": [
        {
          "internalType": "address payable",
          "name": "user",
          "type": "address"
        },
        {
          "internalType": "uint256",
          "name": "amount",
          "type": "uint256"
        },
        {
          "internalType": "address",
          "name": "tokenId",
          "type": "address"
        }
      ],
      "name": "switchDepositToCollateral",
      "outputs": [],
      "stateMutability": "nonpayable",
      "type": "function"
    }
  ],
  "bytecode": "0x608060405234801561001057600080fd5b50612826806100206000396000f3fe608060405234801561001057600080fd5b506004361061009e5760003560e01c80636c665a55116100665780636c665a55146103a5578063835140e814610413578063c41d9c7e14610555578063d4ee651b146105c3578063f45346dc146106115761009e565b806315226b54146100a357806316279055146100e7578063224254801461014357806339832c55146101b157806358324335146102a6575b600080fd5b6100e5600480360360208110156100b957600080fd5b81019080803573ffffffffffffffffffffffffffffffffffffffff16906020019092919050505061067f565b005b610129600480360360208110156100fd57600080fd5b81019080803573ffffffffffffffffffffffffffffffffffffffff16906020019092919050505061073b565b604051808215151515815260200191505060405180910390f35b6101af6004803603606081101561015957600080fd5b81019080803573ffffffffffffffffffffffffffffffffffffffff16906020019092919080359060200190929190803573ffffffffffffffffffffffffffffffffffffffff169060200190929190505050610754565b005b6101f3600480360360208110156101c757600080fd5b81019080803573ffffffffffffffffffffffffffffffffffffffff169060200190929190505050610bd0565b604051808a81526020018060200189815260200188815260200187815260200186815260200185815260200184815260200183815260200182810382528a818151815260200191508051906020019080838360005b83811015610263578082015181840152602081019050610248565b50505050905090810190601f1680156102905780820380516001836020036101000a031916815260200191505b509a505050505050505050505060405180910390f35b6102e8600480360360208110156102bc57600080fd5b81019080803573ffffffffffffffffffffffffffffffffffffffff169060200190929190505050610cb6565b604051808781526020018673ffffffffffffffffffffffffffffffffffffffff1673ffffffffffffffffffffffffffffffffffffffff1681526020018581526020018473ffffffffffffffffffffffffffffffffffffffff1673ffffffffffffffffffffffffffffffffffffffff1681526020018381526020018273ffffffffffffffffffffffffffffffffffffffff1673ffffffffffffffffffffffffffffffffffffffff168152602001965050505050505060405180910390f35b610411600480360360608110156103bb57600080fd5b81019080803573ffffffffffffffffffffffffffffffffffffffff16906020019092919080359060200190929190803573ffffffffffffffffffffffffffffffffffffffff169060200190929190505050610d52565b005b610553600480360361014081101561042a57600080fd5b810190808035906020019064010000000081111561044757600080fd5b82018360208201111561045957600080fd5b8035906020019184600183028401116401000000008311171561047b57600080fd5b91908080601f016020809104026020016040519081016040528093929190818152602001838380828437600081840152601f19601f820116905080830192505050505050509192919290803573ffffffffffffffffffffffffffffffffffffffff16906020019092919080359060200190929190803590602001909291908035906020019092919080359060200190929190803590602001909291908035906020019092919080359060200190929190803573ffffffffffffffffffffffffffffffffffffffff16906020019092919050505061125b565b005b6105c16004803603606081101561056b57600080fd5b81019080803573ffffffffffffffffffffffffffffffffffffffff16906020019092919080359060200190929190803573ffffffffffffffffffffffffffffffffffffffff1690602001909291905050506116e5565b005b61060f600480360360408110156105d957600080fd5b81019080803573ffffffffffffffffffffffffffffffffffffffff16906020019092919080359060200190929190505050611e5f565b005b61067d6004803603606081101561062757600080fd5b81019080803573ffffffffffffffffffffffffffffffffffffffff16906020019092919080359060200190929190803573ffffffffffffffffffffffffffffffffffffffff169060200190929190505050611eaa565b005b8073ffffffffffffffffffffffffffffffffffffffff166370a08231306040518263ffffffff1660e01b8152600401808273ffffffffffffffffffffffffffffffffffffffff1673ffffffffffffffffffffffffffffffffffffffff16815260200191505060206040518083038186803b1580156106fc57600080fd5b505afa158015610710573d6000803e3d6000fd5b505050506040513d602081101561072657600080fd5b81019080805190602001909291905050505050565b600080823b905060008163ffffffff1611915050919050565b600073ffffffffffffffffffffffffffffffffffffffff16600260008573ffffffffffffffffffffffffffffffffffffffff1673ffffffffffffffffffffffffffffffffffffffff16815260200190815260200160002060030160009054906101000a900473ffffffffffffffffffffffffffffffffffffffff1673ffffffffffffffffffffffffffffffffffffffff16148061087e57508073ffffffffffffffffffffffffffffffffffffffff16600260008573ffffffffffffffffffffffffffffffffffffffff1673ffffffffffffffffffffffffffffffffffffffff16815260200190815260200160002060030160009054906101000a900473ffffffffffffffffffffffffffffffffffffffff1673ffffffffffffffffffffffffffffffffffffffff16145b6108d3576040517f08c379a000000000000000000000000000000000000000000000000000000000815260040180806020018281038252602f81526020018061276c602f913960400191505060405180910390fd5b6000600160008373ffffffffffffffffffffffffffffffffffffffff1673ffffffffffffffffffffffffffffffffffffffff16815260200190815260200160002060000154141580156109e557506040518060200160405280600081525080519060200120600160008373ffffffffffffffffffffffffffffffffffffffff1673ffffffffffffffffffffffffffffffffffffffff16815260200190815260200160002060010160405180828054600181600116156101000203166002900480156109d55780601f106109b35761010080835404028352918201916109d5565b820191906000526020600020905b8154815290600101906020018083116109c1575b5050915050604051809103902014155b610a57576040517f08c379a00000000000000000000000000000000000000000000000000000000081526004018080602001828103825260138152602001807f546f6b656e206e6f7420737570706f727465640000000000000000000000000081525060200191505060405180910390fd5b610a6481838560016121f9565b8073ffffffffffffffffffffffffffffffffffffffff16600260008573ffffffffffffffffffffffffffffffffffffffff1673ffffffffffffffffffffffffffffffffffffffff16815260200190815260200160002060030160009054906101000a900473ffffffffffffffffffffffffffffffffffffffff1673ffffffffffffffffffffffffffffffffffffffff1614610b7b5780600260008573ffffffffffffffffffffffffffffffffffffffff1673ffffffffffffffffffffffffffffffffffffffff16815260200190815260200160002060030160006101000a81548173ffffffffffffffffffffffffffffffffffffffff021916908373ffffffffffffffffffffffffffffffffffffffff1602179055505b81600260008573ffffffffffffffffffffffffffffffffffffffff1673ffffffffffffffffffffffffffffffffffffffff16815260200190815260200160002060020160008282540192505081905550505050565b6001602052806000526040600020600091509050806000015490806001018054600181600116156101000203166002900480601f016020809104026020016040519081016040528092919081815260200182805460018160011615610100020316600290048015610c825780601f10610c5757610100808354040283529160200191610c82565b820191906000526020600020905b815481529060010190602001808311610c6557829003601f168201915b5050505050908060020154908060030154908060040154908060050154908060060154908060070154908060080154905089565b60026020528060005260406000206000915090508060000154908060010160009054906101000a900473ffffffffffffffffffffffffffffffffffffffff16908060020154908060030160009054906101000a900473ffffffffffffffffffffffffffffffffffffffff16908060040154908060050160009054906101000a900473ffffffffffffffffffffffffffffffffffffffff16905086565b6000600160008373ffffffffffffffffffffffffffffffffffffffff1673ffffffffffffffffffffffffffffffffffffffff1681526020019081526020016000206000015414158015610e6457506040518060200160405280600081525080519060200120600160008373ffffffffffffffffffffffffffffffffffffffff1673ffffffffffffffffffffffffffffffffffffffff1681526020019081526020016000206001016040518082805460018160011615610100020316600290048015610e545780601f10610e32576101008083540402835291820191610e54565b820191906000526020600020905b815481529060010190602001808311610e40575b5050915050604051809103902014155b610e6d57600080fd5b81600160008373ffffffffffffffffffffffffffffffffffffffff1673ffffffffffffffffffffffffffffffffffffffff1681526020019081526020016000206006015401600160008373ffffffffffffffffffffffffffffffffffffffff1673ffffffffffffffffffffffffffffffffffffffff1681526020019081526020016000206007015411610f4b576040517f08c379a000000000000000000000000000000000000000000000000000000000815260040180806020018281038252602d81526020018061279b602d913960400191505060405180910390fd5b600073ffffffffffffffffffffffffffffffffffffffff16600260008573ffffffffffffffffffffffffffffffffffffffff1673ffffffffffffffffffffffffffffffffffffffff16815260200190815260200160002060050160009054906101000a900473ffffffffffffffffffffffffffffffffffffffff1673ffffffffffffffffffffffffffffffffffffffff16148061102a57506000600260008573ffffffffffffffffffffffffffffffffffffffff1673ffffffffffffffffffffffffffffffffffffffff16815260200190815260200160002060040154145b61109c576040517f08c379a000000000000000000000000000000000000000000000000000000000815260040180806020018281038252601a8152602001807f4164647265737320616c7265616479206861732061206c6f616e00000000000081525060200191505060405180910390fd5b600260008473ffffffffffffffffffffffffffffffffffffffff1673ffffffffffffffffffffffffffffffffffffffff16815260200190815260200160002060020154600160008373ffffffffffffffffffffffffffffffffffffffff1673ffffffffffffffffffffffffffffffffffffffff1681526020019081526020016000206005015402821061117a576040517f08c379a00000000000000000000000000000000000000000000000000000000081526004018080602001828103825260248152602001806127206024913960400191505060405180910390fd5b80600260008573ffffffffffffffffffffffffffffffffffffffff1673ffffffffffffffffffffffffffffffffffffffff16815260200190815260200160002060050160006101000a81548173ffffffffffffffffffffffffffffffffffffffff021916908373ffffffffffffffffffffffffffffffffffffffff16021790555081600260008573ffffffffffffffffffffffffffffffffffffffff1673ffffffffffffffffffffffffffffffffffffffff1681526020019081526020016000206004018190555061124d8183856123a2565b611256816124ee565b505050565b6112648161073b565b6112b9576040517f08c379a00000000000000000000000000000000000000000000000000000000081526004018080602001828103825260358152602001806126a36035913960400191505060405180910390fd5b6112c28961073b565b611317576040517f08c379a00000000000000000000000000000000000000000000000000000000081526004018080602001828103825260288152602001806127446028913960400191505060405180910390fd5b60008190508073ffffffffffffffffffffffffffffffffffffffff1663402fda408c8c8c8c8c8c8c8c6040518963ffffffff1660e01b815260040180806020018973ffffffffffffffffffffffffffffffffffffffff1673ffffffffffffffffffffffffffffffffffffffff16815260200188815260200187815260200186815260200185815260200184815260200183815260200182810382528a818151815260200191508051906020019080838360005b838110156113e55780820151818401526020810190506113ca565b50505050905090810190601f1680156114125780820380516001836020036101000a031916815260200191505b509950505050505050505050600060405180830381600087803b15801561143857600080fd5b505af115801561144c573d6000803e3d6000fd5b5050505060008173ffffffffffffffffffffffffffffffffffffffff16638abe523f8c60006040518363ffffffff1660e01b8152600401808373ffffffffffffffffffffffffffffffffffffffff1673ffffffffffffffffffffffffffffffffffffffff1681526020018281526020019250505060206040518083038186803b1580156114d857600080fd5b505afa1580156114ec573d6000803e3d6000fd5b505050506040513d602081101561150257600080fd5b8101908080519060200190929190505050905060008273ffffffffffffffffffffffffffffffffffffffff16637289370e8d6000856040518463ffffffff1660e01b8152600401808473ffffffffffffffffffffffffffffffffffffffff1673ffffffffffffffffffffffffffffffffffffffff168152602001838152602001828152602001935050505060206040518083038186803b1580156115a557600080fd5b505afa1580156115b9573d6000803e3d6000fd5b505050506040513d60208110156115cf57600080fd5b810190808051906020019092919050505090506040518061012001604052808681526020018e8152602001600081526020018381526020018281526020018b815260200160008152602001600081526020016000815250600160008e73ffffffffffffffffffffffffffffffffffffffff1673ffffffffffffffffffffffffffffffffffffffff16815260200190815260200160002060008201518160000155602082015181600101908051906020019061168b9291906125c5565b5060408201518160020155606082015181600301556080820151816004015560a0820151816005015560c0820151816006015560e08201518160070155610100820151816008015590505050505050505050505050505050565b6000600160008373ffffffffffffffffffffffffffffffffffffffff1673ffffffffffffffffffffffffffffffffffffffff16815260200190815260200160002060000154141580156117f757506040518060200160405280600081525080519060200120600160008373ffffffffffffffffffffffffffffffffffffffff1673ffffffffffffffffffffffffffffffffffffffff16815260200190815260200160002060010160405180828054600181600116156101000203166002900480156117e75780601f106117c55761010080835404028352918201916117e7565b820191906000526020600020905b8154815290600101906020018083116117d3575b5050915050604051809103902014155b611869576040517f08c379a00000000000000000000000000000000000000000000000000000000081526004018080602001828103825260148152602001807f546f6b656e20646f6573206e6f7420657869737400000000000000000000000081525060200191505060405180910390fd5b81600260008573ffffffffffffffffffffffffffffffffffffffff1673ffffffffffffffffffffffffffffffffffffffff168152602001908152602001600020600001541015611904576040517f08c379a00000000000000000000000000000000000000000000000000000000081526004018080602001828103825260298152602001806127c86029913960400191505060405180910390fd5b600073ffffffffffffffffffffffffffffffffffffffff16600260008573ffffffffffffffffffffffffffffffffffffffff1673ffffffffffffffffffffffffffffffffffffffff16815260200190815260200160002060030160009054906101000a900473ffffffffffffffffffffffffffffffffffffffff1673ffffffffffffffffffffffffffffffffffffffff161480611ac757508073ffffffffffffffffffffffffffffffffffffffff16600260008573ffffffffffffffffffffffffffffffffffffffff1673ffffffffffffffffffffffffffffffffffffffff16815260200190815260200160002060030160009054906101000a900473ffffffffffffffffffffffffffffffffffffffff1673ffffffffffffffffffffffffffffffffffffffff16148015611ac657508073ffffffffffffffffffffffffffffffffffffffff16600260008573ffffffffffffffffffffffffffffffffffffffff1673ffffffffffffffffffffffffffffffffffffffff16815260200190815260200160002060010160009054906101000a900473ffffffffffffffffffffffffffffffffffffffff1673ffffffffffffffffffffffffffffffffffffffff16145b5b611b1c576040517f08c379a00000000000000000000000000000000000000000000000000000000081526004018080602001828103825260488152602001806126d86048913960600191505060405180910390fd5b600160008273ffffffffffffffffffffffffffffffffffffffff1673ffffffffffffffffffffffffffffffffffffffff1681526020019081526020016000206006015482600160008473ffffffffffffffffffffffffffffffffffffffff1673ffffffffffffffffffffffffffffffffffffffff168152602001908152602001600020600701540311611bfa576040517f08c379a000000000000000000000000000000000000000000000000000000000815260040180806020018281038252603881526020018061266b6038913960400191505060405180910390fd5b81600260008573ffffffffffffffffffffffffffffffffffffffff1673ffffffffffffffffffffffffffffffffffffffff168152602001908152602001600020600001600082825403925050819055508073ffffffffffffffffffffffffffffffffffffffff16600260008573ffffffffffffffffffffffffffffffffffffffff1673ffffffffffffffffffffffffffffffffffffffff16815260200190815260200160002060030160009054906101000a900473ffffffffffffffffffffffffffffffffffffffff1673ffffffffffffffffffffffffffffffffffffffff1614611d615780600260008573ffffffffffffffffffffffffffffffffffffffff1673ffffffffffffffffffffffffffffffffffffffff16815260200190815260200160002060030160006101000a81548173ffffffffffffffffffffffffffffffffffffffff021916908373ffffffffffffffffffffffffffffffffffffffff1602179055505b81600160008373ffffffffffffffffffffffffffffffffffffffff1673ffffffffffffffffffffffffffffffffffffffff1681526020019081526020016000206008016000828254019250508190555081600160008373ffffffffffffffffffffffffffffffffffffffff1673ffffffffffffffffffffffffffffffffffffffff16815260200190815260200160002060070160008282540392505081905550611e0a816124ee565b81600260008573ffffffffffffffffffffffffffffffffffffffff1673ffffffffffffffffffffffffffffffffffffffff16815260200190815260200160002060020160008282540192505081905550505050565b80600160008473ffffffffffffffffffffffffffffffffffffffff1673ffffffffffffffffffffffffffffffffffffffff168152602001908152602001600020600001819055505050565b600073ffffffffffffffffffffffffffffffffffffffff16600260008573ffffffffffffffffffffffffffffffffffffffff1673ffffffffffffffffffffffffffffffffffffffff16815260200190815260200160002060010160009054906101000a900473ffffffffffffffffffffffffffffffffffffffff1673ffffffffffffffffffffffffffffffffffffffff161480611f8957506000600260008573ffffffffffffffffffffffffffffffffffffffff1673ffffffffffffffffffffffffffffffffffffffff16815260200190815260200160002060000154145b611ffb576040517f08c379a000000000000000000000000000000000000000000000000000000000815260040180806020018281038252601d8152602001807f4164647265737320616c7265616479206861732061206465706f73697400000081525060200191505060405180910390fd5b6000600160008373ffffffffffffffffffffffffffffffffffffffff1673ffffffffffffffffffffffffffffffffffffffff168152602001908152602001600020600001541415801561210d57506040518060200160405280600081525080519060200120600160008373ffffffffffffffffffffffffffffffffffffffff1673ffffffffffffffffffffffffffffffffffffffff16815260200190815260200160002060010160405180828054600181600116156101000203166002900480156120fd5780601f106120db5761010080835404028352918201916120fd565b820191906000526020600020905b8154815290600101906020018083116120e9575b5050915050604051809103902014155b61211657600080fd5b61212381838560006121f9565b61212c816124ee565b80600260008573ffffffffffffffffffffffffffffffffffffffff1673ffffffffffffffffffffffffffffffffffffffff16815260200190815260200160002060010160006101000a81548173ffffffffffffffffffffffffffffffffffffffff021916908373ffffffffffffffffffffffffffffffffffffffff16021790555081600260008573ffffffffffffffffffffffffffffffffffffffff1673ffffffffffffffffffffffffffffffffffffffff16815260200190815260200160002060000181905550505050565b8373ffffffffffffffffffffffffffffffffffffffff166323b872dd8330866040518463ffffffff1660e01b8152600401808473ffffffffffffffffffffffffffffffffffffffff1673ffffffffffffffffffffffffffffffffffffffff1681526020018373ffffffffffffffffffffffffffffffffffffffff1673ffffffffffffffffffffffffffffffffffffffff1681526020018281526020019350505050602060405180830381600087803b1580156122b457600080fd5b505af11580156122c8573d6000803e3d6000fd5b505050506040513d60208110156122de57600080fd5b810190808051906020019092919050505050801561234b5782600160008673ffffffffffffffffffffffffffffffffffffffff1673ffffffffffffffffffffffffffffffffffffffff1681526020019081526020016000206008016000828254019250508190555061239c565b82600160008673ffffffffffffffffffffffffffffffffffffffff1673ffffffffffffffffffffffffffffffffffffffff168152602001908152602001600020600701600082825401925050819055505b50505050565b8273ffffffffffffffffffffffffffffffffffffffff166323b872dd3083856040518463ffffffff1660e01b8152600401808473ffffffffffffffffffffffffffffffffffffffff1673ffffffffffffffffffffffffffffffffffffffff1681526020018373ffffffffffffffffffffffffffffffffffffffff1673ffffffffffffffffffffffffffffffffffffffff1681526020018281526020019350505050602060405180830381600087803b15801561245d57600080fd5b505af1158015612471573d6000803e3d6000fd5b505050506040513d602081101561248757600080fd5b81019080805190602001909291905050505081600160008573ffffffffffffffffffffffffffffffffffffffff1673ffffffffffffffffffffffffffffffffffffffff16815260200190815260200160002060060160008282540192505081905550505050565b600160008273ffffffffffffffffffffffffffffffffffffffff1673ffffffffffffffffffffffffffffffffffffffff16815260200190815260200160002060070154600160008373ffffffffffffffffffffffffffffffffffffffff1673ffffffffffffffffffffffffffffffffffffffff168152602001908152602001600020600601548161257b57fe5b04600160008373ffffffffffffffffffffffffffffffffffffffff1673ffffffffffffffffffffffffffffffffffffffff1681526020019081526020016000206002018190555050565b828054600181600116156101000203166002900490600052602060002090601f016020900481019282601f1061260657805160ff1916838001178555612634565b82800160010185558215612634579182015b82811115612633578251825591602001919060010190612618565b5b5090506126419190612645565b5090565b61266791905b8082111561266357600081600090555060010161264b565b5090565b9056fe43616e6e6f74206465637265617365206465706f7369747320696620697420726573756c747320696e206f766572626f72726f77696e6773496e746572657374205661726961626c657320636f6e74726163742061646472657373206973206e6f74206120636f6e7472616374436f6c6c61746572616c20616c726561647920696e20616e6f7468657220746f6b656e206f7220636f6c6c61746572616c20746f6b656e20213d206465706f73697420746f6b656e43616e6e6f7420626f72726f77206f76657220636f6c6c61746572616c20666163746f72546f6b656e20636f6e74726163742061646472657373206973206e6f74206120636f6e74726163744164647265737320616c72656164792068617320636f6c6c61746572616c20696e20616e6f7468657220746f6b656e43616e6e6f7420626f72726f7720696620697420726573756c747320696e206f766572626f72726f77696e67734465706f73697420697320302c2063616e6e6f742073776974636820746f20636f6c6c61746572616ca2646970667358221220871d23c9c47a54fe209c54dfe495312eed8c37e173c5e636011a49146367d92164736f6c63430006020033",
  "source": "// SPDX-License-Identifier: MIT\npragma solidity >=0.4.22 <0.8.0;\nimport \"./ERC20.sol\";\nimport \"./Address.sol\";\nimport \"./InterestVariables.sol\";\n\ncontract LiquidityPool {\n  constructor() public {\n  }\n\n  address private owner;\n\n  mapping (address => TokenCoreData) public tokensCoreData;\n  mapping (address => UserBalance) public usersBalance;\n\n  struct UserBalance{\n    uint depositedAmount;\n    address tokenDeposited;\n    uint collateralAmount;\n    address tokenCollateralised;\n    uint borrowedAmount;\n    address tokenBorrowed;\n  }\n\n  struct TokenCoreData{\n    uint price;\n    string symbol;\n    uint utilisation;\n    uint borrowIR;\n    uint depositIR;\n    uint collateral_factor;\n    uint totalBorrowed;\n    uint totalDeposited;\n    uint totalCollateral;\n  }\n\n  modifier onlyOwner() {\n      require(msg.sender == owner);\n      _;\n  }\n\n  // create token with all data\n  function createToken(string memory _symbol,\n    address _token_address,\n    uint _optimal_utilisation,\n    uint _collateral_factor,\n    uint _base_rate,\n    uint _slope1,\n    uint _slope2,\n    uint _spread,\n    uint _price,\n    address _InterestContract_address) public{\n      require(isContract(_InterestContract_address), 'Interest Variables contract address is not a contract');\n      require(isContract(_token_address), 'Token contract address is not a contract');\n      InterestVariables ivar = InterestVariables(_InterestContract_address);\n      ivar.createToken(_symbol, _token_address, _optimal_utilisation, _collateral_factor, _base_rate, _slope1, _slope2, _spread);\n      uint borrowIR = ivar.borrowInterestRate(_token_address, 0);\n      uint depositIR = ivar.depositInterestRate(_token_address, 0, borrowIR);\n      tokensCoreData[_token_address] = TokenCoreData(_price, _symbol, 0, borrowIR, depositIR, _collateral_factor, 0, 0, 0);\n  }\n\n  function isContract(address _addr) public view returns (bool){\n    uint32 size;\n    assembly {\n      size := extcodesize(_addr)\n    }\n    return size > 0;\n  }\n\n  // update token price and call liquid checks\n  function updateTokenPrice(address tokenId, uint _price) public{\n    tokensCoreData[tokenId].price = _price;\n  }\n\n  // update utilisation rate\n  function updateUtilisationRate(address tokenId) internal{\n    tokensCoreData[tokenId].utilisation = tokensCoreData[tokenId].totalBorrowed / tokensCoreData[tokenId].totalDeposited;\n  }\n\n  // add to liquidity pool of token\n  function addToReserves(address tokenId, uint amount, address payable user, bool isCollateral) internal{\n    ERC20(tokenId).transferFrom(user, address(this), amount);\n    if(isCollateral){\n      tokensCoreData[tokenId].totalCollateral+=amount;\n    }else{\n      tokensCoreData[tokenId].totalDeposited+=amount;\n    }\n  }\n\n  // take out from liquidity pool of token\n  function takeFromReserves(address tokenId, uint amount, address payable user) internal{\n    ERC20(tokenId).transferFrom(address(this), user,  amount);\n    tokensCoreData[tokenId].totalBorrowed+=amount;\n  }\n\n  function getReserveBalance(address tokenId) public{\n    ERC20(tokenId).balanceOf(address(this));\n  }\n\n\n  function deposit(address payable user, uint amount, address tokenId) public{\n    //make sure users only have deposits in one token\n    require(usersBalance[user].tokenDeposited == address(0) || usersBalance[user].depositedAmount == 0, \"Address already has a deposit\");\n    //make sure token is supported\n    require(tokensCoreData[tokenId].price != 0 && keccak256(bytes(tokensCoreData[tokenId].symbol)) != keccak256(bytes(\"\")));\n    addToReserves(tokenId, amount, user, false);\n    updateUtilisationRate(tokenId);\n    usersBalance[user].tokenDeposited = tokenId;\n    usersBalance[user].depositedAmount = amount;\n\n  }\n\n  function borrow(address payable user, uint amount, address tokenId) public{\n    //make sure token is supported\n    require(tokensCoreData[tokenId].price != 0 && keccak256(bytes(tokensCoreData[tokenId].symbol)) != keccak256(bytes(\"\")));\n    // make sure subtracting amount from deposits does not make the total deposited less than total borrow\n    require(tokensCoreData[tokenId].totalDeposited > tokensCoreData[tokenId].totalBorrowed + amount, \"Cannot borrow if it results in overborrowings\");\n    //make sure users only have borrowings in one token\n    require(usersBalance[user].tokenBorrowed == address(0) || usersBalance[user].borrowedAmount == 0, \"Address already has a loan\");\n    // make sure it borrowes less than the collateral _collateral_factor\n    require(amount < tokensCoreData[tokenId].collateral_factor * usersBalance[user].collateralAmount, \"Cannot borrow over collateral factor\");\n\n    usersBalance[user].tokenBorrowed = tokenId;\n    usersBalance[user].borrowedAmount = amount;\n    takeFromReserves(tokenId, amount, user);\n    updateUtilisationRate(tokenId);\n\n  }\n\n  function depositCollateral(address payable user, uint amount, address tokenId) public{\n    //make sure users only have deposits in one token\n    require(usersBalance[user].tokenCollateralised == address(0) || usersBalance[user].tokenCollateralised == tokenId, \"Address already has collateral in another token\");\n    //make sure token is supported\n    require(tokensCoreData[tokenId].price != 0 && keccak256(bytes(tokensCoreData[tokenId].symbol)) != keccak256(bytes(\"\")), \"Token not supported\");\n    addToReserves(tokenId, amount, user, true);\n    if(usersBalance[user].tokenCollateralised != tokenId){\n      usersBalance[user].tokenCollateralised = tokenId;\n    }\n    usersBalance[user].collateralAmount += amount;\n  }\n\n  function switchDepositToCollateral(address payable user, uint amount, address tokenId) public{\n    //make sure token is supported\n    require(tokensCoreData[tokenId].price != 0 && keccak256(bytes(tokensCoreData[tokenId].symbol)) != keccak256(bytes(\"\")), \"Token does not exist\");\n    // make sure deposited is not zero\n    require(usersBalance[user].depositedAmount >= amount, \"Deposit is 0, cannot switch to collateral\");\n    // make sure collateral is not in another token\n    require(usersBalance[user].tokenCollateralised == address(0) || (usersBalance[user].tokenCollateralised == tokenId && usersBalance[user].tokenDeposited == tokenId), \"Collateral already in another token or collateral token != deposit token\");\n    // make sure subtracting amount from deposits does not make the total deposited less than total borrow\n    require(tokensCoreData[tokenId].totalDeposited - amount > tokensCoreData[tokenId].totalBorrowed, \"Cannot decrease deposits if it results in overborrowings\");\n\n    usersBalance[user].depositedAmount -= amount;\n    if(usersBalance[user].tokenCollateralised != tokenId){\n      usersBalance[user].tokenCollateralised = tokenId;\n    }\n    tokensCoreData[tokenId].totalCollateral +=amount; // increase reserves collateral\n    tokensCoreData[tokenId].totalDeposited -=amount; // decrease reserves deposits\n    updateUtilisationRate(tokenId);\n    usersBalance[user].collateralAmount += amount;\n  }\n\n}\n",
  "sourcePath": "/Users/ioanaroceanu/Documents/Project/contracts/LiquidityPool.sol",
  "compiler": {
    "name": "solc",
    "version": "0.6.2+commit.bacdbe57.Emscripten.clang"
  },
  "schemaVersion": "3.3.2",
  "updatedAt": "2020-12-20T13:38:16.207Z",
  "networkType": "ethereum",
  "devdoc": {
    "methods": {}
  },
  "userdoc": {
    "methods": {}
  }
}