{
  "contractName": "LiquidityPool",
  "abi": [
    {
      "inputs": [
        {
          "internalType": "address",
          "name": "ivar_add",
          "type": "address"
        },
        {
          "internalType": "address",
          "name": "exchange_add",
          "type": "address"
        }
      ],
      "stateMutability": "nonpayable",
      "type": "constructor"
    },
    {
      "anonymous": false,
      "inputs": [
        {
          "indexed": false,
          "internalType": "address",
          "name": "user",
          "type": "address"
        },
        {
          "indexed": false,
          "internalType": "uint256",
          "name": "timestamp",
          "type": "uint256"
        }
      ],
      "name": "Loan",
      "type": "event"
    },
    {
      "inputs": [
        {
          "internalType": "address",
          "name": "",
          "type": "address"
        }
      ],
      "name": "teokensData",
      "outputs": [
        {
          "internalType": "uint256",
          "name": "price",
          "type": "uint256"
        },
        {
          "internalType": "string",
          "name": "symbol",
          "type": "string"
        },
        {
          "internalType": "uint256",
          "name": "utilisation",
          "type": "uint256"
        },
        {
          "internalType": "uint256",
          "name": "collateral_factor",
          "type": "uint256"
        },
        {
          "internalType": "uint256",
          "name": "totalBorrowed",
          "type": "uint256"
        },
        {
          "internalType": "uint256",
          "name": "totalDeposited",
          "type": "uint256"
        },
        {
          "internalType": "uint256",
          "name": "totalCollateral",
          "type": "uint256"
        },
        {
          "internalType": "bool",
          "name": "exchangeable",
          "type": "bool"
        }
      ],
      "stateMutability": "view",
      "type": "function",
      "constant": true
    },
    {
      "inputs": [
        {
          "internalType": "address",
          "name": "",
          "type": "address"
        }
      ],
      "name": "usersBalance",
      "outputs": [
        {
          "internalType": "uint256",
          "name": "depositedAmount",
          "type": "uint256"
        },
        {
          "internalType": "uint256",
          "name": "init_interest_deposit",
          "type": "uint256"
        },
        {
          "internalType": "uint256",
          "name": "cummulated_ir_deposit",
          "type": "uint256"
        },
        {
          "internalType": "address",
          "name": "tokenDeposited",
          "type": "address"
        },
        {
          "internalType": "uint256",
          "name": "collateralAmount",
          "type": "uint256"
        },
        {
          "internalType": "address",
          "name": "tokenCollateralised",
          "type": "address"
        },
        {
          "internalType": "uint256",
          "name": "borrowedAmount",
          "type": "uint256"
        },
        {
          "internalType": "uint256",
          "name": "init_interest_borrow",
          "type": "uint256"
        },
        {
          "internalType": "uint256",
          "name": "cummulated_ir_borrow",
          "type": "uint256"
        },
        {
          "internalType": "address",
          "name": "tokenBorrowed",
          "type": "address"
        }
      ],
      "stateMutability": "view",
      "type": "function",
      "constant": true
    },
    {
      "inputs": [
        {
          "internalType": "string",
          "name": "_symbol",
          "type": "string"
        },
        {
          "internalType": "address",
          "name": "_token_address",
          "type": "address"
        },
        {
          "internalType": "uint256",
          "name": "_optimal_utilisation",
          "type": "uint256"
        },
        {
          "internalType": "uint256",
          "name": "_collateral_factor",
          "type": "uint256"
        },
        {
          "internalType": "uint256",
          "name": "_base_rate",
          "type": "uint256"
        },
        {
          "internalType": "uint256",
          "name": "_slope1",
          "type": "uint256"
        },
        {
          "internalType": "uint256",
          "name": "_slope2",
          "type": "uint256"
        },
        {
          "internalType": "uint256",
          "name": "_spread",
          "type": "uint256"
        },
        {
          "internalType": "uint256",
          "name": "_price",
          "type": "uint256"
        }
      ],
      "name": "createToken",
      "outputs": [],
      "stateMutability": "nonpayable",
      "type": "function"
    },
    {
      "inputs": [
        {
          "internalType": "address",
          "name": "user",
          "type": "address"
        }
      ],
      "name": "tryDiscardLoan",
      "outputs": [
        {
          "internalType": "bool",
          "name": "",
          "type": "bool"
        }
      ],
      "stateMutability": "nonpayable",
      "type": "function"
    },
    {
      "inputs": [
        {
          "internalType": "address",
          "name": "token",
          "type": "address"
        }
      ],
      "name": "updateTokenPrice",
      "outputs": [],
      "stateMutability": "nonpayable",
      "type": "function"
    },
    {
      "inputs": [
        {
          "internalType": "address",
          "name": "token",
          "type": "address"
        }
      ],
      "name": "checkExchangeability",
      "outputs": [],
      "stateMutability": "nonpayable",
      "type": "function"
    },
    {
      "inputs": [
        {
          "internalType": "address",
          "name": "tokenId",
          "type": "address"
        }
      ],
      "name": "getReserveBalance",
      "outputs": [
        {
          "internalType": "uint256",
          "name": "",
          "type": "uint256"
        }
      ],
      "stateMutability": "view",
      "type": "function",
      "constant": true
    },
    {
      "inputs": [
        {
          "internalType": "address payable",
          "name": "user",
          "type": "address"
        },
        {
          "internalType": "uint256",
          "name": "amount",
          "type": "uint256"
        },
        {
          "internalType": "address",
          "name": "tokenId",
          "type": "address"
        }
      ],
      "name": "deposit",
      "outputs": [],
      "stateMutability": "nonpayable",
      "type": "function"
    },
    {
      "inputs": [
        {
          "internalType": "address payable",
          "name": "user",
          "type": "address"
        },
        {
          "internalType": "uint256",
          "name": "amount",
          "type": "uint256"
        },
        {
          "internalType": "address",
          "name": "tokenId",
          "type": "address"
        }
      ],
      "name": "borrow",
      "outputs": [],
      "stateMutability": "nonpayable",
      "type": "function"
    },
    {
      "inputs": [
        {
          "internalType": "address payable",
          "name": "user",
          "type": "address"
        },
        {
          "internalType": "uint256",
          "name": "amount",
          "type": "uint256"
        },
        {
          "internalType": "address",
          "name": "tokenId",
          "type": "address"
        }
      ],
      "name": "depositCollateral",
      "outputs": [],
      "stateMutability": "nonpayable",
      "type": "function"
    },
    {
      "inputs": [
        {
          "internalType": "address payable",
          "name": "user",
          "type": "address"
        },
        {
          "internalType": "uint256",
          "name": "amount",
          "type": "uint256"
        },
        {
          "internalType": "address",
          "name": "tokenId",
          "type": "address"
        }
      ],
      "name": "switchDepositToCollateral",
      "outputs": [],
      "stateMutability": "nonpayable",
      "type": "function"
    },
    {
      "inputs": [
        {
          "internalType": "address payable",
          "name": "user",
          "type": "address"
        },
        {
          "internalType": "uint256",
          "name": "amount",
          "type": "uint256"
        }
      ],
      "name": "repay",
      "outputs": [],
      "stateMutability": "nonpayable",
      "type": "function"
    },
    {
      "inputs": [
        {
          "internalType": "address payable",
          "name": "user",
          "type": "address"
        },
        {
          "internalType": "uint256",
          "name": "amount",
          "type": "uint256"
        }
      ],
      "name": "redeem",
      "outputs": [],
      "stateMutability": "nonpayable",
      "type": "function"
    },
    {
      "inputs": [
        {
          "internalType": "address payable",
          "name": "user",
          "type": "address"
        },
        {
          "internalType": "uint256",
          "name": "amount",
          "type": "uint256"
        }
      ],
      "name": "redeemCollateral",
      "outputs": [],
      "stateMutability": "nonpayable",
      "type": "function"
    },
    {
      "inputs": [
        {
          "internalType": "address",
          "name": "user",
          "type": "address"
        }
      ],
      "name": "getCummulatedInterestDeposit",
      "outputs": [
        {
          "internalType": "uint256",
          "name": "",
          "type": "uint256"
        }
      ],
      "stateMutability": "view",
      "type": "function",
      "constant": true
    },
    {
      "inputs": [
        {
          "internalType": "address",
          "name": "user",
          "type": "address"
        }
      ],
      "name": "getCummulatedInterestLoan",
      "outputs": [
        {
          "internalType": "uint256",
          "name": "",
          "type": "uint256"
        }
      ],
      "stateMutability": "view",
      "type": "function",
      "constant": true
    },
    {
      "inputs": [
        {
          "internalType": "address",
          "name": "user",
          "type": "address"
        }
      ],
      "name": "getHealthFactor",
      "outputs": [
        {
          "internalType": "uint256",
          "name": "",
          "type": "uint256"
        }
      ],
      "stateMutability": "view",
      "type": "function",
      "constant": true
    },
    {
      "inputs": [
        {
          "internalType": "address",
          "name": "user",
          "type": "address"
        }
      ],
      "name": "liquidate",
      "outputs": [],
      "stateMutability": "nonpayable",
      "type": "function"
    }
  ],
  "bytecode": "0x60806040523480156200001157600080fd5b5060405162005fea38038062005fea833981810160405260408110156200003757600080fd5b81019080805190602001909291908051906020019092919050505062000068826200016760201b620050341760201c565b801562000087575062000086816200016760201b620050341760201c565b5b620000de576040517f08c379a000000000000000000000000000000000000000000000000000000000815260040180806020018281038252603581526020018062005fb56035913960400191505060405180910390fd5b816000806101000a81548173ffffffffffffffffffffffffffffffffffffffff021916908373ffffffffffffffffffffffffffffffffffffffff16021790555080600160006101000a81548173ffffffffffffffffffffffffffffffffffffffff021916908373ffffffffffffffffffffffffffffffffffffffff16021790555050506200017a565b600080823b905060008111915050919050565b615e2b806200018a6000396000f3fe608060405234801561001057600080fd5b50600436106101165760003560e01c80636fabd79c116100a2578063a008eeef11610071578063a008eeef1461078c578063c41d9c7e146107e8578063f45346dc14610856578063f9a22a5d146108c4578063fe6bcd7c1461091c57610116565b80636fabd79c146105b05780638f58f508146106a25780638fdceb5b146106e65780639acd81b31461073e57610116565b806322425480116100e9578063224254801461032757806322867d78146103955780632f865568146103e357806358324335146104275780636c665a551461054257610116565b80630f3fb6231461011b57806315226b541461023d5780631e9a69501461029557806321746615146102e3575b600080fd5b61023b600480360361012081101561013257600080fd5b810190808035906020019064010000000081111561014f57600080fd5b82018360208201111561016157600080fd5b8035906020019184600183028401116401000000008311171561018357600080fd5b91908080601f016020809104026020016040519081016040528093929190818152602001838380828437600081840152601f19601f820116905080830192505050505050509192919290803573ffffffffffffffffffffffffffffffffffffffff16906020019092919080359060200190929190803590602001909291908035906020019092919080359060200190929190803590602001909291908035906020019092919080359060200190929190505050610974565b005b61027f6004803603602081101561025357600080fd5b81019080803573ffffffffffffffffffffffffffffffffffffffff169060200190929190505050610c2e565b6040518082815260200191505060405180910390f35b6102e1600480360360408110156102ab57600080fd5b81019080803573ffffffffffffffffffffffffffffffffffffffff16906020019092919080359060200190929190505050610cef565b005b610325600480360360208110156102f957600080fd5b81019080803573ffffffffffffffffffffffffffffffffffffffff16906020019092919050505061137b565b005b6103936004803603606081101561033d57600080fd5b81019080803573ffffffffffffffffffffffffffffffffffffffff16906020019092919080359060200190929190803573ffffffffffffffffffffffffffffffffffffffff1690602001909291905050506114e6565b005b6103e1600480360360408110156103ab57600080fd5b81019080803573ffffffffffffffffffffffffffffffffffffffff16906020019092919080359060200190929190505050611935565b005b610425600480360360208110156103f957600080fd5b81019080803573ffffffffffffffffffffffffffffffffffffffff169060200190929190505050611ed9565b005b6104696004803603602081101561043d57600080fd5b81019080803573ffffffffffffffffffffffffffffffffffffffff169060200190929190505050612624565b604051808b81526020018a81526020018981526020018873ffffffffffffffffffffffffffffffffffffffff1673ffffffffffffffffffffffffffffffffffffffff1681526020018781526020018673ffffffffffffffffffffffffffffffffffffffff1673ffffffffffffffffffffffffffffffffffffffff1681526020018581526020018481526020018381526020018273ffffffffffffffffffffffffffffffffffffffff1673ffffffffffffffffffffffffffffffffffffffff1681526020019a505050505050505050505060405180910390f35b6105ae6004803603606081101561055857600080fd5b81019080803573ffffffffffffffffffffffffffffffffffffffff16906020019092919080359060200190929190803573ffffffffffffffffffffffffffffffffffffffff1690602001909291905050506126d8565b005b6105f2600480360360208110156105c657600080fd5b81019080803573ffffffffffffffffffffffffffffffffffffffff169060200190929190505050612ea6565b604051808981526020018060200188815260200187815260200186815260200185815260200184815260200183151515158152602001828103825289818151815260200191508051906020019080838360005b83811015610660578082015181840152602081019050610645565b50505050905090810190601f16801561068d5780820380516001836020036101000a031916815260200191505b50995050505050505050505060405180910390f35b6106e4600480360360208110156106b857600080fd5b81019080803573ffffffffffffffffffffffffffffffffffffffff169060200190929190505050612f93565b005b610728600480360360208110156106fc57600080fd5b81019080803573ffffffffffffffffffffffffffffffffffffffff1690602001909291905050506130d8565b6040518082815260200191505060405180910390f35b61078a6004803603604081101561075457600080fd5b81019080803573ffffffffffffffffffffffffffffffffffffffff169060200190929190803590602001909291905050506132b7565b005b6107ce600480360360208110156107a257600080fd5b81019080803573ffffffffffffffffffffffffffffffffffffffff16906020019092919050505061376d565b604051808215151515815260200191505060405180910390f35b610854600480360360608110156107fe57600080fd5b81019080803573ffffffffffffffffffffffffffffffffffffffff16906020019092919080359060200190929190803573ffffffffffffffffffffffffffffffffffffffff169060200190929190505050613df1565b005b6108c26004803603606081101561086c57600080fd5b81019080803573ffffffffffffffffffffffffffffffffffffffff16906020019092919080359060200190929190803573ffffffffffffffffffffffffffffffffffffffff1690602001909291905050506146ab565b005b610906600480360360208110156108da57600080fd5b81019080803573ffffffffffffffffffffffffffffffffffffffff169060200190929190505050614c32565b6040518082815260200191505060405180910390f35b61095e6004803603602081101561093257600080fd5b81019080803573ffffffffffffffffffffffffffffffffffffffff169060200190929190505050614e11565b6040518082815260200191505060405180910390f35b61097d88615034565b6109d2576040517f08c379a0000000000000000000000000000000000000000000000000000000008152600401808060200182810382526028815260200180615d006028913960400191505060405180910390fd5b6000809054906101000a900473ffffffffffffffffffffffffffffffffffffffff1673ffffffffffffffffffffffffffffffffffffffff1663402fda408a8a8a8a8a8a8a8a6040518963ffffffff1660e01b815260040180806020018973ffffffffffffffffffffffffffffffffffffffff1673ffffffffffffffffffffffffffffffffffffffff16815260200188815260200187815260200186815260200185815260200184815260200183815260200182810382528a818151815260200191508051906020019080838360005b83811015610abc578082015181840152602081019050610aa1565b50505050905090810190601f168015610ae95780820380516001836020036101000a031916815260200191505b509950505050505050505050600060405180830381600087803b158015610b0f57600080fd5b505af1158015610b23573d6000803e3d6000fd5b505050506040518061010001604052808281526020018a81526020016000815260200187815260200160008152602001600081526020016000815260200160011515815250600360008a73ffffffffffffffffffffffffffffffffffffffff1673ffffffffffffffffffffffffffffffffffffffff168152602001908152602001600020600082015181600001556020820151816001019080519060200190610bcd929190615b18565b5060408201518160020155606082015181600301556080820151816004015560a0820151816005015560c0820151816006015560e08201518160070160006101000a81548160ff021916908315150217905550905050505050505050505050565b60008173ffffffffffffffffffffffffffffffffffffffff166370a08231306040518263ffffffff1660e01b8152600401808273ffffffffffffffffffffffffffffffffffffffff1673ffffffffffffffffffffffffffffffffffffffff16815260200191505060206040518083038186803b158015610cad57600080fd5b505afa158015610cc1573d6000803e3d6000fd5b505050506040513d6020811015610cd757600080fd5b81019080805190602001909291905050509050919050565b6000600460008473ffffffffffffffffffffffffffffffffffffffff1673ffffffffffffffffffffffffffffffffffffffff16815260200190815260200160002060030160009054906101000a900473ffffffffffffffffffffffffffffffffffffffff169050610d5f81612f93565b610d688361376d565b506000610d74846130d8565b905082811015610dcf576040517f08c379a0000000000000000000000000000000000000000000000000000000008152600401808060200182810382526027815260200180615d576027913960400191505060405180910390fd5b6000600460008673ffffffffffffffffffffffffffffffffffffffff1673ffffffffffffffffffffffffffffffffffffffff1681526020019081526020016000206000015490506000849050600080905082861115610e3857829150610e358684615047565b90505b600360008673ffffffffffffffffffffffffffffffffffffffff1673ffffffffffffffffffffffffffffffffffffffff16815260200190815260200160002060040154610ec7600360008873ffffffffffffffffffffffffffffffffffffffff1673ffffffffffffffffffffffffffffffffffffffff1681526020019081526020016000206005015484615047565b1015610f3b576040517f08c379a000000000000000000000000000000000000000000000000000000000815260040180806020018281038252601a8152602001807f44656d616e6420776f756c642065786365656420737570706c7900000000000081525060200191505060405180910390fd5b6000610f4686610c2e565b9050610fdf610f9782600360008a73ffffffffffffffffffffffffffffffffffffffff1673ffffffffffffffffffffffffffffffffffffffff16815260200190815260200160002060050154615047565b600360008973ffffffffffffffffffffffffffffffffffffffff1673ffffffffffffffffffffffffffffffffffffffff16815260200190815260200160002060060154615047565b8210611053576040517f08c379a00000000000000000000000000000000000000000000000000000000081526004018080602001828103825260198152602001807f4e6f7420656e6f7567682065787472612072657365727665730000000000000081525060200191505060405180910390fd5b61109f600460008a73ffffffffffffffffffffffffffffffffffffffff1673ffffffffffffffffffffffffffffffffffffffff1681526020019081526020016000206000015484615047565b600460008a73ffffffffffffffffffffffffffffffffffffffff1673ffffffffffffffffffffffffffffffffffffffff168152602001908152602001600020600001819055506110ef8588615047565b600460008a73ffffffffffffffffffffffffffffffffffffffff1673ffffffffffffffffffffffffffffffffffffffff168152602001908152602001600020600201819055506000809054906101000a900473ffffffffffffffffffffffffffffffffffffffff1673ffffffffffffffffffffffffffffffffffffffff16630f1f7bc9876040518263ffffffff1660e01b8152600401808273ffffffffffffffffffffffffffffffffffffffff1673ffffffffffffffffffffffffffffffffffffffff16815260200191505060206040518083038186803b1580156111d357600080fd5b505afa1580156111e7573d6000803e3d6000fd5b505050506040513d60208110156111fd57600080fd5b8101908080519060200190929190505050600460008a73ffffffffffffffffffffffffffffffffffffffff1673ffffffffffffffffffffffffffffffffffffffff1681526020019081526020016000206001018190555061126186848a6000615091565b8573ffffffffffffffffffffffffffffffffffffffff1663a9059cbb89846040518363ffffffff1660e01b8152600401808373ffffffffffffffffffffffffffffffffffffffff1673ffffffffffffffffffffffffffffffffffffffff16815260200182815260200192505050602060405180830381600087803b1580156112e857600080fd5b505af11580156112fc573d6000803e3d6000fd5b505050506040513d602081101561131257600080fd5b8101908080519060200190929190505050506113718887600360008a73ffffffffffffffffffffffffffffffffffffffff1673ffffffffffffffffffffffffffffffffffffffff1681526020019081526020016000206002015461528a565b5050505050505050565b6000600360008373ffffffffffffffffffffffffffffffffffffffff1673ffffffffffffffffffffffffffffffffffffffff168152602001908152602001600020600001549050600160009054906101000a900473ffffffffffffffffffffffffffffffffffffffff1673ffffffffffffffffffffffffffffffffffffffff166341976e09836040518263ffffffff1660e01b8152600401808273ffffffffffffffffffffffffffffffffffffffff1673ffffffffffffffffffffffffffffffffffffffff16815260200191505060206040518083038186803b15801561146157600080fd5b505afa158015611475573d6000803e3d6000fd5b505050506040513d602081101561148b57600080fd5b8101908080519060200190929190505050600360008473ffffffffffffffffffffffffffffffffffffffff1673ffffffffffffffffffffffffffffffffffffffff168152602001908152602001600020600001819055505050565b600073ffffffffffffffffffffffffffffffffffffffff16600460008573ffffffffffffffffffffffffffffffffffffffff1673ffffffffffffffffffffffffffffffffffffffff16815260200190815260200160002060050160009054906101000a900473ffffffffffffffffffffffffffffffffffffffff1673ffffffffffffffffffffffffffffffffffffffff16148061161057508073ffffffffffffffffffffffffffffffffffffffff16600460008573ffffffffffffffffffffffffffffffffffffffff1673ffffffffffffffffffffffffffffffffffffffff16815260200190815260200160002060050160009054906101000a900473ffffffffffffffffffffffffffffffffffffffff1673ffffffffffffffffffffffffffffffffffffffff16145b611665576040517f08c379a000000000000000000000000000000000000000000000000000000000815260040180806020018281038252602f815260200180615d28602f913960400191505060405180910390fd5b6040518060200160405280600081525080519060200120600360008373ffffffffffffffffffffffffffffffffffffffff1673ffffffffffffffffffffffffffffffffffffffff16815260200190815260200160002060010160405180828054600181600116156101000203166002900480156117195780601f106116f7576101008083540402835291820191611719565b820191906000526020600020905b815481529060010190602001808311611705575b50509150506040518091039020141561179a576040517f08c379a00000000000000000000000000000000000000000000000000000000081526004018080602001828103825260138152602001807f546f6b656e206e6f7420737570706f727465640000000000000000000000000081525060200191505060405180910390fd5b6117a381612f93565b6117ac8361376d565b5060011515600360008373ffffffffffffffffffffffffffffffffffffffff1673ffffffffffffffffffffffffffffffffffffffff16815260200190815260200160002060070160009054906101000a900460ff1615151461180d57611930565b61181c81838560016000615455565b80600460008573ffffffffffffffffffffffffffffffffffffffff1673ffffffffffffffffffffffffffffffffffffffff16815260200190815260200160002060050160006101000a81548173ffffffffffffffffffffffffffffffffffffffff021916908373ffffffffffffffffffffffffffffffffffffffff1602179055506118e9600460008573ffffffffffffffffffffffffffffffffffffffff1673ffffffffffffffffffffffffffffffffffffffff1681526020019081526020016000206004015483615721565b600460008573ffffffffffffffffffffffffffffffffffffffff1673ffffffffffffffffffffffffffffffffffffffff168152602001908152602001600020600401819055505b505050565b6000600460008473ffffffffffffffffffffffffffffffffffffffff1673ffffffffffffffffffffffffffffffffffffffff1681526020019081526020016000206006015414156119d1576040517f08c379a0000000000000000000000000000000000000000000000000000000008152600401808060200182810382526022815260200180615d7e6022913960400191505060405180910390fd5b6000600460008473ffffffffffffffffffffffffffffffffffffffff1673ffffffffffffffffffffffffffffffffffffffff16815260200190815260200160002060090160009054906101000a900473ffffffffffffffffffffffffffffffffffffffff169050611a4181612f93565b611a4a8361376d565b5060011515600360008373ffffffffffffffffffffffffffffffffffffffff1673ffffffffffffffffffffffffffffffffffffffff16815260200190815260200160002060070160009054906101000a900460ff16151514611aac5750611ed5565b6000611ab784614c32565b905082811015611b12576040517f08c379a0000000000000000000000000000000000000000000000000000000008152600401808060200182810382526021815260200180615bf66021913960400191505060405180910390fd5b6000600460008673ffffffffffffffffffffffffffffffffffffffff1673ffffffffffffffffffffffffffffffffffffffff1681526020019081526020016000206006015490506000849050600080905082861115611b7b57829150611b788683615047565b90505b611b8a85838960006001615455565b8473ffffffffffffffffffffffffffffffffffffffff166323b872dd8830846040518463ffffffff1660e01b8152600401808473ffffffffffffffffffffffffffffffffffffffff1673ffffffffffffffffffffffffffffffffffffffff1681526020018373ffffffffffffffffffffffffffffffffffffffff1673ffffffffffffffffffffffffffffffffffffffff1681526020018281526020019350505050602060405180830381600087803b158015611c4557600080fd5b505af1158015611c59573d6000803e3d6000fd5b505050506040513d6020811015611c6f57600080fd5b810190808051906020019092919050505050611ccd600460008973ffffffffffffffffffffffffffffffffffffffff1673ffffffffffffffffffffffffffffffffffffffff1681526020019081526020016000206006015483615047565b600460008973ffffffffffffffffffffffffffffffffffffffff1673ffffffffffffffffffffffffffffffffffffffff16815260200190815260200160002060060181905550611d1d8487615047565b600460008973ffffffffffffffffffffffffffffffffffffffff1673ffffffffffffffffffffffffffffffffffffffff168152602001908152602001600020600801819055506000809054906101000a900473ffffffffffffffffffffffffffffffffffffffff1673ffffffffffffffffffffffffffffffffffffffff1663f609507b866040518263ffffffff1660e01b8152600401808273ffffffffffffffffffffffffffffffffffffffff1673ffffffffffffffffffffffffffffffffffffffff16815260200191505060206040518083038186803b158015611e0157600080fd5b505afa158015611e15573d6000803e3d6000fd5b505050506040513d6020811015611e2b57600080fd5b8101908080519060200190929190505050600460008973ffffffffffffffffffffffffffffffffffffffff1673ffffffffffffffffffffffffffffffffffffffff16815260200190815260200160002060070181905550611ecf8786600360008973ffffffffffffffffffffffffffffffffffffffff1673ffffffffffffffffffffffffffffffffffffffff1681526020019081526020016000206002015461528a565b50505050505b5050565b6000600460008373ffffffffffffffffffffffffffffffffffffffff1673ffffffffffffffffffffffffffffffffffffffff16815260200190815260200160002060050160009054906101000a900473ffffffffffffffffffffffffffffffffffffffff1690506000600460008473ffffffffffffffffffffffffffffffffffffffff1673ffffffffffffffffffffffffffffffffffffffff16815260200190815260200160002060090160009054906101000a900473ffffffffffffffffffffffffffffffffffffffff169050611fb08261137b565b611fb98161137b565b600061209461204c600360008673ffffffffffffffffffffffffffffffffffffffff1673ffffffffffffffffffffffffffffffffffffffff16815260200190815260200160002060030154600360008773ffffffffffffffffffffffffffffffffffffffff1673ffffffffffffffffffffffffffffffffffffffff168152602001908152602001600020600001546157a9565b600460008773ffffffffffffffffffffffffffffffffffffffff1673ffffffffffffffffffffffffffffffffffffffff168152602001908152602001600020600401546157a9565b905060006120a185614c32565b90506120f96120f282600360008773ffffffffffffffffffffffffffffffffffffffff1673ffffffffffffffffffffffffffffffffffffffff168152602001908152602001600020600001546157a9565b60646157a9565b821061216d576040517f08c379a000000000000000000000000000000000000000000000000000000000815260040180806020018281038252601d8152602001807f4c6f616e2068617320612073616665206865616c746820666163746f7200000081525060200191505060405180910390fd5b8273ffffffffffffffffffffffffffffffffffffffff166323b872dd3330846040518463ffffffff1660e01b8152600401808473ffffffffffffffffffffffffffffffffffffffff1673ffffffffffffffffffffffffffffffffffffffff1681526020018373ffffffffffffffffffffffffffffffffffffffff1673ffffffffffffffffffffffffffffffffffffffff1681526020018281526020019350505050602060405180830381600087803b15801561222857600080fd5b505af115801561223c573d6000803e3d6000fd5b505050506040513d602081101561225257600080fd5b81019080805190602001909291905050505060006123116122bf6122b884600360008973ffffffffffffffffffffffffffffffffffffffff1673ffffffffffffffffffffffffffffffffffffffff168152602001908152602001600020600001546157a9565b60696157a9565b61230c600360008973ffffffffffffffffffffffffffffffffffffffff1673ffffffffffffffffffffffffffffffffffffffff1681526020019081526020016000206000015460646157a9565b61582f565b90508473ffffffffffffffffffffffffffffffffffffffff1663a9059cbb33836040518363ffffffff1660e01b8152600401808373ffffffffffffffffffffffffffffffffffffffff1673ffffffffffffffffffffffffffffffffffffffff16815260200182815260200192505050602060405180830381600087803b15801561239a57600080fd5b505af11580156123ae573d6000803e3d6000fd5b505050506040513d60208110156123c457600080fd5b8101908080519060200190929190505050506000600460008873ffffffffffffffffffffffffffffffffffffffff1673ffffffffffffffffffffffffffffffffffffffff168152602001908152602001600020600601819055506000600460008873ffffffffffffffffffffffffffffffffffffffff1673ffffffffffffffffffffffffffffffffffffffff168152602001908152602001600020600801819055506124b2600460008873ffffffffffffffffffffffffffffffffffffffff1673ffffffffffffffffffffffffffffffffffffffff1681526020019081526020016000206004015482615047565b600460008873ffffffffffffffffffffffffffffffffffffffff1673ffffffffffffffffffffffffffffffffffffffff16815260200190815260200160002060040181905550612544600360008673ffffffffffffffffffffffffffffffffffffffff1673ffffffffffffffffffffffffffffffffffffffff1681526020019081526020016000206004015483615047565b600360008673ffffffffffffffffffffffffffffffffffffffff1673ffffffffffffffffffffffffffffffffffffffff168152602001908152602001600020600401819055506125d6600360008773ffffffffffffffffffffffffffffffffffffffff1673ffffffffffffffffffffffffffffffffffffffff1681526020019081526020016000206006015482615047565b600360008773ffffffffffffffffffffffffffffffffffffffff1673ffffffffffffffffffffffffffffffffffffffff16815260200190815260200160002060060181905550505050505050565b60046020528060005260406000206000915090508060000154908060010154908060020154908060030160009054906101000a900473ffffffffffffffffffffffffffffffffffffffff16908060040154908060050160009054906101000a900473ffffffffffffffffffffffffffffffffffffffff16908060060154908060070154908060080154908060090160009054906101000a900473ffffffffffffffffffffffffffffffffffffffff1690508a565b6040518060200160405280600081525080519060200120600360008373ffffffffffffffffffffffffffffffffffffffff1673ffffffffffffffffffffffffffffffffffffffff168152602001908152602001600020600101604051808280546001816001161561010002031660029004801561278c5780601f1061276a57610100808354040283529182019161278c565b820191906000526020600020905b815481529060010190602001808311612778575b50509150506040518091039020141561280d576040517f08c379a00000000000000000000000000000000000000000000000000000000081526004018080602001828103825260168152602001807f546f6b656e20646f6573206e6f742068617665204c500000000000000000000081525060200191505060405180910390fd5b61281681612f93565b61281f8361376d565b5060011515600360008373ffffffffffffffffffffffffffffffffffffffff1673ffffffffffffffffffffffffffffffffffffffff16815260200190815260200160002060070160009054906101000a900460ff1615151461288057612ea1565b6128cc600360008373ffffffffffffffffffffffffffffffffffffffff1673ffffffffffffffffffffffffffffffffffffffff1681526020019081526020016000206004015483615721565b600360008373ffffffffffffffffffffffffffffffffffffffff1673ffffffffffffffffffffffffffffffffffffffff1681526020019081526020016000206005015411612965576040517f08c379a000000000000000000000000000000000000000000000000000000000815260040180806020018281038252602d815260200180615da0602d913960400191505060405180910390fd5b8073ffffffffffffffffffffffffffffffffffffffff16600460008573ffffffffffffffffffffffffffffffffffffffff1673ffffffffffffffffffffffffffffffffffffffff16815260200190815260200160002060090160009054906101000a900473ffffffffffffffffffffffffffffffffffffffff1673ffffffffffffffffffffffffffffffffffffffff161480612a4357506000600460008573ffffffffffffffffffffffffffffffffffffffff1673ffffffffffffffffffffffffffffffffffffffff16815260200190815260200160002060060154145b612a98576040517f08c379a000000000000000000000000000000000000000000000000000000000815260040180806020018281038252602b815260200180615c17602b913960400191505060405180910390fd5b6000600460008573ffffffffffffffffffffffffffffffffffffffff1673ffffffffffffffffffffffffffffffffffffffff16815260200190815260200160002060050160009054906101000a900473ffffffffffffffffffffffffffffffffffffffff1690506000612b4f82600460008873ffffffffffffffffffffffffffffffffffffffff1673ffffffffffffffffffffffffffffffffffffffff168152602001908152602001600020600401548587615879565b90506103e88111612bab576040517f08c379a0000000000000000000000000000000000000000000000000000000008152600401808060200182810382526024815260200180615cdc6024913960400191505060405180910390fd5b82600460008773ffffffffffffffffffffffffffffffffffffffff1673ffffffffffffffffffffffffffffffffffffffff16815260200190815260200160002060090160006101000a81548173ffffffffffffffffffffffffffffffffffffffff021916908373ffffffffffffffffffffffffffffffffffffffff16021790555083600460008773ffffffffffffffffffffffffffffffffffffffff1673ffffffffffffffffffffffffffffffffffffffff1681526020019081526020016000206006018190555083600460008773ffffffffffffffffffffffffffffffffffffffff1673ffffffffffffffffffffffffffffffffffffffff16815260200190815260200160002060080181905550612cc78385876001615091565b612d148584600360008773ffffffffffffffffffffffffffffffffffffffff1673ffffffffffffffffffffffffffffffffffffffff1681526020019081526020016000206002015461528a565b6000809054906101000a900473ffffffffffffffffffffffffffffffffffffffff1673ffffffffffffffffffffffffffffffffffffffff1663f609507b846040518263ffffffff1660e01b8152600401808273ffffffffffffffffffffffffffffffffffffffff1673ffffffffffffffffffffffffffffffffffffffff16815260200191505060206040518083038186803b158015612db257600080fd5b505afa158015612dc6573d6000803e3d6000fd5b505050506040513d6020811015612ddc57600080fd5b8101908080519060200190929190505050600460008773ffffffffffffffffffffffffffffffffffffffff1673ffffffffffffffffffffffffffffffffffffffff168152602001908152602001600020600701819055507f1db23cf53464267c45324569941e81e23d29c48ff9be2b35af2cc0a2681159d68542604051808373ffffffffffffffffffffffffffffffffffffffff1673ffffffffffffffffffffffffffffffffffffffff1681526020018281526020019250505060405180910390a150505b505050565b6003602052806000526040600020600091509050806000015490806001018054600181600116156101000203166002900480601f016020809104026020016040519081016040528092919081815260200182805460018160011615610100020316600290048015612f585780601f10612f2d57610100808354040283529160200191612f58565b820191906000526020600020905b815481529060010190602001808311612f3b57829003601f168201915b5050505050908060020154908060030154908060040154908060050154908060060154908060070160009054906101000a900460ff16905088565b60001515600160009054906101000a900473ffffffffffffffffffffffffffffffffffffffff1673ffffffffffffffffffffffffffffffffffffffff16638bb567b4836040518263ffffffff1660e01b8152600401808273ffffffffffffffffffffffffffffffffffffffff1673ffffffffffffffffffffffffffffffffffffffff16815260200191505060206040518083038186803b15801561303657600080fd5b505afa15801561304a573d6000803e3d6000fd5b505050506040513d602081101561306057600080fd5b8101908080519060200190929190505050151514156130d5576000600360008373ffffffffffffffffffffffffffffffffffffffff1673ffffffffffffffffffffffffffffffffffffffff16815260200190815260200160002060070160006101000a81548160ff0219169083151502179055505b50565b600080600460008473ffffffffffffffffffffffffffffffffffffffff1673ffffffffffffffffffffffffffffffffffffffff16815260200190815260200160002060030160009054906101000a900473ffffffffffffffffffffffffffffffffffffffff1690506132af613267600460008673ffffffffffffffffffffffffffffffffffffffff1673ffffffffffffffffffffffffffffffffffffffff168152602001908152602001600020600201546000809054906101000a900473ffffffffffffffffffffffffffffffffffffffff1673ffffffffffffffffffffffffffffffffffffffff16630f1f7bc9856040518263ffffffff1660e01b8152600401808273ffffffffffffffffffffffffffffffffffffffff1673ffffffffffffffffffffffffffffffffffffffff16815260200191505060206040518083038186803b15801561322757600080fd5b505afa15801561323b573d6000803e3d6000fd5b505050506040513d602081101561325157600080fd5b81019080805190602001909291905050506157a9565b600460008673ffffffffffffffffffffffffffffffffffffffff1673ffffffffffffffffffffffffffffffffffffffff1681526020019081526020016000206001015461582f565b915050919050565b6000600460008473ffffffffffffffffffffffffffffffffffffffff1673ffffffffffffffffffffffffffffffffffffffff16815260200190815260200160002060050160009054906101000a900473ffffffffffffffffffffffffffffffffffffffff1690506000600460008573ffffffffffffffffffffffffffffffffffffffff1673ffffffffffffffffffffffffffffffffffffffff16815260200190815260200160002060090160009054906101000a900473ffffffffffffffffffffffffffffffffffffffff16905061338e82612f93565b61339781612f93565b6133a08461376d565b5060011515600360008373ffffffffffffffffffffffffffffffffffffffff1673ffffffffffffffffffffffffffffffffffffffff16815260200190815260200160002060070160009054906101000a900460ff16151514613403575050613769565b82600460008673ffffffffffffffffffffffffffffffffffffffff1673ffffffffffffffffffffffffffffffffffffffff16815260200190815260200160002060040154101561349e576040517f08c379a0000000000000000000000000000000000000000000000000000000008152600401808060200182810382526031815260200180615cab6031913960400191505060405180910390fd5b60006134a985614c32565b90506000613504846134fd600460008a73ffffffffffffffffffffffffffffffffffffffff1673ffffffffffffffffffffffffffffffffffffffff1681526020019081526020016000206004015488615047565b8585615879565b90506103e8811161357d576040517f08c379a000000000000000000000000000000000000000000000000000000000815260040180806020018281038252601e8152602001807f4865616c746820666163746f7220776f756c6420626520746f6f206c6f77000081525060200191505060405180910390fd5b6135c9600460008873ffffffffffffffffffffffffffffffffffffffff1673ffffffffffffffffffffffffffffffffffffffff1681526020019081526020016000206004015486615047565b600460008873ffffffffffffffffffffffffffffffffffffffff1673ffffffffffffffffffffffffffffffffffffffff1681526020019081526020016000206004018190555061365b600360008673ffffffffffffffffffffffffffffffffffffffff1673ffffffffffffffffffffffffffffffffffffffff1681526020019081526020016000206006015486615047565b600360008673ffffffffffffffffffffffffffffffffffffffff1673ffffffffffffffffffffffffffffffffffffffff168152602001908152602001600020600601819055508373ffffffffffffffffffffffffffffffffffffffff1663a9059cbb87876040518363ffffffff1660e01b8152600401808373ffffffffffffffffffffffffffffffffffffffff1673ffffffffffffffffffffffffffffffffffffffff16815260200182815260200192505050602060405180830381600087803b15801561372857600080fd5b505af115801561373c573d6000803e3d6000fd5b505050506040513d602081101561375257600080fd5b810190808051906020019092919050505050505050505b5050565b600080600460008473ffffffffffffffffffffffffffffffffffffffff1673ffffffffffffffffffffffffffffffffffffffff16815260200190815260200160002060090160009054906101000a900473ffffffffffffffffffffffffffffffffffffffff16905060001515600360008373ffffffffffffffffffffffffffffffffffffffff1673ffffffffffffffffffffffffffffffffffffffff16815260200190815260200160002060070160009054906101000a900460ff1615151480156138655750600073ffffffffffffffffffffffffffffffffffffffff168173ffffffffffffffffffffffffffffffffffffffff1614155b15613de6576138f8600360008373ffffffffffffffffffffffffffffffffffffffff1673ffffffffffffffffffffffffffffffffffffffff16815260200190815260200160002060040154600460008673ffffffffffffffffffffffffffffffffffffffff1673ffffffffffffffffffffffffffffffffffffffff16815260200190815260200160002060060154615047565b600360008373ffffffffffffffffffffffffffffffffffffffff1673ffffffffffffffffffffffffffffffffffffffff168152602001908152602001600020600401819055506000600460008573ffffffffffffffffffffffffffffffffffffffff1673ffffffffffffffffffffffffffffffffffffffff16815260200190815260200160002060050160009054906101000a900473ffffffffffffffffffffffffffffffffffffffff169050613a33600360008373ffffffffffffffffffffffffffffffffffffffff1673ffffffffffffffffffffffffffffffffffffffff16815260200190815260200160002060060154600460008773ffffffffffffffffffffffffffffffffffffffff1673ffffffffffffffffffffffffffffffffffffffff16815260200190815260200160002060040154615047565b600360008373ffffffffffffffffffffffffffffffffffffffff1673ffffffffffffffffffffffffffffffffffffffff16815260200190815260200160002060060181905550604051806101400160405280600460008773ffffffffffffffffffffffffffffffffffffffff1673ffffffffffffffffffffffffffffffffffffffff168152602001908152602001600020600001548152602001600460008773ffffffffffffffffffffffffffffffffffffffff1673ffffffffffffffffffffffffffffffffffffffff168152602001908152602001600020600101548152602001600460008773ffffffffffffffffffffffffffffffffffffffff1673ffffffffffffffffffffffffffffffffffffffff168152602001908152602001600020600201548152602001600460008773ffffffffffffffffffffffffffffffffffffffff1673ffffffffffffffffffffffffffffffffffffffff16815260200190815260200160002060030160009054906101000a900473ffffffffffffffffffffffffffffffffffffffff1673ffffffffffffffffffffffffffffffffffffffff16815260200160008152602001600073ffffffffffffffffffffffffffffffffffffffff168152602001600081526020016000815260200160008152602001600073ffffffffffffffffffffffffffffffffffffffff16815250600460008673ffffffffffffffffffffffffffffffffffffffff1673ffffffffffffffffffffffffffffffffffffffff16815260200190815260200160002060008201518160000155602082015181600101556040820151816002015560608201518160030160006101000a81548173ffffffffffffffffffffffffffffffffffffffff021916908373ffffffffffffffffffffffffffffffffffffffff1602179055506080820151816004015560a08201518160050160006101000a81548173ffffffffffffffffffffffffffffffffffffffff021916908373ffffffffffffffffffffffffffffffffffffffff16021790555060c0820151816006015560e0820151816007015561010082015181600801556101208201518160090160006101000a81548173ffffffffffffffffffffffffffffffffffffffff021916908373ffffffffffffffffffffffffffffffffffffffff160217905550905050613ddb8483600360008673ffffffffffffffffffffffffffffffffffffffff1673ffffffffffffffffffffffffffffffffffffffff1681526020019081526020016000206002015461528a565b600192505050613dec565b60009150505b919050565b6040518060200160405280600081525080519060200120600360008373ffffffffffffffffffffffffffffffffffffffff1673ffffffffffffffffffffffffffffffffffffffff1681526020019081526020016000206001016040518082805460018160011615610100020316600290048015613ea55780601f10613e83576101008083540402835291820191613ea5565b820191906000526020600020905b815481529060010190602001808311613e91575b505091505060405180910390201415613f26576040517f08c379a00000000000000000000000000000000000000000000000000000000081526004018080602001828103825260148152602001807f546f6b656e20646f6573206e6f7420657869737400000000000000000000000081525060200191505060405180910390fd5b613f2f81612f93565b613f388361376d565b5060011515600360008373ffffffffffffffffffffffffffffffffffffffff1673ffffffffffffffffffffffffffffffffffffffff16815260200190815260200160002060070160009054906101000a900460ff16151514613f99576146a6565b81600460008573ffffffffffffffffffffffffffffffffffffffff1673ffffffffffffffffffffffffffffffffffffffff168152602001908152602001600020600001541015614034576040517f08c379a0000000000000000000000000000000000000000000000000000000008152600401808060200182810382526029815260200180615dcd6029913960400191505060405180910390fd5b600073ffffffffffffffffffffffffffffffffffffffff16600460008573ffffffffffffffffffffffffffffffffffffffff1673ffffffffffffffffffffffffffffffffffffffff16815260200190815260200160002060050160009054906101000a900473ffffffffffffffffffffffffffffffffffffffff1673ffffffffffffffffffffffffffffffffffffffff1614806141f757508073ffffffffffffffffffffffffffffffffffffffff16600460008573ffffffffffffffffffffffffffffffffffffffff1673ffffffffffffffffffffffffffffffffffffffff16815260200190815260200160002060050160009054906101000a900473ffffffffffffffffffffffffffffffffffffffff1673ffffffffffffffffffffffffffffffffffffffff161480156141f657508073ffffffffffffffffffffffffffffffffffffffff16600460008573ffffffffffffffffffffffffffffffffffffffff1673ffffffffffffffffffffffffffffffffffffffff16815260200190815260200160002060030160009054906101000a900473ffffffffffffffffffffffffffffffffffffffff1673ffffffffffffffffffffffffffffffffffffffff16145b5b61424c576040517f08c379a0000000000000000000000000000000000000000000000000000000008152600401808060200182810382526048815260200180615c426048913960600191505060405180910390fd5b600360008273ffffffffffffffffffffffffffffffffffffffff1673ffffffffffffffffffffffffffffffffffffffff168152602001908152602001600020600401546142db600360008473ffffffffffffffffffffffffffffffffffffffff1673ffffffffffffffffffffffffffffffffffffffff1681526020019081526020016000206005015484615047565b11614331576040517f08c379a0000000000000000000000000000000000000000000000000000000008152600401808060200182810382526038815260200180615bbe6038913960400191505060405180910390fd5b61437d600460008573ffffffffffffffffffffffffffffffffffffffff1673ffffffffffffffffffffffffffffffffffffffff1681526020019081526020016000206000015483615047565b600460008573ffffffffffffffffffffffffffffffffffffffff1673ffffffffffffffffffffffffffffffffffffffff1681526020019081526020016000206000018190555060006143ce846130d8565b90506143da8184615047565b600460008673ffffffffffffffffffffffffffffffffffffffff1673ffffffffffffffffffffffffffffffffffffffff1681526020019081526020016000206002018190555081600460008673ffffffffffffffffffffffffffffffffffffffff1673ffffffffffffffffffffffffffffffffffffffff16815260200190815260200160002060050160006101000a81548173ffffffffffffffffffffffffffffffffffffffff021916908373ffffffffffffffffffffffffffffffffffffffff1602179055506144ed600360008473ffffffffffffffffffffffffffffffffffffffff1673ffffffffffffffffffffffffffffffffffffffff1681526020019081526020016000206006015484615721565b600360008473ffffffffffffffffffffffffffffffffffffffff1673ffffffffffffffffffffffffffffffffffffffff1681526020019081526020016000206006018190555061457f600360008473ffffffffffffffffffffffffffffffffffffffff1673ffffffffffffffffffffffffffffffffffffffff1681526020019081526020016000206005015484615047565b600360008473ffffffffffffffffffffffffffffffffffffffff1673ffffffffffffffffffffffffffffffffffffffff168152602001908152602001600020600501819055506146128483600360008673ffffffffffffffffffffffffffffffffffffffff1673ffffffffffffffffffffffffffffffffffffffff1681526020019081526020016000206002015461528a565b61465e600460008673ffffffffffffffffffffffffffffffffffffffff1673ffffffffffffffffffffffffffffffffffffffff1681526020019081526020016000206004015484615721565b600460008673ffffffffffffffffffffffffffffffffffffffff1673ffffffffffffffffffffffffffffffffffffffff16815260200190815260200160002060040181905550505b505050565b8073ffffffffffffffffffffffffffffffffffffffff16600460008573ffffffffffffffffffffffffffffffffffffffff1673ffffffffffffffffffffffffffffffffffffffff16815260200190815260200160002060030160009054906101000a900473ffffffffffffffffffffffffffffffffffffffff1673ffffffffffffffffffffffffffffffffffffffff16148061478957506000600460008573ffffffffffffffffffffffffffffffffffffffff1673ffffffffffffffffffffffffffffffffffffffff16815260200190815260200160002060000154145b6147fb576040517f08c379a000000000000000000000000000000000000000000000000000000000815260040180806020018281038252601d8152602001807f4164647265737320616c7265616479206861732061206465706f73697400000081525060200191505060405180910390fd5b6040518060200160405280600081525080519060200120600360008373ffffffffffffffffffffffffffffffffffffffff1673ffffffffffffffffffffffffffffffffffffffff16815260200190815260200160002060010160405180828054600181600116156101000203166002900480156148af5780601f1061488d5761010080835404028352918201916148af565b820191906000526020600020905b81548152906001019060200180831161489b575b505091505060405180910390201415614930576040517f08c379a00000000000000000000000000000000000000000000000000000000081526004018080602001828103825260168152602001807f546f6b656e20646f6573206e6f742068617665204c500000000000000000000081525060200191505060405180910390fd5b61493981612f93565b6149428361376d565b5060011515600360008373ffffffffffffffffffffffffffffffffffffffff1673ffffffffffffffffffffffffffffffffffffffff16815260200190815260200160002060070160009054906101000a900460ff161515146149a357614c2d565b6149b1818385600080615455565b6149fe8382600360008573ffffffffffffffffffffffffffffffffffffffff1673ffffffffffffffffffffffffffffffffffffffff1681526020019081526020016000206002015461528a565b80600460008573ffffffffffffffffffffffffffffffffffffffff1673ffffffffffffffffffffffffffffffffffffffff16815260200190815260200160002060030160006101000a81548173ffffffffffffffffffffffffffffffffffffffff021916908373ffffffffffffffffffffffffffffffffffffffff16021790555081600460008573ffffffffffffffffffffffffffffffffffffffff1673ffffffffffffffffffffffffffffffffffffffff1681526020019081526020016000206000018190555081600460008573ffffffffffffffffffffffffffffffffffffffff1673ffffffffffffffffffffffffffffffffffffffff168152602001908152602001600020600201819055506000809054906101000a900473ffffffffffffffffffffffffffffffffffffffff1673ffffffffffffffffffffffffffffffffffffffff16630f1f7bc9826040518263ffffffff1660e01b8152600401808273ffffffffffffffffffffffffffffffffffffffff1673ffffffffffffffffffffffffffffffffffffffff16815260200191505060206040518083038186803b158015614bab57600080fd5b505afa158015614bbf573d6000803e3d6000fd5b505050506040513d6020811015614bd557600080fd5b8101908080519060200190929190505050600460008573ffffffffffffffffffffffffffffffffffffffff1673ffffffffffffffffffffffffffffffffffffffff168152602001908152602001600020600101819055505b505050565b600080600460008473ffffffffffffffffffffffffffffffffffffffff1673ffffffffffffffffffffffffffffffffffffffff16815260200190815260200160002060090160009054906101000a900473ffffffffffffffffffffffffffffffffffffffff169050614e09614dc1600460008673ffffffffffffffffffffffffffffffffffffffff1673ffffffffffffffffffffffffffffffffffffffff168152602001908152602001600020600801546000809054906101000a900473ffffffffffffffffffffffffffffffffffffffff1673ffffffffffffffffffffffffffffffffffffffff1663f609507b856040518263ffffffff1660e01b8152600401808273ffffffffffffffffffffffffffffffffffffffff1673ffffffffffffffffffffffffffffffffffffffff16815260200191505060206040518083038186803b158015614d8157600080fd5b505afa158015614d95573d6000803e3d6000fd5b505050506040513d6020811015614dab57600080fd5b81019080805190602001909291905050506157a9565b600460008673ffffffffffffffffffffffffffffffffffffffff1673ffffffffffffffffffffffffffffffffffffffff1681526020019081526020016000206007015461582f565b915050919050565b600080600460008473ffffffffffffffffffffffffffffffffffffffff1673ffffffffffffffffffffffffffffffffffffffff16815260200190815260200160002060050160009054906101000a900473ffffffffffffffffffffffffffffffffffffffff1690506000600460008573ffffffffffffffffffffffffffffffffffffffff1673ffffffffffffffffffffffffffffffffffffffff16815260200190815260200160002060090160009054906101000a900473ffffffffffffffffffffffffffffffffffffffff1690506000614fbb614f73600360008673ffffffffffffffffffffffffffffffffffffffff1673ffffffffffffffffffffffffffffffffffffffff16815260200190815260200160002060030154600360008773ffffffffffffffffffffffffffffffffffffffff1673ffffffffffffffffffffffffffffffffffffffff168152602001908152602001600020600001546157a9565b600460008873ffffffffffffffffffffffffffffffffffffffff1673ffffffffffffffffffffffffffffffffffffffff168152602001908152602001600020600401546157a9565b90506000614fc886614c32565b9050615029614fd883600a6157a9565b61502483600360008873ffffffffffffffffffffffffffffffffffffffff1673ffffffffffffffffffffffffffffffffffffffff168152602001908152602001600020600001546157a9565b61582f565b945050505050919050565b600080823b905060008111915050919050565b600061508983836040518060400160405280601e81526020017f536166654d6174683a207375627472616374696f6e206f766572666c6f770000815250615992565b905092915050565b8373ffffffffffffffffffffffffffffffffffffffff1663a9059cbb83856040518363ffffffff1660e01b8152600401808373ffffffffffffffffffffffffffffffffffffffff1673ffffffffffffffffffffffffffffffffffffffff16815260200182815260200192505050602060405180830381600087803b15801561511857600080fd5b505af115801561512c573d6000803e3d6000fd5b505050506040513d602081101561514257600080fd5b81019080805190602001909291905050505080156151f1576151a6600360008673ffffffffffffffffffffffffffffffffffffffff1673ffffffffffffffffffffffffffffffffffffffff1681526020019081526020016000206004015484615721565b600360008673ffffffffffffffffffffffffffffffffffffffff1673ffffffffffffffffffffffffffffffffffffffff16815260200190815260200160002060040181905550615284565b61523d600360008673ffffffffffffffffffffffffffffffffffffffff1673ffffffffffffffffffffffffffffffffffffffff1681526020019081526020016000206005015484615047565b600360008673ffffffffffffffffffffffffffffffffffffffff1673ffffffffffffffffffffffffffffffffffffffff168152602001908152602001600020600501819055505b50505050565b60008060009054906101000a900473ffffffffffffffffffffffffffffffffffffffff1673ffffffffffffffffffffffffffffffffffffffff16633a0c6c2684846040518363ffffffff1660e01b8152600401808373ffffffffffffffffffffffffffffffffffffffff1673ffffffffffffffffffffffffffffffffffffffff16815260200182815260200192505050602060405180830381600087803b15801561533457600080fd5b505af1158015615348573d6000803e3d6000fd5b505050506040513d602081101561535e57600080fd5b810190808051906020019092919050505090506154096153c1600360008673ffffffffffffffffffffffffffffffffffffffff1673ffffffffffffffffffffffffffffffffffffffff1681526020019081526020016000206004015460646157a9565b600360008673ffffffffffffffffffffffffffffffffffffffff1673ffffffffffffffffffffffffffffffffffffffff1681526020019081526020016000206005015461582f565b600360008573ffffffffffffffffffffffffffffffffffffffff1673ffffffffffffffffffffffffffffffffffffffff1681526020019081526020016000206002018190555050505050565b8473ffffffffffffffffffffffffffffffffffffffff166323b872dd8430876040518463ffffffff1660e01b8152600401808473ffffffffffffffffffffffffffffffffffffffff1673ffffffffffffffffffffffffffffffffffffffff1681526020018373ffffffffffffffffffffffffffffffffffffffff1673ffffffffffffffffffffffffffffffffffffffff1681526020018281526020019350505050602060405180830381600087803b15801561551057600080fd5b505af1158015615524573d6000803e3d6000fd5b505050506040513d602081101561553a57600080fd5b81019080805190602001909291905050505081156155e95761559e84600360008873ffffffffffffffffffffffffffffffffffffffff1673ffffffffffffffffffffffffffffffffffffffff16815260200190815260200160002060060154615721565b600360008773ffffffffffffffffffffffffffffffffffffffff1673ffffffffffffffffffffffffffffffffffffffff1681526020019081526020016000206006018190555061571a565b80156156865761563b600360008773ffffffffffffffffffffffffffffffffffffffff1673ffffffffffffffffffffffffffffffffffffffff1681526020019081526020016000206004015485615047565b600360008773ffffffffffffffffffffffffffffffffffffffff1673ffffffffffffffffffffffffffffffffffffffff16815260200190815260200160002060040181905550615719565b6156d2600360008773ffffffffffffffffffffffffffffffffffffffff1673ffffffffffffffffffffffffffffffffffffffff1681526020019081526020016000206005015485615721565b600360008773ffffffffffffffffffffffffffffffffffffffff1673ffffffffffffffffffffffffffffffffffffffff168152602001908152602001600020600501819055505b5b5050505050565b60008082840190508381101561579f576040517f08c379a000000000000000000000000000000000000000000000000000000000815260040180806020018281038252601b8152602001807f536166654d6174683a206164646974696f6e206f766572666c6f77000000000081525060200191505060405180910390fd5b8091505092915050565b6000808314156157bc5760009050615829565b60008284029050828482816157cd57fe5b0414615824576040517f08c379a0000000000000000000000000000000000000000000000000000000008152600401808060200182810382526021815260200180615c8a6021913960400191505060405180910390fd5b809150505b92915050565b600061587183836040518060400160405280601a81526020017f536166654d6174683a206469766973696f6e206279207a65726f000000000000815250615a52565b905092915050565b60006158848561137b565b61588d8361137b565b6000615926615920600360008973ffffffffffffffffffffffffffffffffffffffff1673ffffffffffffffffffffffffffffffffffffffff16815260200190815260200160002060030154600360008a73ffffffffffffffffffffffffffffffffffffffff1673ffffffffffffffffffffffffffffffffffffffff168152602001908152602001600020600001546157a9565b866157a9565b905061598761593682600a6157a9565b61598285600360008973ffffffffffffffffffffffffffffffffffffffff1673ffffffffffffffffffffffffffffffffffffffff168152602001908152602001600020600001546157a9565b61582f565b915050949350505050565b6000838311158290615a3f576040517f08c379a00000000000000000000000000000000000000000000000000000000081526004018080602001828103825283818151815260200191508051906020019080838360005b83811015615a045780820151818401526020810190506159e9565b50505050905090810190601f168015615a315780820380516001836020036101000a031916815260200191505b509250505060405180910390fd5b5060008385039050809150509392505050565b60008083118290615afe576040517f08c379a00000000000000000000000000000000000000000000000000000000081526004018080602001828103825283818151815260200191508051906020019080838360005b83811015615ac3578082015181840152602081019050615aa8565b50505050905090810190601f168015615af05780820380516001836020036101000a031916815260200191505b509250505060405180910390fd5b506000838581615b0a57fe5b049050809150509392505050565b828054600181600116156101000203166002900490600052602060002090601f016020900481019282601f10615b5957805160ff1916838001178555615b87565b82800160010185558215615b87579182015b82811115615b86578251825591602001919060010190615b6b565b5b509050615b949190615b98565b5090565b615bba91905b80821115615bb6576000816000905550600101615b9e565b5090565b9056fe43616e6e6f74206465637265617365206465706f7369747320696620697420726573756c747320696e206f766572626f72726f77696e6773416d6f756e7420726570616964206973206c6172676572207468616e206f7765644164647265737320616c7265616479206861732061206c6f616e20696e20616e6f7468657220746f6b656e436f6c6c61746572616c20616c726561647920696e20616e6f7468657220746f6b656e206f7220636f6c6c61746572616c20746f6b656e20213d206465706f73697420746f6b656e536166654d6174683a206d756c7469706c69636174696f6e206f766572666c6f77476976656e20616d6f756e742067726561746572207468616e20746865206578697374696e6720636f6c6c61746572616c43616e6e6f7420626f72726f77206f76657220636f6c6c61746572616c20666163746f72546f6b656e20636f6e74726163742061646472657373206973206e6f74206120636f6e74726163744164647265737320616c72656164792068617320636f6c6c61746572616c20696e20616e6f7468657220746f6b656e416d6f756e742072656465656d6564206973206c6172676572207468616e2061737369676e65645468657265206973206e6f206c6f616e20746f20726570617920666f72207573657243616e6e6f7420626f72726f7720696620697420726573756c747320696e206f766572626f72726f77696e67734465706f73697420697320302c2063616e6e6f742073776974636820746f20636f6c6c61746572616ca26469706673582212202b1a56ea74b4337b40194e7c480b420a4a5911b0a6318d9a22697b8ba9cfac0064736f6c63430006020033496e746572657374205661726961626c657320636f6e74726163742061646472657373206973206e6f74206120636f6e7472616374",
  "source": "// SPDX-License-Identifier: MIT\npragma solidity >=0.4.22 <0.8.0;\nimport \"./ERC20.sol\";\nimport \"./Address.sol\";\nimport \"./InterestVariables.sol\";\nimport \"./Exchange.sol\";\nimport './SafeMath.sol';\n\ncontract LiquidityPool {\n\n  InterestVariables private ivar;\n  Exchange private exchange;\n\n\n  constructor(address ivar_add, address exchange_add) public {\n    require(Address.isContract(ivar_add) && Address.isContract(exchange_add), 'Interest Variables contract address is not a contract');\n    ivar = InterestVariables(ivar_add);\n    exchange = Exchange(exchange_add);\n  }\n\n  address private owner;\n\n  mapping (address => TokenCoreData) public teokensData;\n  mapping (address => UserBalance) public usersBalance;\n\n  struct UserBalance{\n    uint depositedAmount;\n    uint init_interest_deposit;\n    uint cummulated_ir_deposit;\n    address tokenDeposited;\n    uint collateralAmount;\n    address tokenCollateralised;\n    uint borrowedAmount;\n    uint init_interest_borrow;\n    uint cummulated_ir_borrow;\n    address tokenBorrowed;\n  }\n\n  struct TokenCoreData{\n    uint price;\n    string symbol;\n    uint utilisation;\n    uint collateral_factor;\n    uint totalBorrowed;\n    uint totalDeposited;\n    uint totalCollateral;\n    bool exchangeable;\n  }\n\n  modifier onlyOwner() {\n      require(msg.sender == owner, \"Only owner can call transaction (LP)\");\n      _;\n  }\n\n  event Loan(\n    address user,\n    uint timestamp\n  );\n\n\n  // create token with all data\n  function createToken(string memory _symbol,\n    address _token_address,\n    uint _optimal_utilisation,\n    uint _collateral_factor,\n    uint _base_rate,\n    uint _slope1,\n    uint _slope2,\n    uint _spread,\n    uint _price) public{\n      require(Address.isContract(_token_address), 'Token contract address is not a contract');\n      ivar.createToken(_symbol, _token_address, _optimal_utilisation, _collateral_factor, _base_rate, _slope1, _slope2, _spread);\n      teokensData[_token_address] = TokenCoreData(_price, _symbol, 0, _collateral_factor, 0, 0, 0, true);\n  }\n\n  // discards all loan details when borrowed token is NOT exchangable anymore\n  function tryDiscardLoan(address user) public returns (bool){\n    address tokenBorrowed = usersBalance[user].tokenBorrowed;\n    if(teokensData[tokenBorrowed].exchangeable == false && tokenBorrowed != address(0)){\n      // delete from reserves registers\n      teokensData[tokenBorrowed].totalBorrowed = SafeMath.sub(teokensData[tokenBorrowed].totalBorrowed, usersBalance[user].borrowedAmount);\n      address tokenCollateralised = usersBalance[user].tokenCollateralised;\n      teokensData[tokenCollateralised].totalCollateral = SafeMath.sub(teokensData[tokenCollateralised].totalCollateral, usersBalance[user].collateralAmount);\n      // delete user's loan and collateral\n      usersBalance[user] = UserBalance(usersBalance[user].depositedAmount, usersBalance[user].init_interest_deposit, usersBalance[user].cummulated_ir_deposit, usersBalance[user].tokenDeposited, 0, address(0), 0, 0, 0, address(0));\n      // compound interest and update utilisation for the borrowed token\n      updateInterestRate(user, tokenBorrowed, teokensData[tokenBorrowed].utilisation);\n      return true;\n    }\n    return false;\n  }\n\n  // update prices from the exchange\n  function updateTokenPrice(address token) public{\n    uint oldPrice = teokensData[token].price;\n    teokensData[token].price = exchange.getPrice(token);\n  }\n\n  function checkExchangeability(address token) public{\n    if (exchange.isExchangeable(token) == false){\n      teokensData[token].exchangeable = false;\n    }\n  }\n\n\n  // cummulate interest rate for the token\n  function updateInterestRate(address user, address token, uint oldUtilisationRate) internal{\n    bool updated = ivar.compoundIR(token, oldUtilisationRate);\n    // if not updated means that the compounded IR exceeds uint\n    teokensData[token].utilisation = SafeMath.div(SafeMath.mul(teokensData[token].totalBorrowed, 100), teokensData[token].totalDeposited) ;\n  }\n\n  // add to liquidity pool of token\n  function addToReserves(address tokenId, uint amount, address payable user, bool isCollateral, bool isRepayment) internal{\n    ERC20(tokenId).transferFrom(user, address(this), amount);\n    if(isCollateral){\n      teokensData[tokenId].totalCollateral = SafeMath.add(amount, teokensData[tokenId].totalCollateral);\n    }else if(isRepayment){\n      teokensData[tokenId].totalBorrowed = SafeMath.sub(teokensData[tokenId].totalBorrowed, amount);\n    }else{\n      teokensData[tokenId].totalDeposited = SafeMath.add(teokensData[tokenId].totalDeposited, amount);\n    }\n  }\n\n  // take out from liquidity pool of token\n  function takeFromReserves(address tokenId, uint amount, address payable user, bool isLoan) internal{\n    ERC20(tokenId).transfer(user,  amount);\n    if(isLoan){\n      teokensData[tokenId].totalBorrowed = SafeMath.add(teokensData[tokenId].totalBorrowed, amount);\n    }else{ //redeeming\n      teokensData[tokenId].totalDeposited = SafeMath.sub(teokensData[tokenId].totalDeposited, amount);\n    }\n  }\n\n  function getReserveBalance(address tokenId) public view returns(uint){\n    return ERC20(tokenId).balanceOf(address(this));\n  }\n\n  function deposit(address payable user, uint amount, address tokenId) public{\n    //make sure users only have deposits in one token\n    require(usersBalance[user].tokenDeposited == tokenId || usersBalance[user].depositedAmount == 0, \"Address already has a deposit\");\n    //make sure token is supported\n    require(keccak256(bytes(teokensData[tokenId].symbol)) != keccak256(bytes(\"\")), \"Token does not have LP\");\n\n    // make sure token is exchangeable\n    checkExchangeability(tokenId);\n    tryDiscardLoan(user);\n    if(teokensData[tokenId].exchangeable != true){\n      return;\n    }\n\n    addToReserves(tokenId, amount, user, false, false);\n    updateInterestRate(user,tokenId,teokensData[tokenId].utilisation);\n    usersBalance[user].tokenDeposited = tokenId;\n    usersBalance[user].depositedAmount = amount;\n    usersBalance[user].cummulated_ir_deposit = amount;\n    usersBalance[user].init_interest_deposit = ivar.getIRDepositTotalCummulation(tokenId);\n  }\n\n  function borrow(address payable user, uint amount, address tokenId) public{\n    //make sure token is supported\n    require(keccak256(bytes(teokensData[tokenId].symbol)) != keccak256(bytes(\"\")), \"Token does not have LP\");\n\n    // make sure token is exchangeable\n    checkExchangeability(tokenId);\n    tryDiscardLoan(user);\n    if(teokensData[tokenId].exchangeable != true){\n      return;\n    }\n\n    // make sure total borrow plus the amount to be borrowed is less than totalDeposited\n    require(teokensData[tokenId].totalDeposited > SafeMath.add(teokensData[tokenId].totalBorrowed, amount), \"Cannot borrow if it results in overborrowings\");\n    //make sure users only have borrowings in one token\n    require(usersBalance[user].tokenBorrowed == tokenId || usersBalance[user].borrowedAmount == 0, \"Address already has a loan in another token\");\n    // make sure it borrowes less than the collateral _collateral_factor\n    address collateralToken = usersBalance[user].tokenCollateralised;\n    uint healthFactorAfter = getHealthFactorUnsafe(collateralToken, usersBalance[user].collateralAmount, tokenId, amount);\n    require(healthFactorAfter > 1000, \"Cannot borrow over collateral factor\");\n\n    usersBalance[user].tokenBorrowed = tokenId;\n    usersBalance[user].borrowedAmount = amount;\n    usersBalance[user].cummulated_ir_borrow = amount;\n    takeFromReserves(tokenId, amount, user, true);\n    updateInterestRate(user,tokenId,teokensData[tokenId].utilisation);\n    usersBalance[user].init_interest_borrow = ivar.getIRBorrowTotalCummulation(tokenId);\n    emit Loan(user, now);\n  }\n\n  function depositCollateral(address payable user, uint amount, address tokenId) public{\n    //make sure users only have deposits in one token\n    require(usersBalance[user].tokenCollateralised == address(0) || usersBalance[user].tokenCollateralised == tokenId, \"Address already has collateral in another token\");\n    //make sure token is supported\n    require(keccak256(bytes(teokensData[tokenId].symbol)) != keccak256(bytes(\"\")), \"Token not supported\");\n\n    // make sure token is exchangeable\n    checkExchangeability(tokenId);\n    tryDiscardLoan(user);\n    if(teokensData[tokenId].exchangeable != true){\n      return;\n    }\n\n    addToReserves(tokenId, amount, user, true, false);\n    usersBalance[user].tokenCollateralised = tokenId;\n    usersBalance[user].collateralAmount = SafeMath.add(usersBalance[user].collateralAmount, amount);\n  }\n\n  // Currently switch from deposit to collaterall can only be done from the principle depositedAmount\n  // not from the accumulated interest\n  function switchDepositToCollateral(address payable user, uint amount, address tokenId) public{\n    //make sure token is supported\n    require(keccak256(bytes(teokensData[tokenId].symbol)) != keccak256(bytes(\"\")), \"Token does not exist\");\n\n    // make sure token is exchangeable\n    checkExchangeability(tokenId);\n    tryDiscardLoan(user);\n    if(teokensData[tokenId].exchangeable != true){\n      return;\n    }\n\n    // make sure deposited is not zero\n    require(usersBalance[user].depositedAmount >= amount, \"Deposit is 0, cannot switch to collateral\");\n    // make sure collateral is not in another token\n    require(usersBalance[user].tokenCollateralised == address(0) || (usersBalance[user].tokenCollateralised == tokenId && usersBalance[user].tokenDeposited == tokenId), \"Collateral already in another token or collateral token != deposit token\");\n    // make sure subtracting amount from deposits does not make the total deposited less than total borrow\n    require(SafeMath.sub(teokensData[tokenId].totalDeposited,amount) > teokensData[tokenId].totalBorrowed, \"Cannot decrease deposits if it results in overborrowings\");\n\n    usersBalance[user].depositedAmount = SafeMath.sub(usersBalance[user].depositedAmount, amount);\n    uint cummulatedInterest = getCummulatedInterestDeposit(user);\n    usersBalance[user].cummulated_ir_deposit = SafeMath.sub(cummulatedInterest, amount);\n\n    usersBalance[user].tokenCollateralised = tokenId;\n    teokensData[tokenId].totalCollateral = SafeMath.add(teokensData[tokenId].totalCollateral, amount); // increase reserves collateral\n    teokensData[tokenId].totalDeposited = SafeMath.sub(teokensData[tokenId].totalDeposited, amount); // decrease reserves deposits\n    updateInterestRate(user,tokenId,teokensData[tokenId].utilisation);\n    usersBalance[user].collateralAmount = SafeMath.add(usersBalance[user].collateralAmount, amount);\n  }\n\n  function repay(address payable user, uint amount) public{\n    // check if there is something to repay\n    require(usersBalance[user].borrowedAmount != 0, \"There is no loan to repay for user\");\n\n    address token = usersBalance[user].tokenBorrowed;\n\n    // make sure token is exchangeable\n    checkExchangeability(token);\n    tryDiscardLoan(user);\n    if(teokensData[token].exchangeable != true){\n      return;\n    }\n\n    // check if given amount does not exceed the owed amount\n    uint cummulatedInterest = getCummulatedInterestLoan(user); // cummulated amount owed\n    require(cummulatedInterest >= amount, \"Amount repaid is larger than owed\");\n\n    // what is not subtracted from the totalBorrowed of reserves is extra\n    uint borrowedAmount = usersBalance[user].borrowedAmount;\n    uint toPool = amount;\n    uint extra = 0;\n    if(amount > borrowedAmount){\n      toPool = borrowedAmount;\n      extra = SafeMath.sub(amount,toPool);\n    }\n\n    // repay what was borrowed to reserves\n    addToReserves(token, toPool, user,false, true);\n    // give interest payment (extra) to reserves as well\n    ERC20(token).transferFrom(user, address(this), extra);\n\n    // reinitialise initial interest\n    usersBalance[user].borrowedAmount = SafeMath.sub(usersBalance[user].borrowedAmount, toPool);\n    usersBalance[user].cummulated_ir_borrow = SafeMath.sub(cummulatedInterest ,amount);\n    usersBalance[user].init_interest_borrow = ivar.getIRBorrowTotalCummulation(token);\n    // modify utilisation rate and interest\n    updateInterestRate(user, token, teokensData[token].utilisation);\n  }\n\n  function redeem(address payable user, uint amount) public{\n\n    address token = usersBalance[user].tokenDeposited;\n\n    // chack exchageability but do not require token to be exchangable\n    checkExchangeability(token);\n    tryDiscardLoan(user);\n\n    // check if given amount does not exceed the deposit+interest\n    uint cummulatedInterest = getCummulatedInterestDeposit(user); // cummulated amount owed\n    require(cummulatedInterest >= amount, \"Amount redeemed is larger than assigned\");\n\n    // split the amount requested\n    uint depositedAmount = usersBalance[user].depositedAmount;\n    uint fromPool = amount;\n    uint extra = 0;\n    if(amount > depositedAmount){\n      fromPool = depositedAmount;\n      extra = SafeMath.sub(amount, depositedAmount);\n    }\n\n    // check if enough liquidity in reserves\n    require( SafeMath.sub(teokensData[token].totalDeposited, fromPool) >= teokensData[token].totalBorrowed, \"Demand would exceed supply\");\n    // check for extra liquidity obtained from interest rate payments on loans\n    uint reservesBalance = getReserveBalance(token);\n    require(extra < SafeMath.sub(SafeMath.sub(reservesBalance, teokensData[token].totalDeposited),teokensData[token].totalCollateral), \"Not enough extra reserves\");\n\n    // update user's deposit variables\n    usersBalance[user].depositedAmount = SafeMath.sub(usersBalance[user].depositedAmount, fromPool);\n    usersBalance[user].cummulated_ir_deposit = SafeMath.sub(cummulatedInterest, amount);\n    usersBalance[user].init_interest_deposit = ivar.getIRDepositTotalCummulation(token);\n\n    // give from reserves\n    takeFromReserves(token,fromPool,user,false);\n    // transfer extra\n    ERC20(token).transfer(user,extra);\n    // modify utilisation rate and interest\n    updateInterestRate(user, token, teokensData[token].utilisation);\n  }\n\n  function redeemCollateral(address payable user, uint amount) public{\n    // chack exchageability but do not require token to be exchangable\n    address collateralToken = usersBalance[user].tokenCollateralised;\n    address borrowedToken = usersBalance[user].tokenBorrowed;\n    checkExchangeability(collateralToken);\n    checkExchangeability(borrowedToken);\n    tryDiscardLoan(user);\n    if(teokensData[borrowedToken].exchangeable != true){\n      return;\n    }\n\n    // check if there is enough to redeem\n    require(usersBalance[user].collateralAmount >= amount,\"Given amount greater than the existing collateral\");\n    // check if redeeming would not affect the health factor\n    uint cummulatedInterest = getCummulatedInterestLoan(user); // cummulated amount owed\n    uint healthFactorAfter = getHealthFactorUnsafe(collateralToken, SafeMath.sub(usersBalance[user].collateralAmount, amount), borrowedToken, cummulatedInterest);\n    require( healthFactorAfter > 1000, \"Health factor would be too low\");\n    // do changes in user's balances\n    usersBalance[user].collateralAmount = SafeMath.sub(usersBalance[user].collateralAmount, amount);\n    // do changes in reserves data\n    teokensData[collateralToken].totalCollateral = SafeMath.sub(teokensData[collateralToken].totalCollateral, amount);\n    ERC20(collateralToken).transfer(user,amount);\n  }\n\n  // get value of deposit with cummulated interest so far\n  function getCummulatedInterestDeposit(address user) public view returns (uint){\n    // get initial deposit\n    address token = usersBalance[user].tokenDeposited;\n\n    // compute interest since depositing\n    return SafeMath.div(SafeMath.mul(usersBalance[user].cummulated_ir_deposit,ivar.getIRDepositTotalCummulation(token)), usersBalance[user].init_interest_deposit);\n  }\n\n  // get value of deposit with cummulated interest so far\n  function getCummulatedInterestLoan(address user) public view returns (uint){\n    // get initial deposit\n    address token = usersBalance[user].tokenBorrowed;\n    // compute interest since depositing\n    return SafeMath.div(SafeMath.mul(usersBalance[user].cummulated_ir_borrow,ivar.getIRBorrowTotalCummulation(token)), usersBalance[user].init_interest_borrow);\n  }\n\n  // returns health factor *1000\n  function getHealthFactor(address user) public view returns(uint){\n    address collToken = usersBalance[user].tokenCollateralised;\n    address borrToken = usersBalance[user].tokenBorrowed;\n    // maximum y=the user can borrow against their collateral (*100)\n    uint upperLimitLoanUSD100 = SafeMath.mul(SafeMath.mul(teokensData[collToken].collateral_factor, teokensData[collToken].price), usersBalance[user].collateralAmount);\n    uint cummulatedLoan = getCummulatedInterestLoan(user);\n    return SafeMath.div(SafeMath.mul(upperLimitLoanUSD100,10),SafeMath.mul(cummulatedLoan,teokensData[borrToken].price));\n  }\n\n  // returns health factor *1000\n  function getHealthFactorUnsafe(address collToken, uint collAmount, address borrToken, uint owed) internal returns(uint){\n    // maximum y=the user can borrow against their collateral (*100)\n    updateTokenPrice(collToken);\n    updateTokenPrice(borrToken);\n    uint upperLimitLoanUSD100 = SafeMath.mul(SafeMath.mul(teokensData[collToken].collateral_factor, teokensData[collToken].price), collAmount);\n    // how much they owe in USD\n    return SafeMath.div(SafeMath.mul(upperLimitLoanUSD100,10),SafeMath.mul(owed, teokensData[borrToken].price));\n  }\n\n  function liquidate(address user) public{\n    // check if the account has health Factor > 1\n    address collToken = usersBalance[user].tokenCollateralised;\n    address borrToken = usersBalance[user].tokenBorrowed;\n    updateTokenPrice(collToken);\n    updateTokenPrice(borrToken);\n    uint upperLimitLoanUSD100 = SafeMath.mul(SafeMath.mul(teokensData[collToken].collateral_factor, teokensData[collToken].price), usersBalance[user].collateralAmount);\n    uint cummulatedLoan = getCummulatedInterestLoan(user);\n    require(upperLimitLoanUSD100 < SafeMath.mul(SafeMath.mul(cummulatedLoan, teokensData[borrToken].price),100), \"Loan has a safe health factor\");\n\n    // get money from sender (loan)\n    // sender has to give me the amounnt owed\n    ERC20(borrToken).transferFrom(msg.sender, address(this), cummulatedLoan);\n\n    // send to sender (collateral)\n    // sender has to receive the token collateralised correspondend with amount owed*1.05\n    uint toLiquidator = SafeMath.div(SafeMath.mul(SafeMath.mul(cummulatedLoan, teokensData[borrToken].price),105), SafeMath.mul(teokensData[collToken].price, 100));\n    ERC20(collToken).transfer(msg.sender, toLiquidator);\n\n    // modify details\n    usersBalance[user].borrowedAmount = 0;\n    usersBalance[user].cummulated_ir_borrow = 0;\n    usersBalance[user].collateralAmount = SafeMath.sub(usersBalance[user].collateralAmount, toLiquidator);\n    teokensData[borrToken].totalBorrowed = SafeMath.sub(teokensData[borrToken].totalBorrowed, cummulatedLoan);\n    teokensData[collToken].totalCollateral = SafeMath.sub(teokensData[collToken].totalCollateral, toLiquidator);\n  }\n\n\n}\n",
  "sourcePath": "/Users/ioanaroceanu/Documents/Project/contracts/LiquidityPool.sol",
  "compiler": {
    "name": "solc",
    "version": "0.6.2+commit.bacdbe57.Emscripten.clang"
  },
  "schemaVersion": "3.3.2",
  "updatedAt": "2021-02-13T15:36:38.032Z",
  "networkType": "ethereum",
  "devdoc": {
    "methods": {}
  },
  "userdoc": {
    "methods": {}
  }
}